{
  "_format": "hh-sol-artifact-1",
  "contractName": "PriceTable",
  "sourceName": "contracts/PriceTable.sol",
  "abi": [
    {
      "inputs": [
        {
          "internalType": "address",
          "name": "forwarderAddress",
          "type": "address"
        },
        {
          "internalType": "address",
          "name": "itemRegistryAddress",
          "type": "address"
        },
        {
          "internalType": "address",
          "name": "sellerRegistryAddress",
          "type": "address"
        }
      ],
      "stateMutability": "nonpayable",
      "type": "constructor"
    },
    {
      "inputs": [
        {
          "internalType": "address",
          "name": "owner",
          "type": "address"
        }
      ],
      "name": "OwnableInvalidOwner",
      "type": "error"
    },
    {
      "inputs": [
        {
          "internalType": "address",
          "name": "account",
          "type": "address"
        }
      ],
      "name": "OwnableUnauthorizedAccount",
      "type": "error"
    },
    {
      "anonymous": false,
      "inputs": [
        {
          "indexed": true,
          "internalType": "uint32",
          "name": "itemID",
          "type": "uint32"
        },
        {
          "indexed": true,
          "internalType": "uint256",
          "name": "discountedPrice",
          "type": "uint256"
        }
      ],
      "name": "DiscountStarted",
      "type": "event"
    },
    {
      "anonymous": false,
      "inputs": [
        {
          "indexed": true,
          "internalType": "address",
          "name": "token",
          "type": "address"
        },
        {
          "indexed": true,
          "internalType": "uint256",
          "name": "newUsdToToken",
          "type": "uint256"
        },
        {
          "indexed": true,
          "internalType": "uint256",
          "name": "prevUsdToToken",
          "type": "uint256"
        }
      ],
      "name": "ExchangeRateChanged",
      "type": "event"
    },
    {
      "anonymous": false,
      "inputs": [
        {
          "indexed": true,
          "internalType": "uint32",
          "name": "itemID",
          "type": "uint32"
        },
        {
          "indexed": true,
          "internalType": "uint256",
          "name": "newUsdPrice",
          "type": "uint256"
        },
        {
          "indexed": true,
          "internalType": "uint256",
          "name": "prevUsdPrice",
          "type": "uint256"
        }
      ],
      "name": "ItemPriceChanged",
      "type": "event"
    },
    {
      "anonymous": false,
      "inputs": [
        {
          "indexed": true,
          "internalType": "address",
          "name": "previousOwner",
          "type": "address"
        },
        {
          "indexed": true,
          "internalType": "address",
          "name": "newOwner",
          "type": "address"
        }
      ],
      "name": "OwnershipTransferred",
      "type": "event"
    },
    {
      "anonymous": false,
      "inputs": [
        {
          "indexed": true,
          "internalType": "address",
          "name": "token",
          "type": "address"
        },
        {
          "indexed": true,
          "internalType": "uint256",
          "name": "usdToToken_",
          "type": "uint256"
        }
      ],
      "name": "PaymentChannelAdded",
      "type": "event"
    },
    {
      "anonymous": false,
      "inputs": [
        {
          "indexed": true,
          "internalType": "address",
          "name": "token",
          "type": "address"
        },
        {
          "indexed": false,
          "internalType": "bool",
          "name": "isSuccess",
          "type": "bool"
        }
      ],
      "name": "PaymentChannelRemoved",
      "type": "event"
    },
    {
      "inputs": [
        {
          "internalType": "address",
          "name": "token",
          "type": "address"
        },
        {
          "internalType": "uint256",
          "name": "usdToToken_",
          "type": "uint256"
        }
      ],
      "name": "addPaymentChannel",
      "outputs": [],
      "stateMutability": "nonpayable",
      "type": "function"
    },
    {
      "inputs": [
        {
          "internalType": "address",
          "name": "paymentChannel",
          "type": "address"
        },
        {
          "internalType": "uint256",
          "name": "usdToToken_",
          "type": "uint256"
        }
      ],
      "name": "changeExchangeRate",
      "outputs": [],
      "stateMutability": "nonpayable",
      "type": "function"
    },
    {
      "inputs": [
        {
          "internalType": "uint32",
          "name": "itemID",
          "type": "uint32"
        },
        {
          "internalType": "uint256",
          "name": "usdPrice_",
          "type": "uint256"
        }
      ],
      "name": "changeItemPrice",
      "outputs": [],
      "stateMutability": "nonpayable",
      "type": "function"
    },
    {
      "inputs": [
        {
          "internalType": "uint32",
          "name": "itemID",
          "type": "uint32"
        }
      ],
      "name": "getPriceInfoList",
      "outputs": [
        {
          "components": [
            {
              "internalType": "address",
              "name": "token",
              "type": "address"
            },
            {
              "internalType": "uint256",
              "name": "tokenAmount",
              "type": "uint256"
            }
          ],
          "internalType": "struct PriceTable.PriceInfo[]",
          "name": "prices",
          "type": "tuple[]"
        }
      ],
      "stateMutability": "view",
      "type": "function"
    },
    {
      "inputs": [
        {
          "internalType": "uint32",
          "name": "itemID",
          "type": "uint32"
        }
      ],
      "name": "getPriceUsd",
      "outputs": [
        {
          "internalType": "uint256",
          "name": "price",
          "type": "uint256"
        }
      ],
      "stateMutability": "view",
      "type": "function"
    },
    {
      "inputs": [
        {
          "internalType": "uint32",
          "name": "itemID",
          "type": "uint32"
        },
        {
          "internalType": "uint256",
          "name": "usdPrice_",
          "type": "uint256"
        },
        {
          "internalType": "uint16",
          "name": "revenueShare",
          "type": "uint16"
        }
      ],
      "name": "initializeItemPrice",
      "outputs": [
        {
          "internalType": "bool",
          "name": "isSuccess",
          "type": "bool"
        }
      ],
      "stateMutability": "nonpayable",
      "type": "function"
    },
    {
      "inputs": [
        {
          "internalType": "address",
          "name": "forwarder",
          "type": "address"
        }
      ],
      "name": "isTrustedForwarder",
      "outputs": [
        {
          "internalType": "bool",
          "name": "",
          "type": "bool"
        }
      ],
      "stateMutability": "view",
      "type": "function"
    },
    {
      "inputs": [],
      "name": "itemRegistry",
      "outputs": [
        {
          "internalType": "contract ItemRegistry",
          "name": "",
          "type": "address"
        }
      ],
      "stateMutability": "view",
      "type": "function"
    },
    {
      "inputs": [],
      "name": "owner",
      "outputs": [
        {
          "internalType": "address",
          "name": "",
          "type": "address"
        }
      ],
      "stateMutability": "view",
      "type": "function"
    },
    {
      "inputs": [
        {
          "internalType": "uint256",
          "name": "",
          "type": "uint256"
        }
      ],
      "name": "paymentChannels",
      "outputs": [
        {
          "internalType": "address",
          "name": "",
          "type": "address"
        }
      ],
      "stateMutability": "view",
      "type": "function"
    },
    {
      "inputs": [
        {
          "internalType": "uint32",
          "name": "itemID",
          "type": "uint32"
        },
        {
          "internalType": "address",
          "name": "token",
          "type": "address"
        }
      ],
      "name": "priceOfItemIn",
      "outputs": [
        {
          "internalType": "uint256",
          "name": "tokenAmount",
          "type": "uint256"
        }
      ],
      "stateMutability": "view",
      "type": "function"
    },
    {
      "inputs": [
        {
          "internalType": "address",
          "name": "token",
          "type": "address"
        }
      ],
      "name": "removePaymentChannel",
      "outputs": [],
      "stateMutability": "nonpayable",
      "type": "function"
    },
    {
      "inputs": [],
      "name": "renounceOwnership",
      "outputs": [],
      "stateMutability": "nonpayable",
      "type": "function"
    },
    {
      "inputs": [
        {
          "internalType": "uint32",
          "name": "",
          "type": "uint32"
        }
      ],
      "name": "revenueSharing",
      "outputs": [
        {
          "internalType": "uint16",
          "name": "",
          "type": "uint16"
        }
      ],
      "stateMutability": "view",
      "type": "function"
    },
    {
      "inputs": [],
      "name": "sellerRegistry",
      "outputs": [
        {
          "internalType": "contract SellerRegistry",
          "name": "",
          "type": "address"
        }
      ],
      "stateMutability": "view",
      "type": "function"
    },
    {
      "inputs": [
        {
          "internalType": "uint32",
          "name": "itemID",
          "type": "uint32"
        },
        {
          "internalType": "uint256",
          "name": "usdPrice_",
          "type": "uint256"
        },
        {
          "internalType": "uint256",
          "name": "endTime",
          "type": "uint256"
        }
      ],
      "name": "startDiscount",
      "outputs": [],
      "stateMutability": "nonpayable",
      "type": "function"
    },
    {
      "inputs": [
        {
          "internalType": "address",
          "name": "newOwner",
          "type": "address"
        }
      ],
      "name": "transferOwnership",
      "outputs": [],
      "stateMutability": "nonpayable",
      "type": "function"
    },
    {
      "inputs": [],
      "name": "trustedForwarder",
      "outputs": [
        {
          "internalType": "address",
          "name": "",
          "type": "address"
        }
      ],
      "stateMutability": "view",
      "type": "function"
    },
    {
      "inputs": [
        {
          "internalType": "uint32",
          "name": "",
          "type": "uint32"
        }
      ],
      "name": "usdPrice",
      "outputs": [
        {
          "internalType": "uint256",
          "name": "",
          "type": "uint256"
        }
      ],
      "stateMutability": "view",
      "type": "function"
    },
    {
      "inputs": [
        {
          "internalType": "address",
          "name": "",
          "type": "address"
        }
      ],
      "name": "usdToToken",
      "outputs": [
        {
          "internalType": "uint256",
          "name": "",
          "type": "uint256"
        }
      ],
      "stateMutability": "view",
      "type": "function"
    }
  ],
  "bytecode": "0x60a06040523480156200001157600080fd5b50604051620029cf380380620029cf8339818101604052810190620000379190620002b2565b33838082600073ffffffffffffffffffffffffffffffffffffffff168173ffffffffffffffffffffffffffffffffffffffff1603620000b05760006040517f1e4fbdf7000000000000000000000000000000000000000000000000000000008152600401620000a791906200031f565b60405180910390fd5b620000c1816200018460201b60201c565b508073ffffffffffffffffffffffffffffffffffffffff1660808173ffffffffffffffffffffffffffffffffffffffff168152505050505081600460006101000a81548173ffffffffffffffffffffffffffffffffffffffff021916908373ffffffffffffffffffffffffffffffffffffffff16021790555080600560006101000a81548173ffffffffffffffffffffffffffffffffffffffff021916908373ffffffffffffffffffffffffffffffffffffffff1602179055505050506200033c565b60008060009054906101000a900473ffffffffffffffffffffffffffffffffffffffff169050816000806101000a81548173ffffffffffffffffffffffffffffffffffffffff021916908373ffffffffffffffffffffffffffffffffffffffff1602179055508173ffffffffffffffffffffffffffffffffffffffff168173ffffffffffffffffffffffffffffffffffffffff167f8be0079c531659141344cd1fd0a4f28419497f9722a3daafe3b4186f6b6457e060405160405180910390a35050565b600080fd5b600073ffffffffffffffffffffffffffffffffffffffff82169050919050565b60006200027a826200024d565b9050919050565b6200028c816200026d565b81146200029857600080fd5b50565b600081519050620002ac8162000281565b92915050565b600080600060608486031215620002ce57620002cd62000248565b5b6000620002de868287016200029b565b9350506020620002f1868287016200029b565b925050604062000304868287016200029b565b9150509250925092565b62000319816200026d565b82525050565b60006020820190506200033660008301846200030e565b92915050565b608051612677620003586000396000610bbc01526126776000f3fe608060405234801561001057600080fd5b506004361061012c5760003560e01c80637da0a877116100ad578063b77b4c4411610071578063b77b4c441461036b578063bf8a09901461039b578063d0048f10146103b7578063e58b1909146103d3578063f2fde38b146103ef5761012c565b80637da0a877146102b15780638da5cb5b146102cf5780638f67156f146102ed578063957047f61461031d578063b71190661461033b5761012c565b8063572b6c05116100f4578063572b6c05146101f957806358f47db2146102295780636612af201461025957806370c69b0914610289578063715018a6146102a75761012c565b806315dcd788146101315780631760fac91461014d578063185e42d61461016957806323cd9f0114610199578063535943f3146101c9575b600080fd5b61014b600480360381019061014691906118e2565b61040b565b005b61016760048036038101906101629190611980565b61056b565b005b610183600480360381019061017e91906119c0565b610645565b6040516101909190611ae9565b60405180910390f35b6101b360048036038101906101ae9190611b0b565b610881565b6040516101c09190611b5a565b60405180910390f35b6101e360048036038101906101de9190611b75565b610ac7565b6040516101f09190611b5a565b60405180910390f35b610213600480360381019061020e9190611b75565b610adf565b6040516102209190611bbd565b60405180910390f35b610243600480360381019061023e9190611bd8565b610b1e565b6040516102509190611c14565b60405180910390f35b610273600480360381019061026e91906119c0565b610b5d565b6040516102809190611c4c565b60405180910390f35b610291610b7e565b60405161029e9190611cc6565b60405180910390f35b6102af610ba4565b005b6102b9610bb8565b6040516102c69190611c14565b60405180910390f35b6102d7610be0565b6040516102e49190611c14565b60405180910390f35b610307600480360381019061030291906119c0565b610c09565b6040516103149190611b5a565b60405180910390f35b610325610c80565b6040516103329190611d02565b60405180910390f35b61035560048036038101906103509190611d49565b610ca6565b6040516103629190611bbd565b60405180910390f35b610385600480360381019061038091906119c0565b610e6b565b6040516103929190611b5a565b60405180910390f35b6103b560048036038101906103b09190611980565b610e83565b005b6103d160048036038101906103cc9190611d9c565b6110a4565b005b6103ed60048036038101906103e89190611b75565b611264565b005b61040960048036038101906104049190611b75565b6115c6565b005b8161041461164c565b8073ffffffffffffffffffffffffffffffffffffffff16600460009054906101000a900473ffffffffffffffffffffffffffffffffffffffff1673ffffffffffffffffffffffffffffffffffffffff16639479df9c846040518263ffffffff1660e01b81526004016104869190611dfe565b602060405180830381865afa1580156104a3573d6000803e3d6000fd5b505050506040513d601f19601f820116820180604052508101906104c79190611e2e565b73ffffffffffffffffffffffffffffffffffffffff16146104e757600080fd5b6000600360008663ffffffff1663ffffffff16815260200190815260200160002054905083600360008763ffffffff1663ffffffff1681526020019081526020016000208190555080848663ffffffff167f7517aafee3fcd41892bbb7b9c01590c5bd7842789b267de90806b1d74bda22e560405160405180910390a45050505050565b61057361165b565b6000600260008473ffffffffffffffffffffffffffffffffffffffff1673ffffffffffffffffffffffffffffffffffffffff16815260200190815260200160002054905081600260008573ffffffffffffffffffffffffffffffffffffffff1673ffffffffffffffffffffffffffffffffffffffff1681526020019081526020016000208190555080828473ffffffffffffffffffffffffffffffffffffffff167f3e5c4b6b374c805361aaf1d5cb63aa819f107c671982c710e54b8c55b84302f460405160405180910390a4505050565b606081600073ffffffffffffffffffffffffffffffffffffffff16600460009054906101000a900473ffffffffffffffffffffffffffffffffffffffff1673ffffffffffffffffffffffffffffffffffffffff16639479df9c836040518263ffffffff1660e01b81526004016106bb9190611dfe565b602060405180830381865afa1580156106d8573d6000803e3d6000fd5b505050506040513d601f19601f820116820180604052508101906106fc9190611e2e565b73ffffffffffffffffffffffffffffffffffffffff160361071c57600080fd5b60018054905067ffffffffffffffff81111561073b5761073a611e5b565b5b60405190808252806020026020018201604052801561077457816020015b61076161183b565b8152602001906001900390816107595790505b50915060005b82518161ffff16101561087a5760006107d58560018461ffff16815481106107a5576107a4611e8a565b5b9060005260206000200160009054906101000a900473ffffffffffffffffffffffffffffffffffffffff16610881565b9050604051806040016040528060018461ffff16815481106107fa576107f9611e8a565b5b9060005260206000200160009054906101000a900473ffffffffffffffffffffffffffffffffffffffff1673ffffffffffffffffffffffffffffffffffffffff16815260200182815250848361ffff168151811061085b5761085a611e8a565b5b602002602001018190525050808061087290611ee8565b91505061077a565b5050919050565b600082600073ffffffffffffffffffffffffffffffffffffffff16600460009054906101000a900473ffffffffffffffffffffffffffffffffffffffff1673ffffffffffffffffffffffffffffffffffffffff16639479df9c836040518263ffffffff1660e01b81526004016108f79190611dfe565b602060405180830381865afa158015610914573d6000803e3d6000fd5b505050506040513d601f19601f820116820180604052508101906109389190611e2e565b73ffffffffffffffffffffffffffffffffffffffff160361095857600080fd5b6000600260008573ffffffffffffffffffffffffffffffffffffffff1673ffffffffffffffffffffffffffffffffffffffff16815260200190815260200160002054036109da576040517f08c379a00000000000000000000000000000000000000000000000000000000081526004016109d190611f6f565b60405180910390fd5b60006109e585610c09565b905060008473ffffffffffffffffffffffffffffffffffffffff1663313ce5676040518163ffffffff1660e01b8152600401602060405180830381865afa158015610a34573d6000803e3d6000fd5b505050506040513d601f19601f82011682018060405250810190610a589190611fc8565b905080600a610a679190612128565b600260008773ffffffffffffffffffffffffffffffffffffffff1673ffffffffffffffffffffffffffffffffffffffff1681526020019081526020016000205483610ab29190612173565b610abc91906121e4565b935050505092915050565b60026020528060005260406000206000915090505481565b6000610ae9610bb8565b73ffffffffffffffffffffffffffffffffffffffff168273ffffffffffffffffffffffffffffffffffffffff16149050919050565b60018181548110610b2e57600080fd5b906000526020600020016000915054906101000a900473ffffffffffffffffffffffffffffffffffffffff1681565b60086020528060005260406000206000915054906101000a900461ffff1681565b600560009054906101000a900473ffffffffffffffffffffffffffffffffffffffff1681565b610bac61165b565b610bb660006116e2565b565b60007f0000000000000000000000000000000000000000000000000000000000000000905090565b60008060009054906101000a900473ffffffffffffffffffffffffffffffffffffffff16905090565b600042600660008463ffffffff1663ffffffff1681526020019081526020016000205410610c5857600760008363ffffffff1663ffffffff168152602001908152602001600020549050610c7b565b600360008363ffffffff1663ffffffff1681526020019081526020016000205490505b919050565b600460009054906101000a900473ffffffffffffffffffffffffffffffffffffffff1681565b6000600460009054906101000a900473ffffffffffffffffffffffffffffffffffffffff1673ffffffffffffffffffffffffffffffffffffffff163373ffffffffffffffffffffffffffffffffffffffff1614610d38576040517f08c379a0000000000000000000000000000000000000000000000000000000008152600401610d2f90612287565b60405180910390fd5b600073ffffffffffffffffffffffffffffffffffffffff16600460009054906101000a900473ffffffffffffffffffffffffffffffffffffffff1673ffffffffffffffffffffffffffffffffffffffff16639479df9c866040518263ffffffff1660e01b8152600401610dab9190611dfe565b602060405180830381865afa158015610dc8573d6000803e3d6000fd5b505050506040513d601f19601f82011682018060405250810190610dec9190611e2e565b73ffffffffffffffffffffffffffffffffffffffff161415905081600860008663ffffffff1663ffffffff16815260200190815260200160002060006101000a81548161ffff021916908361ffff16021790555082600360008663ffffffff1663ffffffff168152602001908152602001600020819055509392505050565b60036020528060005260406000206000915090505481565b610e8b61165b565b6000600260008473ffffffffffffffffffffffffffffffffffffffff1673ffffffffffffffffffffffffffffffffffffffff1681526020019081526020016000205414610f0d576040517f08c379a0000000000000000000000000000000000000000000000000000000008152600401610f0490612319565b60405180910390fd5b8173ffffffffffffffffffffffffffffffffffffffff1663313ce5676040518163ffffffff1660e01b8152600401602060405180830381865afa925050508015610f7557506040513d601f19601f82011682018060405250810190610f729190611fc8565b60015b610fb4576040517f08c379a0000000000000000000000000000000000000000000000000000000008152600401610fab906123ab565b60405180910390fd5b5080600260008473ffffffffffffffffffffffffffffffffffffffff1673ffffffffffffffffffffffffffffffffffffffff168152602001908152602001600020819055506001829080600181540180825580915050600190039060005260206000200160009091909190916101000a81548173ffffffffffffffffffffffffffffffffffffffff021916908373ffffffffffffffffffffffffffffffffffffffff160217905550808273ffffffffffffffffffffffffffffffffffffffff167f85ff3dd516415a583fbfef26159e9b7218c7663f9e5dad82721701829d83094060405160405180910390a35050565b826110ad61164c565b8073ffffffffffffffffffffffffffffffffffffffff16600460009054906101000a900473ffffffffffffffffffffffffffffffffffffffff1673ffffffffffffffffffffffffffffffffffffffff16639479df9c846040518263ffffffff1660e01b815260040161111f9190611dfe565b602060405180830381865afa15801561113c573d6000803e3d6000fd5b505050506040513d601f19601f820116820180604052508101906111609190611e2e565b73ffffffffffffffffffffffffffffffffffffffff161461118057600080fd5b83600360008763ffffffff1663ffffffff16815260200190815260200160002054116111e1576040517f08c379a00000000000000000000000000000000000000000000000000000000081526004016111d89061243d565b60405180910390fd5b82600660008763ffffffff1663ffffffff1681526020019081526020016000208190555083600760008763ffffffff1663ffffffff16815260200190815260200160002081905550838563ffffffff167f74a0d8c6110f59b56add51e4081d7bea6e276bec12749ce1ef2823b9c8fe230360405160405180910390a35050505050565b61126c61165b565b6000600260008373ffffffffffffffffffffffffffffffffffffffff1673ffffffffffffffffffffffffffffffffffffffff16815260200190815260200160002054036112ee576040517f08c379a00000000000000000000000000000000000000000000000000000000081526004016112e5906124cf565b60405180910390fd5b600260008273ffffffffffffffffffffffffffffffffffffffff1673ffffffffffffffffffffffffffffffffffffffff168152602001908152602001600020600090556000806000600180549050905060005b60018261134e91906124ef565b8161ffff16101561149b578473ffffffffffffffffffffffffffffffffffffffff1660018261ffff168154811061138857611387611e8a565b5b9060005260206000200160009054906101000a900473ffffffffffffffffffffffffffffffffffffffff1673ffffffffffffffffffffffffffffffffffffffff16036113d357600193505b831561148857600180826113e79190612523565b61ffff16815481106113fc576113fb611e8a565b5b9060005260206000200160009054906101000a900473ffffffffffffffffffffffffffffffffffffffff1660018261ffff168154811061143f5761143e611e8a565b5b9060005260206000200160006101000a81548173ffffffffffffffffffffffffffffffffffffffff021916908373ffffffffffffffffffffffffffffffffffffffff1602179055505b808061149390611ee8565b915050611341565b508373ffffffffffffffffffffffffffffffffffffffff16600180836114c191906124ef565b815481106114d2576114d1611e8a565b5b9060005260206000200160009054906101000a900473ffffffffffffffffffffffffffffffffffffffff1673ffffffffffffffffffffffffffffffffffffffff16148061151c5750825b15611572576001808261152f91906124ef565b815481106115405761153f611e8a565b5b9060005260206000200160006101000a81549073ffffffffffffffffffffffffffffffffffffffff0219169055600191505b8373ffffffffffffffffffffffffffffffffffffffff167f093bcb356dca29aabb187c3df761e49eedefc604562902a2d1cf83652addab34836040516115b89190611bbd565b60405180910390a250505050565b6115ce61165b565b600073ffffffffffffffffffffffffffffffffffffffff168173ffffffffffffffffffffffffffffffffffffffff16036116405760006040517f1e4fbdf70000000000000000000000000000000000000000000000000000000081526004016116379190611c14565b60405180910390fd5b611649816116e2565b50565b60006116566117a6565b905090565b61166361164c565b73ffffffffffffffffffffffffffffffffffffffff16611681610be0565b73ffffffffffffffffffffffffffffffffffffffff16146116e0576116a461164c565b6040517f118cdaa70000000000000000000000000000000000000000000000000000000081526004016116d79190611c14565b60405180910390fd5b565b60008060009054906101000a900473ffffffffffffffffffffffffffffffffffffffff169050816000806101000a81548173ffffffffffffffffffffffffffffffffffffffff021916908373ffffffffffffffffffffffffffffffffffffffff1602179055508173ffffffffffffffffffffffffffffffffffffffff168173ffffffffffffffffffffffffffffffffffffffff167f8be0079c531659141344cd1fd0a4f28419497f9722a3daafe3b4186f6b6457e060405160405180910390a35050565b6000806000369050905060006117ba61181b565b90506117c533610adf565b80156117d15750808210155b1561180b5760003682846117e591906124ef565b9080926117f493929190612563565b906117ff91906125e2565b60601c92505050611818565b61181361182a565b925050505b90565b6000611825611832565b905090565b600033905090565b60006014905090565b6040518060400160405280600073ffffffffffffffffffffffffffffffffffffffff168152602001600081525090565b600080fd5b600063ffffffff82169050919050565b61188981611870565b811461189457600080fd5b50565b6000813590506118a681611880565b92915050565b6000819050919050565b6118bf816118ac565b81146118ca57600080fd5b50565b6000813590506118dc816118b6565b92915050565b600080604083850312156118f9576118f861186b565b5b600061190785828601611897565b9250506020611918858286016118cd565b9150509250929050565b600073ffffffffffffffffffffffffffffffffffffffff82169050919050565b600061194d82611922565b9050919050565b61195d81611942565b811461196857600080fd5b50565b60008135905061197a81611954565b92915050565b600080604083850312156119975761199661186b565b5b60006119a58582860161196b565b92505060206119b6858286016118cd565b9150509250929050565b6000602082840312156119d6576119d561186b565b5b60006119e484828501611897565b91505092915050565b600081519050919050565b600082825260208201905092915050565b6000819050602082019050919050565b611a2281611942565b82525050565b611a31816118ac565b82525050565b604082016000820151611a4d6000850182611a19565b506020820151611a606020850182611a28565b50505050565b6000611a728383611a37565b60408301905092915050565b6000602082019050919050565b6000611a96826119ed565b611aa081856119f8565b9350611aab83611a09565b8060005b83811015611adc578151611ac38882611a66565b9750611ace83611a7e565b925050600181019050611aaf565b5085935050505092915050565b60006020820190508181036000830152611b038184611a8b565b905092915050565b60008060408385031215611b2257611b2161186b565b5b6000611b3085828601611897565b9250506020611b418582860161196b565b9150509250929050565b611b54816118ac565b82525050565b6000602082019050611b6f6000830184611b4b565b92915050565b600060208284031215611b8b57611b8a61186b565b5b6000611b998482850161196b565b91505092915050565b60008115159050919050565b611bb781611ba2565b82525050565b6000602082019050611bd26000830184611bae565b92915050565b600060208284031215611bee57611bed61186b565b5b6000611bfc848285016118cd565b91505092915050565b611c0e81611942565b82525050565b6000602082019050611c296000830184611c05565b92915050565b600061ffff82169050919050565b611c4681611c2f565b82525050565b6000602082019050611c616000830184611c3d565b92915050565b6000819050919050565b6000611c8c611c87611c8284611922565b611c67565b611922565b9050919050565b6000611c9e82611c71565b9050919050565b6000611cb082611c93565b9050919050565b611cc081611ca5565b82525050565b6000602082019050611cdb6000830184611cb7565b92915050565b6000611cec82611c93565b9050919050565b611cfc81611ce1565b82525050565b6000602082019050611d176000830184611cf3565b92915050565b611d2681611c2f565b8114611d3157600080fd5b50565b600081359050611d4381611d1d565b92915050565b600080600060608486031215611d6257611d6161186b565b5b6000611d7086828701611897565b9350506020611d81868287016118cd565b9250506040611d9286828701611d34565b9150509250925092565b600080600060608486031215611db557611db461186b565b5b6000611dc386828701611897565b9350506020611dd4868287016118cd565b9250506040611de5868287016118cd565b9150509250925092565b611df881611870565b82525050565b6000602082019050611e136000830184611def565b92915050565b600081519050611e2881611954565b92915050565b600060208284031215611e4457611e4361186b565b5b6000611e5284828501611e19565b91505092915050565b7f4e487b7100000000000000000000000000000000000000000000000000000000600052604160045260246000fd5b7f4e487b7100000000000000000000000000000000000000000000000000000000600052603260045260246000fd5b7f4e487b7100000000000000000000000000000000000000000000000000000000600052601160045260246000fd5b6000611ef382611c2f565b915061ffff8203611f0757611f06611eb9565b5b600182019050919050565b600082825260208201905092915050565b7f4e6f7420612076616c6964207061796d656e74206368616e6e656c0000000000600082015250565b6000611f59601b83611f12565b9150611f6482611f23565b602082019050919050565b60006020820190508181036000830152611f8881611f4c565b9050919050565b600060ff82169050919050565b611fa581611f8f565b8114611fb057600080fd5b50565b600081519050611fc281611f9c565b92915050565b600060208284031215611fde57611fdd61186b565b5b6000611fec84828501611fb3565b91505092915050565b60008160011c9050919050565b6000808291508390505b600185111561204c5780860481111561202857612027611eb9565b5b60018516156120375780820291505b808102905061204585611ff5565b945061200c565b94509492505050565b6000826120655760019050612121565b816120735760009050612121565b81600181146120895760028114612093576120c2565b6001915050612121565b60ff8411156120a5576120a4611eb9565b5b8360020a9150848211156120bc576120bb611eb9565b5b50612121565b5060208310610133831016604e8410600b84101617156120f75782820a9050838111156120f2576120f1611eb9565b5b612121565b6121048484846001612002565b9250905081840481111561211b5761211a611eb9565b5b81810290505b9392505050565b6000612133826118ac565b915061213e83611f8f565b925061216b7fffffffffffffffffffffffffffffffffffffffffffffffffffffffffffffffff8484612055565b905092915050565b600061217e826118ac565b9150612189836118ac565b9250828202612197816118ac565b915082820484148315176121ae576121ad611eb9565b5b5092915050565b7f4e487b7100000000000000000000000000000000000000000000000000000000600052601260045260246000fd5b60006121ef826118ac565b91506121fa836118ac565b92508261220a576122096121b5565b5b828204905092915050565b7f496e697469616c697a6174696f6e206f66204974656d2050726963652063616e60008201527f206f6e6c79206265206d616465206279204974656d5265676973747279000000602082015250565b6000612271603d83611f12565b915061227c82612215565b604082019050919050565b600060208201905081810360008301526122a081612264565b9050919050565b7f5468657265277320616c7265616479206120746f6b656e20636f6e747261637460008201527f2061737369676e65640000000000000000000000000000000000000000000000602082015250565b6000612303602983611f12565b915061230e826122a7565b604082019050919050565b60006020820190508181036000830152612332816122f6565b9050919050565b7f476976656e20746f6b656e20646f65736e277420696d706c656d656e7420646560008201527f63696d616c730000000000000000000000000000000000000000000000000000602082015250565b6000612395602683611f12565b91506123a082612339565b604082019050919050565b600060208201905081810360008301526123c481612388565b9050919050565b7f446973636f756e7465642070726963652073686f756c64206265206c6f77657260008201527f207468616e20746865206f726967696e616c2070726963650000000000000000602082015250565b6000612427603883611f12565b9150612432826123cb565b604082019050919050565b600060208201905081810360008301526124568161241a565b9050919050565b7f54686572652773206e6f20746f6b656e20636f6e74726163742061737369676e60008201527f6564000000000000000000000000000000000000000000000000000000000000602082015250565b60006124b9602283611f12565b91506124c48261245d565b604082019050919050565b600060208201905081810360008301526124e8816124ac565b9050919050565b60006124fa826118ac565b9150612505836118ac565b925082820390508181111561251d5761251c611eb9565b5b92915050565b600061252e82611c2f565b915061253983611c2f565b9250828201905061ffff81111561255357612552611eb9565b5b92915050565b600080fd5b600080fd5b6000808585111561257757612576612559565b5b838611156125885761258761255e565b5b6001850283019150848603905094509492505050565b600082905092915050565b60007fffffffffffffffffffffffffffffffffffffffff00000000000000000000000082169050919050565b600082821b905092915050565b60006125ee838361259e565b826125f981356125a9565b92506014821015612639576126347fffffffffffffffffffffffffffffffffffffffff000000000000000000000000836014036008026125d5565b831692505b50509291505056fea264697066735822122082bab9dd9a6367e7b57e57ca8b07b1006c04f927b81cc0c2c060265ed89d1e0064736f6c63430008150033",
  "linkReferences": {},
  "deployedLinkReferences": {}
}