{
    "_format": "hh-sol-artifact-1",
    "contractName": "ItemRegistry",
    "sourceName": "contracts/ItemRegistry.sol",
    "abi": [
        {
            "inputs": [],
            "stateMutability": "nonpayable",
            "type": "constructor"
        },
        {
            "inputs": [
                {
                    "internalType": "address",
                    "name": "owner",
                    "type": "address"
                }
            ],
            "name": "OwnableInvalidOwner",
            "type": "error"
        },
        {
            "inputs": [
                {
                    "internalType": "address",
                    "name": "account",
                    "type": "address"
                }
            ],
            "name": "OwnableUnauthorizedAccount",
            "type": "error"
        },
        {
            "anonymous": false,
            "inputs": [
                {
                    "indexed": true,
                    "internalType": "bytes32",
                    "name": "itemName",
                    "type": "bytes32"
                },
                {
                    "indexed": true,
                    "internalType": "address",
                    "name": "seller",
                    "type": "address"
                },
                {
                    "indexed": true,
                    "internalType": "uint32",
                    "name": "itemID",
                    "type": "uint32"
                },
                {
                    "indexed": false,
                    "internalType": "uint256",
                    "name": "usdPrice",
                    "type": "uint256"
                },
                {
                    "indexed": false,
                    "internalType": "uint32[]",
                    "name": "shareItemIDs",
                    "type": "uint32[]"
                }
            ],
            "name": "ItemRegistered",
            "type": "event"
        },
        {
            "anonymous": false,
            "inputs": [
                {
                    "indexed": true,
                    "internalType": "uint32",
                    "name": "itemID",
                    "type": "uint32"
                },
                {
                    "indexed": false,
                    "internalType": "uint32[]",
                    "name": "resumed",
                    "type": "uint32[]"
                }
            ],
            "name": "ItemSaleResumed",
            "type": "event"
        },
        {
            "anonymous": false,
            "inputs": [
                {
                    "indexed": true,
                    "internalType": "uint32",
                    "name": "itemID",
                    "type": "uint32"
                },
                {
                    "indexed": false,
                    "internalType": "uint32[]",
                    "name": "suspension",
                    "type": "uint32[]"
                }
            ],
            "name": "ItemSaleSuspended",
            "type": "event"
        },
        {
            "anonymous": false,
            "inputs": [
                {
                    "indexed": true,
                    "internalType": "address",
                    "name": "previousOwner",
                    "type": "address"
                },
                {
                    "indexed": true,
                    "internalType": "address",
                    "name": "newOwner",
                    "type": "address"
                }
            ],
            "name": "OwnershipTransferred",
            "type": "event"
        },
        {
            "inputs": [
                {
                    "internalType": "address",
                    "name": "seller_",
                    "type": "address"
                }
            ],
            "name": "getItemsOfSeller",
            "outputs": [
                {
                    "internalType": "uint32[]",
                    "name": "",
                    "type": "uint32[]"
                }
            ],
            "stateMutability": "view",
            "type": "function"
        },
        {
            "inputs": [
                {
                    "internalType": "uint32",
                    "name": "",
                    "type": "uint32"
                }
            ],
            "name": "isOnSale",
            "outputs": [
                {
                    "internalType": "bool",
                    "name": "",
                    "type": "bool"
                }
            ],
            "stateMutability": "view",
            "type": "function"
        },
        {
            "inputs": [
                {
                    "internalType": "uint32",
                    "name": "",
                    "type": "uint32"
                },
                {
                    "internalType": "uint256",
                    "name": "",
                    "type": "uint256"
                }
            ],
            "name": "itemRevenueSharers",
            "outputs": [
                {
                    "internalType": "uint32",
                    "name": "",
                    "type": "uint32"
                }
            ],
            "stateMutability": "view",
            "type": "function"
        },
        {
            "inputs": [
                {
                    "internalType": "string",
                    "name": "nameToHash",
                    "type": "string"
                }
            ],
            "name": "nameHash",
            "outputs": [
                {
                    "internalType": "bytes32",
                    "name": "hash",
                    "type": "bytes32"
                }
            ],
            "stateMutability": "pure",
            "type": "function"
        },
        {
            "inputs": [
                {
                    "internalType": "uint32",
                    "name": "",
                    "type": "uint32"
                }
            ],
            "name": "numberOfSharers",
            "outputs": [
                {
                    "internalType": "uint8",
                    "name": "",
                    "type": "uint8"
                }
            ],
            "stateMutability": "view",
            "type": "function"
        },
        {
            "inputs": [],
            "name": "owner",
            "outputs": [
                {
                    "internalType": "address",
                    "name": "",
                    "type": "address"
                }
            ],
            "stateMutability": "view",
            "type": "function"
        },
        {
            "inputs": [
                {
                    "internalType": "bytes32",
                    "name": "itemNameHash",
                    "type": "bytes32"
                },
                {
                    "internalType": "address",
                    "name": "seller_",
                    "type": "address"
                },
                {
                    "internalType": "uint32[]",
                    "name": "revenueSharers",
                    "type": "uint32[]"
                },
                {
                    "internalType": "uint256",
                    "name": "usdPrice",
                    "type": "uint256"
                },
                {
                    "internalType": "uint32[]",
                    "name": "shareTerms",
                    "type": "uint32[]"
                },
                {
                    "internalType": "uint16[]",
                    "name": "shares",
                    "type": "uint16[]"
                }
            ],
            "name": "registerItem",
            "outputs": [
                {
                    "internalType": "uint32",
                    "name": "itemID",
                    "type": "uint32"
                },
                {
                    "internalType": "uint32[]",
                    "name": "itemShareIDs",
                    "type": "uint32[]"
                }
            ],
            "stateMutability": "nonpayable",
            "type": "function"
        },
        {
            "inputs": [],
            "name": "renounceOwnership",
            "outputs": [],
            "stateMutability": "nonpayable",
            "type": "function"
        },
        {
            "inputs": [
                {
                    "internalType": "uint32",
                    "name": "itemID",
                    "type": "uint32"
                }
            ],
            "name": "resumeItemSale",
            "outputs": [],
            "stateMutability": "nonpayable",
            "type": "function"
        },
        {
            "inputs": [
                {
                    "internalType": "uint32",
                    "name": "itemID",
                    "type": "uint32"
                },
                {
                    "internalType": "uint8",
                    "name": "index",
                    "type": "uint8"
                }
            ],
            "name": "revenueSharerOfItem",
            "outputs": [
                {
                    "internalType": "uint32",
                    "name": "parent",
                    "type": "uint32"
                }
            ],
            "stateMutability": "view",
            "type": "function"
        },
        {
            "inputs": [
                {
                    "internalType": "uint32",
                    "name": "",
                    "type": "uint32"
                },
                {
                    "internalType": "uint256",
                    "name": "",
                    "type": "uint256"
                }
            ],
            "name": "revenueSharingItems",
            "outputs": [
                {
                    "internalType": "uint32",
                    "name": "",
                    "type": "uint32"
                }
            ],
            "stateMutability": "view",
            "type": "function"
        },
        {
            "inputs": [
                {
                    "internalType": "uint32",
                    "name": "",
                    "type": "uint32"
                }
            ],
            "name": "seller",
            "outputs": [
                {
                    "internalType": "address",
                    "name": "",
                    "type": "address"
                }
            ],
            "stateMutability": "view",
            "type": "function"
        },
        {
            "inputs": [
                {
                    "internalType": "address",
                    "name": "priceTableAddress",
                    "type": "address"
                }
            ],
            "name": "setPriceTable",
            "outputs": [],
            "stateMutability": "nonpayable",
            "type": "function"
        },
        {
            "inputs": [
                {
                    "internalType": "address",
                    "name": "sellerProxy_",
                    "type": "address"
                }
            ],
            "name": "setSellerProxy",
            "outputs": [],
            "stateMutability": "nonpayable",
            "type": "function"
        },
        {
            "inputs": [
                {
                    "internalType": "uint32",
                    "name": "itemID",
                    "type": "uint32"
                }
            ],
            "name": "suspendItemSale",
            "outputs": [],
            "stateMutability": "nonpayable",
            "type": "function"
        },
        {
            "inputs": [
                {
                    "internalType": "uint32",
                    "name": "",
                    "type": "uint32"
                }
            ],
            "name": "timestampRegistered",
            "outputs": [
                {
                    "internalType": "uint256",
                    "name": "",
                    "type": "uint256"
                }
            ],
            "stateMutability": "view",
            "type": "function"
        },
        {
            "inputs": [
                {
                    "internalType": "address",
                    "name": "newOwner",
                    "type": "address"
                }
            ],
            "name": "transferOwnership",
            "outputs": [],
            "stateMutability": "nonpayable",
            "type": "function"
        },
        {
            "inputs": [
                {
                    "internalType": "uint32",
                    "name": "itemID",
                    "type": "uint32"
                },
                {
                    "internalType": "address",
                    "name": "newSeller",
                    "type": "address"
                }
            ],
            "name": "transferSellerRight",
            "outputs": [],
            "stateMutability": "nonpayable",
            "type": "function"
        }
    ],
    "bytecode": "0x60806040523480156200001157600080fd5b5033600073ffffffffffffffffffffffffffffffffffffffff168173ffffffffffffffffffffffffffffffffffffffff1603620000885760006040517f1e4fbdf70000000000000000000000000000000000000000000000000000000081526004016200007f9190620001a9565b60405180910390fd5b6200009981620000a060201b60201c565b50620001c6565b60008060009054906101000a900473ffffffffffffffffffffffffffffffffffffffff169050816000806101000a81548173ffffffffffffffffffffffffffffffffffffffff021916908373ffffffffffffffffffffffffffffffffffffffff1602179055508173ffffffffffffffffffffffffffffffffffffffff168173ffffffffffffffffffffffffffffffffffffffff167f8be0079c531659141344cd1fd0a4f28419497f9722a3daafe3b4186f6b6457e060405160405180910390a35050565b600073ffffffffffffffffffffffffffffffffffffffff82169050919050565b6000620001918262000164565b9050919050565b620001a38162000184565b82525050565b6000602082019050620001c0600083018462000198565b92915050565b612b4880620001d66000396000f3fe608060405234801561001057600080fd5b50600436106101165760003560e01c80639884c1c8116100a2578063cef3c69811610071578063cef3c69814610318578063e8bb0cb014610334578063eebd35e614610350578063f2fde38b14610380578063fdc615401461039c57610116565b80639884c1c814610280578063b1fb0957146102b0578063bdafe05d146102cc578063c0a68a04146102e857610116565b8063715018a6116100e9578063715018a6146101c7578063794707db146101d15780638da5cb5b146102015780638f79678b1461021f5780639479df9c1461025057610116565b806301b8fc751461011b5780632c9ede6b1461014b57806361e400161461016757806368797c4c14610197575b600080fd5b61013560048036038101906101309190611b99565b6103cc565b6040516101429190611c94565b60405180910390f35b61016560048036038101906101609190611ce2565b610793565b005b610181600480360381019061017c9190611d87565b610a5c565b60405161018e9190611ded565b60405180910390f35b6101b160048036038101906101ac9190611e08565b610a8f565b6040516101be9190611e51565b60405180910390f35b6101cf610aaf565b005b6101eb60048036038101906101e69190611ea2565b610ac3565b6040516101f89190611ef1565b60405180910390f35b610209610b0c565b6040516102169190611f1b565b60405180910390f35b6102396004803603810190610234919061200e565b610b35565b6040516102479291906120fd565b60405180910390f35b61026a60048036038101906102659190611e08565b611313565b6040516102779190611f1b565b60405180910390f35b61029a60048036038101906102959190611e08565b611346565b6040516102a7919061213c565b60405180910390f35b6102ca60048036038101906102c59190611b99565b61135e565b005b6102e660048036038101906102e19190611b99565b6113aa565b005b61030260048036038101906102fd9190612183565b6113f6565b60405161030f9190611ef1565b60405180910390f35b610332600480360381019061032d9190611e08565b61145a565b005b61034e60048036038101906103499190611e08565b6114d9565b005b61036a60048036038101906103659190611e08565b611558565b60405161037791906121de565b60405180910390f35b61039a60048036038101906103959190611b99565b611578565b005b6103b660048036038101906103b19190611ea2565b6115fe565b6040516103c39190611ef1565b60405180910390f35b60606000600260008473ffffffffffffffffffffffffffffffffffffffff1673ffffffffffffffffffffffffffffffffffffffff1681526020019081526020016000208054905090506000805b8263ffffffff168163ffffffff161015610543576000600260008773ffffffffffffffffffffffffffffffffffffffff1673ffffffffffffffffffffffffffffffffffffffff1681526020019081526020016000208263ffffffff1681548110610486576104856121f9565b5b90600052602060002090600891828204019190066004029054906101000a900463ffffffff1690508573ffffffffffffffffffffffffffffffffffffffff16600160008363ffffffff1663ffffffff16815260200190815260200160002060009054906101000a900473ffffffffffffffffffffffffffffffffffffffff1673ffffffffffffffffffffffffffffffffffffffff161461052f57828061052b90612257565b9350505b50808061053b90612257565b915050610419565b50600081836105529190612283565b63ffffffff1667ffffffffffffffff811115610571576105706122bb565b5b60405190808252806020026020018201604052801561059f5781602001602082028036833780820191505090505b5090506000805b8463ffffffff168163ffffffff161015610786576000600260008973ffffffffffffffffffffffffffffffffffffffff1673ffffffffffffffffffffffffffffffffffffffff1681526020019081526020016000208263ffffffff1681548110610613576106126121f9565b5b90600052602060002090600891828204019190066004029054906101000a900463ffffffff1690508773ffffffffffffffffffffffffffffffffffffffff16600160008363ffffffff1663ffffffff16815260200190815260200160002060009054906101000a900473ffffffffffffffffffffffffffffffffffffffff1673ffffffffffffffffffffffffffffffffffffffff16146106b35750610773565b600260008973ffffffffffffffffffffffffffffffffffffffff1673ffffffffffffffffffffffffffffffffffffffff1681526020019081526020016000208263ffffffff168154811061070a576107096121f9565b5b90600052602060002090600891828204019190066004029054906101000a900463ffffffff16848463ffffffff1681518110610749576107486121f9565b5b602002602001019063ffffffff16908163ffffffff1681525050828061076e90612257565b935050505b808061077e90612257565b9150506105a6565b5081945050505050919050565b61079b610b0c565b73ffffffffffffffffffffffffffffffffffffffff163373ffffffffffffffffffffffffffffffffffffffff16148061087c5750600073ffffffffffffffffffffffffffffffffffffffff16600b60009054906101000a900473ffffffffffffffffffffffffffffffffffffffff1673ffffffffffffffffffffffffffffffffffffffff161415801561087b5750600b60009054906101000a900473ffffffffffffffffffffffffffffffffffffffff1673ffffffffffffffffffffffffffffffffffffffff163373ffffffffffffffffffffffffffffffffffffffff16145b5b6108bb576040517f08c379a00000000000000000000000000000000000000000000000000000000081526004016108b290612347565b60405180910390fd5b600160008363ffffffff1663ffffffff16815260200190815260200160002060009054906101000a900473ffffffffffffffffffffffffffffffffffffffff1673ffffffffffffffffffffffffffffffffffffffff16610919611647565b73ffffffffffffffffffffffffffffffffffffffff161461096f576040517f08c379a0000000000000000000000000000000000000000000000000000000008152600401610966906123b3565b60405180910390fd5b80600160008463ffffffff1663ffffffff16815260200190815260200160002060006101000a81548173ffffffffffffffffffffffffffffffffffffffff021916908373ffffffffffffffffffffffffffffffffffffffff160217905550600260008273ffffffffffffffffffffffffffffffffffffffff1673ffffffffffffffffffffffffffffffffffffffff1681526020019081526020016000208290806001815401808255809150506001900390600052602060002090600891828204019190066004029091909190916101000a81548163ffffffff021916908363ffffffff1602179055505050565b60008282604051602001610a71929190612412565b60405160208183030381529060405280519060200120905092915050565b60046020528060005260406000206000915054906101000a900460ff1681565b610ab761164f565b610ac160006116d6565b565b60056020528160005260406000208181548110610adf57600080fd5b9060005260206000209060089182820401919006600402915091509054906101000a900463ffffffff1681565b60008060009054906101000a900473ffffffffffffffffffffffffffffffffffffffff16905090565b60006060610b41610b0c565b73ffffffffffffffffffffffffffffffffffffffff163373ffffffffffffffffffffffffffffffffffffffff161480610c225750600073ffffffffffffffffffffffffffffffffffffffff16600b60009054906101000a900473ffffffffffffffffffffffffffffffffffffffff1673ffffffffffffffffffffffffffffffffffffffff1614158015610c215750600b60009054906101000a900473ffffffffffffffffffffffffffffffffffffffff1673ffffffffffffffffffffffffffffffffffffffff163373ffffffffffffffffffffffffffffffffffffffff16145b5b610c61576040517f08c379a0000000000000000000000000000000000000000000000000000000008152600401610c5890612347565b60405180910390fd5b610c8b8b8b604051602001610c7792919061242b565b60405160208183030381529060405261179a565b915089600160008463ffffffff1663ffffffff16815260200190815260200160002060006101000a81548173ffffffffffffffffffffffffffffffffffffffff021916908373ffffffffffffffffffffffffffffffffffffffff1602179055506001600760008463ffffffff1663ffffffff16815260200190815260200160002060006101000a81548160ff021916908315150217905550600260008b73ffffffffffffffffffffffffffffffffffffffff1673ffffffffffffffffffffffffffffffffffffffff1681526020019081526020016000208290806001815401808255809150506001900390600052602060002090600891828204019190066004029091909190916101000a81548163ffffffff021916908363ffffffff1602179055508888600360008563ffffffff1663ffffffff1681526020019081526020016000209190610ddc929190611a5e565b5060005b898990508161ffff161015610e9857600560008b8b8461ffff16818110610e0a57610e096121f9565b5b9050602002016020810190610e1f9190611e08565b63ffffffff1663ffffffff1681526020019081526020016000208390806001815401808255809150506001900390600052602060002090600891828204019190066004029091909190916101000a81548163ffffffff021916908363ffffffff1602179055508080610e9090612462565b915050610de0565b5042600660008463ffffffff1663ffffffff1681526020019081526020016000208190555088889050600460008463ffffffff1663ffffffff16815260200190815260200160002060006101000a81548160ff021916908360ff160217905550600a60009054906101000a900473ffffffffffffffffffffffffffffffffffffffff1673ffffffffffffffffffffffffffffffffffffffff1663b7119066838960006040518463ffffffff1660e01b8152600401610f58939291906124d1565b6020604051808303816000875af1158015610f77573d6000803e3d6000fd5b505050506040513d601f19601f82011682018060405250810190610f9b9190612534565b610fa857610fa7612561565b5b8585905067ffffffffffffffff811115610fc557610fc46122bb565b5b604051908082528060200260200182016040528015610ff35781602001602082028036833780820191505090505b50905060005b868690508161ffff1610156112ac57600087878361ffff16818110611021576110206121f9565b5b90506020020160208101906110369190611e08565b905060006110648583604051602001611050929190612590565b60405160208183030381529060405261179a565b90508c600160008363ffffffff1663ffffffff16815260200190815260200160002060006101000a81548173ffffffffffffffffffffffffffffffffffffffff021916908373ffffffffffffffffffffffffffffffffffffffff1602179055506001600760008363ffffffff1663ffffffff16815260200190815260200160002060006101000a81548160ff021916908315150217905550600260008e73ffffffffffffffffffffffffffffffffffffffff1673ffffffffffffffffffffffffffffffffffffffff1681526020019081526020016000208190806001815401808255809150506001900390600052602060002090600891828204019190066004029091909190916101000a81548163ffffffff021916908363ffffffff160217905550600a60009054906101000a900473ffffffffffffffffffffffffffffffffffffffff1673ffffffffffffffffffffffffffffffffffffffff1663b71190668263ffffffff8a8a8861ffff168181106111e2576111e16121f9565b5b90506020020160208101906111f791906125e5565b6040518463ffffffff1660e01b815260040161121593929190612652565b6020604051808303816000875af1158015611234573d6000803e3d6000fd5b505050506040513d601f19601f820116820180604052508101906112589190612534565b61126557611264612561565b5b80848461ffff168151811061127d5761127c6121f9565b5b602002602001019063ffffffff16908163ffffffff1681525050505080806112a490612462565b915050610ff9565b508163ffffffff168a73ffffffffffffffffffffffffffffffffffffffff168c7fc4fded964a59e6b74a095216478c71b95d15793121f048793487bf7b5c71f0ba8a856040516112fd929190612689565b60405180910390a4995099975050505050505050565b60016020528060005260406000206000915054906101000a900473ffffffffffffffffffffffffffffffffffffffff1681565b60066020528060005260406000206000915090505481565b61136661164f565b80600b60006101000a81548173ffffffffffffffffffffffffffffffffffffffff021916908373ffffffffffffffffffffffffffffffffffffffff16021790555050565b6113b261164f565b80600a60006101000a81548173ffffffffffffffffffffffffffffffffffffffff021916908373ffffffffffffffffffffffffffffffffffffffff16021790555050565b6000600360008463ffffffff1663ffffffff1681526020019081526020016000208260ff168154811061142c5761142b6121f9565b5b90600052602060002090600891828204019190066004029054906101000a900463ffffffff16905092915050565b61146261164f565b600060086000600960008154611477906126b9565b9190508190558152602001908152602001600020905061149782826117fe565b8163ffffffff167f5d5827d08a2154252aeb2169641f3a576cd3bd5f206215da5387963dc5f07371826040516114cd9190612ac7565b60405180910390a25050565b6114e161164f565b6000600860006009600081546114f6906126b9565b91905081905581526020019081526020016000209050611516828261192e565b8163ffffffff167f0b4e9a2b2e24f5320fdec7a8f809964bee7f85431d288a2e211d9c8670a8c6088260405161154c9190612ac7565b60405180910390a25050565b60076020528060005260406000206000915054906101000a900460ff1681565b61158061164f565b600073ffffffffffffffffffffffffffffffffffffffff168173ffffffffffffffffffffffffffffffffffffffff16036115f25760006040517f1e4fbdf70000000000000000000000000000000000000000000000000000000081526004016115e99190611f1b565b60405180910390fd5b6115fb816116d6565b50565b6003602052816000526040600020818154811061161a57600080fd5b9060005260206000209060089182820401919006600402915091509054906101000a900463ffffffff1681565b600033905090565b611657611647565b73ffffffffffffffffffffffffffffffffffffffff16611675610b0c565b73ffffffffffffffffffffffffffffffffffffffff16146116d457611698611647565b6040517f118cdaa70000000000000000000000000000000000000000000000000000000081526004016116cb9190611f1b565b60405180910390fd5b565b60008060009054906101000a900473ffffffffffffffffffffffffffffffffffffffff169050816000806101000a81548173ffffffffffffffffffffffffffffffffffffffff021916908373ffffffffffffffffffffffffffffffffffffffff1602179055508173ffffffffffffffffffffffffffffffffffffffff168173ffffffffffffffffffffffffffffffffffffffff167f8be0079c531659141344cd1fd0a4f28419497f9722a3daafe3b4186f6b6457e060405160405180910390a35050565b6000806301000193905063811c9dc5915060005b83518110156117f7578381815181106117ca576117c96121f9565b5b602001015160f81c60f81b60f81c60ff1683189250818302925080806117ef906126b9565b9150506117ae565b5050919050565b808290806001815401808255809150506001900390600052602060002090600891828204019190066004029091909190916101000a81548163ffffffff021916908363ffffffff1602179055506001600760008463ffffffff1663ffffffff16815260200190815260200160002060006101000a81548160ff02191690831515021790555060005b600560008463ffffffff1663ffffffff168152602001908152602001600020805490508160ff16101561192957611916600560008563ffffffff1663ffffffff1681526020019081526020016000208260ff16815481106118ea576118e96121f9565b5b90600052602060002090600891828204019190066004029054906101000a900463ffffffff16836117fe565b808061192190612ae9565b915050611886565b505050565b808290806001815401808255809150506001900390600052602060002090600891828204019190066004029091909190916101000a81548163ffffffff021916908363ffffffff1602179055506000600760008463ffffffff1663ffffffff16815260200190815260200160002060006101000a81548160ff02191690831515021790555060005b600560008463ffffffff1663ffffffff168152602001908152602001600020805490508160ff161015611a5957611a46600560008563ffffffff1663ffffffff1681526020019081526020016000208260ff1681548110611a1a57611a196121f9565b5b90600052602060002090600891828204019190066004029054906101000a900463ffffffff168361192e565b8080611a5190612ae9565b9150506119b6565b505050565b82805482825590600052602060002090600701600890048101928215611b035791602002820160005b83821115611ad157833563ffffffff1683826101000a81548163ffffffff021916908363ffffffff1602179055509260200192600401602081600301049283019260010302611a87565b8015611b015782816101000a81549063ffffffff0219169055600401602081600301049283019260010302611ad1565b505b509050611b109190611b14565b5090565b5b80821115611b2d576000816000905550600101611b15565b5090565b600080fd5b600080fd5b600073ffffffffffffffffffffffffffffffffffffffff82169050919050565b6000611b6682611b3b565b9050919050565b611b7681611b5b565b8114611b8157600080fd5b50565b600081359050611b9381611b6d565b92915050565b600060208284031215611baf57611bae611b31565b5b6000611bbd84828501611b84565b91505092915050565b600081519050919050565b600082825260208201905092915050565b6000819050602082019050919050565b600063ffffffff82169050919050565b611c0b81611bf2565b82525050565b6000611c1d8383611c02565b60208301905092915050565b6000602082019050919050565b6000611c4182611bc6565b611c4b8185611bd1565b9350611c5683611be2565b8060005b83811015611c87578151611c6e8882611c11565b9750611c7983611c29565b925050600181019050611c5a565b5085935050505092915050565b60006020820190508181036000830152611cae8184611c36565b905092915050565b611cbf81611bf2565b8114611cca57600080fd5b50565b600081359050611cdc81611cb6565b92915050565b60008060408385031215611cf957611cf8611b31565b5b6000611d0785828601611ccd565b9250506020611d1885828601611b84565b9150509250929050565b600080fd5b600080fd5b600080fd5b60008083601f840112611d4757611d46611d22565b5b8235905067ffffffffffffffff811115611d6457611d63611d27565b5b602083019150836001820283011115611d8057611d7f611d2c565b5b9250929050565b60008060208385031215611d9e57611d9d611b31565b5b600083013567ffffffffffffffff811115611dbc57611dbb611b36565b5b611dc885828601611d31565b92509250509250929050565b6000819050919050565b611de781611dd4565b82525050565b6000602082019050611e026000830184611dde565b92915050565b600060208284031215611e1e57611e1d611b31565b5b6000611e2c84828501611ccd565b91505092915050565b600060ff82169050919050565b611e4b81611e35565b82525050565b6000602082019050611e666000830184611e42565b92915050565b6000819050919050565b611e7f81611e6c565b8114611e8a57600080fd5b50565b600081359050611e9c81611e76565b92915050565b60008060408385031215611eb957611eb8611b31565b5b6000611ec785828601611ccd565b9250506020611ed885828601611e8d565b9150509250929050565b611eeb81611bf2565b82525050565b6000602082019050611f066000830184611ee2565b92915050565b611f1581611b5b565b82525050565b6000602082019050611f306000830184611f0c565b92915050565b611f3f81611dd4565b8114611f4a57600080fd5b50565b600081359050611f5c81611f36565b92915050565b60008083601f840112611f7857611f77611d22565b5b8235905067ffffffffffffffff811115611f9557611f94611d27565b5b602083019150836020820283011115611fb157611fb0611d2c565b5b9250929050565b60008083601f840112611fce57611fcd611d22565b5b8235905067ffffffffffffffff811115611feb57611fea611d27565b5b60208301915083602082028301111561200757612006611d2c565b5b9250929050565b600080600080600080600080600060c08a8c0312156120305761202f611b31565b5b600061203e8c828d01611f4d565b995050602061204f8c828d01611b84565b98505060408a013567ffffffffffffffff8111156120705761206f611b36565b5b61207c8c828d01611f62565b9750975050606061208f8c828d01611e8d565b95505060808a013567ffffffffffffffff8111156120b0576120af611b36565b5b6120bc8c828d01611f62565b945094505060a08a013567ffffffffffffffff8111156120df576120de611b36565b5b6120eb8c828d01611fb8565b92509250509295985092959850929598565b60006040820190506121126000830185611ee2565b81810360208301526121248184611c36565b90509392505050565b61213681611e6c565b82525050565b6000602082019050612151600083018461212d565b92915050565b61216081611e35565b811461216b57600080fd5b50565b60008135905061217d81612157565b92915050565b6000806040838503121561219a57612199611b31565b5b60006121a885828601611ccd565b92505060206121b98582860161216e565b9150509250929050565b60008115159050919050565b6121d8816121c3565b82525050565b60006020820190506121f360008301846121cf565b92915050565b7f4e487b7100000000000000000000000000000000000000000000000000000000600052603260045260246000fd5b7f4e487b7100000000000000000000000000000000000000000000000000000000600052601160045260246000fd5b600061226282611bf2565b915063ffffffff820361227857612277612228565b5b600182019050919050565b600061228e82611bf2565b915061229983611bf2565b9250828203905063ffffffff8111156122b5576122b4612228565b5b92915050565b7f4e487b7100000000000000000000000000000000000000000000000000000000600052604160045260246000fd5b600082825260208201905092915050565b7f4e6f74206120726567697374726174696f6e2068616e646c6572000000000000600082015250565b6000612331601a836122ea565b915061233c826122fb565b602082019050919050565b6000602082019050818103600083015261236081612324565b9050919050565b7f4e6f74206974656d2073656c6c65720000000000000000000000000000000000600082015250565b600061239d600f836122ea565b91506123a882612367565b602082019050919050565b600060208201905081810360008301526123cc81612390565b9050919050565b600081905092915050565b82818337600083830152505050565b60006123f983856123d3565b93506124068385846123de565b82840190509392505050565b600061241f8284866123ed565b91508190509392505050565b60006040820190506124406000830185611dde565b61244d6020830184611f0c565b9392505050565b600061ffff82169050919050565b600061246d82612454565b915061ffff820361248157612480612228565b5b600182019050919050565b6000819050919050565b6000819050919050565b60006124bb6124b66124b18461248c565b612496565b612454565b9050919050565b6124cb816124a0565b82525050565b60006060820190506124e66000830186611ee2565b6124f3602083018561212d565b61250060408301846124c2565b949350505050565b612511816121c3565b811461251c57600080fd5b50565b60008151905061252e81612508565b92915050565b60006020828403121561254a57612549611b31565b5b60006125588482850161251f565b91505092915050565b7f4e487b7100000000000000000000000000000000000000000000000000000000600052600160045260246000fd5b60006040820190506125a56000830185611ee2565b6125b26020830184611ee2565b9392505050565b6125c281612454565b81146125cd57600080fd5b50565b6000813590506125df816125b9565b92915050565b6000602082840312156125fb576125fa611b31565b5b6000612609848285016125d0565b91505092915050565b600061262d61262861262384611bf2565b612496565b611e6c565b9050919050565b61263d81612612565b82525050565b61264c81612454565b82525050565b60006060820190506126676000830186611ee2565b6126746020830185612634565b6126816040830184612643565b949350505050565b600060408201905061269e600083018561212d565b81810360208301526126b08184611c36565b90509392505050565b60006126c482611e6c565b91507fffffffffffffffffffffffffffffffffffffffffffffffffffffffffffffffff82036126f6576126f5612228565b5b600182019050919050565b600081549050919050565b60008190508160005260206000209050919050565b60008160001c9050919050565b600063ffffffff82169050919050565b600061275161274c83612721565b61272e565b9050919050565b60008160201c9050919050565b600061277861277383612758565b61272e565b9050919050565b60008160401c9050919050565b600061279f61279a8361277f565b61272e565b9050919050565b60008160601c9050919050565b60006127c66127c1836127a6565b61272e565b9050919050565b60008160801c9050919050565b60006127ed6127e8836127cd565b61272e565b9050919050565b60008160a01c9050919050565b600061281461280f836127f4565b61272e565b9050919050565b60008160c01c9050919050565b600061283b6128368361281b565b61272e565b9050919050565b60008160e01c9050919050565b600061286261285d83612842565b61272e565b9050919050565b600061287482612701565b61287e8185611bd1565b93508361288a8461270c565b6000600115612977575b836001600803820110156129765781546128b6886128b18361273e565b611c02565b6020880197506128ce886128c983612765565b611c02565b6020880197506128e6886128e18361278c565b611c02565b6020880197506128fe886128f9836127b3565b611c02565b60208801975061291688612911836127da565b611c02565b60208801975061292e8861292983612801565b611c02565b6020880197506129468861294183612828565b611c02565b60208801975061295e886129598361284f565b611c02565b60208801975060018301925050600881019050612894565b5b600115612aba578154848210156129a75761299a886129958361273e565b611c02565b6020880197506001820191505b848210156129ce576129c1886129bc83612765565b611c02565b6020880197506001820191505b848210156129f5576129e8886129e38361278c565b611c02565b6020880197506001820191505b84821015612a1c57612a0f88612a0a836127b3565b611c02565b6020880197506001820191505b84821015612a4357612a3688612a31836127da565b611c02565b6020880197506001820191505b84821015612a6a57612a5d88612a5883612801565b611c02565b6020880197506001820191505b84821015612a9157612a8488612a7f83612828565b611c02565b6020880197506001820191505b84821015612ab857612aab88612aa68361284f565b611c02565b6020880197506001820191505b505b8694505050505092915050565b60006020820190508181036000830152612ae18184612869565b905092915050565b6000612af482611e35565b915060ff8203612b0757612b06612228565b5b60018201905091905056fea2646970667358221220ccd485742a8bcb9ebf1b2267e280022f7a6ea0f542dafd925dce286bd9159e6b64736f6c63430008150033",
    "linkReferences": {},
    "deployedLinkReferences": {}
}