{
  "_format": "hh-sol-artifact-1",
  "contractName": "SellerProxy",
  "sourceName": "contracts/SellerProxy.sol",
  "abi": [
    {
      "inputs": [
        {
          "internalType": "address",
          "name": "paymentProcessor",
          "type": "address"
        }
      ],
      "stateMutability": "nonpayable",
      "type": "constructor"
    },
    {
      "inputs": [
        {
          "internalType": "address",
          "name": "owner",
          "type": "address"
        }
      ],
      "name": "OwnableInvalidOwner",
      "type": "error"
    },
    {
      "inputs": [
        {
          "internalType": "address",
          "name": "account",
          "type": "address"
        }
      ],
      "name": "OwnableUnauthorizedAccount",
      "type": "error"
    },
    {
      "anonymous": false,
      "inputs": [
        {
          "indexed": true,
          "internalType": "uint32",
          "name": "itemID",
          "type": "uint32"
        },
        {
          "indexed": true,
          "internalType": "uint32",
          "name": "sellerID",
          "type": "uint32"
        },
        {
          "indexed": false,
          "internalType": "uint32[]",
          "name": "itemShareIDs",
          "type": "uint32[]"
        }
      ],
      "name": "ItemRegistrationDelegated",
      "type": "event"
    },
    {
      "anonymous": false,
      "inputs": [
        {
          "indexed": true,
          "internalType": "address",
          "name": "previousOwner",
          "type": "address"
        },
        {
          "indexed": true,
          "internalType": "address",
          "name": "newOwner",
          "type": "address"
        }
      ],
      "name": "OwnershipTransferred",
      "type": "event"
    },
    {
      "anonymous": false,
      "inputs": [
        {
          "indexed": true,
          "internalType": "address",
          "name": "token",
          "type": "address"
        },
        {
          "indexed": true,
          "internalType": "address",
          "name": "recipient",
          "type": "address"
        },
        {
          "indexed": true,
          "internalType": "uint32",
          "name": "itemID",
          "type": "uint32"
        }
      ],
      "name": "ProfitClaimDelegated",
      "type": "event"
    },
    {
      "anonymous": false,
      "inputs": [
        {
          "indexed": true,
          "internalType": "uint32",
          "name": "sellerID",
          "type": "uint32"
        },
        {
          "indexed": true,
          "internalType": "address",
          "name": "sellerAddress",
          "type": "address"
        },
        {
          "indexed": false,
          "internalType": "uint32[]",
          "name": "items",
          "type": "uint32[]"
        }
      ],
      "name": "SellerRightClaimed",
      "type": "event"
    },
    {
      "inputs": [
        {
          "internalType": "uint32",
          "name": "sellerID",
          "type": "uint32"
        },
        {
          "internalType": "uint32",
          "name": "itemID",
          "type": "uint32"
        },
        {
          "internalType": "uint256",
          "name": "newUsdPrice",
          "type": "uint256"
        }
      ],
      "name": "changeItemPrice",
      "outputs": [],
      "stateMutability": "nonpayable",
      "type": "function"
    },
    {
      "inputs": [
        {
          "internalType": "uint32",
          "name": "sellerID",
          "type": "uint32"
        },
        {
          "internalType": "uint32",
          "name": "itemID",
          "type": "uint32"
        },
        {
          "internalType": "uint16",
          "name": "newSharePermyriad",
          "type": "uint16"
        }
      ],
      "name": "changeRevShare",
      "outputs": [],
      "stateMutability": "nonpayable",
      "type": "function"
    },
    {
      "inputs": [
        {
          "internalType": "uint32",
          "name": "sellerID",
          "type": "uint32"
        },
        {
          "internalType": "uint32",
          "name": "itemID",
          "type": "uint32"
        },
        {
          "internalType": "address",
          "name": "token",
          "type": "address"
        },
        {
          "internalType": "address",
          "name": "recipient",
          "type": "address"
        }
      ],
      "name": "claimProfit",
      "outputs": [],
      "stateMutability": "nonpayable",
      "type": "function"
    },
    {
      "inputs": [
        {
          "internalType": "uint32",
          "name": "sellerID",
          "type": "uint32"
        },
        {
          "internalType": "uint32[]",
          "name": "items",
          "type": "uint32[]"
        },
        {
          "internalType": "address",
          "name": "sellerAddress",
          "type": "address"
        }
      ],
      "name": "claimSellerRight",
      "outputs": [],
      "stateMutability": "nonpayable",
      "type": "function"
    },
    {
      "inputs": [
        {
          "internalType": "uint32",
          "name": "sellerID",
          "type": "uint32"
        }
      ],
      "name": "getItemsOfSeller",
      "outputs": [
        {
          "internalType": "uint32[]",
          "name": "",
          "type": "uint32[]"
        }
      ],
      "stateMutability": "view",
      "type": "function"
    },
    {
      "inputs": [],
      "name": "owner",
      "outputs": [
        {
          "internalType": "address",
          "name": "",
          "type": "address"
        }
      ],
      "stateMutability": "view",
      "type": "function"
    },
    {
      "inputs": [
        {
          "internalType": "bytes32",
          "name": "itemNameHash",
          "type": "bytes32"
        },
        {
          "internalType": "uint32",
          "name": "sellerID",
          "type": "uint32"
        },
        {
          "internalType": "uint32[]",
          "name": "revenueSharers",
          "type": "uint32[]"
        },
        {
          "internalType": "uint256",
          "name": "usdPrice",
          "type": "uint256"
        },
        {
          "internalType": "uint32[]",
          "name": "shareTerms",
          "type": "uint32[]"
        },
        {
          "internalType": "uint16[]",
          "name": "shares",
          "type": "uint16[]"
        }
      ],
      "name": "registerItem",
      "outputs": [],
      "stateMutability": "nonpayable",
      "type": "function"
    },
    {
      "inputs": [],
      "name": "renounceOwnership",
      "outputs": [],
      "stateMutability": "nonpayable",
      "type": "function"
    },
    {
      "inputs": [
        {
          "internalType": "uint32",
          "name": "sellerID",
          "type": "uint32"
        },
        {
          "internalType": "uint32",
          "name": "itemID",
          "type": "uint32"
        },
        {
          "internalType": "uint256",
          "name": "discountPrice",
          "type": "uint256"
        },
        {
          "internalType": "uint256",
          "name": "endTime",
          "type": "uint256"
        }
      ],
      "name": "startDiscount",
      "outputs": [],
      "stateMutability": "nonpayable",
      "type": "function"
    },
    {
      "inputs": [
        {
          "internalType": "uint32",
          "name": "sellerID",
          "type": "uint32"
        },
        {
          "internalType": "uint32",
          "name": "itemID",
          "type": "uint32"
        },
        {
          "internalType": "uint16",
          "name": "reducedShare",
          "type": "uint16"
        },
        {
          "internalType": "uint256",
          "name": "endTime",
          "type": "uint256"
        }
      ],
      "name": "startRevShareReductionEvent",
      "outputs": [],
      "stateMutability": "nonpayable",
      "type": "function"
    },
    {
      "inputs": [
        {
          "internalType": "address",
          "name": "newOwner",
          "type": "address"
        }
      ],
      "name": "transferOwnership",
      "outputs": [],
      "stateMutability": "nonpayable",
      "type": "function"
    }
  ],
  "bytecode": "0x60806040523480156200001157600080fd5b50604051620022f8380380620022f8833981810160405281019062000037919062000410565b33600073ffffffffffffffffffffffffffffffffffffffff168173ffffffffffffffffffffffffffffffffffffffff1603620000ad5760006040517f1e4fbdf7000000000000000000000000000000000000000000000000000000008152600401620000a4919062000453565b60405180910390fd5b620000be81620002e260201b60201c565b5060008190508073ffffffffffffffffffffffffffffffffffffffff1663957047f66040518163ffffffff1660e01b8152600401602060405180830381865afa15801562000110573d6000803e3d6000fd5b505050506040513d601f19601f82011682018060405250810190620001369190620004b5565b600160006101000a81548173ffffffffffffffffffffffffffffffffffffffff021916908373ffffffffffffffffffffffffffffffffffffffff1602179055508073ffffffffffffffffffffffffffffffffffffffff16635ada0c296040518163ffffffff1660e01b8152600401602060405180830381865afa158015620001c2573d6000803e3d6000fd5b505050506040513d601f19601f82011682018060405250810190620001e891906200052c565b600260006101000a81548173ffffffffffffffffffffffffffffffffffffffff021916908373ffffffffffffffffffffffffffffffffffffffff1602179055508073ffffffffffffffffffffffffffffffffffffffff1663100f9bf86040518163ffffffff1660e01b8152600401602060405180830381865afa15801562000274573d6000803e3d6000fd5b505050506040513d601f19601f820116820180604052508101906200029a9190620005a3565b600360006101000a81548173ffffffffffffffffffffffffffffffffffffffff021916908373ffffffffffffffffffffffffffffffffffffffff1602179055505050620005d5565b60008060009054906101000a900473ffffffffffffffffffffffffffffffffffffffff169050816000806101000a81548173ffffffffffffffffffffffffffffffffffffffff021916908373ffffffffffffffffffffffffffffffffffffffff1602179055508173ffffffffffffffffffffffffffffffffffffffff168173ffffffffffffffffffffffffffffffffffffffff167f8be0079c531659141344cd1fd0a4f28419497f9722a3daafe3b4186f6b6457e060405160405180910390a35050565b600080fd5b600073ffffffffffffffffffffffffffffffffffffffff82169050919050565b6000620003d882620003ab565b9050919050565b620003ea81620003cb565b8114620003f657600080fd5b50565b6000815190506200040a81620003df565b92915050565b600060208284031215620004295762000428620003a6565b5b60006200043984828501620003f9565b91505092915050565b6200044d81620003cb565b82525050565b60006020820190506200046a600083018462000442565b92915050565b60006200047d82620003cb565b9050919050565b6200048f8162000470565b81146200049b57600080fd5b50565b600081519050620004af8162000484565b92915050565b600060208284031215620004ce57620004cd620003a6565b5b6000620004de848285016200049e565b91505092915050565b6000620004f482620003cb565b9050919050565b6200050681620004e7565b81146200051257600080fd5b50565b6000815190506200052681620004fb565b92915050565b600060208284031215620005455762000544620003a6565b5b6000620005558482850162000515565b91505092915050565b60006200056b82620003cb565b9050919050565b6200057d816200055e565b81146200058957600080fd5b50565b6000815190506200059d8162000572565b92915050565b600060208284031215620005bc57620005bb620003a6565b5b6000620005cc848285016200058c565b91505092915050565b611d1380620005e56000396000f3fe608060405234801561001057600080fd5b50600436106100a95760003560e01c80638da5cb5b116100715780638da5cb5b146101285780639e2c3755146101465780639e8595dd14610162578063b79589361461017e578063dae3fe4e146101ae578063f2fde38b146101ca576100a9565b8063018a7449146100ae578063019e2f65146100ca57806306cb7f4c146100e65780631cbf133014610102578063715018a61461011e575b600080fd5b6100c860048036038101906100c39190611077565b6101e6565b005b6100e460048036038101906100df9190611104565b610303565b005b61010060048036038101906100fb919061121a565b610420565b005b61011c6004803603810190610117919061128e565b610613565b005b610126610733565b005b610130610747565b60405161013d9190611304565b60405180910390f35b610160600480360381019061015b919061131f565b610770565b005b61017c60048036038101906101779190611412565b6108f1565b005b61019860048036038101906101939190611501565b610bb7565b6040516101a591906115ec565b60405180910390f35b6101c860048036038101906101c3919061160e565b610cf8565b005b6101e460048036038101906101df9190611675565b610e18565b005b6101ee610e9e565b81838063ffffffff16600460008463ffffffff1663ffffffff16815260200190815260200160002060009054906101000a900463ffffffff1663ffffffff161461026d576040517f08c379a0000000000000000000000000000000000000000000000000000000008152600401610264906116ff565b60405180910390fd5b600360009054906101000a900473ffffffffffffffffffffffffffffffffffffffff1673ffffffffffffffffffffffffffffffffffffffff166315dcd78885856040518363ffffffff1660e01b81526004016102ca92919061173d565b600060405180830381600087803b1580156102e457600080fd5b505af11580156102f8573d6000803e3d6000fd5b505050505050505050565b61030b610e9e565b81838063ffffffff16600460008463ffffffff1663ffffffff16815260200190815260200160002060009054906101000a900463ffffffff1663ffffffff161461038a576040517f08c379a0000000000000000000000000000000000000000000000000000000008152600401610381906116ff565b60405180910390fd5b600360009054906101000a900473ffffffffffffffffffffffffffffffffffffffff1673ffffffffffffffffffffffffffffffffffffffff16634ea88c9985856040518363ffffffff1660e01b81526004016103e7929190611775565b600060405180830381600087803b15801561040157600080fd5b505af1158015610415573d6000803e3d6000fd5b505050505050505050565b610428610e9e565b60005b838390508163ffffffff1610156105b5578463ffffffff166004600086868563ffffffff168181106104605761045f61179e565b5b90506020020160208101906104759190611501565b63ffffffff1663ffffffff16815260200190815260200160002060009054906101000a900463ffffffff1663ffffffff16146104e6576040517f08c379a00000000000000000000000000000000000000000000000000000000081526004016104dd906116ff565b60405180910390fd5b600160009054906101000a900473ffffffffffffffffffffffffffffffffffffffff1673ffffffffffffffffffffffffffffffffffffffff16632c9ede6b85858463ffffffff1681811061053d5761053c61179e565b5b90506020020160208101906105529190611501565b846040518363ffffffff1660e01b81526004016105709291906117cd565b600060405180830381600087803b15801561058a57600080fd5b505af115801561059e573d6000803e3d6000fd5b5050505080806105ad90611825565b91505061042b565b508073ffffffffffffffffffffffffffffffffffffffff168463ffffffff167f5751cced274fa533356560ef0b60c0e74319ab6693096dfbfc3305880e2bef7685856040516106059291906118dc565b60405180910390a350505050565b61061b610e9e565b82848063ffffffff16600460008463ffffffff1663ffffffff16815260200190815260200160002060009054906101000a900463ffffffff1663ffffffff161461069a576040517f08c379a0000000000000000000000000000000000000000000000000000000008152600401610691906116ff565b60405180910390fd5b600360009054906101000a900473ffffffffffffffffffffffffffffffffffffffff1673ffffffffffffffffffffffffffffffffffffffff1663d0048f108686866040518463ffffffff1660e01b81526004016106f993929190611900565b600060405180830381600087803b15801561071357600080fd5b505af1158015610727573d6000803e3d6000fd5b50505050505050505050565b61073b610e9e565b6107456000610f25565b565b60008060009054906101000a900473ffffffffffffffffffffffffffffffffffffffff16905090565b610778610e9e565b82848063ffffffff16600460008463ffffffff1663ffffffff16815260200190815260200160002060009054906101000a900463ffffffff1663ffffffff16146107f7576040517f08c379a00000000000000000000000000000000000000000000000000000000081526004016107ee906116ff565b60405180910390fd5b600260009054906101000a900473ffffffffffffffffffffffffffffffffffffffff1673ffffffffffffffffffffffffffffffffffffffff16635e106fa78686866040518463ffffffff1660e01b815260040161085693929190611937565b600060405180830381600087803b15801561087057600080fd5b505af1158015610884573d6000803e3d6000fd5b505050508463ffffffff168373ffffffffffffffffffffffffffffffffffffffff168573ffffffffffffffffffffffffffffffffffffffff167fec11181c689022a5cc6ccc655e5eb6b941355c9fb21cdcf09582485c23b8dd1060405160405180910390a4505050505050565b6108f9610e9e565b600080600160009054906101000a900473ffffffffffffffffffffffffffffffffffffffff1673ffffffffffffffffffffffffffffffffffffffff16638f79678b8c308c8c8c8c8c8c8c6040518a63ffffffff1660e01b815260040161096799989796959493929190611a40565b6000604051808303816000875af1158015610986573d6000803e3d6000fd5b505050506040513d6000823e3d601f19601f820116820180604052508101906109af9190611c20565b9150915089600460008463ffffffff1663ffffffff16815260200190815260200160002060006101000a81548163ffffffff021916908363ffffffff160217905550600560008b63ffffffff1663ffffffff1681526020019081526020016000208290806001815401808255809150506001900390600052602060002090600891828204019190066004029091909190916101000a81548163ffffffff021916908363ffffffff16021790555060005b81518161ffff161015610b64578a60046000848461ffff1681518110610a8857610a8761179e565b5b602002602001015163ffffffff1663ffffffff16815260200190815260200160002060006101000a81548163ffffffff021916908363ffffffff160217905550600560008c63ffffffff1663ffffffff168152602001908152602001600020828261ffff1681518110610afe57610afd61179e565b5b602002602001015190806001815401808255809150506001900390600052602060002090600891828204019190066004029091909190916101000a81548163ffffffff021916908363ffffffff1602179055508080610b5c90611c7c565b915050610a5f565b508963ffffffff168263ffffffff167fc593425ee487e10240c9c5996c209136579a94e9f65302ee113c9e6c49381ac683604051610ba291906115ec565b60405180910390a35050505050505050505050565b60606000600560008463ffffffff1663ffffffff16815260200190815260200160002080549050905060008163ffffffff1667ffffffffffffffff811115610c0257610c01611ae2565b5b604051908082528060200260200182016040528015610c305781602001602082028036833780820191505090505b50905060005b8263ffffffff168163ffffffff161015610ced57600560008663ffffffff1663ffffffff1681526020019081526020016000208163ffffffff1681548110610c8157610c8061179e565b5b90600052602060002090600891828204019190066004029054906101000a900463ffffffff16828263ffffffff1681518110610cc057610cbf61179e565b5b602002602001019063ffffffff16908163ffffffff16815250508080610ce590611825565b915050610c36565b508092505050919050565b610d00610e9e565b82848063ffffffff16600460008463ffffffff1663ffffffff16815260200190815260200160002060009054906101000a900463ffffffff1663ffffffff1614610d7f576040517f08c379a0000000000000000000000000000000000000000000000000000000008152600401610d76906116ff565b60405180910390fd5b600360009054906101000a900473ffffffffffffffffffffffffffffffffffffffff1673ffffffffffffffffffffffffffffffffffffffff1663d0a91a878686866040518463ffffffff1660e01b8152600401610dde93929190611ca6565b600060405180830381600087803b158015610df857600080fd5b505af1158015610e0c573d6000803e3d6000fd5b50505050505050505050565b610e20610e9e565b600073ffffffffffffffffffffffffffffffffffffffff168173ffffffffffffffffffffffffffffffffffffffff1603610e925760006040517f1e4fbdf7000000000000000000000000000000000000000000000000000000008152600401610e899190611304565b60405180910390fd5b610e9b81610f25565b50565b610ea6610fe9565b73ffffffffffffffffffffffffffffffffffffffff16610ec4610747565b73ffffffffffffffffffffffffffffffffffffffff1614610f2357610ee7610fe9565b6040517f118cdaa7000000000000000000000000000000000000000000000000000000008152600401610f1a9190611304565b60405180910390fd5b565b60008060009054906101000a900473ffffffffffffffffffffffffffffffffffffffff169050816000806101000a81548173ffffffffffffffffffffffffffffffffffffffff021916908373ffffffffffffffffffffffffffffffffffffffff1602179055508173ffffffffffffffffffffffffffffffffffffffff168173ffffffffffffffffffffffffffffffffffffffff167f8be0079c531659141344cd1fd0a4f28419497f9722a3daafe3b4186f6b6457e060405160405180910390a35050565b600033905090565b6000604051905090565b600080fd5b600080fd5b600063ffffffff82169050919050565b61101e81611005565b811461102957600080fd5b50565b60008135905061103b81611015565b92915050565b6000819050919050565b61105481611041565b811461105f57600080fd5b50565b6000813590506110718161104b565b92915050565b6000806000606084860312156110905761108f610ffb565b5b600061109e8682870161102c565b93505060206110af8682870161102c565b92505060406110c086828701611062565b9150509250925092565b600061ffff82169050919050565b6110e1816110ca565b81146110ec57600080fd5b50565b6000813590506110fe816110d8565b92915050565b60008060006060848603121561111d5761111c610ffb565b5b600061112b8682870161102c565b935050602061113c8682870161102c565b925050604061114d868287016110ef565b9150509250925092565b600080fd5b600080fd5b600080fd5b60008083601f84011261117c5761117b611157565b5b8235905067ffffffffffffffff8111156111995761119861115c565b5b6020830191508360208202830111156111b5576111b4611161565b5b9250929050565b600073ffffffffffffffffffffffffffffffffffffffff82169050919050565b60006111e7826111bc565b9050919050565b6111f7816111dc565b811461120257600080fd5b50565b600081359050611214816111ee565b92915050565b6000806000806060858703121561123457611233610ffb565b5b60006112428782880161102c565b945050602085013567ffffffffffffffff81111561126357611262611000565b5b61126f87828801611166565b9350935050604061128287828801611205565b91505092959194509250565b600080600080608085870312156112a8576112a7610ffb565b5b60006112b68782880161102c565b94505060206112c78782880161102c565b93505060406112d887828801611062565b92505060606112e987828801611062565b91505092959194509250565b6112fe816111dc565b82525050565b600060208201905061131960008301846112f5565b92915050565b6000806000806080858703121561133957611338610ffb565b5b60006113478782880161102c565b94505060206113588782880161102c565b935050604061136987828801611205565b925050606061137a87828801611205565b91505092959194509250565b6000819050919050565b61139981611386565b81146113a457600080fd5b50565b6000813590506113b681611390565b92915050565b60008083601f8401126113d2576113d1611157565b5b8235905067ffffffffffffffff8111156113ef576113ee61115c565b5b60208301915083602082028301111561140b5761140a611161565b5b9250929050565b600080600080600080600080600060c08a8c03121561143457611433610ffb565b5b60006114428c828d016113a7565b99505060206114538c828d0161102c565b98505060408a013567ffffffffffffffff81111561147457611473611000565b5b6114808c828d01611166565b975097505060606114938c828d01611062565b95505060808a013567ffffffffffffffff8111156114b4576114b3611000565b5b6114c08c828d01611166565b945094505060a08a013567ffffffffffffffff8111156114e3576114e2611000565b5b6114ef8c828d016113bc565b92509250509295985092959850929598565b60006020828403121561151757611516610ffb565b5b60006115258482850161102c565b91505092915050565b600081519050919050565b600082825260208201905092915050565b6000819050602082019050919050565b61156381611005565b82525050565b6000611575838361155a565b60208301905092915050565b6000602082019050919050565b60006115998261152e565b6115a38185611539565b93506115ae8361154a565b8060005b838110156115df5781516115c68882611569565b97506115d183611581565b9250506001810190506115b2565b5085935050505092915050565b60006020820190508181036000830152611606818461158e565b905092915050565b6000806000806080858703121561162857611627610ffb565b5b60006116368782880161102c565b94505060206116478782880161102c565b9350506040611658878288016110ef565b925050606061166987828801611062565b91505092959194509250565b60006020828403121561168b5761168a610ffb565b5b600061169984828501611205565b91505092915050565b600082825260208201905092915050565b7f4e6f74206974656d2073656c6c65720000000000000000000000000000000000600082015250565b60006116e9600f836116a2565b91506116f4826116b3565b602082019050919050565b60006020820190508181036000830152611718816116dc565b9050919050565b61172881611005565b82525050565b61173781611041565b82525050565b6000604082019050611752600083018561171f565b61175f602083018461172e565b9392505050565b61176f816110ca565b82525050565b600060408201905061178a600083018561171f565b6117976020830184611766565b9392505050565b7f4e487b7100000000000000000000000000000000000000000000000000000000600052603260045260246000fd5b60006040820190506117e2600083018561171f565b6117ef60208301846112f5565b9392505050565b7f4e487b7100000000000000000000000000000000000000000000000000000000600052601160045260246000fd5b600061183082611005565b915063ffffffff8203611846576118456117f6565b5b600182019050919050565b6000819050919050565b600061186a602084018461102c565b905092915050565b6000602082019050919050565b600061188b8385611539565b935061189682611851565b8060005b858110156118cf576118ac828461185b565b6118b68882611569565b97506118c183611872565b92505060018101905061189a565b5085925050509392505050565b600060208201905081810360008301526118f781848661187f565b90509392505050565b6000606082019050611915600083018661171f565b611922602083018561172e565b61192f604083018461172e565b949350505050565b600060608201905061194c600083018661171f565b61195960208301856112f5565b61196660408301846112f5565b949350505050565b61197781611386565b82525050565b600082825260208201905092915050565b6000819050919050565b6119a1816110ca565b82525050565b60006119b38383611998565b60208301905092915050565b60006119ce60208401846110ef565b905092915050565b6000602082019050919050565b60006119ef838561197d565b93506119fa8261198e565b8060005b85811015611a3357611a1082846119bf565b611a1a88826119a7565b9750611a25836119d6565b9250506001810190506119fe565b5085925050509392505050565b600060c082019050611a55600083018c61196e565b611a62602083018b6112f5565b8181036040830152611a7581898b61187f565b9050611a84606083018861172e565b8181036080830152611a9781868861187f565b905081810360a0830152611aac8184866119e3565b90509a9950505050505050505050565b600081519050611acb81611015565b92915050565b6000601f19601f8301169050919050565b7f4e487b7100000000000000000000000000000000000000000000000000000000600052604160045260246000fd5b611b1a82611ad1565b810181811067ffffffffffffffff82111715611b3957611b38611ae2565b5b80604052505050565b6000611b4c610ff1565b9050611b588282611b11565b919050565b600067ffffffffffffffff821115611b7857611b77611ae2565b5b602082029050602081019050919050565b6000611b9c611b9784611b5d565b611b42565b90508083825260208201905060208402830185811115611bbf57611bbe611161565b5b835b81811015611be85780611bd48882611abc565b845260208401935050602081019050611bc1565b5050509392505050565b600082601f830112611c0757611c06611157565b5b8151611c17848260208601611b89565b91505092915050565b60008060408385031215611c3757611c36610ffb565b5b6000611c4585828601611abc565b925050602083015167ffffffffffffffff811115611c6657611c65611000565b5b611c7285828601611bf2565b9150509250929050565b6000611c87826110ca565b915061ffff8203611c9b57611c9a6117f6565b5b600182019050919050565b6000606082019050611cbb600083018661171f565b611cc86020830185611766565b611cd5604083018461172e565b94935050505056fea2646970667358221220cc251e5ae200ab271ef65cdf17bb7c2e9099de4ef780a09fcdf9935fa224d5b264736f6c63430008150033",
  "linkReferences": {},
  "deployedLinkReferences": {}
}