{
  "_format": "hh-sol-artifact-1",
  "contractName": "ItemRegistry",
  "sourceName": "contracts/ItemRegistry.sol",
  "abi": [
    {
      "inputs": [],
      "stateMutability": "nonpayable",
      "type": "constructor"
    },
    {
      "inputs": [
        {
          "internalType": "address",
          "name": "owner",
          "type": "address"
        }
      ],
      "name": "OwnableInvalidOwner",
      "type": "error"
    },
    {
      "inputs": [
        {
          "internalType": "address",
          "name": "account",
          "type": "address"
        }
      ],
      "name": "OwnableUnauthorizedAccount",
      "type": "error"
    },
    {
      "anonymous": false,
      "inputs": [
        {
          "indexed": true,
          "internalType": "bytes32",
          "name": "itemName",
          "type": "bytes32"
        },
        {
          "indexed": true,
          "internalType": "address",
          "name": "seller",
          "type": "address"
        },
        {
          "indexed": true,
          "internalType": "uint32",
          "name": "itemID",
          "type": "uint32"
        },
        {
          "indexed": false,
          "internalType": "uint256",
          "name": "usdPrice",
          "type": "uint256"
        },
        {
          "indexed": false,
          "internalType": "uint32[]",
          "name": "shareItemIDs",
          "type": "uint32[]"
        }
      ],
      "name": "ItemRegistered",
      "type": "event"
    },
    {
      "anonymous": false,
      "inputs": [
        {
          "indexed": true,
          "internalType": "uint32",
          "name": "itemID",
          "type": "uint32"
        },
        {
          "indexed": false,
          "internalType": "uint32[]",
          "name": "resumed",
          "type": "uint32[]"
        }
      ],
      "name": "ItemSaleResumed",
      "type": "event"
    },
    {
      "anonymous": false,
      "inputs": [
        {
          "indexed": true,
          "internalType": "uint32",
          "name": "itemID",
          "type": "uint32"
        },
        {
          "indexed": false,
          "internalType": "uint32[]",
          "name": "suspension",
          "type": "uint32[]"
        }
      ],
      "name": "ItemSaleSuspended",
      "type": "event"
    },
    {
      "anonymous": false,
      "inputs": [
        {
          "indexed": true,
          "internalType": "address",
          "name": "previousOwner",
          "type": "address"
        },
        {
          "indexed": true,
          "internalType": "address",
          "name": "newOwner",
          "type": "address"
        }
      ],
      "name": "OwnershipTransferred",
      "type": "event"
    },
    {
      "inputs": [
        {
          "internalType": "address",
          "name": "seller_",
          "type": "address"
        }
      ],
      "name": "getItemsOfSeller",
      "outputs": [
        {
          "internalType": "uint32[]",
          "name": "",
          "type": "uint32[]"
        }
      ],
      "stateMutability": "view",
      "type": "function"
    },
    {
      "inputs": [
        {
          "internalType": "uint32",
          "name": "",
          "type": "uint32"
        },
        {
          "internalType": "uint256",
          "name": "",
          "type": "uint256"
        }
      ],
      "name": "itemRevenueSharers",
      "outputs": [
        {
          "internalType": "uint32",
          "name": "",
          "type": "uint32"
        }
      ],
      "stateMutability": "view",
      "type": "function"
    },
    {
      "inputs": [
        {
          "internalType": "string",
          "name": "nameToHash",
          "type": "string"
        }
      ],
      "name": "nameHash",
      "outputs": [
        {
          "internalType": "bytes32",
          "name": "hash",
          "type": "bytes32"
        }
      ],
      "stateMutability": "pure",
      "type": "function"
    },
    {
      "inputs": [
        {
          "internalType": "uint32",
          "name": "",
          "type": "uint32"
        }
      ],
      "name": "numberOfSharers",
      "outputs": [
        {
          "internalType": "uint8",
          "name": "",
          "type": "uint8"
        }
      ],
      "stateMutability": "view",
      "type": "function"
    },
    {
      "inputs": [],
      "name": "owner",
      "outputs": [
        {
          "internalType": "address",
          "name": "",
          "type": "address"
        }
      ],
      "stateMutability": "view",
      "type": "function"
    },
    {
      "inputs": [
        {
          "internalType": "bytes32",
          "name": "itemNameHash",
          "type": "bytes32"
        },
        {
          "internalType": "address",
          "name": "seller_",
          "type": "address"
        },
        {
          "internalType": "uint32[]",
          "name": "revenueSharers",
          "type": "uint32[]"
        },
        {
          "internalType": "uint256",
          "name": "usdPrice",
          "type": "uint256"
        },
        {
          "internalType": "uint32[]",
          "name": "shareTerms",
          "type": "uint32[]"
        },
        {
          "internalType": "uint16[]",
          "name": "shares",
          "type": "uint16[]"
        }
      ],
      "name": "registerItem",
      "outputs": [
        {
          "internalType": "uint32",
          "name": "itemID",
          "type": "uint32"
        }
      ],
      "stateMutability": "nonpayable",
      "type": "function"
    },
    {
      "inputs": [],
      "name": "renounceOwnership",
      "outputs": [],
      "stateMutability": "nonpayable",
      "type": "function"
    },
    {
      "inputs": [
        {
          "internalType": "uint32",
          "name": "itemID",
          "type": "uint32"
        }
      ],
      "name": "resumeItemSale",
      "outputs": [],
      "stateMutability": "nonpayable",
      "type": "function"
    },
    {
      "inputs": [
        {
          "internalType": "uint32",
          "name": "itemID",
          "type": "uint32"
        },
        {
          "internalType": "uint8",
          "name": "index",
          "type": "uint8"
        }
      ],
      "name": "revenueSharerOfItem",
      "outputs": [
        {
          "internalType": "uint32",
          "name": "parent",
          "type": "uint32"
        }
      ],
      "stateMutability": "view",
      "type": "function"
    },
    {
      "inputs": [
        {
          "internalType": "uint32",
          "name": "",
          "type": "uint32"
        },
        {
          "internalType": "uint256",
          "name": "",
          "type": "uint256"
        }
      ],
      "name": "revenueSharingItems",
      "outputs": [
        {
          "internalType": "uint32",
          "name": "",
          "type": "uint32"
        }
      ],
      "stateMutability": "view",
      "type": "function"
    },
    {
      "inputs": [
        {
          "internalType": "uint32",
          "name": "",
          "type": "uint32"
        }
      ],
      "name": "seller",
      "outputs": [
        {
          "internalType": "address",
          "name": "",
          "type": "address"
        }
      ],
      "stateMutability": "view",
      "type": "function"
    },
    {
      "inputs": [
        {
          "internalType": "address",
          "name": "priceTableAddress",
          "type": "address"
        }
      ],
      "name": "setPriceTable",
      "outputs": [],
      "stateMutability": "nonpayable",
      "type": "function"
    },
    {
      "inputs": [
        {
          "internalType": "address",
          "name": "sellerProxy_",
          "type": "address"
        }
      ],
      "name": "setSellerProxy",
      "outputs": [],
      "stateMutability": "nonpayable",
      "type": "function"
    },
    {
      "inputs": [
        {
          "internalType": "uint32",
          "name": "itemID",
          "type": "uint32"
        }
      ],
      "name": "suspendItemSale",
      "outputs": [],
      "stateMutability": "nonpayable",
      "type": "function"
    },
    {
      "inputs": [
        {
          "internalType": "uint32",
          "name": "",
          "type": "uint32"
        }
      ],
      "name": "suspensions",
      "outputs": [
        {
          "internalType": "bool",
          "name": "",
          "type": "bool"
        }
      ],
      "stateMutability": "view",
      "type": "function"
    },
    {
      "inputs": [
        {
          "internalType": "uint32",
          "name": "",
          "type": "uint32"
        }
      ],
      "name": "timestampRegistered",
      "outputs": [
        {
          "internalType": "uint256",
          "name": "",
          "type": "uint256"
        }
      ],
      "stateMutability": "view",
      "type": "function"
    },
    {
      "inputs": [
        {
          "internalType": "address",
          "name": "newOwner",
          "type": "address"
        }
      ],
      "name": "transferOwnership",
      "outputs": [],
      "stateMutability": "nonpayable",
      "type": "function"
    },
    {
      "inputs": [
        {
          "internalType": "uint32",
          "name": "itemID",
          "type": "uint32"
        },
        {
          "internalType": "address",
          "name": "newSeller",
          "type": "address"
        }
      ],
      "name": "transferSellerRight",
      "outputs": [],
      "stateMutability": "nonpayable",
      "type": "function"
    }
  ],
  "bytecode": "0x60806040523480156200001157600080fd5b5033600073ffffffffffffffffffffffffffffffffffffffff168173ffffffffffffffffffffffffffffffffffffffff1603620000885760006040517f1e4fbdf70000000000000000000000000000000000000000000000000000000081526004016200007f9190620001a9565b60405180910390fd5b6200009981620000a060201b60201c565b50620001c6565b60008060009054906101000a900473ffffffffffffffffffffffffffffffffffffffff169050816000806101000a81548173ffffffffffffffffffffffffffffffffffffffff021916908373ffffffffffffffffffffffffffffffffffffffff1602179055508173ffffffffffffffffffffffffffffffffffffffff168173ffffffffffffffffffffffffffffffffffffffff167f8be0079c531659141344cd1fd0a4f28419497f9722a3daafe3b4186f6b6457e060405160405180910390a35050565b600073ffffffffffffffffffffffffffffffffffffffff82169050919050565b6000620001918262000164565b9050919050565b620001a38162000184565b82525050565b6000602082019050620001c0600083018462000198565b92915050565b612aa780620001d66000396000f3fe608060405234801561001057600080fd5b50600436106101165760003560e01c80639479df9c116100a2578063c0a68a0411610071578063c0a68a0414610317578063cef3c69814610347578063e8bb0cb014610363578063f2fde38b1461037f578063fdc615401461039b57610116565b80639479df9c1461027f5780639884c1c8146102af578063b1fb0957146102df578063bdafe05d146102fb57610116565b806368797c4c116100e957806368797c4c146101c7578063715018a6146101f7578063794707db146102015780638da5cb5b146102315780638f79678b1461024f57610116565b806301b8fc751461011b5780632c9ede6b1461014b5780633a803e4b1461016757806361e4001614610197575b600080fd5b61013560048036038101906101309190611b28565b6103cb565b6040516101429190611c23565b60405180910390f35b61016560048036038101906101609190611c71565b610792565b005b610181600480360381019061017c9190611cb1565b610a5b565b60405161018e9190611cf9565b60405180910390f35b6101b160048036038101906101ac9190611d79565b610a7b565b6040516101be9190611ddf565b60405180910390f35b6101e160048036038101906101dc9190611cb1565b610aae565b6040516101ee9190611e16565b60405180910390f35b6101ff610ace565b005b61021b60048036038101906102169190611e67565b610ae2565b6040516102289190611eb6565b60405180910390f35b610239610b2b565b6040516102469190611ee0565b60405180910390f35b61026960048036038101906102649190611fd3565b610b54565b6040516102769190611eb6565b60405180910390f35b61029960048036038101906102949190611cb1565b6112c2565b6040516102a69190611ee0565b60405180910390f35b6102c960048036038101906102c49190611cb1565b6112f5565b6040516102d691906120d1565b60405180910390f35b6102f960048036038101906102f49190611b28565b61130d565b005b61031560048036038101906103109190611b28565b611359565b005b610331600480360381019061032c9190612118565b6113a5565b60405161033e9190611eb6565b60405180910390f35b610361600480360381019061035c9190611cb1565b611409565b005b61037d60048036038101906103789190611cb1565b611488565b005b61039960048036038101906103949190611b28565b611507565b005b6103b560048036038101906103b09190611e67565b61158d565b6040516103c29190611eb6565b60405180910390f35b60606000600260008473ffffffffffffffffffffffffffffffffffffffff1673ffffffffffffffffffffffffffffffffffffffff1681526020019081526020016000208054905090506000805b8263ffffffff168163ffffffff161015610542576000600260008773ffffffffffffffffffffffffffffffffffffffff1673ffffffffffffffffffffffffffffffffffffffff1681526020019081526020016000208263ffffffff168154811061048557610484612158565b5b90600052602060002090600891828204019190066004029054906101000a900463ffffffff1690508573ffffffffffffffffffffffffffffffffffffffff16600160008363ffffffff1663ffffffff16815260200190815260200160002060009054906101000a900473ffffffffffffffffffffffffffffffffffffffff1673ffffffffffffffffffffffffffffffffffffffff161461052e57828061052a906121b6565b9350505b50808061053a906121b6565b915050610418565b506000818361055191906121e2565b63ffffffff1667ffffffffffffffff8111156105705761056f61221a565b5b60405190808252806020026020018201604052801561059e5781602001602082028036833780820191505090505b5090506000805b8463ffffffff168163ffffffff161015610785576000600260008973ffffffffffffffffffffffffffffffffffffffff1673ffffffffffffffffffffffffffffffffffffffff1681526020019081526020016000208263ffffffff168154811061061257610611612158565b5b90600052602060002090600891828204019190066004029054906101000a900463ffffffff1690508773ffffffffffffffffffffffffffffffffffffffff16600160008363ffffffff1663ffffffff16815260200190815260200160002060009054906101000a900473ffffffffffffffffffffffffffffffffffffffff1673ffffffffffffffffffffffffffffffffffffffff16146106b25750610772565b600260008973ffffffffffffffffffffffffffffffffffffffff1673ffffffffffffffffffffffffffffffffffffffff1681526020019081526020016000208263ffffffff168154811061070957610708612158565b5b90600052602060002090600891828204019190066004029054906101000a900463ffffffff16848463ffffffff168151811061074857610747612158565b5b602002602001019063ffffffff16908163ffffffff1681525050828061076d906121b6565b935050505b808061077d906121b6565b9150506105a5565b5081945050505050919050565b61079a610b2b565b73ffffffffffffffffffffffffffffffffffffffff163373ffffffffffffffffffffffffffffffffffffffff16148061087b5750600073ffffffffffffffffffffffffffffffffffffffff16600b60009054906101000a900473ffffffffffffffffffffffffffffffffffffffff1673ffffffffffffffffffffffffffffffffffffffff161415801561087a5750600b60009054906101000a900473ffffffffffffffffffffffffffffffffffffffff1673ffffffffffffffffffffffffffffffffffffffff163373ffffffffffffffffffffffffffffffffffffffff16145b5b6108ba576040517f08c379a00000000000000000000000000000000000000000000000000000000081526004016108b1906122a6565b60405180910390fd5b600160008363ffffffff1663ffffffff16815260200190815260200160002060009054906101000a900473ffffffffffffffffffffffffffffffffffffffff1673ffffffffffffffffffffffffffffffffffffffff166109186115d6565b73ffffffffffffffffffffffffffffffffffffffff161461096e576040517f08c379a000000000000000000000000000000000000000000000000000000000815260040161096590612312565b60405180910390fd5b80600160008463ffffffff1663ffffffff16815260200190815260200160002060006101000a81548173ffffffffffffffffffffffffffffffffffffffff021916908373ffffffffffffffffffffffffffffffffffffffff160217905550600260008273ffffffffffffffffffffffffffffffffffffffff1673ffffffffffffffffffffffffffffffffffffffff1681526020019081526020016000208290806001815401808255809150506001900390600052602060002090600891828204019190066004029091909190916101000a81548163ffffffff021916908363ffffffff1602179055505050565b60076020528060005260406000206000915054906101000a900460ff1681565b60008282604051602001610a90929190612371565b60405160208183030381529060405280519060200120905092915050565b60046020528060005260406000206000915054906101000a900460ff1681565b610ad66115de565b610ae06000611665565b565b60056020528160005260406000208181548110610afe57600080fd5b9060005260206000209060089182820401919006600402915091509054906101000a900463ffffffff1681565b60008060009054906101000a900473ffffffffffffffffffffffffffffffffffffffff16905090565b6000610b5e610b2b565b73ffffffffffffffffffffffffffffffffffffffff163373ffffffffffffffffffffffffffffffffffffffff161480610c3f5750600073ffffffffffffffffffffffffffffffffffffffff16600b60009054906101000a900473ffffffffffffffffffffffffffffffffffffffff1673ffffffffffffffffffffffffffffffffffffffff1614158015610c3e5750600b60009054906101000a900473ffffffffffffffffffffffffffffffffffffffff1673ffffffffffffffffffffffffffffffffffffffff163373ffffffffffffffffffffffffffffffffffffffff16145b5b610c7e576040517f08c379a0000000000000000000000000000000000000000000000000000000008152600401610c75906122a6565b60405180910390fd5b610ca88a8a604051602001610c9492919061238a565b604051602081830303815290604052611729565b905088600160008363ffffffff1663ffffffff16815260200190815260200160002060006101000a81548173ffffffffffffffffffffffffffffffffffffffff021916908373ffffffffffffffffffffffffffffffffffffffff160217905550600260008a73ffffffffffffffffffffffffffffffffffffffff1673ffffffffffffffffffffffffffffffffffffffff1681526020019081526020016000208190806001815401808255809150506001900390600052602060002090600891828204019190066004029091909190916101000a81548163ffffffff021916908363ffffffff1602179055508787600360008463ffffffff1663ffffffff1681526020019081526020016000209190610dc19291906119ed565b5060005b888890508161ffff161015610e7d57600560008a8a8461ffff16818110610def57610dee612158565b5b9050602002016020810190610e049190611cb1565b63ffffffff1663ffffffff1681526020019081526020016000208290806001815401808255809150506001900390600052602060002090600891828204019190066004029091909190916101000a81548163ffffffff021916908363ffffffff1602179055508080610e75906123c1565b915050610dc5565b5042600660008363ffffffff1663ffffffff1681526020019081526020016000208190555087879050600460008363ffffffff1663ffffffff16815260200190815260200160002060006101000a81548160ff021916908360ff160217905550600a60009054906101000a900473ffffffffffffffffffffffffffffffffffffffff1673ffffffffffffffffffffffffffffffffffffffff1663b7119066828860006040518463ffffffff1660e01b8152600401610f3d93929190612430565b6020604051808303816000875af1158015610f5c573d6000803e3d6000fd5b505050506040513d601f19601f82011682018060405250810190610f809190612493565b610f8d57610f8c6124c0565b5b60008585905067ffffffffffffffff811115610fac57610fab61221a565b5b604051908082528060200260200182016040528015610fda5781602001602082028036833780820191505090505b50905060005b868690508161ffff16101561125b57600087878361ffff1681811061100857611007612158565b5b905060200201602081019061101d9190611cb1565b9050600061104b85836040516020016110379291906124ef565b604051602081830303815290604052611729565b90508c600160008363ffffffff1663ffffffff16815260200190815260200160002060006101000a81548173ffffffffffffffffffffffffffffffffffffffff021916908373ffffffffffffffffffffffffffffffffffffffff160217905550600260008e73ffffffffffffffffffffffffffffffffffffffff1673ffffffffffffffffffffffffffffffffffffffff1681526020019081526020016000208190806001815401808255809150506001900390600052602060002090600891828204019190066004029091909190916101000a81548163ffffffff021916908363ffffffff160217905550600a60009054906101000a900473ffffffffffffffffffffffffffffffffffffffff1673ffffffffffffffffffffffffffffffffffffffff1663b71190668263ffffffff8a8a8861ffff1681811061119157611190612158565b5b90506020020160208101906111a69190612544565b6040518463ffffffff1660e01b81526004016111c4939291906125b1565b6020604051808303816000875af11580156111e3573d6000803e3d6000fd5b505050506040513d601f19601f820116820180604052508101906112079190612493565b611214576112136124c0565b5b80848461ffff168151811061122c5761122b612158565b5b602002602001019063ffffffff16908163ffffffff168152505050508080611253906123c1565b915050610fe0565b508163ffffffff168a73ffffffffffffffffffffffffffffffffffffffff168c7fc4fded964a59e6b74a095216478c71b95d15793121f048793487bf7b5c71f0ba8a856040516112ac9291906125e8565b60405180910390a4509998505050505050505050565b60016020528060005260406000206000915054906101000a900473ffffffffffffffffffffffffffffffffffffffff1681565b60066020528060005260406000206000915090505481565b6113156115de565b80600b60006101000a81548173ffffffffffffffffffffffffffffffffffffffff021916908373ffffffffffffffffffffffffffffffffffffffff16021790555050565b6113616115de565b80600a60006101000a81548173ffffffffffffffffffffffffffffffffffffffff021916908373ffffffffffffffffffffffffffffffffffffffff16021790555050565b6000600360008463ffffffff1663ffffffff1681526020019081526020016000208260ff16815481106113db576113da612158565b5b90600052602060002090600891828204019190066004029054906101000a900463ffffffff16905092915050565b6114116115de565b60006008600060096000815461142690612618565b91905081905581526020019081526020016000209050611446828261178d565b8163ffffffff167f5d5827d08a2154252aeb2169641f3a576cd3bd5f206215da5387963dc5f073718260405161147c9190612a26565b60405180910390a25050565b6114906115de565b6000600860006009600081546114a590612618565b919050819055815260200190815260200160002090506114c582826118bd565b8163ffffffff167f0b4e9a2b2e24f5320fdec7a8f809964bee7f85431d288a2e211d9c8670a8c608826040516114fb9190612a26565b60405180910390a25050565b61150f6115de565b600073ffffffffffffffffffffffffffffffffffffffff168173ffffffffffffffffffffffffffffffffffffffff16036115815760006040517f1e4fbdf70000000000000000000000000000000000000000000000000000000081526004016115789190611ee0565b60405180910390fd5b61158a81611665565b50565b600360205281600052604060002081815481106115a957600080fd5b9060005260206000209060089182820401919006600402915091509054906101000a900463ffffffff1681565b600033905090565b6115e66115d6565b73ffffffffffffffffffffffffffffffffffffffff16611604610b2b565b73ffffffffffffffffffffffffffffffffffffffff1614611663576116276115d6565b6040517f118cdaa700000000000000000000000000000000000000000000000000000000815260040161165a9190611ee0565b60405180910390fd5b565b60008060009054906101000a900473ffffffffffffffffffffffffffffffffffffffff169050816000806101000a81548173ffffffffffffffffffffffffffffffffffffffff021916908373ffffffffffffffffffffffffffffffffffffffff1602179055508173ffffffffffffffffffffffffffffffffffffffff168173ffffffffffffffffffffffffffffffffffffffff167f8be0079c531659141344cd1fd0a4f28419497f9722a3daafe3b4186f6b6457e060405160405180910390a35050565b6000806301000193905063811c9dc5915060005b83518110156117865783818151811061175957611758612158565b5b602001015160f81c60f81b60f81c60ff16831892508183029250808061177e90612618565b91505061173d565b5050919050565b808290806001815401808255809150506001900390600052602060002090600891828204019190066004029091909190916101000a81548163ffffffff021916908363ffffffff1602179055506001600760008463ffffffff1663ffffffff16815260200190815260200160002060006101000a81548160ff02191690831515021790555060005b600560008463ffffffff1663ffffffff168152602001908152602001600020805490508160ff1610156118b8576118a5600560008563ffffffff1663ffffffff1681526020019081526020016000208260ff168154811061187957611878612158565b5b90600052602060002090600891828204019190066004029054906101000a900463ffffffff168361178d565b80806118b090612a48565b915050611815565b505050565b808290806001815401808255809150506001900390600052602060002090600891828204019190066004029091909190916101000a81548163ffffffff021916908363ffffffff1602179055506001600760008463ffffffff1663ffffffff16815260200190815260200160002060006101000a81548160ff02191690831515021790555060005b600560008463ffffffff1663ffffffff168152602001908152602001600020805490508160ff1610156119e8576119d5600560008563ffffffff1663ffffffff1681526020019081526020016000208260ff16815481106119a9576119a8612158565b5b90600052602060002090600891828204019190066004029054906101000a900463ffffffff16836118bd565b80806119e090612a48565b915050611945565b505050565b82805482825590600052602060002090600701600890048101928215611a925791602002820160005b83821115611a6057833563ffffffff1683826101000a81548163ffffffff021916908363ffffffff1602179055509260200192600401602081600301049283019260010302611a16565b8015611a905782816101000a81549063ffffffff0219169055600401602081600301049283019260010302611a60565b505b509050611a9f9190611aa3565b5090565b5b80821115611abc576000816000905550600101611aa4565b5090565b600080fd5b600080fd5b600073ffffffffffffffffffffffffffffffffffffffff82169050919050565b6000611af582611aca565b9050919050565b611b0581611aea565b8114611b1057600080fd5b50565b600081359050611b2281611afc565b92915050565b600060208284031215611b3e57611b3d611ac0565b5b6000611b4c84828501611b13565b91505092915050565b600081519050919050565b600082825260208201905092915050565b6000819050602082019050919050565b600063ffffffff82169050919050565b611b9a81611b81565b82525050565b6000611bac8383611b91565b60208301905092915050565b6000602082019050919050565b6000611bd082611b55565b611bda8185611b60565b9350611be583611b71565b8060005b83811015611c16578151611bfd8882611ba0565b9750611c0883611bb8565b925050600181019050611be9565b5085935050505092915050565b60006020820190508181036000830152611c3d8184611bc5565b905092915050565b611c4e81611b81565b8114611c5957600080fd5b50565b600081359050611c6b81611c45565b92915050565b60008060408385031215611c8857611c87611ac0565b5b6000611c9685828601611c5c565b9250506020611ca785828601611b13565b9150509250929050565b600060208284031215611cc757611cc6611ac0565b5b6000611cd584828501611c5c565b91505092915050565b60008115159050919050565b611cf381611cde565b82525050565b6000602082019050611d0e6000830184611cea565b92915050565b600080fd5b600080fd5b600080fd5b60008083601f840112611d3957611d38611d14565b5b8235905067ffffffffffffffff811115611d5657611d55611d19565b5b602083019150836001820283011115611d7257611d71611d1e565b5b9250929050565b60008060208385031215611d9057611d8f611ac0565b5b600083013567ffffffffffffffff811115611dae57611dad611ac5565b5b611dba85828601611d23565b92509250509250929050565b6000819050919050565b611dd981611dc6565b82525050565b6000602082019050611df46000830184611dd0565b92915050565b600060ff82169050919050565b611e1081611dfa565b82525050565b6000602082019050611e2b6000830184611e07565b92915050565b6000819050919050565b611e4481611e31565b8114611e4f57600080fd5b50565b600081359050611e6181611e3b565b92915050565b60008060408385031215611e7e57611e7d611ac0565b5b6000611e8c85828601611c5c565b9250506020611e9d85828601611e52565b9150509250929050565b611eb081611b81565b82525050565b6000602082019050611ecb6000830184611ea7565b92915050565b611eda81611aea565b82525050565b6000602082019050611ef56000830184611ed1565b92915050565b611f0481611dc6565b8114611f0f57600080fd5b50565b600081359050611f2181611efb565b92915050565b60008083601f840112611f3d57611f3c611d14565b5b8235905067ffffffffffffffff811115611f5a57611f59611d19565b5b602083019150836020820283011115611f7657611f75611d1e565b5b9250929050565b60008083601f840112611f9357611f92611d14565b5b8235905067ffffffffffffffff811115611fb057611faf611d19565b5b602083019150836020820283011115611fcc57611fcb611d1e565b5b9250929050565b600080600080600080600080600060c08a8c031215611ff557611ff4611ac0565b5b60006120038c828d01611f12565b99505060206120148c828d01611b13565b98505060408a013567ffffffffffffffff81111561203557612034611ac5565b5b6120418c828d01611f27565b975097505060606120548c828d01611e52565b95505060808a013567ffffffffffffffff81111561207557612074611ac5565b5b6120818c828d01611f27565b945094505060a08a013567ffffffffffffffff8111156120a4576120a3611ac5565b5b6120b08c828d01611f7d565b92509250509295985092959850929598565b6120cb81611e31565b82525050565b60006020820190506120e660008301846120c2565b92915050565b6120f581611dfa565b811461210057600080fd5b50565b600081359050612112816120ec565b92915050565b6000806040838503121561212f5761212e611ac0565b5b600061213d85828601611c5c565b925050602061214e85828601612103565b9150509250929050565b7f4e487b7100000000000000000000000000000000000000000000000000000000600052603260045260246000fd5b7f4e487b7100000000000000000000000000000000000000000000000000000000600052601160045260246000fd5b60006121c182611b81565b915063ffffffff82036121d7576121d6612187565b5b600182019050919050565b60006121ed82611b81565b91506121f883611b81565b9250828203905063ffffffff81111561221457612213612187565b5b92915050565b7f4e487b7100000000000000000000000000000000000000000000000000000000600052604160045260246000fd5b600082825260208201905092915050565b7f4e6f74206120726567697374726174696f6e2068616e646c6572000000000000600082015250565b6000612290601a83612249565b915061229b8261225a565b602082019050919050565b600060208201905081810360008301526122bf81612283565b9050919050565b7f4e6f74206974656d2073656c6c65720000000000000000000000000000000000600082015250565b60006122fc600f83612249565b9150612307826122c6565b602082019050919050565b6000602082019050818103600083015261232b816122ef565b9050919050565b600081905092915050565b82818337600083830152505050565b60006123588385612332565b935061236583858461233d565b82840190509392505050565b600061237e82848661234c565b91508190509392505050565b600060408201905061239f6000830185611dd0565b6123ac6020830184611ed1565b9392505050565b600061ffff82169050919050565b60006123cc826123b3565b915061ffff82036123e0576123df612187565b5b600182019050919050565b6000819050919050565b6000819050919050565b600061241a612415612410846123eb565b6123f5565b6123b3565b9050919050565b61242a816123ff565b82525050565b60006060820190506124456000830186611ea7565b61245260208301856120c2565b61245f6040830184612421565b949350505050565b61247081611cde565b811461247b57600080fd5b50565b60008151905061248d81612467565b92915050565b6000602082840312156124a9576124a8611ac0565b5b60006124b78482850161247e565b91505092915050565b7f4e487b7100000000000000000000000000000000000000000000000000000000600052600160045260246000fd5b60006040820190506125046000830185611ea7565b6125116020830184611ea7565b9392505050565b612521816123b3565b811461252c57600080fd5b50565b60008135905061253e81612518565b92915050565b60006020828403121561255a57612559611ac0565b5b60006125688482850161252f565b91505092915050565b600061258c61258761258284611b81565b6123f5565b611e31565b9050919050565b61259c81612571565b82525050565b6125ab816123b3565b82525050565b60006060820190506125c66000830186611ea7565b6125d36020830185612593565b6125e060408301846125a2565b949350505050565b60006040820190506125fd60008301856120c2565b818103602083015261260f8184611bc5565b90509392505050565b600061262382611e31565b91507fffffffffffffffffffffffffffffffffffffffffffffffffffffffffffffffff820361265557612654612187565b5b600182019050919050565b600081549050919050565b60008190508160005260206000209050919050565b60008160001c9050919050565b600063ffffffff82169050919050565b60006126b06126ab83612680565b61268d565b9050919050565b60008160201c9050919050565b60006126d76126d2836126b7565b61268d565b9050919050565b60008160401c9050919050565b60006126fe6126f9836126de565b61268d565b9050919050565b60008160601c9050919050565b600061272561272083612705565b61268d565b9050919050565b60008160801c9050919050565b600061274c6127478361272c565b61268d565b9050919050565b60008160a01c9050919050565b600061277361276e83612753565b61268d565b9050919050565b60008160c01c9050919050565b600061279a6127958361277a565b61268d565b9050919050565b60008160e01c9050919050565b60006127c16127bc836127a1565b61268d565b9050919050565b60006127d382612660565b6127dd8185611b60565b9350836127e98461266b565b60006001156128d6575b836001600803820110156128d5578154612815886128108361269d565b611b91565b60208801975061282d88612828836126c4565b611b91565b60208801975061284588612840836126eb565b611b91565b60208801975061285d8861285883612712565b611b91565b6020880197506128758861287083612739565b611b91565b60208801975061288d8861288883612760565b611b91565b6020880197506128a5886128a083612787565b611b91565b6020880197506128bd886128b8836127ae565b611b91565b602088019750600183019250506008810190506127f3565b5b600115612a1957815484821015612906576128f9886128f48361269d565b611b91565b6020880197506001820191505b8482101561292d576129208861291b836126c4565b611b91565b6020880197506001820191505b848210156129545761294788612942836126eb565b611b91565b6020880197506001820191505b8482101561297b5761296e8861296983612712565b611b91565b6020880197506001820191505b848210156129a2576129958861299083612739565b611b91565b6020880197506001820191505b848210156129c9576129bc886129b783612760565b611b91565b6020880197506001820191505b848210156129f0576129e3886129de83612787565b611b91565b6020880197506001820191505b84821015612a1757612a0a88612a05836127ae565b611b91565b6020880197506001820191505b505b8694505050505092915050565b60006020820190508181036000830152612a4081846127c8565b905092915050565b6000612a5382611dfa565b915060ff8203612a6657612a65612187565b5b60018201905091905056fea2646970667358221220e3aac9f78abd6047112f402a40f459f3e4b263a9ea15e6888bfb220d79272d3464736f6c63430008150033",
  "linkReferences": {},
  "deployedLinkReferences": {}
}