{
  "_format": "hh-sol-artifact-1",
  "contractName": "SellerRegistry",
  "sourceName": "contracts/SellerRegistry.sol",
  "abi": [
    {
      "inputs": [
        {
          "internalType": "address",
          "name": "forwarder",
          "type": "address"
        }
      ],
      "stateMutability": "nonpayable",
      "type": "constructor"
    },
    {
      "inputs": [
        {
          "internalType": "address",
          "name": "owner",
          "type": "address"
        }
      ],
      "name": "OwnableInvalidOwner",
      "type": "error"
    },
    {
      "inputs": [
        {
          "internalType": "address",
          "name": "account",
          "type": "address"
        }
      ],
      "name": "OwnableUnauthorizedAccount",
      "type": "error"
    },
    {
      "anonymous": false,
      "inputs": [
        {
          "indexed": true,
          "internalType": "address",
          "name": "previousOwner",
          "type": "address"
        },
        {
          "indexed": true,
          "internalType": "address",
          "name": "newOwner",
          "type": "address"
        }
      ],
      "name": "OwnershipTransferred",
      "type": "event"
    },
    {
      "anonymous": false,
      "inputs": [
        {
          "indexed": true,
          "internalType": "address",
          "name": "seller",
          "type": "address"
        },
        {
          "indexed": false,
          "internalType": "address[]",
          "name": "paymentChannels",
          "type": "address[]"
        }
      ],
      "name": "PaymentChannelsAdded",
      "type": "event"
    },
    {
      "anonymous": false,
      "inputs": [
        {
          "indexed": true,
          "internalType": "address",
          "name": "seller",
          "type": "address"
        },
        {
          "indexed": false,
          "internalType": "address[]",
          "name": "paymentChannels",
          "type": "address[]"
        }
      ],
      "name": "PaymentChannelsRemoved",
      "type": "event"
    },
    {
      "anonymous": false,
      "inputs": [
        {
          "indexed": true,
          "internalType": "address",
          "name": "seller",
          "type": "address"
        },
        {
          "indexed": false,
          "internalType": "address[]",
          "name": "paymentChannels",
          "type": "address[]"
        },
        {
          "indexed": false,
          "internalType": "bool",
          "name": "isSuccess",
          "type": "bool"
        }
      ],
      "name": "SellerRegistered",
      "type": "event"
    },
    {
      "inputs": [
        {
          "internalType": "address[]",
          "name": "paymentChannels_",
          "type": "address[]"
        }
      ],
      "name": "addPaymentChannels",
      "outputs": [],
      "stateMutability": "nonpayable",
      "type": "function"
    },
    {
      "inputs": [
        {
          "internalType": "address",
          "name": "",
          "type": "address"
        }
      ],
      "name": "isActiveSeller",
      "outputs": [
        {
          "internalType": "bool",
          "name": "",
          "type": "bool"
        }
      ],
      "stateMutability": "view",
      "type": "function"
    },
    {
      "inputs": [
        {
          "internalType": "address",
          "name": "forwarder",
          "type": "address"
        }
      ],
      "name": "isTrustedForwarder",
      "outputs": [
        {
          "internalType": "bool",
          "name": "",
          "type": "bool"
        }
      ],
      "stateMutability": "view",
      "type": "function"
    },
    {
      "inputs": [],
      "name": "owner",
      "outputs": [
        {
          "internalType": "address",
          "name": "",
          "type": "address"
        }
      ],
      "stateMutability": "view",
      "type": "function"
    },
    {
      "inputs": [
        {
          "internalType": "address",
          "name": "",
          "type": "address"
        },
        {
          "internalType": "address",
          "name": "",
          "type": "address"
        }
      ],
      "name": "paymentChannels",
      "outputs": [
        {
          "internalType": "bool",
          "name": "",
          "type": "bool"
        }
      ],
      "stateMutability": "view",
      "type": "function"
    },
    {
      "inputs": [
        {
          "internalType": "address[]",
          "name": "paymentChannels_",
          "type": "address[]"
        }
      ],
      "name": "registerSeller",
      "outputs": [],
      "stateMutability": "nonpayable",
      "type": "function"
    },
    {
      "inputs": [
        {
          "internalType": "address[]",
          "name": "paymentChannels_",
          "type": "address[]"
        }
      ],
      "name": "removePaymentChannels",
      "outputs": [],
      "stateMutability": "nonpayable",
      "type": "function"
    },
    {
      "inputs": [],
      "name": "renounceOwnership",
      "outputs": [],
      "stateMutability": "nonpayable",
      "type": "function"
    },
    {
      "inputs": [
        {
          "internalType": "address",
          "name": "newOwner",
          "type": "address"
        }
      ],
      "name": "transferOwnership",
      "outputs": [],
      "stateMutability": "nonpayable",
      "type": "function"
    },
    {
      "inputs": [],
      "name": "trustedForwarder",
      "outputs": [
        {
          "internalType": "address",
          "name": "",
          "type": "address"
        }
      ],
      "stateMutability": "view",
      "type": "function"
    }
  ],
  "bytecode": "0x60a06040523480156200001157600080fd5b50604051620014f5380380620014f583398181016040528101906200003791906200022e565b33818082600073ffffffffffffffffffffffffffffffffffffffff168173ffffffffffffffffffffffffffffffffffffffff1603620000b05760006040517f1e4fbdf7000000000000000000000000000000000000000000000000000000008152600401620000a7919062000271565b60405180910390fd5b620000c1816200010060201b60201c565b508073ffffffffffffffffffffffffffffffffffffffff1660808173ffffffffffffffffffffffffffffffffffffffff1681525050505050506200028e565b60008060009054906101000a900473ffffffffffffffffffffffffffffffffffffffff169050816000806101000a81548173ffffffffffffffffffffffffffffffffffffffff021916908373ffffffffffffffffffffffffffffffffffffffff1602179055508173ffffffffffffffffffffffffffffffffffffffff168173ffffffffffffffffffffffffffffffffffffffff167f8be0079c531659141344cd1fd0a4f28419497f9722a3daafe3b4186f6b6457e060405160405180910390a35050565b600080fd5b600073ffffffffffffffffffffffffffffffffffffffff82169050919050565b6000620001f682620001c9565b9050919050565b6200020881620001e9565b81146200021457600080fd5b50565b6000815190506200022881620001fd565b92915050565b600060208284031215620002475762000246620001c4565b5b6000620002578482850162000217565b91505092915050565b6200026b81620001e9565b82525050565b600060208201905062000288600083018462000260565b92915050565b60805161124b620002aa60003960006106fa015261124b6000f3fe608060405234801561001057600080fd5b506004361061009e5760003560e01c80637da0a877116100665780637da0a877146101455780638da5cb5b146101635780639c8b440214610181578063e1db8aa9146101b1578063f2fde38b146101cd5761009e565b80632eeb6cf0146100a3578063572b6c05146100bf5780635fb984c2146100ef57806370c3782b1461010b578063715018a61461013b575b600080fd5b6100bd60048036038101906100b89190610cdf565b6101e9565b005b6100d960048036038101906100d49190610d8a565b6103d8565b6040516100e69190610dd2565b60405180910390f35b61010960048036038101906101049190610cdf565b610417565b005b61012560048036038101906101209190610ded565b6106b3565b6040516101329190610dd2565b60405180910390f35b6101436106e2565b005b61014d6106f6565b60405161015a9190610e3c565b60405180910390f35b61016b61071e565b6040516101789190610e3c565b60405180910390f35b61019b60048036038101906101969190610d8a565b610747565b6040516101a89190610dd2565b60405180910390f35b6101cb60048036038101906101c69190610cdf565b610767565b005b6101e760048036038101906101e29190610d8a565b6109fb565b005b6000828290500361022f576040517f08c379a000000000000000000000000000000000000000000000000000000000815260040161022690610eb4565b60405180910390fd5b600180600061023c610a81565b73ffffffffffffffffffffffffffffffffffffffff1673ffffffffffffffffffffffffffffffffffffffff16815260200190815260200160002060006101000a81548160ff02191690831515021790555060005b828290508161ffff161015610379576001600260006102ad610a81565b73ffffffffffffffffffffffffffffffffffffffff1673ffffffffffffffffffffffffffffffffffffffff168152602001908152602001600020600085858561ffff16818110610300576102ff610ed4565b5b90506020020160208101906103159190610d8a565b73ffffffffffffffffffffffffffffffffffffffff1673ffffffffffffffffffffffffffffffffffffffff16815260200190815260200160002060006101000a81548160ff021916908315150217905550808061037190610f40565b915050610290565b50610382610a81565b73ffffffffffffffffffffffffffffffffffffffff167f32907f99105ba07e9a9502f7f75b3e3d05cb6ed62dcc6f3febe88cabaa2b5cd5838360016040516103cc9392919061102d565b60405180910390a25050565b60006103e26106f6565b73ffffffffffffffffffffffffffffffffffffffff168273ffffffffffffffffffffffffffffffffffffffff16149050919050565b60016000610423610a81565b73ffffffffffffffffffffffffffffffffffffffff1673ffffffffffffffffffffffffffffffffffffffff16815260200190815260200160002060009054906101000a900460ff166104aa576040517f08c379a00000000000000000000000000000000000000000000000000000000081526004016104a1906110ab565b60405180910390fd5b60005b828290508161ffff16101561065757600260006104c8610a81565b73ffffffffffffffffffffffffffffffffffffffff1673ffffffffffffffffffffffffffffffffffffffff168152602001908152602001600020600084848461ffff1681811061051b5761051a610ed4565b5b90506020020160208101906105309190610d8a565b73ffffffffffffffffffffffffffffffffffffffff1673ffffffffffffffffffffffffffffffffffffffff16815260200190815260200160002060009054906101000a900460ff166106445760016002600061058a610a81565b73ffffffffffffffffffffffffffffffffffffffff1673ffffffffffffffffffffffffffffffffffffffff168152602001908152602001600020600085858561ffff168181106105dd576105dc610ed4565b5b90506020020160208101906105f29190610d8a565b73ffffffffffffffffffffffffffffffffffffffff1673ffffffffffffffffffffffffffffffffffffffff16815260200190815260200160002060006101000a81548160ff0219169083151502179055505b808061064f90610f40565b9150506104ad565b50610660610a81565b73ffffffffffffffffffffffffffffffffffffffff167f65988a6b8046916f0f4e62d39dbf469f3e02f863b03c289b67592b09ffdaa45583836040516106a79291906110cb565b60405180910390a25050565b60026020528160005260406000206020528060005260406000206000915091509054906101000a900460ff1681565b6106ea610a90565b6106f46000610b17565b565b60007f0000000000000000000000000000000000000000000000000000000000000000905090565b60008060009054906101000a900473ffffffffffffffffffffffffffffffffffffffff16905090565b60016020528060005260406000206000915054906101000a900460ff1681565b60016000610773610a81565b73ffffffffffffffffffffffffffffffffffffffff1673ffffffffffffffffffffffffffffffffffffffff16815260200190815260200160002060009054906101000a900460ff166107fa576040517f08c379a00000000000000000000000000000000000000000000000000000000081526004016107f1906110ab565b60405180910390fd5b60005b828290508161ffff16101561099f5760026000610818610a81565b73ffffffffffffffffffffffffffffffffffffffff1673ffffffffffffffffffffffffffffffffffffffff168152602001908152602001600020600084848461ffff1681811061086b5761086a610ed4565b5b90506020020160208101906108809190610d8a565b73ffffffffffffffffffffffffffffffffffffffff1673ffffffffffffffffffffffffffffffffffffffff16815260200190815260200160002060009054906101000a900460ff161561098c57600260006108d9610a81565b73ffffffffffffffffffffffffffffffffffffffff1673ffffffffffffffffffffffffffffffffffffffff168152602001908152602001600020600084848461ffff1681811061092c5761092b610ed4565b5b90506020020160208101906109419190610d8a565b73ffffffffffffffffffffffffffffffffffffffff1673ffffffffffffffffffffffffffffffffffffffff16815260200190815260200160002060006101000a81549060ff02191690555b808061099790610f40565b9150506107fd565b506109a8610a81565b73ffffffffffffffffffffffffffffffffffffffff167f7e1f0f5c3d86dcaa974598a8eb984b279b5d5b75153e1f1247325dd0742888c783836040516109ef9291906110cb565b60405180910390a25050565b610a03610a90565b600073ffffffffffffffffffffffffffffffffffffffff168173ffffffffffffffffffffffffffffffffffffffff1603610a755760006040517f1e4fbdf7000000000000000000000000000000000000000000000000000000008152600401610a6c9190610e3c565b60405180910390fd5b610a7e81610b17565b50565b6000610a8b610bdb565b905090565b610a98610a81565b73ffffffffffffffffffffffffffffffffffffffff16610ab661071e565b73ffffffffffffffffffffffffffffffffffffffff1614610b1557610ad9610a81565b6040517f118cdaa7000000000000000000000000000000000000000000000000000000008152600401610b0c9190610e3c565b60405180910390fd5b565b60008060009054906101000a900473ffffffffffffffffffffffffffffffffffffffff169050816000806101000a81548173ffffffffffffffffffffffffffffffffffffffff021916908373ffffffffffffffffffffffffffffffffffffffff1602179055508173ffffffffffffffffffffffffffffffffffffffff168173ffffffffffffffffffffffffffffffffffffffff167f8be0079c531659141344cd1fd0a4f28419497f9722a3daafe3b4186f6b6457e060405160405180910390a35050565b600080600036905090506000610bef610c50565b9050610bfa336103d8565b8015610c065750808210155b15610c40576000368284610c1a91906110f9565b908092610c2993929190611137565b90610c3491906111b6565b60601c92505050610c4d565b610c48610c5f565b925050505b90565b6000610c5a610c67565b905090565b600033905090565b60006014905090565b600080fd5b600080fd5b600080fd5b600080fd5b600080fd5b60008083601f840112610c9f57610c9e610c7a565b5b8235905067ffffffffffffffff811115610cbc57610cbb610c7f565b5b602083019150836020820283011115610cd857610cd7610c84565b5b9250929050565b60008060208385031215610cf657610cf5610c70565b5b600083013567ffffffffffffffff811115610d1457610d13610c75565b5b610d2085828601610c89565b92509250509250929050565b600073ffffffffffffffffffffffffffffffffffffffff82169050919050565b6000610d5782610d2c565b9050919050565b610d6781610d4c565b8114610d7257600080fd5b50565b600081359050610d8481610d5e565b92915050565b600060208284031215610da057610d9f610c70565b5b6000610dae84828501610d75565b91505092915050565b60008115159050919050565b610dcc81610db7565b82525050565b6000602082019050610de76000830184610dc3565b92915050565b60008060408385031215610e0457610e03610c70565b5b6000610e1285828601610d75565b9250506020610e2385828601610d75565b9150509250929050565b610e3681610d4c565b82525050565b6000602082019050610e516000830184610e2d565b92915050565b600082825260208201905092915050565b7f4e6f207061796d656e74206368616e6e656c20697320676976656e0000000000600082015250565b6000610e9e601b83610e57565b9150610ea982610e68565b602082019050919050565b60006020820190508181036000830152610ecd81610e91565b9050919050565b7f4e487b7100000000000000000000000000000000000000000000000000000000600052603260045260246000fd5b7f4e487b7100000000000000000000000000000000000000000000000000000000600052601160045260246000fd5b600061ffff82169050919050565b6000610f4b82610f32565b915061ffff8203610f5f57610f5e610f03565b5b600182019050919050565b600082825260208201905092915050565b6000819050919050565b610f8e81610d4c565b82525050565b6000610fa08383610f85565b60208301905092915050565b6000610fbb6020840184610d75565b905092915050565b6000602082019050919050565b6000610fdc8385610f6a565b9350610fe782610f7b565b8060005b8581101561102057610ffd8284610fac565b6110078882610f94565b975061101283610fc3565b925050600181019050610feb565b5085925050509392505050565b60006040820190508181036000830152611048818587610fd0565b90506110576020830184610dc3565b949350505050565b7f53656c6c6572206e6f7420726567697374657265640000000000000000000000600082015250565b6000611095601583610e57565b91506110a08261105f565b602082019050919050565b600060208201905081810360008301526110c481611088565b9050919050565b600060208201905081810360008301526110e6818486610fd0565b90509392505050565b6000819050919050565b6000611104826110ef565b915061110f836110ef565b925082820390508181111561112757611126610f03565b5b92915050565b600080fd5b600080fd5b6000808585111561114b5761114a61112d565b5b8386111561115c5761115b611132565b5b6001850283019150848603905094509492505050565b600082905092915050565b60007fffffffffffffffffffffffffffffffffffffffff00000000000000000000000082169050919050565b600082821b905092915050565b60006111c28383611172565b826111cd813561117d565b9250601482101561120d576112087fffffffffffffffffffffffffffffffffffffffff000000000000000000000000836014036008026111a9565b831692505b50509291505056fea2646970667358221220197ec174c3b2b7859a80e16e0149cb9710d10a04d2c0575028baf2163249dbb664736f6c63430008150033",
  "linkReferences": {},
  "deployedLinkReferences": {}
}