{
  "_format": "hh-sol-artifact-1",
  "contractName": "SellerRegistry",
  "sourceName": "contracts/SellerRegistry.sol",
  "abi": [
    {
      "inputs": [
        {
          "internalType": "address",
          "name": "forwarder",
          "type": "address"
        }
      ],
      "stateMutability": "nonpayable",
      "type": "constructor"
    },
    {
      "inputs": [
        {
          "internalType": "address",
          "name": "owner",
          "type": "address"
        }
      ],
      "name": "OwnableInvalidOwner",
      "type": "error"
    },
    {
      "inputs": [
        {
          "internalType": "address",
          "name": "account",
          "type": "address"
        }
      ],
      "name": "OwnableUnauthorizedAccount",
      "type": "error"
    },
    {
      "anonymous": false,
      "inputs": [
        {
          "indexed": true,
          "internalType": "address",
          "name": "previousOwner",
          "type": "address"
        },
        {
          "indexed": true,
          "internalType": "address",
          "name": "newOwner",
          "type": "address"
        }
      ],
      "name": "OwnershipTransferred",
      "type": "event"
    },
    {
      "anonymous": false,
      "inputs": [
        {
          "indexed": true,
          "internalType": "address",
          "name": "seller",
          "type": "address"
        },
        {
          "indexed": false,
          "internalType": "address[]",
          "name": "paymentChannels",
          "type": "address[]"
        }
      ],
      "name": "PaymentChannelsAdded",
      "type": "event"
    },
    {
      "anonymous": false,
      "inputs": [
        {
          "indexed": true,
          "internalType": "address",
          "name": "seller",
          "type": "address"
        },
        {
          "indexed": false,
          "internalType": "address[]",
          "name": "paymentChannels",
          "type": "address[]"
        }
      ],
      "name": "PaymentChannelsRemoved",
      "type": "event"
    },
    {
      "anonymous": false,
      "inputs": [
        {
          "indexed": true,
          "internalType": "address",
          "name": "seller",
          "type": "address"
        },
        {
          "indexed": false,
          "internalType": "address[]",
          "name": "paymentChannels",
          "type": "address[]"
        },
        {
          "indexed": false,
          "internalType": "bool",
          "name": "isSuccess",
          "type": "bool"
        }
      ],
      "name": "SellerRegistered",
      "type": "event"
    },
    {
      "inputs": [
        {
          "internalType": "address[]",
          "name": "paymentChannels_",
          "type": "address[]"
        }
      ],
      "name": "addPaymentChannels",
      "outputs": [],
      "stateMutability": "nonpayable",
      "type": "function"
    },
    {
      "inputs": [
        {
          "internalType": "address",
          "name": "",
          "type": "address"
        }
      ],
      "name": "isActiveSeller",
      "outputs": [
        {
          "internalType": "bool",
          "name": "",
          "type": "bool"
        }
      ],
      "stateMutability": "view",
      "type": "function"
    },
    {
      "inputs": [
        {
          "internalType": "address",
          "name": "forwarder",
          "type": "address"
        }
      ],
      "name": "isTrustedForwarder",
      "outputs": [
        {
          "internalType": "bool",
          "name": "",
          "type": "bool"
        }
      ],
      "stateMutability": "view",
      "type": "function"
    },
    {
      "inputs": [],
      "name": "owner",
      "outputs": [
        {
          "internalType": "address",
          "name": "",
          "type": "address"
        }
      ],
      "stateMutability": "view",
      "type": "function"
    },
    {
      "inputs": [
        {
          "internalType": "address",
          "name": "",
          "type": "address"
        },
        {
          "internalType": "address",
          "name": "",
          "type": "address"
        }
      ],
      "name": "paymentChannels",
      "outputs": [
        {
          "internalType": "bool",
          "name": "",
          "type": "bool"
        }
      ],
      "stateMutability": "view",
      "type": "function"
    },
    {
      "inputs": [
        {
          "internalType": "address[]",
          "name": "paymentChannels_",
          "type": "address[]"
        }
      ],
      "name": "registerSeller",
      "outputs": [],
      "stateMutability": "nonpayable",
      "type": "function"
    },
    {
      "inputs": [
        {
          "internalType": "address[]",
          "name": "paymentChannels_",
          "type": "address[]"
        }
      ],
      "name": "removePaymentChannels",
      "outputs": [],
      "stateMutability": "nonpayable",
      "type": "function"
    },
    {
      "inputs": [],
      "name": "renounceOwnership",
      "outputs": [],
      "stateMutability": "nonpayable",
      "type": "function"
    },
    {
      "inputs": [
        {
          "internalType": "address",
          "name": "newOwner",
          "type": "address"
        }
      ],
      "name": "transferOwnership",
      "outputs": [],
      "stateMutability": "nonpayable",
      "type": "function"
    },
    {
      "inputs": [],
      "name": "trustedForwarder",
      "outputs": [
        {
          "internalType": "address",
          "name": "",
          "type": "address"
        }
      ],
      "stateMutability": "view",
      "type": "function"
    }
  ],
  "bytecode": "0x60a06040523462000040576200001e620000186200011f565b62000145565b6200002862000046565b6110ac6200036e82396080518161075001526110ac90f35b6200004c565b60405190565b600080fd5b601f801991011690565b634e487b7160e01b600052604160045260246000fd5b906200007d9062000051565b810190811060018060401b038211176200009657604052565b6200005b565b90620000b3620000ab62000046565b928362000071565b565b600080fd5b60018060a01b031690565b620000d090620000ba565b90565b620000de81620000c5565b03620000e657565b600080fd5b90505190620000fa82620000d3565b565b9060208282031262000119576200011691600001620000eb565b90565b620000b5565b620001426200141a8038038062000136816200009c565b928339810190620000fc565b90565b62000151903362000153565b565b6200015e9162000160565b565b906200016c90620001ce565b608052565b90565b90565b620001906200018a620001969262000171565b62000174565b620000ba565b90565b620001a49062000177565b90565b620001b290620000c5565b9052565b9190620001cc90600060208501940190620001a7565b565b80620001f0620001e9620001e3600062000199565b620000c5565b91620000c5565b146200020357620002019062000300565b565b6200023462000213600062000199565b6200021d62000046565b918291631e4fbdf760e01b835260048301620001b6565b0390fd5b60001c90565b60018060a01b031690565b620002586200025e9162000238565b6200023e565b90565b6200026d905462000249565b90565b60001b90565b906200028960018060a01b039162000270565b9181191691161790565b620002ac620002a6620002b292620000ba565b62000174565b620000ba565b90565b620002c09062000293565b90565b620002ce90620002b5565b90565b90565b90620002ee620002e8620002f692620002c3565b620002d1565b825462000276565b9055565b60000190565b6200030c600062000261565b62000319826000620002d4565b90620003516200034a7f8be0079c531659141344cd1fd0a4f28419497f9722a3daafe3b4186f6b6457e093620002c3565b91620002c3565b916200035c62000046565b806200036881620002fa565b0390a356fe60806040526004361015610013575b610525565b61001e6000356100bd565b80632eeb6cf0146100b8578063572b6c05146100b35780635fb984c2146100ae57806370c3782b146100a9578063715018a6146100a45780637da0a8771461009f5780638da5cb5b1461009a5780639c8b440214610095578063e1db8aa9146100905763f2fde38b0361000e576104f2565b6104be565b610489565b61043a565b610405565b6103af565b610369565b61024e565b610219565b610163565b60e01c90565b60405190565b600080fd5b600080fd5b600080fd5b600080fd5b600080fd5b600080fd5b909182601f830112156101215781359167ffffffffffffffff831161011c57602001926020830284011161011757565b6100e2565b6100dd565b6100d8565b9060208282031261015857600082013567ffffffffffffffff81116101535761014f92016100e7565b9091565b6100d3565b6100ce565b60000190565b346101925761017c610176366004610126565b90610bd0565b6101846100c3565b8061018e8161015d565b0390f35b6100c9565b60018060a01b031690565b6101ab90610197565b90565b6101b7816101a2565b036101be57565b600080fd5b905035906101d0826101ae565b565b906020828203126101ec576101e9916000016101c3565b90565b6100ce565b151590565b6101ff906101f1565b9052565b9190610217906000602085019401906101f6565b565b346102495761024561023461022f3660046101d2565b610777565b61023c6100c3565b91829182610203565b0390f35b6100c9565b3461027d57610267610261366004610126565b90610da5565b61026f6100c3565b806102798161015d565b0390f35b6100c9565b91906040838203126102ab578061029f6102a892600086016101c3565b936020016101c3565b90565b6100ce565b90565b6102c76102c26102cc92610197565b6102b0565b610197565b90565b6102d8906102b3565b90565b6102e4906102cf565b90565b906102f1906102db565b600052602052604060002090565b90610309906102db565b600052602052604060002090565b1c90565b60ff1690565b6103319060086103369302610317565b61031b565b90565b906103449154610321565b90565b6103616103669261035c6002936000946102e7565b6102ff565b610339565b90565b3461039a5761039661038561037f366004610282565b90610347565b61038d6100c3565b91829182610203565b0390f35b6100c9565b60009103126103aa57565b6100ce565b346103dd576103bf36600461039f565b6103c76105c8565b6103cf6100c3565b806103d98161015d565b0390f35b6100c9565b6103eb906101a2565b9052565b9190610403906000602085019401906103e2565b565b346104355761041536600461039f565b610431610420610745565b6104286100c3565b918291826103ef565b0390f35b6100c9565b3461046a5761044a36600461039f565b610466610455610561565b61045d6100c3565b918291826103ef565b0390f35b6100c9565b610486906104816001916000926102ff565b610339565b90565b346104b9576104b56104a461049f3660046101d2565b61046f565b6104ac6100c3565b91829182610203565b0390f35b6100c9565b346104ed576104d76104d1366004610126565b90610f3a565b6104df6100c3565b806104e98161015d565b0390f35b6100c9565b346105205761050a6105053660046101d2565b610695565b6105126100c3565b8061051c8161015d565b0390f35b6100c9565b600080fd5b600090565b60001c90565b60018060a01b031690565b61054c6105519161052f565b610535565b90565b61055e9054610540565b90565b61056961052a565b506105746000610554565b90565b61057f6105d2565b6105876105b4565b565b90565b6105a061059b6105a592610589565b6102b0565b610197565b90565b6105b19061058c565b90565b6105c66105c160006105a8565b6106e4565b565b6105d0610577565b565b6105da610561565b6105f36105ed6105e861079d565b6101a2565b916101a2565b036105fa57565b61062361060561079d565b61060d6100c3565b91829163118cdaa760e01b8352600483016103ef565b0390fd5b610638906106336105d2565b61063a565b565b8061065661065061064b60006105a8565b6101a2565b916101a2565b1461066657610664906106e4565b565b61069161067360006105a8565b61067b6100c3565b918291631e4fbdf760e01b8352600483016103ef565b0390fd5b61069e90610627565b565b60001b90565b906106b760018060a01b03916106a0565b9181191691161790565b90565b906106d96106d46106e0926102db565b6106c1565b82546106a6565b9055565b6106ee6000610554565b6106f98260006106c4565b9061072d6107277f8be0079c531659141344cd1fd0a4f28419497f9722a3daafe3b4186f6b6457e0936102db565b916102db565b916107366100c3565b806107408161015d565b0390a3565b61074d61052a565b507f000000000000000000000000000000000000000000000000000000000000000090565b600090565b61077f610772565b5061079961079361078e610745565b6101a2565b916101a2565b1490565b6107a561052a565b506107ae6108a6565b90565b5090565b90565b634e487b7160e01b600052601160045260246000fd5b6107dd6107e3919392936107b5565b926107b5565b82039182116107ee57565b6107b8565b600080fd5b600080fd5b9093929384831161081d578411610818576001820201920390565b6107f8565b6107f3565b6bffffffffffffffffffffffff191690565b1b90565b9061084661084d91836107b1565b9135610822565b906014811061085b575b5090565b610879906bffffffffffffffffffffffff1990601403600802610834565b1638610857565b60601c90565b61089261089791610880565b6102b3565b90565b6108a390610886565b90565b6108ae61052a565b506108bb600036906107b1565b6108c3610941565b6108cc33610777565b80610914575b600014610907576108f96108ff91610904936108f160009236926107ce565b9080926107fd565b90610838565b61089a565b90565b505061091161092f565b90565b5081610928610922836107b5565b916107b5565b10156108d2565b61093761052a565b503390565b600090565b61094961093c565b50610952610974565b90565b90565b61096c61096761097192610955565b6102b0565b6107b5565b90565b61097c61093c565b506109876014610958565b90565b5090565b6109a261099d6109a792610589565b6102b0565b6107b5565b90565b60209181520190565b60007f4e6f207061796d656e74206368616e6e656c20697320676976656e0000000000910152565b6109e8601b6020926109aa565b6109f1816109b3565b0190565b610a0b90602081019060008183039101526109db565b90565b15610a1557565b610a1d6100c3565b62461bcd60e51b815280610a33600482016109f5565b0390fd5b90610a4360ff916106a0565b9181191691161790565b610a56906101f1565b90565b90565b90610a71610a6c610a7892610a4d565b610a59565b8254610a37565b9055565b61ffff1690565b610a97610a92610a9c92610589565b6102b0565b610a7c565b90565b610aa890610a7c565b61ffff8114610ab75760010190565b6107b8565b610ad0610acb610ad592610a7c565b6102b0565b6107b5565b90565b634e487b7160e01b600052603260045260246000fd5b9190811015610afe576020020190565b610ad8565b35610b0d816101ae565b90565b60209181520190565b90565b610b25906101a2565b9052565b90610b3681602093610b1c565b0190565b50610b499060208101906101c3565b90565b60200190565b91610b6082610b6692610b10565b92610b19565b90816000905b828210610b7a575050505090565b90919293610b9c610b96600192610b918886610b3a565b610b29565b95610b4c565b920190929192610b6c565b939290610bc6602091610bce94604088019188830360008a0152610b52565b9401906101f6565b565b610bf8610bde82849061098a565b610bf1610beb600061098e565b916107b5565b1415610a0e565b610c156001610c106001610c0a61079d565b906102ff565b610a5c565b610c1f6000610a83565b5b80610c3d610c37610c3285879061098a565b6107b5565b91610abc565b1015610c9357610c8e90610c896001610c84610c626002610c5c61079d565b906102e7565b610c7e610c79888a610c7389610abc565b91610aee565b610b03565b906102ff565b610a5c565b610a9f565b610c20565b50610c9c61079d565b9091600192610ce0610cce7f32907f99105ba07e9a9502f7f75b3e3d05cb6ed62dcc6f3febe88cabaa2b5cd5946102db565b94610cd76100c3565b93849384610ba7565b0390a2565b610cf1610cf69161052f565b61031b565b90565b610d039054610ce5565b90565b60007f53656c6c6572206e6f7420726567697374657265640000000000000000000000910152565b610d3b60156020926109aa565b610d4481610d06565b0190565b610d5e9060208101906000818303910152610d2e565b90565b15610d6857565b610d706100c3565b62461bcd60e51b815280610d8660048201610d48565b0390fd5b9091610da29260208301926000818503910152610b52565b90565b610dc8610dc3610dbe6001610db861079d565b906102ff565b610cf9565b610d61565b610dd26000610a83565b5b80610df0610dea610de585879061098a565b6107b5565b91610abc565b1015610e9057610e8690610e3a610e35610e136002610e0d61079d565b906102e7565b610e2f610e2a8789610e2488610abc565b91610aee565b610b03565b906102ff565b610cf9565b610e8b57610e806001610e7b610e596002610e5361079d565b906102e7565b610e75610e70888a610e6a89610abc565b91610aee565b610b03565b906102ff565b610a5c565b5b610a9f565b610dd3565b610e81565b50610e9961079d565b9091610ec57f65988a6b8046916f0f4e62d39dbf469f3e02f863b03c289b67592b09ffdaa455926102db565b92610eda610ed16100c3565b92839283610d8a565b0390a2565b91906008610efa910291610ef460ff84610834565b92610834565b9181191691161790565b9190610f1a610f15610f2293610a4d565b610a59565b908354610edf565b9055565b610f3891610f32610772565b91610f04565b565b90610f5e610f59610f546001610f4e61079d565b906102ff565b610cf9565b610d61565b610f686000610a83565b5b80610f86610f80610f7b86869061098a565b6107b5565b91610abc565b101561102657610fda90610fd0610fcb610fa96002610fa361079d565b906102e7565b610fc5610fc08888610fba88610abc565b91610aee565b610b03565b906102ff565b610cf9565b610fdf575b610a9f565b610f69565b611021600061101c610ffa6002610ff461079d565b906102e7565b611016611011898961100b89610abc565b91610aee565b610b03565b906102ff565b610f26565b610fd5565b509061103061079d565b909161105c7f7e1f0f5c3d86dcaa974598a8eb984b279b5d5b75153e1f1247325dd0742888c7926102db565b926110716110686100c3565b92839283610d8a565b0390a256fea2646970667358221220d03c2a81a286d77ad21d3f9eb5063131095d619137466a7e5822000881bc6e9264736f6c63430008150033",
  "linkReferences": {},
  "deployedLinkReferences": {}
}