{
  "_format": "hh-sol-artifact-1",
  "contractName": "ProfitEscrow",
  "sourceName": "contracts/ProfitEscrow.sol",
  "abi": [
    {
      "inputs": [
        {
          "internalType": "address",
          "name": "itemRegistry_",
          "type": "address"
        },
        {
          "internalType": "address",
          "name": "priceTable_",
          "type": "address"
        },
        {
          "internalType": "address",
          "name": "forwarderAddress",
          "type": "address"
        }
      ],
      "stateMutability": "nonpayable",
      "type": "constructor"
    },
    {
      "inputs": [
        {
          "internalType": "address",
          "name": "owner",
          "type": "address"
        }
      ],
      "name": "OwnableInvalidOwner",
      "type": "error"
    },
    {
      "inputs": [
        {
          "internalType": "address",
          "name": "account",
          "type": "address"
        }
      ],
      "name": "OwnableUnauthorizedAccount",
      "type": "error"
    },
    {
      "anonymous": false,
      "inputs": [
        {
          "indexed": true,
          "internalType": "address",
          "name": "previousOwner",
          "type": "address"
        },
        {
          "indexed": true,
          "internalType": "address",
          "name": "newOwner",
          "type": "address"
        }
      ],
      "name": "OwnershipTransferred",
      "type": "event"
    },
    {
      "anonymous": false,
      "inputs": [
        {
          "indexed": true,
          "internalType": "address",
          "name": "newProcessor",
          "type": "address"
        }
      ],
      "name": "ProcessorUpdated",
      "type": "event"
    },
    {
      "anonymous": false,
      "inputs": [
        {
          "indexed": true,
          "internalType": "uint32",
          "name": "itemID",
          "type": "uint32"
        },
        {
          "indexed": true,
          "internalType": "address",
          "name": "token",
          "type": "address"
        },
        {
          "indexed": false,
          "internalType": "uint256",
          "name": "amount",
          "type": "uint256"
        }
      ],
      "name": "ProfitAccumulated",
      "type": "event"
    },
    {
      "anonymous": false,
      "inputs": [
        {
          "indexed": true,
          "internalType": "uint32",
          "name": "itemID",
          "type": "uint32"
        },
        {
          "indexed": true,
          "internalType": "address",
          "name": "token",
          "type": "address"
        },
        {
          "indexed": true,
          "internalType": "address",
          "name": "recipient",
          "type": "address"
        },
        {
          "indexed": false,
          "internalType": "uint256",
          "name": "amount",
          "type": "uint256"
        }
      ],
      "name": "ProfitClaimed",
      "type": "event"
    },
    {
      "anonymous": false,
      "inputs": [
        {
          "indexed": true,
          "internalType": "uint32",
          "name": "itemID",
          "type": "uint32"
        },
        {
          "indexed": true,
          "internalType": "address",
          "name": "token",
          "type": "address"
        },
        {
          "indexed": false,
          "internalType": "uint256",
          "name": "amount",
          "type": "uint256"
        }
      ],
      "name": "ProfitPending",
      "type": "event"
    },
    {
      "anonymous": false,
      "inputs": [],
      "name": "ProfitSettled",
      "type": "event"
    },
    {
      "inputs": [
        {
          "internalType": "uint32",
          "name": "itemID",
          "type": "uint32"
        },
        {
          "internalType": "address",
          "name": "token",
          "type": "address"
        },
        {
          "internalType": "uint256",
          "name": "amount",
          "type": "uint256"
        }
      ],
      "name": "accumulate",
      "outputs": [],
      "stateMutability": "nonpayable",
      "type": "function"
    },
    {
      "inputs": [
        {
          "internalType": "uint32",
          "name": "itemID",
          "type": "uint32"
        },
        {
          "internalType": "address",
          "name": "token",
          "type": "address"
        },
        {
          "internalType": "uint256",
          "name": "amount",
          "type": "uint256"
        }
      ],
      "name": "accumulatePendingProfit",
      "outputs": [],
      "stateMutability": "nonpayable",
      "type": "function"
    },
    {
      "inputs": [
        {
          "internalType": "uint32",
          "name": "itemID",
          "type": "uint32"
        },
        {
          "internalType": "address",
          "name": "token",
          "type": "address"
        },
        {
          "internalType": "address",
          "name": "recipient",
          "type": "address"
        }
      ],
      "name": "claim",
      "outputs": [],
      "stateMutability": "nonpayable",
      "type": "function"
    },
    {
      "inputs": [
        {
          "internalType": "uint32",
          "name": "itemID",
          "type": "uint32"
        },
        {
          "internalType": "address",
          "name": "token",
          "type": "address"
        }
      ],
      "name": "getBalanceFor",
      "outputs": [
        {
          "internalType": "uint256",
          "name": "",
          "type": "uint256"
        }
      ],
      "stateMutability": "view",
      "type": "function"
    },
    {
      "inputs": [
        {
          "internalType": "uint32",
          "name": "itemID",
          "type": "uint32"
        },
        {
          "internalType": "address",
          "name": "token",
          "type": "address"
        }
      ],
      "name": "getPendingProfit",
      "outputs": [
        {
          "internalType": "uint256",
          "name": "",
          "type": "uint256"
        }
      ],
      "stateMutability": "view",
      "type": "function"
    },
    {
      "inputs": [],
      "name": "getWholePendingProfit",
      "outputs": [
        {
          "internalType": "uint256",
          "name": "",
          "type": "uint256"
        }
      ],
      "stateMutability": "view",
      "type": "function"
    },
    {
      "inputs": [
        {
          "internalType": "address",
          "name": "forwarder",
          "type": "address"
        }
      ],
      "name": "isTrustedForwarder",
      "outputs": [
        {
          "internalType": "bool",
          "name": "",
          "type": "bool"
        }
      ],
      "stateMutability": "view",
      "type": "function"
    },
    {
      "inputs": [],
      "name": "itemRegistry",
      "outputs": [
        {
          "internalType": "contract ItemRegistry",
          "name": "",
          "type": "address"
        }
      ],
      "stateMutability": "view",
      "type": "function"
    },
    {
      "inputs": [],
      "name": "owner",
      "outputs": [
        {
          "internalType": "address",
          "name": "",
          "type": "address"
        }
      ],
      "stateMutability": "view",
      "type": "function"
    },
    {
      "inputs": [],
      "name": "paymentProcessor",
      "outputs": [
        {
          "internalType": "address",
          "name": "",
          "type": "address"
        }
      ],
      "stateMutability": "view",
      "type": "function"
    },
    {
      "inputs": [],
      "name": "priceTable",
      "outputs": [
        {
          "internalType": "contract PriceTable",
          "name": "",
          "type": "address"
        }
      ],
      "stateMutability": "view",
      "type": "function"
    },
    {
      "inputs": [],
      "name": "renounceOwnership",
      "outputs": [],
      "stateMutability": "nonpayable",
      "type": "function"
    },
    {
      "inputs": [
        {
          "internalType": "address",
          "name": "processor",
          "type": "address"
        }
      ],
      "name": "setPaymentProcessor",
      "outputs": [],
      "stateMutability": "nonpayable",
      "type": "function"
    },
    {
      "inputs": [
        {
          "internalType": "address",
          "name": "token",
          "type": "address"
        },
        {
          "internalType": "uint32[]",
          "name": "itemIDs",
          "type": "uint32[]"
        }
      ],
      "name": "settlePendingProfit",
      "outputs": [],
      "stateMutability": "nonpayable",
      "type": "function"
    },
    {
      "inputs": [
        {
          "internalType": "address",
          "name": "newOwner",
          "type": "address"
        }
      ],
      "name": "transferOwnership",
      "outputs": [],
      "stateMutability": "nonpayable",
      "type": "function"
    },
    {
      "inputs": [],
      "name": "trustedForwarder",
      "outputs": [
        {
          "internalType": "address",
          "name": "",
          "type": "address"
        }
      ],
      "stateMutability": "view",
      "type": "function"
    }
  ],
  "bytecode": "0x60e06040523480156200001157600080fd5b506040516200202838038062002028833981810160405281019062000037919062000298565b33818082600073ffffffffffffffffffffffffffffffffffffffff168173ffffffffffffffffffffffffffffffffffffffff1603620000b05760006040517f1e4fbdf7000000000000000000000000000000000000000000000000000000008152600401620000a7919062000305565b60405180910390fd5b620000c1816200016a60201b60201c565b508073ffffffffffffffffffffffffffffffffffffffff1660808173ffffffffffffffffffffffffffffffffffffffff16815250505050508273ffffffffffffffffffffffffffffffffffffffff1660a08173ffffffffffffffffffffffffffffffffffffffff16815250508173ffffffffffffffffffffffffffffffffffffffff1660c08173ffffffffffffffffffffffffffffffffffffffff168152505050505062000322565b60008060009054906101000a900473ffffffffffffffffffffffffffffffffffffffff169050816000806101000a81548173ffffffffffffffffffffffffffffffffffffffff021916908373ffffffffffffffffffffffffffffffffffffffff1602179055508173ffffffffffffffffffffffffffffffffffffffff168173ffffffffffffffffffffffffffffffffffffffff167f8be0079c531659141344cd1fd0a4f28419497f9722a3daafe3b4186f6b6457e060405160405180910390a35050565b600080fd5b600073ffffffffffffffffffffffffffffffffffffffff82169050919050565b6000620002608262000233565b9050919050565b620002728162000253565b81146200027e57600080fd5b50565b600081519050620002928162000267565b92915050565b600080600060608486031215620002b457620002b36200022e565b5b6000620002c48682870162000281565b9350506020620002d78682870162000281565b9250506040620002ea8682870162000281565b9150509250925092565b620002ff8162000253565b82525050565b60006020820190506200031c6000830184620002f4565b92915050565b60805160a05160c051611ccf62000359600039600061039e015260008181610a2f0152610dba01526000610d6b0152611ccf6000f3fe608060405234801561001057600080fd5b50600436106101005760003560e01c8063715018a611610097578063b92916d911610066578063b92916d914610275578063f1c6bdf814610291578063f2fde38b146102af578063f5cb7c33146102cb57610100565b8063715018a6146102115780637da0a8771461021b5780638da5cb5b14610239578063957047f61461025757610100565b8063275a7a4e116100d3578063275a7a4e14610179578063572b6c05146101a95780635acf5d6d146101d95780635e106fa7146101f557610100565b80630511a66e14610105578063088b0d7514610123578063100f9bf81461013f57806320bc0c8f1461015d575b600080fd5b61010d6102fb565b60405161011a9190611274565b60405180910390f35b61013d600480360381019061013891906112f7565b61030d565b005b61014761039c565b6040516101549190611383565b60405180910390f35b61017760048036038101906101729190611406565b6103c0565b005b610193600480360381019061018e9190611459565b610524565b6040516101a09190611274565b60405180910390f35b6101c360048036038101906101be91906112f7565b61058b565b6040516101d091906114b4565b60405180910390f35b6101f360048036038101906101ee9190611534565b6105ca565b005b61020f600480360381019061020a9190611594565b610a0e565b005b610219610d53565b005b610223610d67565b60405161023091906115f6565b60405180910390f35b610241610d8f565b60405161024e91906115f6565b60405180910390f35b61025f610db8565b60405161026c9190611632565b60405180910390f35b61028f600480360381019061028a9190611406565b610ddc565b005b610299610f59565b6040516102a691906115f6565b60405180910390f35b6102c960048036038101906102c491906112f7565b610f7f565b005b6102e560048036038101906102e09190611459565b611005565b6040516102f29190611274565b60405180910390f35b600061030561106c565b600454905090565b61031561106c565b80600160006101000a81548173ffffffffffffffffffffffffffffffffffffffff021916908373ffffffffffffffffffffffffffffffffffffffff1602179055508073ffffffffffffffffffffffffffffffffffffffff167f94d1eaaba297ffb0e6a23b867a3d6f936cca4ae0045709e596d461aee2e362ee60405160405180910390a250565b7f000000000000000000000000000000000000000000000000000000000000000081565b600160009054906101000a900473ffffffffffffffffffffffffffffffffffffffff1673ffffffffffffffffffffffffffffffffffffffff166104016110f3565b73ffffffffffffffffffffffffffffffffffffffff1614610457576040517f08c379a000000000000000000000000000000000000000000000000000000000815260040161044e906116aa565b60405180910390fd5b80600260008563ffffffff1663ffffffff16815260200190815260200160002060008473ffffffffffffffffffffffffffffffffffffffff1673ffffffffffffffffffffffffffffffffffffffff16815260200190815260200160002060008282546104c391906116f9565b925050819055508173ffffffffffffffffffffffffffffffffffffffff168363ffffffff167fa5bad89c05c4fb73eb7cb9a2196edafb96670005a21bac4f045390455b04d717836040516105179190611274565b60405180910390a3505050565b6000600360008463ffffffff1663ffffffff16815260200190815260200160002060008373ffffffffffffffffffffffffffffffffffffffff1673ffffffffffffffffffffffffffffffffffffffff16815260200190815260200160002054905092915050565b6000610595610d67565b73ffffffffffffffffffffffffffffffffffffffff168273ffffffffffffffffffffffffffffffffffffffff16149050919050565b6105d261106c565b60008390506000805b848490508110156107735760008585838181106105fb576105fa61172d565b5b9050602002016020810190610610919061175c565b90506000600360008363ffffffff1663ffffffff16815260200190815260200160002060008973ffffffffffffffffffffffffffffffffffffffff1673ffffffffffffffffffffffffffffffffffffffff168152602001908152602001600020549050600081111561075e5780600260008463ffffffff1663ffffffff16815260200190815260200160002060008a73ffffffffffffffffffffffffffffffffffffffff1673ffffffffffffffffffffffffffffffffffffffff16815260200190815260200160002060008282546106e891906116f9565b9250508190555080846106fb91906116f9565b9350600360008363ffffffff1663ffffffff16815260200190815260200160002060008973ffffffffffffffffffffffffffffffffffffffff1673ffffffffffffffffffffffffffffffffffffffff168152602001908152602001600020600090555b5050808061076b90611789565b9150506105db565b50806004600082825461078691906117d1565b92505081905550808273ffffffffffffffffffffffffffffffffffffffff1663dd62ed3e6107b2610d8f565b306040518363ffffffff1660e01b81526004016107d0929190611805565b602060405180830381865afa1580156107ed573d6000803e3d6000fd5b505050506040513d601f19601f820116820180604052508101906108119190611843565b1015610852576040517f08c379a0000000000000000000000000000000000000000000000000000000008152600401610849906118bc565b60405180910390fd5b808273ffffffffffffffffffffffffffffffffffffffff166370a08231610877610d8f565b6040518263ffffffff1660e01b815260040161089391906115f6565b602060405180830381865afa1580156108b0573d6000803e3d6000fd5b505050506040513d601f19601f820116820180604052508101906108d49190611843565b1015610915576040517f08c379a000000000000000000000000000000000000000000000000000000000815260040161090c90611928565b60405180910390fd5b8173ffffffffffffffffffffffffffffffffffffffff166323b872dd610939610d8f565b30846040518463ffffffff1660e01b815260040161095993929190611948565b6020604051808303816000875af1158015610978573d6000803e3d6000fd5b505050506040513d601f19601f8201168201806040525081019061099c91906119ab565b6109db576040517f08c379a00000000000000000000000000000000000000000000000000000000081526004016109d290611a24565b60405180910390fd5b7f439bbfbccaaca82005d1f9239bdb7abbe32052e1319c3a1fe94264e3ec14b09e60405160405180910390a15050505050565b82610a176110f3565b73ffffffffffffffffffffffffffffffffffffffff167f000000000000000000000000000000000000000000000000000000000000000073ffffffffffffffffffffffffffffffffffffffff16639479df9c836040518263ffffffff1660e01b8152600401610a869190611a53565b602060405180830381865afa158015610aa3573d6000803e3d6000fd5b505050506040513d601f19601f82011682018060405250810190610ac79190611a83565b73ffffffffffffffffffffffffffffffffffffffff1614610b1d576040517f08c379a0000000000000000000000000000000000000000000000000000000008152600401610b1490611afc565b60405180910390fd5b6000600260008663ffffffff1663ffffffff16815260200190815260200160002060008573ffffffffffffffffffffffffffffffffffffffff1673ffffffffffffffffffffffffffffffffffffffff16815260200190815260200160002054905060008111610bc1576040517f08c379a0000000000000000000000000000000000000000000000000000000008152600401610bb890611b68565b60405180910390fd5b6000600260008763ffffffff1663ffffffff16815260200190815260200160002060008673ffffffffffffffffffffffffffffffffffffffff1673ffffffffffffffffffffffffffffffffffffffff168152602001908152602001600020819055508373ffffffffffffffffffffffffffffffffffffffff1663a9059cbb84836040518363ffffffff1660e01b8152600401610c5e929190611b88565b6020604051808303816000875af1158015610c7d573d6000803e3d6000fd5b505050506040513d601f19601f82011682018060405250810190610ca191906119ab565b610ce0576040517f08c379a0000000000000000000000000000000000000000000000000000000008152600401610cd790611a24565b60405180910390fd5b8273ffffffffffffffffffffffffffffffffffffffff168473ffffffffffffffffffffffffffffffffffffffff168663ffffffff167fbff0385f9eb39f0d66c723731d5e5d7c09e140ba89161769e6bee4969f9b8eab84604051610d449190611274565b60405180910390a45050505050565b610d5b61106c565b610d656000611102565b565b60007f0000000000000000000000000000000000000000000000000000000000000000905090565b60008060009054906101000a900473ffffffffffffffffffffffffffffffffffffffff16905090565b7f000000000000000000000000000000000000000000000000000000000000000081565b600160009054906101000a900473ffffffffffffffffffffffffffffffffffffffff1673ffffffffffffffffffffffffffffffffffffffff16610e1d6110f3565b73ffffffffffffffffffffffffffffffffffffffff1614610e73576040517f08c379a0000000000000000000000000000000000000000000000000000000008152600401610e6a906116aa565b60405180910390fd5b80600360008563ffffffff1663ffffffff16815260200190815260200160002060008473ffffffffffffffffffffffffffffffffffffffff1673ffffffffffffffffffffffffffffffffffffffff1681526020019081526020016000206000828254610edf91906116f9565b925050819055508060046000828254610ef891906116f9565b925050819055508173ffffffffffffffffffffffffffffffffffffffff168363ffffffff167f8a380b086402119b330c01eaa8a00474eae7482bf08248a14323966f0b75fabc83604051610f4c9190611274565b60405180910390a3505050565b600160009054906101000a900473ffffffffffffffffffffffffffffffffffffffff1681565b610f8761106c565b600073ffffffffffffffffffffffffffffffffffffffff168173ffffffffffffffffffffffffffffffffffffffff1603610ff95760006040517f1e4fbdf7000000000000000000000000000000000000000000000000000000008152600401610ff091906115f6565b60405180910390fd5b61100281611102565b50565b6000600260008463ffffffff1663ffffffff16815260200190815260200160002060008373ffffffffffffffffffffffffffffffffffffffff1673ffffffffffffffffffffffffffffffffffffffff16815260200190815260200160002054905092915050565b6110746110f3565b73ffffffffffffffffffffffffffffffffffffffff16611092610d8f565b73ffffffffffffffffffffffffffffffffffffffff16146110f1576110b56110f3565b6040517f118cdaa70000000000000000000000000000000000000000000000000000000081526004016110e891906115f6565b60405180910390fd5b565b60006110fd6111c6565b905090565b60008060009054906101000a900473ffffffffffffffffffffffffffffffffffffffff169050816000806101000a81548173ffffffffffffffffffffffffffffffffffffffff021916908373ffffffffffffffffffffffffffffffffffffffff1602179055508173ffffffffffffffffffffffffffffffffffffffff168173ffffffffffffffffffffffffffffffffffffffff167f8be0079c531659141344cd1fd0a4f28419497f9722a3daafe3b4186f6b6457e060405160405180910390a35050565b6000806000369050905060006111da61123b565b90506111e53361058b565b80156111f15750808210155b1561122b57600036828461120591906117d1565b90809261121493929190611bbb565b9061121f9190611c3a565b60601c92505050611238565b61123361124a565b925050505b90565b6000611245611252565b905090565b600033905090565b60006014905090565b6000819050919050565b61126e8161125b565b82525050565b60006020820190506112896000830184611265565b92915050565b600080fd5b600080fd5b600073ffffffffffffffffffffffffffffffffffffffff82169050919050565b60006112c482611299565b9050919050565b6112d4816112b9565b81146112df57600080fd5b50565b6000813590506112f1816112cb565b92915050565b60006020828403121561130d5761130c61128f565b5b600061131b848285016112e2565b91505092915050565b6000819050919050565b600061134961134461133f84611299565b611324565b611299565b9050919050565b600061135b8261132e565b9050919050565b600061136d82611350565b9050919050565b61137d81611362565b82525050565b60006020820190506113986000830184611374565b92915050565b600063ffffffff82169050919050565b6113b78161139e565b81146113c257600080fd5b50565b6000813590506113d4816113ae565b92915050565b6113e38161125b565b81146113ee57600080fd5b50565b600081359050611400816113da565b92915050565b60008060006060848603121561141f5761141e61128f565b5b600061142d868287016113c5565b935050602061143e868287016112e2565b925050604061144f868287016113f1565b9150509250925092565b600080604083850312156114705761146f61128f565b5b600061147e858286016113c5565b925050602061148f858286016112e2565b9150509250929050565b60008115159050919050565b6114ae81611499565b82525050565b60006020820190506114c960008301846114a5565b92915050565b600080fd5b600080fd5b600080fd5b60008083601f8401126114f4576114f36114cf565b5b8235905067ffffffffffffffff811115611511576115106114d4565b5b60208301915083602082028301111561152d5761152c6114d9565b5b9250929050565b60008060006040848603121561154d5761154c61128f565b5b600061155b868287016112e2565b935050602084013567ffffffffffffffff81111561157c5761157b611294565b5b611588868287016114de565b92509250509250925092565b6000806000606084860312156115ad576115ac61128f565b5b60006115bb868287016113c5565b93505060206115cc868287016112e2565b92505060406115dd868287016112e2565b9150509250925092565b6115f0816112b9565b82525050565b600060208201905061160b60008301846115e7565b92915050565b600061161c82611350565b9050919050565b61162c81611611565b82525050565b60006020820190506116476000830184611623565b92915050565b600082825260208201905092915050565b7f4e6f7420617574686f72697a6564000000000000000000000000000000000000600082015250565b6000611694600e8361164d565b915061169f8261165e565b602082019050919050565b600060208201905081810360008301526116c381611687565b9050919050565b7f4e487b7100000000000000000000000000000000000000000000000000000000600052601160045260246000fd5b60006117048261125b565b915061170f8361125b565b9250828201905080821115611727576117266116ca565b5b92915050565b7f4e487b7100000000000000000000000000000000000000000000000000000000600052603260045260246000fd5b6000602082840312156117725761177161128f565b5b6000611780848285016113c5565b91505092915050565b60006117948261125b565b91507fffffffffffffffffffffffffffffffffffffffffffffffffffffffffffffffff82036117c6576117c56116ca565b5b600182019050919050565b60006117dc8261125b565b91506117e78361125b565b92508282039050818111156117ff576117fe6116ca565b5b92915050565b600060408201905061181a60008301856115e7565b61182760208301846115e7565b9392505050565b60008151905061183d816113da565b92915050565b6000602082840312156118595761185861128f565b5b60006118678482850161182e565b91505092915050565b7f546f6b656e206973206e6f7420616c6c6f776564000000000000000000000000600082015250565b60006118a660148361164d565b91506118b182611870565b602082019050919050565b600060208201905081810360008301526118d581611899565b9050919050565b7f4e6f7420656e6f75676820746f6b656e00000000000000000000000000000000600082015250565b600061191260108361164d565b915061191d826118dc565b602082019050919050565b6000602082019050818103600083015261194181611905565b9050919050565b600060608201905061195d60008301866115e7565b61196a60208301856115e7565b6119776040830184611265565b949350505050565b61198881611499565b811461199357600080fd5b50565b6000815190506119a58161197f565b92915050565b6000602082840312156119c1576119c061128f565b5b60006119cf84828501611996565b91505092915050565b7f5472616e73666572206661696c65640000000000000000000000000000000000600082015250565b6000611a0e600f8361164d565b9150611a19826119d8565b602082019050919050565b60006020820190508181036000830152611a3d81611a01565b9050919050565b611a4d8161139e565b82525050565b6000602082019050611a686000830184611a44565b92915050565b600081519050611a7d816112cb565b92915050565b600060208284031215611a9957611a9861128f565b5b6000611aa784828501611a6e565b91505092915050565b7f4e6f74206974656d2073656c6c65720000000000000000000000000000000000600082015250565b6000611ae6600f8361164d565b9150611af182611ab0565b602082019050919050565b60006020820190508181036000830152611b1581611ad9565b9050919050565b7f4e6f7468696e6720746f20636c61696d00000000000000000000000000000000600082015250565b6000611b5260108361164d565b9150611b5d82611b1c565b602082019050919050565b60006020820190508181036000830152611b8181611b45565b9050919050565b6000604082019050611b9d60008301856115e7565b611baa6020830184611265565b9392505050565b600080fd5b600080fd5b60008085851115611bcf57611bce611bb1565b5b83861115611be057611bdf611bb6565b5b6001850283019150848603905094509492505050565b600082905092915050565b60007fffffffffffffffffffffffffffffffffffffffff00000000000000000000000082169050919050565b600082821b905092915050565b6000611c468383611bf6565b82611c518135611c01565b92506014821015611c9157611c8c7fffffffffffffffffffffffffffffffffffffffff00000000000000000000000083601403600802611c2d565b831692505b50509291505056fea2646970667358221220d2076dcae2d9599de5ceb4cdb1fdfc5b7eb53fde87f6dd54d23dcd184ad03a6464736f6c63430008150033",
  "linkReferences": {},
  "deployedLinkReferences": {}
}