{
  "_format": "hh-sol-artifact-1",
  "contractName": "PaymentProcessor",
  "sourceName": "contracts/PaymentProcessor.sol",
  "abi": [
    {
      "inputs": [
        {
          "internalType": "address",
          "name": "forwarderAddress",
          "type": "address"
        },
        {
          "internalType": "uint16",
          "name": "initialFeeRate",
          "type": "uint16"
        },
        {
          "internalType": "address",
          "name": "priceTableAddress",
          "type": "address"
        }
      ],
      "stateMutability": "nonpayable",
      "type": "constructor"
    },
    {
      "inputs": [
        {
          "internalType": "address",
          "name": "owner",
          "type": "address"
        }
      ],
      "name": "OwnableInvalidOwner",
      "type": "error"
    },
    {
      "inputs": [
        {
          "internalType": "address",
          "name": "account",
          "type": "address"
        }
      ],
      "name": "OwnableUnauthorizedAccount",
      "type": "error"
    },
    {
      "anonymous": false,
      "inputs": [
        {
          "indexed": true,
          "internalType": "address",
          "name": "previousOwner",
          "type": "address"
        },
        {
          "indexed": true,
          "internalType": "address",
          "name": "newOwner",
          "type": "address"
        }
      ],
      "name": "OwnershipTransferred",
      "type": "event"
    },
    {
      "anonymous": false,
      "inputs": [
        {
          "indexed": true,
          "internalType": "address",
          "name": "seller",
          "type": "address"
        },
        {
          "indexed": true,
          "internalType": "address",
          "name": "token",
          "type": "address"
        },
        {
          "indexed": true,
          "internalType": "uint256",
          "name": "amount",
          "type": "uint256"
        }
      ],
      "name": "ProfitClaimed",
      "type": "event"
    },
    {
      "inputs": [
        {
          "internalType": "uint256",
          "name": "newDeadline",
          "type": "uint256"
        }
      ],
      "name": "changePermissionDeadline",
      "outputs": [],
      "stateMutability": "nonpayable",
      "type": "function"
    },
    {
      "inputs": [
        {
          "internalType": "address",
          "name": "token",
          "type": "address"
        }
      ],
      "name": "claim",
      "outputs": [],
      "stateMutability": "nonpayable",
      "type": "function"
    },
    {
      "inputs": [
        {
          "internalType": "address",
          "name": "token",
          "type": "address"
        }
      ],
      "name": "distribute",
      "outputs": [],
      "stateMutability": "nonpayable",
      "type": "function"
    },
    {
      "inputs": [
        {
          "internalType": "uint256",
          "name": "",
          "type": "uint256"
        }
      ],
      "name": "feeRateLog",
      "outputs": [
        {
          "internalType": "uint256",
          "name": "timestamp",
          "type": "uint256"
        },
        {
          "internalType": "uint16",
          "name": "feeRate",
          "type": "uint16"
        }
      ],
      "stateMutability": "view",
      "type": "function"
    },
    {
      "inputs": [
        {
          "internalType": "address",
          "name": "",
          "type": "address"
        },
        {
          "internalType": "address",
          "name": "",
          "type": "address"
        }
      ],
      "name": "isSellerToPay",
      "outputs": [
        {
          "internalType": "bool",
          "name": "",
          "type": "bool"
        }
      ],
      "stateMutability": "view",
      "type": "function"
    },
    {
      "inputs": [
        {
          "internalType": "address",
          "name": "forwarder",
          "type": "address"
        }
      ],
      "name": "isTrustedForwarder",
      "outputs": [
        {
          "internalType": "bool",
          "name": "",
          "type": "bool"
        }
      ],
      "stateMutability": "view",
      "type": "function"
    },
    {
      "inputs": [],
      "name": "itemRegistry",
      "outputs": [
        {
          "internalType": "contract ItemRegistry",
          "name": "",
          "type": "address"
        }
      ],
      "stateMutability": "view",
      "type": "function"
    },
    {
      "inputs": [],
      "name": "owner",
      "outputs": [
        {
          "internalType": "address",
          "name": "",
          "type": "address"
        }
      ],
      "stateMutability": "view",
      "type": "function"
    },
    {
      "inputs": [],
      "name": "permissionDeadline",
      "outputs": [
        {
          "internalType": "uint256",
          "name": "",
          "type": "uint256"
        }
      ],
      "stateMutability": "view",
      "type": "function"
    },
    {
      "inputs": [],
      "name": "priceTable",
      "outputs": [
        {
          "internalType": "contract PriceTable",
          "name": "",
          "type": "address"
        }
      ],
      "stateMutability": "view",
      "type": "function"
    },
    {
      "inputs": [
        {
          "internalType": "address",
          "name": "buyer",
          "type": "address"
        },
        {
          "internalType": "uint32",
          "name": "itemID",
          "type": "uint32"
        },
        {
          "internalType": "address",
          "name": "token",
          "type": "address"
        },
        {
          "internalType": "uint256",
          "name": "deadline",
          "type": "uint256"
        },
        {
          "internalType": "uint8",
          "name": "v",
          "type": "uint8"
        },
        {
          "internalType": "bytes32",
          "name": "r",
          "type": "bytes32"
        },
        {
          "internalType": "bytes32",
          "name": "s",
          "type": "bytes32"
        }
      ],
      "name": "process",
      "outputs": [],
      "stateMutability": "nonpayable",
      "type": "function"
    },
    {
      "inputs": [],
      "name": "renounceOwnership",
      "outputs": [],
      "stateMutability": "nonpayable",
      "type": "function"
    },
    {
      "inputs": [],
      "name": "sellerRegistry",
      "outputs": [
        {
          "internalType": "contract SellerRegistry",
          "name": "",
          "type": "address"
        }
      ],
      "stateMutability": "view",
      "type": "function"
    },
    {
      "inputs": [
        {
          "internalType": "address",
          "name": "",
          "type": "address"
        },
        {
          "internalType": "address",
          "name": "",
          "type": "address"
        }
      ],
      "name": "sellerTokenEscrow",
      "outputs": [
        {
          "internalType": "uint256",
          "name": "",
          "type": "uint256"
        }
      ],
      "stateMutability": "view",
      "type": "function"
    },
    {
      "inputs": [
        {
          "internalType": "address",
          "name": "",
          "type": "address"
        },
        {
          "internalType": "uint256",
          "name": "",
          "type": "uint256"
        }
      ],
      "name": "sellersToPay",
      "outputs": [
        {
          "internalType": "address",
          "name": "",
          "type": "address"
        }
      ],
      "stateMutability": "view",
      "type": "function"
    },
    {
      "inputs": [
        {
          "internalType": "address",
          "name": "newOwner",
          "type": "address"
        }
      ],
      "name": "transferOwnership",
      "outputs": [],
      "stateMutability": "nonpayable",
      "type": "function"
    },
    {
      "inputs": [],
      "name": "trustedForwarder",
      "outputs": [
        {
          "internalType": "address",
          "name": "",
          "type": "address"
        }
      ],
      "stateMutability": "view",
      "type": "function"
    }
  ],
  "bytecode": "0x60a0604052610e106005553480156200001757600080fd5b5060405162002c9a38038062002c9a83398181016040528101906200003d9190620004d1565b33838082600073ffffffffffffffffffffffffffffffffffffffff168173ffffffffffffffffffffffffffffffffffffffff1603620000b65760006040517f1e4fbdf7000000000000000000000000000000000000000000000000000000008152600401620000ad91906200053e565b60405180910390fd5b620000c7816200036460201b60201c565b508073ffffffffffffffffffffffffffffffffffffffff1660808173ffffffffffffffffffffffffffffffffffffffff1681525050505050600160405180604001604052804281526020018461ffff1681525090806001815401808255809150506001900390600052602060002090600202016000909190919091506000820151816000015560208201518160010160006101000a81548161ffff021916908361ffff160217905550505080600460006101000a81548173ffffffffffffffffffffffffffffffffffffffff021916908373ffffffffffffffffffffffffffffffffffffffff160217905550600460009054906101000a900473ffffffffffffffffffffffffffffffffffffffff1673ffffffffffffffffffffffffffffffffffffffff1663957047f66040518163ffffffff1660e01b8152600401602060405180830381865afa15801562000221573d6000803e3d6000fd5b505050506040513d601f19601f82011682018060405250810190620002479190620005a0565b600260006101000a81548173ffffffffffffffffffffffffffffffffffffffff021916908373ffffffffffffffffffffffffffffffffffffffff160217905550600460009054906101000a900473ffffffffffffffffffffffffffffffffffffffff1673ffffffffffffffffffffffffffffffffffffffff166370c69b096040518163ffffffff1660e01b8152600401602060405180830381865afa158015620002f5573d6000803e3d6000fd5b505050506040513d601f19601f820116820180604052508101906200031b919062000617565b600360006101000a81548173ffffffffffffffffffffffffffffffffffffffff021916908373ffffffffffffffffffffffffffffffffffffffff16021790555050505062000649565b60008060009054906101000a900473ffffffffffffffffffffffffffffffffffffffff169050816000806101000a81548173ffffffffffffffffffffffffffffffffffffffff021916908373ffffffffffffffffffffffffffffffffffffffff1602179055508173ffffffffffffffffffffffffffffffffffffffff168173ffffffffffffffffffffffffffffffffffffffff167f8be0079c531659141344cd1fd0a4f28419497f9722a3daafe3b4186f6b6457e060405160405180910390a35050565b600080fd5b600073ffffffffffffffffffffffffffffffffffffffff82169050919050565b60006200045a826200042d565b9050919050565b6200046c816200044d565b81146200047857600080fd5b50565b6000815190506200048c8162000461565b92915050565b600061ffff82169050919050565b620004ab8162000492565b8114620004b757600080fd5b50565b600081519050620004cb81620004a0565b92915050565b600080600060608486031215620004ed57620004ec62000428565b5b6000620004fd868287016200047b565b93505060206200051086828701620004ba565b925050604062000523868287016200047b565b9150509250925092565b62000538816200044d565b82525050565b60006020820190506200055560008301846200052d565b92915050565b600062000568826200044d565b9050919050565b6200057a816200055b565b81146200058657600080fd5b50565b6000815190506200059a816200056f565b92915050565b600060208284031215620005b957620005b862000428565b5b6000620005c98482850162000589565b91505092915050565b6000620005df826200044d565b9050919050565b620005f181620005d2565b8114620005fd57600080fd5b50565b6000815190506200061181620005e6565b92915050565b60006020828403121562000630576200062f62000428565b5b6000620006408482850162000600565b91505092915050565b608051612635620006656000396000610b0701526126356000f3fe608060405234801561001057600080fd5b506004361061010b5760003560e01c8063715018a6116100a25780638ead4583116100715780638ead458314610295578063957047f6146102c5578063bdae29ba146102e3578063c0e7564314610313578063f2fde38b1461032f5761010b565b8063715018a614610233578063733d224f1461023d5780637da0a877146102595780638da5cb5b146102775761010b565b8063572b6c05116100de578063572b6c05146101ab578063606d9843146101db57806363453ae1146101f957806370c69b09146102155761010b565b8063100f9bf8146101105780631e83409a1461012e5780632b22a0931461014a57806351b449891461017a575b600080fd5b61011861034b565b6040516101259190611957565b60405180910390f35b610148600480360381019061014391906119b5565b610371565b005b610164600480360381019061015f9190611a18565b61067c565b6040516101719190611a67565b60405180910390f35b610194600480360381019061018f9190611a82565b6106ca565b6040516101a2929190611adb565b60405180910390f35b6101c560048036038101906101c091906119b5565b61070c565b6040516101d29190611b1f565b60405180910390f35b6101e361074b565b6040516101f09190611b3a565b60405180910390f35b610213600480360381019061020e91906119b5565b610751565b005b61021d610ab7565b60405161022a9190611b76565b60405180910390f35b61023b610add565b005b61025760048036038101906102529190611a82565b610af1565b005b610261610b03565b60405161026e9190611a67565b60405180910390f35b61027f610b2b565b60405161028c9190611a67565b60405180910390f35b6102af60048036038101906102aa9190611b91565b610b54565b6040516102bc9190611b3a565b60405180910390f35b6102cd610b79565b6040516102da9190611bf2565b60405180910390f35b6102fd60048036038101906102f89190611b91565b610b9f565b60405161030a9190611b1f565b60405180910390f35b61032d60048036038101906103289190611cb8565b610bce565b005b610349600480360381019061034491906119b5565b610ee0565b005b600460009054906101000a900473ffffffffffffffffffffffffffffffffffffffff1681565b600061037b610f66565b90506000600660008373ffffffffffffffffffffffffffffffffffffffff1673ffffffffffffffffffffffffffffffffffffffff16815260200190815260200160002060008473ffffffffffffffffffffffffffffffffffffffff1673ffffffffffffffffffffffffffffffffffffffff16815260200190815260200160002054905060008111610441576040517f08c379a000000000000000000000000000000000000000000000000000000000815260040161043890611db7565b60405180910390fd5b6000600660008473ffffffffffffffffffffffffffffffffffffffff1673ffffffffffffffffffffffffffffffffffffffff16815260200190815260200160002060008573ffffffffffffffffffffffffffffffffffffffff1673ffffffffffffffffffffffffffffffffffffffff168152602001908152602001600020819055506000600760008473ffffffffffffffffffffffffffffffffffffffff1673ffffffffffffffffffffffffffffffffffffffff16815260200190815260200160002060008573ffffffffffffffffffffffffffffffffffffffff1673ffffffffffffffffffffffffffffffffffffffff16815260200190815260200160002060006101000a81548160ff0219169083151502179055508273ffffffffffffffffffffffffffffffffffffffff1663a9059cbb83836040518363ffffffff1660e01b8152600401610593929190611dd7565b6020604051808303816000875af11580156105b2573d6000803e3d6000fd5b505050506040513d601f19601f820116820180604052508101906105d69190611e2c565b610615576040517f08c379a000000000000000000000000000000000000000000000000000000000815260040161060c90611ea5565b60405180910390fd5b808373ffffffffffffffffffffffffffffffffffffffff16610635610f66565b73ffffffffffffffffffffffffffffffffffffffff167f531cb5abab0114deb39f4c8c75fcf38ecde1ffd7b60709cb5db850fb388a1f6d60405160405180910390a4505050565b6008602052816000526040600020818154811061069857600080fd5b906000526020600020016000915091509054906101000a900473ffffffffffffffffffffffffffffffffffffffff1681565b600181815481106106da57600080fd5b90600052602060002090600202016000915090508060000154908060010160009054906101000a900461ffff16905082565b6000610716610b03565b73ffffffffffffffffffffffffffffffffffffffff168273ffffffffffffffffffffffffffffffffffffffff16149050919050565b60055481565b610759610f75565b6000600860008373ffffffffffffffffffffffffffffffffffffffff1673ffffffffffffffffffffffffffffffffffffffff168152602001908152602001600020905060005b8180549050811015610a675760008282815481106107c0576107bf611ec5565b5b9060005260206000200160009054906101000a900473ffffffffffffffffffffffffffffffffffffffff1690506000600660008373ffffffffffffffffffffffffffffffffffffffff1673ffffffffffffffffffffffffffffffffffffffff16815260200190815260200160002060008673ffffffffffffffffffffffffffffffffffffffff1673ffffffffffffffffffffffffffffffffffffffff1681526020019081526020016000205490506000810361087d575050610a54565b8473ffffffffffffffffffffffffffffffffffffffff1663a9059cbb83836040518363ffffffff1660e01b81526004016108b8929190611dd7565b6020604051808303816000875af11580156108d7573d6000803e3d6000fd5b505050506040513d601f19601f820116820180604052508101906108fb9190611e2c565b61093a576040517f08c379a000000000000000000000000000000000000000000000000000000000815260040161093190611f40565b60405180910390fd5b6000600660008473ffffffffffffffffffffffffffffffffffffffff1673ffffffffffffffffffffffffffffffffffffffff16815260200190815260200160002060008773ffffffffffffffffffffffffffffffffffffffff1673ffffffffffffffffffffffffffffffffffffffff168152602001908152602001600020819055506000600760008473ffffffffffffffffffffffffffffffffffffffff1673ffffffffffffffffffffffffffffffffffffffff16815260200190815260200160002060008773ffffffffffffffffffffffffffffffffffffffff1673ffffffffffffffffffffffffffffffffffffffff16815260200190815260200160002060006101000a81548160ff02191690831515021790555050505b8080610a5f90611f8f565b91505061079f565b50600860008373ffffffffffffffffffffffffffffffffffffffff1673ffffffffffffffffffffffffffffffffffffffff1681526020019081526020016000206000610ab3919061189a565b5050565b600360009054906101000a900473ffffffffffffffffffffffffffffffffffffffff1681565b610ae5610f75565b610aef6000610ffc565b565b610af9610f75565b8060058190555050565b60007f0000000000000000000000000000000000000000000000000000000000000000905090565b60008060009054906101000a900473ffffffffffffffffffffffffffffffffffffffff16905090565b6006602052816000526040600020602052806000526040600020600091509150505481565b600260009054906101000a900473ffffffffffffffffffffffffffffffffffffffff1681565b60076020528160005260406000206020528060005260406000206000915091509054906101000a900460ff1681565b8473ffffffffffffffffffffffffffffffffffffffff1663d505accf88307fffffffffffffffffffffffffffffffffffffffffffffffffffffffffffffffff888888886040518863ffffffff1660e01b8152600401610c339796959493929190611ff5565b600060405180830381600087803b158015610c4d57600080fd5b505af1158015610c61573d6000803e3d6000fd5b505050506000600460009054906101000a900473ffffffffffffffffffffffffffffffffffffffff1673ffffffffffffffffffffffffffffffffffffffff166323cd9f0188886040518363ffffffff1660e01b8152600401610cc4929190612073565b602060405180830381865afa158015610ce1573d6000803e3d6000fd5b505050506040513d601f19601f82011682018060405250810190610d0591906120b1565b90508573ffffffffffffffffffffffffffffffffffffffff166323b872dd8930846040518463ffffffff1660e01b8152600401610d44939291906120de565b6020604051808303816000875af1158015610d63573d6000803e3d6000fd5b505050506040513d601f19601f82011682018060405250810190610d879190611e2c565b610dc6576040517f08c379a0000000000000000000000000000000000000000000000000000000008152600401610dbd90612161565b60405180910390fd5b6000610dd1886110c0565b905060006127108261ffff1684610de89190612181565b610df291906121f2565b90508773ffffffffffffffffffffffffffffffffffffffff1663a9059cbb610e18610b2b565b836040518363ffffffff1660e01b8152600401610e36929190611dd7565b6020604051808303816000875af1158015610e55573d6000803e3d6000fd5b505050506040513d601f19601f82011682018060405250810190610e799190611e2c565b610eb8576040517f08c379a0000000000000000000000000000000000000000000000000000000008152600401610eaf9061226f565b60405180910390fd5b60008184610ec6919061228f565b9050610ed38a8a836112bd565b5050505050505050505050565b610ee8610f75565b600073ffffffffffffffffffffffffffffffffffffffff168173ffffffffffffffffffffffffffffffffffffffff1603610f5a5760006040517f1e4fbdf7000000000000000000000000000000000000000000000000000000008152600401610f519190611a67565b60405180910390fd5b610f6381610ffc565b50565b6000610f70611805565b905090565b610f7d610f66565b73ffffffffffffffffffffffffffffffffffffffff16610f9b610b2b565b73ffffffffffffffffffffffffffffffffffffffff1614610ffa57610fbe610f66565b6040517f118cdaa7000000000000000000000000000000000000000000000000000000008152600401610ff19190611a67565b60405180910390fd5b565b60008060009054906101000a900473ffffffffffffffffffffffffffffffffffffffff169050816000806101000a81548173ffffffffffffffffffffffffffffffffffffffff021916908373ffffffffffffffffffffffffffffffffffffffff1602179055508173ffffffffffffffffffffffffffffffffffffffff168173ffffffffffffffffffffffffffffffffffffffff167f8be0079c531659141344cd1fd0a4f28419497f9722a3daafe3b4186f6b6457e060405160405180910390a35050565b600080600460009054906101000a900473ffffffffffffffffffffffffffffffffffffffff1673ffffffffffffffffffffffffffffffffffffffff1663957047f66040518163ffffffff1660e01b8152600401602060405180830381865afa158015611130573d6000803e3d6000fd5b505050506040513d601f19601f820116820180604052508101906111549190612301565b73ffffffffffffffffffffffffffffffffffffffff16639884c1c8846040518263ffffffff1660e01b815260040161118c919061232e565b602060405180830381865afa1580156111a9573d6000803e3d6000fd5b505050506040513d601f19601f820116820180604052508101906111cd91906120b1565b905060018080805490506111e1919061228f565b815481106111f2576111f1611ec5565b5b906000526020600020906002020160010160009054906101000a900461ffff16915060005b6001805490508110156112b657816001828154811061123957611238611ec5565b5b906000526020600020906002020160000154106112a357600081111561126857808061126490612349565b9150505b6001818154811061127c5761127b611ec5565b5b906000526020600020906002020160010160009054906101000a900461ffff1692506112b6565b80806112ae90611f8f565b915050611217565b5050919050565b6000600260009054906101000a900473ffffffffffffffffffffffffffffffffffffffff1673ffffffffffffffffffffffffffffffffffffffff166368797c4c856040518263ffffffff1660e01b815260040161131a919061232e565b602060405180830381865afa158015611337573d6000803e3d6000fd5b505050506040513d601f19601f8201168201806040525081019061135b9190612387565b9050600082905060005b8260ff168160ff161015611505576000600260009054906101000a900473ffffffffffffffffffffffffffffffffffffffff1673ffffffffffffffffffffffffffffffffffffffff1663c0a68a0488846040518363ffffffff1660e01b81526004016113d29291906123b4565b602060405180830381865afa1580156113ef573d6000803e3d6000fd5b505050506040513d601f19601f8201168201806040525081019061141391906123f2565b90506000600460009054906101000a900473ffffffffffffffffffffffffffffffffffffffff1673ffffffffffffffffffffffffffffffffffffffff16636612af20836040518263ffffffff1660e01b8152600401611472919061232e565b602060405180830381865afa15801561148f573d6000803e3d6000fd5b505050506040513d601f19601f820116820180604052508101906114b3919061244b565b905060006127108261ffff16886114ca9190612181565b6114d491906121f2565b905080856114e2919061228f565b94506114ef8389836112bd565b50505080806114fd90612478565b915050611365565b506000600260009054906101000a900473ffffffffffffffffffffffffffffffffffffffff1673ffffffffffffffffffffffffffffffffffffffff16639479df9c876040518263ffffffff1660e01b8152600401611563919061232e565b602060405180830381865afa158015611580573d6000803e3d6000fd5b505050506040513d601f19601f820116820180604052508101906115a491906124b6565b905081600660008373ffffffffffffffffffffffffffffffffffffffff1673ffffffffffffffffffffffffffffffffffffffff16815260200190815260200160002060008773ffffffffffffffffffffffffffffffffffffffff1673ffffffffffffffffffffffffffffffffffffffff168152602001908152602001600020600082825461163291906124e3565b92505081905550600760008273ffffffffffffffffffffffffffffffffffffffff1673ffffffffffffffffffffffffffffffffffffffff16815260200190815260200160002060008673ffffffffffffffffffffffffffffffffffffffff1673ffffffffffffffffffffffffffffffffffffffff16815260200190815260200160002060009054906101000a900460ff166117fd57600860008673ffffffffffffffffffffffffffffffffffffffff1673ffffffffffffffffffffffffffffffffffffffff168152602001908152602001600020819080600181540180825580915050600190039060005260206000200160009091909190916101000a81548173ffffffffffffffffffffffffffffffffffffffff021916908373ffffffffffffffffffffffffffffffffffffffff1602179055506001600760008373ffffffffffffffffffffffffffffffffffffffff1673ffffffffffffffffffffffffffffffffffffffff16815260200190815260200160002060008773ffffffffffffffffffffffffffffffffffffffff1673ffffffffffffffffffffffffffffffffffffffff16815260200190815260200160002060006101000a81548160ff0219169083151502179055505b505050505050565b60008060003690509050600061181961187a565b90506118243361070c565b80156118305750808210155b1561186a576000368284611844919061228f565b90809261185393929190612521565b9061185e91906125a0565b60601c92505050611877565b611872611889565b925050505b90565b6000611884611891565b905090565b600033905090565b60006014905090565b50805460008255906000526020600020908101906118b891906118bb565b50565b5b808211156118d45760008160009055506001016118bc565b5090565b600073ffffffffffffffffffffffffffffffffffffffff82169050919050565b6000819050919050565b600061191d611918611913846118d8565b6118f8565b6118d8565b9050919050565b600061192f82611902565b9050919050565b600061194182611924565b9050919050565b61195181611936565b82525050565b600060208201905061196c6000830184611948565b92915050565b600080fd5b6000611982826118d8565b9050919050565b61199281611977565b811461199d57600080fd5b50565b6000813590506119af81611989565b92915050565b6000602082840312156119cb576119ca611972565b5b60006119d9848285016119a0565b91505092915050565b6000819050919050565b6119f5816119e2565b8114611a0057600080fd5b50565b600081359050611a12816119ec565b92915050565b60008060408385031215611a2f57611a2e611972565b5b6000611a3d858286016119a0565b9250506020611a4e85828601611a03565b9150509250929050565b611a6181611977565b82525050565b6000602082019050611a7c6000830184611a58565b92915050565b600060208284031215611a9857611a97611972565b5b6000611aa684828501611a03565b91505092915050565b611ab8816119e2565b82525050565b600061ffff82169050919050565b611ad581611abe565b82525050565b6000604082019050611af06000830185611aaf565b611afd6020830184611acc565b9392505050565b60008115159050919050565b611b1981611b04565b82525050565b6000602082019050611b346000830184611b10565b92915050565b6000602082019050611b4f6000830184611aaf565b92915050565b6000611b6082611924565b9050919050565b611b7081611b55565b82525050565b6000602082019050611b8b6000830184611b67565b92915050565b60008060408385031215611ba857611ba7611972565b5b6000611bb6858286016119a0565b9250506020611bc7858286016119a0565b9150509250929050565b6000611bdc82611924565b9050919050565b611bec81611bd1565b82525050565b6000602082019050611c076000830184611be3565b92915050565b600063ffffffff82169050919050565b611c2681611c0d565b8114611c3157600080fd5b50565b600081359050611c4381611c1d565b92915050565b600060ff82169050919050565b611c5f81611c49565b8114611c6a57600080fd5b50565b600081359050611c7c81611c56565b92915050565b6000819050919050565b611c9581611c82565b8114611ca057600080fd5b50565b600081359050611cb281611c8c565b92915050565b600080600080600080600060e0888a031215611cd757611cd6611972565b5b6000611ce58a828b016119a0565b9750506020611cf68a828b01611c34565b9650506040611d078a828b016119a0565b9550506060611d188a828b01611a03565b9450506080611d298a828b01611c6d565b93505060a0611d3a8a828b01611ca3565b92505060c0611d4b8a828b01611ca3565b91505092959891949750929550565b600082825260208201905092915050565b7f4e6f2062616c616e636520746f20636c61696d00000000000000000000000000600082015250565b6000611da1601383611d5a565b9150611dac82611d6b565b602082019050919050565b60006020820190508181036000830152611dd081611d94565b9050919050565b6000604082019050611dec6000830185611a58565b611df96020830184611aaf565b9392505050565b611e0981611b04565b8114611e1457600080fd5b50565b600081519050611e2681611e00565b92915050565b600060208284031215611e4257611e41611972565b5b6000611e5084828501611e17565b91505092915050565b7f436c61696d206661696c65640000000000000000000000000000000000000000600082015250565b6000611e8f600c83611d5a565b9150611e9a82611e59565b602082019050919050565b60006020820190508181036000830152611ebe81611e82565b9050919050565b7f4e487b7100000000000000000000000000000000000000000000000000000000600052603260045260246000fd5b7f44697374726962757465206661696c6564000000000000000000000000000000600082015250565b6000611f2a601183611d5a565b9150611f3582611ef4565b602082019050919050565b60006020820190508181036000830152611f5981611f1d565b9050919050565b7f4e487b7100000000000000000000000000000000000000000000000000000000600052601160045260246000fd5b6000611f9a826119e2565b91507fffffffffffffffffffffffffffffffffffffffffffffffffffffffffffffffff8203611fcc57611fcb611f60565b5b600182019050919050565b611fe081611c49565b82525050565b611fef81611c82565b82525050565b600060e08201905061200a600083018a611a58565b6120176020830189611a58565b6120246040830188611aaf565b6120316060830187611aaf565b61203e6080830186611fd7565b61204b60a0830185611fe6565b61205860c0830184611fe6565b98975050505050505050565b61206d81611c0d565b82525050565b60006040820190506120886000830185612064565b6120956020830184611a58565b9392505050565b6000815190506120ab816119ec565b92915050565b6000602082840312156120c7576120c6611972565b5b60006120d58482850161209c565b91505092915050565b60006060820190506120f36000830186611a58565b6121006020830185611a58565b61210d6040830184611aaf565b949350505050565b7f5472616e73666572206661696c65640000000000000000000000000000000000600082015250565b600061214b600f83611d5a565b915061215682612115565b602082019050919050565b6000602082019050818103600083015261217a8161213e565b9050919050565b600061218c826119e2565b9150612197836119e2565b92508282026121a5816119e2565b915082820484148315176121bc576121bb611f60565b5b5092915050565b7f4e487b7100000000000000000000000000000000000000000000000000000000600052601260045260246000fd5b60006121fd826119e2565b9150612208836119e2565b925082612218576122176121c3565b5b828204905092915050565b7f466565207472616e73666572206661696c656400000000000000000000000000600082015250565b6000612259601383611d5a565b915061226482612223565b602082019050919050565b600060208201905081810360008301526122888161224c565b9050919050565b600061229a826119e2565b91506122a5836119e2565b92508282039050818111156122bd576122bc611f60565b5b92915050565b60006122ce82611977565b9050919050565b6122de816122c3565b81146122e957600080fd5b50565b6000815190506122fb816122d5565b92915050565b60006020828403121561231757612316611972565b5b6000612325848285016122ec565b91505092915050565b60006020820190506123436000830184612064565b92915050565b6000612354826119e2565b91506000820361236757612366611f60565b5b600182039050919050565b60008151905061238181611c56565b92915050565b60006020828403121561239d5761239c611972565b5b60006123ab84828501612372565b91505092915050565b60006040820190506123c96000830185612064565b6123d66020830184611fd7565b9392505050565b6000815190506123ec81611c1d565b92915050565b60006020828403121561240857612407611972565b5b6000612416848285016123dd565b91505092915050565b61242881611abe565b811461243357600080fd5b50565b6000815190506124458161241f565b92915050565b60006020828403121561246157612460611972565b5b600061246f84828501612436565b91505092915050565b600061248382611c49565b915060ff820361249657612495611f60565b5b600182019050919050565b6000815190506124b081611989565b92915050565b6000602082840312156124cc576124cb611972565b5b60006124da848285016124a1565b91505092915050565b60006124ee826119e2565b91506124f9836119e2565b925082820190508082111561251157612510611f60565b5b92915050565b600080fd5b600080fd5b6000808585111561253557612534612517565b5b838611156125465761254561251c565b5b6001850283019150848603905094509492505050565b600082905092915050565b60007fffffffffffffffffffffffffffffffffffffffff00000000000000000000000082169050919050565b600082821b905092915050565b60006125ac838361255c565b826125b78135612567565b925060148210156125f7576125f27fffffffffffffffffffffffffffffffffffffffff00000000000000000000000083601403600802612593565b831692505b50509291505056fea26469706673582212205ce602b23d29d3534707ec3a3e404f63c70d83a73760f1dbab60b8254c39c53764736f6c63430008150033",
  "linkReferences": {},
  "deployedLinkReferences": {}
}