{
  "_format": "hh-sol-artifact-1",
  "contractName": "PaymentProcessor",
  "sourceName": "contracts/PaymentProcessor.sol",
  "abi": [
    {
      "inputs": [
        {
          "internalType": "address",
          "name": "forwarderAddress",
          "type": "address"
        },
        {
          "internalType": "uint16",
          "name": "initialFeeRate",
          "type": "uint16"
        },
        {
          "internalType": "address",
          "name": "priceTableAddress",
          "type": "address"
        },
        {
          "internalType": "address",
          "name": "profitEscrowAddress",
          "type": "address"
        }
      ],
      "stateMutability": "nonpayable",
      "type": "constructor"
    },
    {
      "inputs": [
        {
          "internalType": "address",
          "name": "owner",
          "type": "address"
        }
      ],
      "name": "OwnableInvalidOwner",
      "type": "error"
    },
    {
      "inputs": [
        {
          "internalType": "address",
          "name": "account",
          "type": "address"
        }
      ],
      "name": "OwnableUnauthorizedAccount",
      "type": "error"
    },
    {
      "anonymous": false,
      "inputs": [
        {
          "indexed": true,
          "internalType": "address",
          "name": "previousOwner",
          "type": "address"
        },
        {
          "indexed": true,
          "internalType": "address",
          "name": "newOwner",
          "type": "address"
        }
      ],
      "name": "OwnershipTransferred",
      "type": "event"
    },
    {
      "inputs": [
        {
          "internalType": "uint256",
          "name": "newDeadline",
          "type": "uint256"
        }
      ],
      "name": "changePermissionDeadline",
      "outputs": [],
      "stateMutability": "nonpayable",
      "type": "function"
    },
    {
      "inputs": [
        {
          "internalType": "uint256",
          "name": "",
          "type": "uint256"
        }
      ],
      "name": "feeRateLog",
      "outputs": [
        {
          "internalType": "uint256",
          "name": "timestamp",
          "type": "uint256"
        },
        {
          "internalType": "uint16",
          "name": "feeRate",
          "type": "uint16"
        }
      ],
      "stateMutability": "view",
      "type": "function"
    },
    {
      "inputs": [
        {
          "internalType": "address",
          "name": "buyer",
          "type": "address"
        },
        {
          "internalType": "address",
          "name": "token",
          "type": "address"
        },
        {
          "internalType": "uint256",
          "name": "deadline",
          "type": "uint256"
        },
        {
          "internalType": "uint8",
          "name": "v",
          "type": "uint8"
        },
        {
          "internalType": "bytes32",
          "name": "r",
          "type": "bytes32"
        },
        {
          "internalType": "bytes32",
          "name": "s",
          "type": "bytes32"
        }
      ],
      "name": "getPermission",
      "outputs": [],
      "stateMutability": "nonpayable",
      "type": "function"
    },
    {
      "inputs": [
        {
          "internalType": "address",
          "name": "forwarder",
          "type": "address"
        }
      ],
      "name": "isTrustedForwarder",
      "outputs": [
        {
          "internalType": "bool",
          "name": "",
          "type": "bool"
        }
      ],
      "stateMutability": "view",
      "type": "function"
    },
    {
      "inputs": [],
      "name": "itemRegistry",
      "outputs": [
        {
          "internalType": "contract ItemRegistry",
          "name": "",
          "type": "address"
        }
      ],
      "stateMutability": "view",
      "type": "function"
    },
    {
      "inputs": [],
      "name": "owner",
      "outputs": [
        {
          "internalType": "address",
          "name": "",
          "type": "address"
        }
      ],
      "stateMutability": "view",
      "type": "function"
    },
    {
      "inputs": [],
      "name": "permissionDeadline",
      "outputs": [
        {
          "internalType": "uint256",
          "name": "",
          "type": "uint256"
        }
      ],
      "stateMutability": "view",
      "type": "function"
    },
    {
      "inputs": [],
      "name": "priceTable",
      "outputs": [
        {
          "internalType": "contract PriceTable",
          "name": "",
          "type": "address"
        }
      ],
      "stateMutability": "view",
      "type": "function"
    },
    {
      "inputs": [
        {
          "internalType": "address",
          "name": "buyer",
          "type": "address"
        },
        {
          "internalType": "uint32",
          "name": "itemID",
          "type": "uint32"
        },
        {
          "internalType": "address",
          "name": "token",
          "type": "address"
        }
      ],
      "name": "process",
      "outputs": [],
      "stateMutability": "nonpayable",
      "type": "function"
    },
    {
      "inputs": [],
      "name": "profitEscrow",
      "outputs": [
        {
          "internalType": "contract ProfitEscrow",
          "name": "",
          "type": "address"
        }
      ],
      "stateMutability": "view",
      "type": "function"
    },
    {
      "inputs": [],
      "name": "renounceOwnership",
      "outputs": [],
      "stateMutability": "nonpayable",
      "type": "function"
    },
    {
      "inputs": [],
      "name": "sellerRegistry",
      "outputs": [
        {
          "internalType": "contract SellerRegistry",
          "name": "",
          "type": "address"
        }
      ],
      "stateMutability": "view",
      "type": "function"
    },
    {
      "inputs": [
        {
          "internalType": "address",
          "name": "newOwner",
          "type": "address"
        }
      ],
      "name": "transferOwnership",
      "outputs": [],
      "stateMutability": "nonpayable",
      "type": "function"
    },
    {
      "inputs": [],
      "name": "trustedForwarder",
      "outputs": [
        {
          "internalType": "address",
          "name": "",
          "type": "address"
        }
      ],
      "stateMutability": "view",
      "type": "function"
    }
  ],
  "bytecode": "0x60a0604052610e106006553480156200001757600080fd5b506040516200219e3803806200219e83398181016040528101906200003d919062000513565b33848082600073ffffffffffffffffffffffffffffffffffffffff168173ffffffffffffffffffffffffffffffffffffffff1603620000b65760006040517f1e4fbdf7000000000000000000000000000000000000000000000000000000008152600401620000ad919062000596565b60405180910390fd5b620000c781620003a660201b60201c565b508073ffffffffffffffffffffffffffffffffffffffff1660808173ffffffffffffffffffffffffffffffffffffffff1681525050505050600160405180604001604052804281526020018561ffff1681525090806001815401808255809150506001900390600052602060002090600202016000909190919091506000820151816000015560208201518160010160006101000a81548161ffff021916908361ffff160217905550505081600460006101000a81548173ffffffffffffffffffffffffffffffffffffffff021916908373ffffffffffffffffffffffffffffffffffffffff160217905550600460009054906101000a900473ffffffffffffffffffffffffffffffffffffffff1673ffffffffffffffffffffffffffffffffffffffff1663957047f66040518163ffffffff1660e01b8152600401602060405180830381865afa15801562000221573d6000803e3d6000fd5b505050506040513d601f19601f82011682018060405250810190620002479190620005f8565b600260006101000a81548173ffffffffffffffffffffffffffffffffffffffff021916908373ffffffffffffffffffffffffffffffffffffffff160217905550600460009054906101000a900473ffffffffffffffffffffffffffffffffffffffff1673ffffffffffffffffffffffffffffffffffffffff166370c69b096040518163ffffffff1660e01b8152600401602060405180830381865afa158015620002f5573d6000803e3d6000fd5b505050506040513d601f19601f820116820180604052508101906200031b91906200066f565b600360006101000a81548173ffffffffffffffffffffffffffffffffffffffff021916908373ffffffffffffffffffffffffffffffffffffffff16021790555080600560006101000a81548173ffffffffffffffffffffffffffffffffffffffff021916908373ffffffffffffffffffffffffffffffffffffffff16021790555050505050620006a1565b60008060009054906101000a900473ffffffffffffffffffffffffffffffffffffffff169050816000806101000a81548173ffffffffffffffffffffffffffffffffffffffff021916908373ffffffffffffffffffffffffffffffffffffffff1602179055508173ffffffffffffffffffffffffffffffffffffffff168173ffffffffffffffffffffffffffffffffffffffff167f8be0079c531659141344cd1fd0a4f28419497f9722a3daafe3b4186f6b6457e060405160405180910390a35050565b600080fd5b600073ffffffffffffffffffffffffffffffffffffffff82169050919050565b60006200049c826200046f565b9050919050565b620004ae816200048f565b8114620004ba57600080fd5b50565b600081519050620004ce81620004a3565b92915050565b600061ffff82169050919050565b620004ed81620004d4565b8114620004f957600080fd5b50565b6000815190506200050d81620004e2565b92915050565b6000806000806080858703121562000530576200052f6200046a565b5b60006200054087828801620004bd565b94505060206200055387828801620004fc565b93505060406200056687828801620004bd565b92505060606200057987828801620004bd565b91505092959194509250565b62000590816200048f565b82525050565b6000602082019050620005ad600083018462000585565b92915050565b6000620005c0826200048f565b9050919050565b620005d281620005b3565b8114620005de57600080fd5b50565b600081519050620005f281620005c7565b92915050565b6000602082840312156200061157620006106200046a565b5b60006200062184828501620005e1565b91505092915050565b600062000637826200048f565b9050919050565b62000649816200062a565b81146200065557600080fd5b50565b60008151905062000669816200063e565b92915050565b6000602082840312156200068857620006876200046a565b5b6000620006988482850162000658565b91505092915050565b608051611ae1620006bd600039600061045e0152611ae16000f3fe608060405234801561001057600080fd5b50600436106100ea5760003560e01c8063715018a61161008c5780638da5cb5b116100665780638da5cb5b14610228578063957047f6146102465780639d367cd114610264578063f2fde38b14610280576100ea565b8063715018a6146101e4578063733d224f146101ee5780637da0a8771461020a576100ea565b8063572b6c05116100c8578063572b6c051461015a5780635ada0c291461018a578063606d9843146101a857806370c69b09146101c6576100ea565b8063100f9bf8146100ef57806316f4bcd31461010d57806351b4498914610129575b600080fd5b6100f761029c565b6040516101049190610f8b565b60405180910390f35b6101276004803603810190610122919061108e565b6102c2565b005b610143600480360381019061013e919061111b565b610361565b604051610151929190611174565b60405180910390f35b610174600480360381019061016f919061119d565b6103a3565b60405161018191906111e5565b60405180910390f35b6101926103e2565b60405161019f9190611221565b60405180910390f35b6101b0610408565b6040516101bd919061123c565b60405180910390f35b6101ce61040e565b6040516101db9190611278565b60405180910390f35b6101ec610434565b005b6102086004803603810190610203919061111b565b610448565b005b61021261045a565b60405161021f91906112a2565b60405180910390f35b610230610482565b60405161023d91906112a2565b60405180910390f35b61024e6104ab565b60405161025b91906112de565b60405180910390f35b61027e60048036038101906102799190611335565b6104d1565b005b61029a6004803603810190610295919061119d565b610748565b005b600460009054906101000a900473ffffffffffffffffffffffffffffffffffffffff1681565b8473ffffffffffffffffffffffffffffffffffffffff1663d505accf87307fffffffffffffffffffffffffffffffffffffffffffffffffffffffffffffffff888888886040518863ffffffff1660e01b815260040161032797969594939291906113a6565b600060405180830381600087803b15801561034157600080fd5b505af1158015610355573d6000803e3d6000fd5b50505050505050505050565b6001818154811061037157600080fd5b90600052602060002090600202016000915090508060000154908060010160009054906101000a900461ffff16905082565b60006103ad61045a565b73ffffffffffffffffffffffffffffffffffffffff168273ffffffffffffffffffffffffffffffffffffffff16149050919050565b600560009054906101000a900473ffffffffffffffffffffffffffffffffffffffff1681565b60065481565b600360009054906101000a900473ffffffffffffffffffffffffffffffffffffffff1681565b61043c6107ce565b6104466000610855565b565b6104506107ce565b8060068190555050565b60007f0000000000000000000000000000000000000000000000000000000000000000905090565b60008060009054906101000a900473ffffffffffffffffffffffffffffffffffffffff16905090565b600260009054906101000a900473ffffffffffffffffffffffffffffffffffffffff1681565b6000600460009054906101000a900473ffffffffffffffffffffffffffffffffffffffff1673ffffffffffffffffffffffffffffffffffffffff166323cd9f0184846040518363ffffffff1660e01b8152600401610530929190611424565b602060405180830381865afa15801561054d573d6000803e3d6000fd5b505050506040513d601f19601f820116820180604052508101906105719190611462565b90508173ffffffffffffffffffffffffffffffffffffffff166323b872dd8530846040518463ffffffff1660e01b81526004016105b09392919061148f565b6020604051808303816000875af11580156105cf573d6000803e3d6000fd5b505050506040513d601f19601f820116820180604052508101906105f391906114f2565b610632576040517f08c379a00000000000000000000000000000000000000000000000000000000081526004016106299061157c565b60405180910390fd5b600061063d84610919565b905060006127108261ffff168461065491906115cb565b61065e919061163c565b90508373ffffffffffffffffffffffffffffffffffffffff1663a9059cbb610684610482565b836040518363ffffffff1660e01b81526004016106a292919061166d565b6020604051808303816000875af11580156106c1573d6000803e3d6000fd5b505050506040513d601f19601f820116820180604052508101906106e591906114f2565b610724576040517f08c379a000000000000000000000000000000000000000000000000000000000815260040161071b906116e2565b60405180910390fd5b600081846107329190611702565b905061073f868683610aa8565b50505050505050565b6107506107ce565b600073ffffffffffffffffffffffffffffffffffffffff168173ffffffffffffffffffffffffffffffffffffffff16036107c25760006040517f1e4fbdf70000000000000000000000000000000000000000000000000000000081526004016107b991906112a2565b60405180910390fd5b6107cb81610855565b50565b6107d6610e68565b73ffffffffffffffffffffffffffffffffffffffff166107f4610482565b73ffffffffffffffffffffffffffffffffffffffff161461085357610817610e68565b6040517f118cdaa700000000000000000000000000000000000000000000000000000000815260040161084a91906112a2565b60405180910390fd5b565b60008060009054906101000a900473ffffffffffffffffffffffffffffffffffffffff169050816000806101000a81548173ffffffffffffffffffffffffffffffffffffffff021916908373ffffffffffffffffffffffffffffffffffffffff1602179055508173ffffffffffffffffffffffffffffffffffffffff168173ffffffffffffffffffffffffffffffffffffffff167f8be0079c531659141344cd1fd0a4f28419497f9722a3daafe3b4186f6b6457e060405160405180910390a35050565b600080600260009054906101000a900473ffffffffffffffffffffffffffffffffffffffff1673ffffffffffffffffffffffffffffffffffffffff16639884c1c8846040518263ffffffff1660e01b81526004016109779190611736565b602060405180830381865afa158015610994573d6000803e3d6000fd5b505050506040513d601f19601f820116820180604052508101906109b89190611462565b905060018080805490506109cc9190611702565b815481106109dd576109dc611751565b5b906000526020600020906002020160010160009054906101000a900461ffff16915060005b600180549050811015610aa1578160018281548110610a2457610a23611751565b5b90600052602060002090600202016000015410610a8e576000811115610a53578080610a4f90611780565b9150505b60018181548110610a6757610a66611751565b5b906000526020600020906002020160010160009054906101000a900461ffff169250610aa1565b8080610a99906117a9565b915050610a02565b5050919050565b6000600260009054906101000a900473ffffffffffffffffffffffffffffffffffffffff1673ffffffffffffffffffffffffffffffffffffffff166368797c4c856040518263ffffffff1660e01b8152600401610b059190611736565b602060405180830381865afa158015610b22573d6000803e3d6000fd5b505050506040513d601f19601f82011682018060405250810190610b469190611806565b9050600082905060005b8260ff168160ff161015610cf0576000600260009054906101000a900473ffffffffffffffffffffffffffffffffffffffff1673ffffffffffffffffffffffffffffffffffffffff1663c0a68a0488846040518363ffffffff1660e01b8152600401610bbd929190611833565b602060405180830381865afa158015610bda573d6000803e3d6000fd5b505050506040513d601f19601f82011682018060405250810190610bfe9190611871565b90506000600460009054906101000a900473ffffffffffffffffffffffffffffffffffffffff1673ffffffffffffffffffffffffffffffffffffffff16636612af20836040518263ffffffff1660e01b8152600401610c5d9190611736565b602060405180830381865afa158015610c7a573d6000803e3d6000fd5b505050506040513d601f19601f82011682018060405250810190610c9e91906118ca565b905060006127108261ffff1688610cb591906115cb565b610cbf919061163c565b90508085610ccd9190611702565b9450610cda838983610aa8565b5050508080610ce8906118f7565b915050610b50565b508373ffffffffffffffffffffffffffffffffffffffff1663a9059cbb600560009054906101000a900473ffffffffffffffffffffffffffffffffffffffff16836040518363ffffffff1660e01b8152600401610d4e92919061166d565b6020604051808303816000875af1158015610d6d573d6000803e3d6000fd5b505050506040513d601f19601f82011682018060405250810190610d9191906114f2565b610dd0576040517f08c379a0000000000000000000000000000000000000000000000000000000008152600401610dc79061196c565b60405180910390fd5b600560009054906101000a900473ffffffffffffffffffffffffffffffffffffffff1673ffffffffffffffffffffffffffffffffffffffff166320bc0c8f8686846040518463ffffffff1660e01b8152600401610e2f9392919061198c565b600060405180830381600087803b158015610e4957600080fd5b505af1158015610e5d573d6000803e3d6000fd5b505050505050505050565b6000610e72610e77565b905090565b600080600036905090506000610e8b610eec565b9050610e96336103a3565b8015610ea25750808210155b15610edc576000368284610eb69190611702565b908092610ec5939291906119cd565b90610ed09190611a4c565b60601c92505050610ee9565b610ee4610efb565b925050505b90565b6000610ef6610f03565b905090565b600033905090565b60006014905090565b600073ffffffffffffffffffffffffffffffffffffffff82169050919050565b6000819050919050565b6000610f51610f4c610f4784610f0c565b610f2c565b610f0c565b9050919050565b6000610f6382610f36565b9050919050565b6000610f7582610f58565b9050919050565b610f8581610f6a565b82525050565b6000602082019050610fa06000830184610f7c565b92915050565b600080fd5b6000610fb682610f0c565b9050919050565b610fc681610fab565b8114610fd157600080fd5b50565b600081359050610fe381610fbd565b92915050565b6000819050919050565b610ffc81610fe9565b811461100757600080fd5b50565b60008135905061101981610ff3565b92915050565b600060ff82169050919050565b6110358161101f565b811461104057600080fd5b50565b6000813590506110528161102c565b92915050565b6000819050919050565b61106b81611058565b811461107657600080fd5b50565b60008135905061108881611062565b92915050565b60008060008060008060c087890312156110ab576110aa610fa6565b5b60006110b989828a01610fd4565b96505060206110ca89828a01610fd4565b95505060406110db89828a0161100a565b94505060606110ec89828a01611043565b93505060806110fd89828a01611079565b92505060a061110e89828a01611079565b9150509295509295509295565b60006020828403121561113157611130610fa6565b5b600061113f8482850161100a565b91505092915050565b61115181610fe9565b82525050565b600061ffff82169050919050565b61116e81611157565b82525050565b60006040820190506111896000830185611148565b6111966020830184611165565b9392505050565b6000602082840312156111b3576111b2610fa6565b5b60006111c184828501610fd4565b91505092915050565b60008115159050919050565b6111df816111ca565b82525050565b60006020820190506111fa60008301846111d6565b92915050565b600061120b82610f58565b9050919050565b61121b81611200565b82525050565b60006020820190506112366000830184611212565b92915050565b60006020820190506112516000830184611148565b92915050565b600061126282610f58565b9050919050565b61127281611257565b82525050565b600060208201905061128d6000830184611269565b92915050565b61129c81610fab565b82525050565b60006020820190506112b76000830184611293565b92915050565b60006112c882610f58565b9050919050565b6112d8816112bd565b82525050565b60006020820190506112f360008301846112cf565b92915050565b600063ffffffff82169050919050565b611312816112f9565b811461131d57600080fd5b50565b60008135905061132f81611309565b92915050565b60008060006060848603121561134e5761134d610fa6565b5b600061135c86828701610fd4565b935050602061136d86828701611320565b925050604061137e86828701610fd4565b9150509250925092565b6113918161101f565b82525050565b6113a081611058565b82525050565b600060e0820190506113bb600083018a611293565b6113c86020830189611293565b6113d56040830188611148565b6113e26060830187611148565b6113ef6080830186611388565b6113fc60a0830185611397565b61140960c0830184611397565b98975050505050505050565b61141e816112f9565b82525050565b60006040820190506114396000830185611415565b6114466020830184611293565b9392505050565b60008151905061145c81610ff3565b92915050565b60006020828403121561147857611477610fa6565b5b60006114868482850161144d565b91505092915050565b60006060820190506114a46000830186611293565b6114b16020830185611293565b6114be6040830184611148565b949350505050565b6114cf816111ca565b81146114da57600080fd5b50565b6000815190506114ec816114c6565b92915050565b60006020828403121561150857611507610fa6565b5b6000611516848285016114dd565b91505092915050565b600082825260208201905092915050565b7f5472616e73666572206661696c65640000000000000000000000000000000000600082015250565b6000611566600f8361151f565b915061157182611530565b602082019050919050565b6000602082019050818103600083015261159581611559565b9050919050565b7f4e487b7100000000000000000000000000000000000000000000000000000000600052601160045260246000fd5b60006115d682610fe9565b91506115e183610fe9565b92508282026115ef81610fe9565b915082820484148315176116065761160561159c565b5b5092915050565b7f4e487b7100000000000000000000000000000000000000000000000000000000600052601260045260246000fd5b600061164782610fe9565b915061165283610fe9565b9250826116625761166161160d565b5b828204905092915050565b60006040820190506116826000830185611293565b61168f6020830184611148565b9392505050565b7f466565207472616e73666572206661696c656400000000000000000000000000600082015250565b60006116cc60138361151f565b91506116d782611696565b602082019050919050565b600060208201905081810360008301526116fb816116bf565b9050919050565b600061170d82610fe9565b915061171883610fe9565b92508282039050818111156117305761172f61159c565b5b92915050565b600060208201905061174b6000830184611415565b92915050565b7f4e487b7100000000000000000000000000000000000000000000000000000000600052603260045260246000fd5b600061178b82610fe9565b91506000820361179e5761179d61159c565b5b600182039050919050565b60006117b482610fe9565b91507fffffffffffffffffffffffffffffffffffffffffffffffffffffffffffffffff82036117e6576117e561159c565b5b600182019050919050565b6000815190506118008161102c565b92915050565b60006020828403121561181c5761181b610fa6565b5b600061182a848285016117f1565b91505092915050565b60006040820190506118486000830185611415565b6118556020830184611388565b9392505050565b60008151905061186b81611309565b92915050565b60006020828403121561188757611886610fa6565b5b60006118958482850161185c565b91505092915050565b6118a781611157565b81146118b257600080fd5b50565b6000815190506118c48161189e565b92915050565b6000602082840312156118e0576118df610fa6565b5b60006118ee848285016118b5565b91505092915050565b60006119028261101f565b915060ff82036119155761191461159c565b5b600182019050919050565b7f5472616e7366657220746f20657363726f77206661696c656400000000000000600082015250565b600061195660198361151f565b915061196182611920565b602082019050919050565b6000602082019050818103600083015261198581611949565b9050919050565b60006060820190506119a16000830186611415565b6119ae6020830185611293565b6119bb6040830184611148565b949350505050565b600080fd5b600080fd5b600080858511156119e1576119e06119c3565b5b838611156119f2576119f16119c8565b5b6001850283019150848603905094509492505050565b600082905092915050565b60007fffffffffffffffffffffffffffffffffffffffff00000000000000000000000082169050919050565b600082821b905092915050565b6000611a588383611a08565b82611a638135611a13565b92506014821015611aa357611a9e7fffffffffffffffffffffffffffffffffffffffff00000000000000000000000083601403600802611a3f565b831692505b50509291505056fea2646970667358221220416d77f21e2602948c9f3c0ff9424024750c9f867bcfedaa085e32019da458f464736f6c63430008150033",
  "linkReferences": {},
  "deployedLinkReferences": {}
}