{
    "_format": "hh-sol-artifact-1",
    "contractName": "Store",
    "sourceName": "contracts/Store.sol",
    "abi": [
        {
            "inputs": [
                {
                    "internalType": "address",
                    "name": "forwarderAddress",
                    "type": "address"
                },
                {
                    "internalType": "address",
                    "name": "priceTableAddress",
                    "type": "address"
                },
                {
                    "internalType": "address",
                    "name": "ledgerAddress",
                    "type": "address"
                },
                {
                    "internalType": "address",
                    "name": "paymentProcessorAddress",
                    "type": "address"
                }
            ],
            "stateMutability": "nonpayable",
            "type": "constructor"
        },
        {
            "inputs": [
                {
                    "internalType": "address",
                    "name": "owner",
                    "type": "address"
                }
            ],
            "name": "OwnableInvalidOwner",
            "type": "error"
        },
        {
            "inputs": [
                {
                    "internalType": "address",
                    "name": "account",
                    "type": "address"
                }
            ],
            "name": "OwnableUnauthorizedAccount",
            "type": "error"
        },
        {
            "anonymous": false,
            "inputs": [
                {
                    "indexed": true,
                    "internalType": "uint32",
                    "name": "itemID",
                    "type": "uint32"
                },
                {
                    "indexed": true,
                    "internalType": "address",
                    "name": "buyer",
                    "type": "address"
                },
                {
                    "indexed": true,
                    "internalType": "uint256",
                    "name": "tokenID",
                    "type": "uint256"
                }
            ],
            "name": "ItemPurchased",
            "type": "event"
        },
        {
            "anonymous": false,
            "inputs": [
                {
                    "indexed": true,
                    "internalType": "address",
                    "name": "previousOwner",
                    "type": "address"
                },
                {
                    "indexed": true,
                    "internalType": "address",
                    "name": "newOwner",
                    "type": "address"
                }
            ],
            "name": "OwnershipTransferred",
            "type": "event"
        },
        {
            "inputs": [
                {
                    "internalType": "address",
                    "name": "token",
                    "type": "address"
                }
            ],
            "name": "isTokenPermitted",
            "outputs": [
                {
                    "internalType": "bool",
                    "name": "isPermitted",
                    "type": "bool"
                }
            ],
            "stateMutability": "view",
            "type": "function"
        },
        {
            "inputs": [
                {
                    "internalType": "address",
                    "name": "forwarder",
                    "type": "address"
                }
            ],
            "name": "isTrustedForwarder",
            "outputs": [
                {
                    "internalType": "bool",
                    "name": "",
                    "type": "bool"
                }
            ],
            "stateMutability": "view",
            "type": "function"
        },
        {
            "inputs": [],
            "name": "itemRegistry",
            "outputs": [
                {
                    "internalType": "contract ItemRegistry",
                    "name": "",
                    "type": "address"
                }
            ],
            "stateMutability": "view",
            "type": "function"
        },
        {
            "inputs": [],
            "name": "ledger",
            "outputs": [
                {
                    "internalType": "contract Ledger",
                    "name": "",
                    "type": "address"
                }
            ],
            "stateMutability": "view",
            "type": "function"
        },
        {
            "inputs": [],
            "name": "owner",
            "outputs": [
                {
                    "internalType": "address",
                    "name": "",
                    "type": "address"
                }
            ],
            "stateMutability": "view",
            "type": "function"
        },
        {
            "inputs": [],
            "name": "payment",
            "outputs": [
                {
                    "internalType": "contract PaymentProcessor",
                    "name": "",
                    "type": "address"
                }
            ],
            "stateMutability": "view",
            "type": "function"
        },
        {
            "inputs": [],
            "name": "priceTable",
            "outputs": [
                {
                    "internalType": "contract PriceTable",
                    "name": "",
                    "type": "address"
                }
            ],
            "stateMutability": "view",
            "type": "function"
        },
        {
            "inputs": [
                {
                    "internalType": "uint32",
                    "name": "itemID",
                    "type": "uint32"
                },
                {
                    "internalType": "address",
                    "name": "token",
                    "type": "address"
                }
            ],
            "name": "purchaseItem",
            "outputs": [
                {
                    "internalType": "uint256",
                    "name": "purchaseID",
                    "type": "uint256"
                }
            ],
            "stateMutability": "nonpayable",
            "type": "function"
        },
        {
            "inputs": [
                {
                    "internalType": "uint32",
                    "name": "itemID",
                    "type": "uint32"
                },
                {
                    "internalType": "address",
                    "name": "token",
                    "type": "address"
                },
                {
                    "internalType": "uint256",
                    "name": "deadline",
                    "type": "uint256"
                },
                {
                    "internalType": "uint8",
                    "name": "v",
                    "type": "uint8"
                },
                {
                    "internalType": "bytes32",
                    "name": "r",
                    "type": "bytes32"
                },
                {
                    "internalType": "bytes32",
                    "name": "s",
                    "type": "bytes32"
                }
            ],
            "name": "purchaseItemWithPermission",
            "outputs": [
                {
                    "internalType": "uint256",
                    "name": "purchaseID",
                    "type": "uint256"
                }
            ],
            "stateMutability": "nonpayable",
            "type": "function"
        },
        {
            "inputs": [],
            "name": "purchaseProxy",
            "outputs": [
                {
                    "internalType": "address",
                    "name": "",
                    "type": "address"
                }
            ],
            "stateMutability": "view",
            "type": "function"
        },
        {
            "inputs": [
                {
                    "internalType": "uint32",
                    "name": "itemID",
                    "type": "uint32"
                },
                {
                    "internalType": "address",
                    "name": "token",
                    "type": "address"
                }
            ],
            "name": "purchaseWithPending",
            "outputs": [
                {
                    "internalType": "uint256",
                    "name": "purchaseID",
                    "type": "uint256"
                }
            ],
            "stateMutability": "nonpayable",
            "type": "function"
        },
        {
            "inputs": [],
            "name": "renounceOwnership",
            "outputs": [],
            "stateMutability": "nonpayable",
            "type": "function"
        },
        {
            "inputs": [],
            "name": "sellerRegistry",
            "outputs": [
                {
                    "internalType": "contract SellerRegistry",
                    "name": "",
                    "type": "address"
                }
            ],
            "stateMutability": "view",
            "type": "function"
        },
        {
            "inputs": [
                {
                    "internalType": "address",
                    "name": "purchaseProxyAddress",
                    "type": "address"
                }
            ],
            "name": "setPurchaseProxy",
            "outputs": [],
            "stateMutability": "nonpayable",
            "type": "function"
        },
        {
            "inputs": [
                {
                    "internalType": "address",
                    "name": "newOwner",
                    "type": "address"
                }
            ],
            "name": "transferOwnership",
            "outputs": [],
            "stateMutability": "nonpayable",
            "type": "function"
        },
        {
            "inputs": [],
            "name": "trustedForwarder",
            "outputs": [
                {
                    "internalType": "address",
                    "name": "",
                    "type": "address"
                }
            ],
            "stateMutability": "view",
            "type": "function"
        }
    ],
    "bytecode": "0x60a06040523480156200001157600080fd5b5060405162001fce38038062001fce83398181016040528101906200003791906200049c565b33848082600073ffffffffffffffffffffffffffffffffffffffff168173ffffffffffffffffffffffffffffffffffffffff1603620000b05760006040517f1e4fbdf7000000000000000000000000000000000000000000000000000000008152600401620000a791906200051f565b60405180910390fd5b620000c1816200036e60201b60201c565b508073ffffffffffffffffffffffffffffffffffffffff1660808173ffffffffffffffffffffffffffffffffffffffff168152505050505082600160006101000a81548173ffffffffffffffffffffffffffffffffffffffff021916908373ffffffffffffffffffffffffffffffffffffffff16021790555081600360006101000a81548173ffffffffffffffffffffffffffffffffffffffff021916908373ffffffffffffffffffffffffffffffffffffffff16021790555080600260006101000a81548173ffffffffffffffffffffffffffffffffffffffff021916908373ffffffffffffffffffffffffffffffffffffffff160217905550600160009054906101000a900473ffffffffffffffffffffffffffffffffffffffff1673ffffffffffffffffffffffffffffffffffffffff1663957047f66040518163ffffffff1660e01b8152600401602060405180830381865afa1580156200022a573d6000803e3d6000fd5b505050506040513d601f19601f8201168201806040525081019062000250919062000581565b600460006101000a81548173ffffffffffffffffffffffffffffffffffffffff021916908373ffffffffffffffffffffffffffffffffffffffff160217905550600160009054906101000a900473ffffffffffffffffffffffffffffffffffffffff1673ffffffffffffffffffffffffffffffffffffffff166370c69b096040518163ffffffff1660e01b8152600401602060405180830381865afa158015620002fe573d6000803e3d6000fd5b505050506040513d601f19601f82011682018060405250810190620003249190620005f8565b600560006101000a81548173ffffffffffffffffffffffffffffffffffffffff021916908373ffffffffffffffffffffffffffffffffffffffff160217905550505050506200062a565b60008060009054906101000a900473ffffffffffffffffffffffffffffffffffffffff169050816000806101000a81548173ffffffffffffffffffffffffffffffffffffffff021916908373ffffffffffffffffffffffffffffffffffffffff1602179055508173ffffffffffffffffffffffffffffffffffffffff168173ffffffffffffffffffffffffffffffffffffffff167f8be0079c531659141344cd1fd0a4f28419497f9722a3daafe3b4186f6b6457e060405160405180910390a35050565b600080fd5b600073ffffffffffffffffffffffffffffffffffffffff82169050919050565b6000620004648262000437565b9050919050565b620004768162000457565b81146200048257600080fd5b50565b60008151905062000496816200046b565b92915050565b60008060008060808587031215620004b957620004b862000432565b5b6000620004c98782880162000485565b9450506020620004dc8782880162000485565b9350506040620004ef8782880162000485565b9250506060620005028782880162000485565b91505092959194509250565b620005198162000457565b82525050565b60006020820190506200053660008301846200050e565b92915050565b6000620005498262000457565b9050919050565b6200055b816200053c565b81146200056757600080fd5b50565b6000815190506200057b8162000550565b92915050565b6000602082840312156200059a576200059962000432565b5b6000620005aa848285016200056a565b91505092915050565b6000620005c08262000457565b9050919050565b620005d281620005b3565b8114620005de57600080fd5b50565b600081519050620005f281620005c7565b92915050565b60006020828403121562000611576200061062000432565b5b60006200062184828501620005e1565b91505092915050565b60805161198862000646600039600061045601526119886000f3fe608060405234801561001057600080fd5b50600436106101005760003560e01c80637da0a87711610097578063b54dc9de11610066578063b54dc9de1461028f578063c667f0d6146102bf578063e64d597b146102db578063f2fde38b1461030b57610100565b80637da0a877146102055780638da5cb5b14610223578063957047f614610241578063a19363ac1461025f57610100565b8063572b6c05116100d3578063572b6c051461017d57806362ef7c07146101ad57806370c69b09146101dd578063715018a6146101fb57610100565b8063100f9bf814610105578063169806a81461012357806342f6487a1461014157806356397c351461015f575b600080fd5b61010d610327565b60405161011a91906110c4565b60405180910390f35b61012b61034d565b6040516101389190611100565b60405180910390f35b610149610373565b604051610156919061113c565b60405180910390f35b610167610399565b6040516101749190611178565b60405180910390f35b610197600480360381019061019291906111c4565b6103bf565b6040516101a4919061120c565b60405180910390f35b6101c760048036038101906101c291906111c4565b6103fe565b6040516101d4919061120c565b60405180910390f35b6101e5610418565b6040516101f29190611248565b60405180910390f35b61020361043e565b005b61020d610452565b60405161021a9190611100565b60405180910390f35b61022b61047a565b6040516102389190611100565b60405180910390f35b6102496104a3565b6040516102569190611284565b60405180910390f35b610279600480360381019061027491906112db565b6104c9565b6040516102869190611334565b60405180910390f35b6102a960048036038101906102a491906112db565b6107cf565b6040516102b69190611334565b60405180910390f35b6102d960048036038101906102d491906111c4565b610918565b005b6102f560048036038101906102f091906113ea565b610964565b6040516103029190611334565b60405180910390f35b610325600480360381019061032091906111c4565b610aa6565b005b600160009054906101000a900473ffffffffffffffffffffffffffffffffffffffff1681565b600660009054906101000a900473ffffffffffffffffffffffffffffffffffffffff1681565b600260009054906101000a900473ffffffffffffffffffffffffffffffffffffffff1681565b600360009054906101000a900473ffffffffffffffffffffffffffffffffffffffff1681565b60006103c9610452565b73ffffffffffffffffffffffffffffffffffffffff168273ffffffffffffffffffffffffffffffffffffffff16149050919050565b600061041161040b610b2c565b83610b3b565b9050919050565b600560009054906101000a900473ffffffffffffffffffffffffffffffffffffffff1681565b610446610c1d565b6104506000610ca4565b565b60007f0000000000000000000000000000000000000000000000000000000000000000905090565b60008060009054906101000a900473ffffffffffffffffffffffffffffffffffffffff16905090565b600460009054906101000a900473ffffffffffffffffffffffffffffffffffffffff1681565b600082600460009054906101000a900473ffffffffffffffffffffffffffffffffffffffff1673ffffffffffffffffffffffffffffffffffffffff1663eebd35e6826040518263ffffffff1660e01b81526004016105279190611486565b602060405180830381865afa158015610544573d6000803e3d6000fd5b505050506040513d601f19601f8201168201806040525081019061056891906114cd565b6105a7576040517f08c379a000000000000000000000000000000000000000000000000000000000815260040161059e90611557565b60405180910390fd5b600660009054906101000a900473ffffffffffffffffffffffffffffffffffffffff1673ffffffffffffffffffffffffffffffffffffffff166105e8610b2c565b73ffffffffffffffffffffffffffffffffffffffff161461063e576040517f08c379a0000000000000000000000000000000000000000000000000000000008152600401610635906115c3565b60405180910390fd5b600260009054906101000a900473ffffffffffffffffffffffffffffffffffffffff1673ffffffffffffffffffffffffffffffffffffffff166394386d2a85856040518363ffffffff1660e01b815260040161069b9291906115e3565b600060405180830381600087803b1580156106b557600080fd5b505af11580156106c9573d6000803e3d6000fd5b50505050600360009054906101000a900473ffffffffffffffffffffffffffffffffffffffff1673ffffffffffffffffffffffffffffffffffffffff166306ba53eb85610714610b2c565b6040518363ffffffff1660e01b81526004016107319291906115e3565b6020604051808303816000875af1158015610750573d6000803e3d6000fd5b505050506040513d601f19601f820116820180604052508101906107749190611621565b91508161077f610b2c565b73ffffffffffffffffffffffffffffffffffffffff168563ffffffff167f93d5ce83d5003c50530ce3ba909117e891a291673b4c335ecbea6ab7c2f1b70360405160405180910390a45092915050565b600082600460009054906101000a900473ffffffffffffffffffffffffffffffffffffffff1673ffffffffffffffffffffffffffffffffffffffff1663eebd35e6826040518263ffffffff1660e01b815260040161082d9190611486565b602060405180830381865afa15801561084a573d6000803e3d6000fd5b505050506040513d601f19601f8201168201806040525081019061086e91906114cd565b6108ad576040517f08c379a00000000000000000000000000000000000000000000000000000000081526004016108a490611557565b60405180910390fd5b6108be6108b8610b2c565b84610b3b565b6108fd576040517f08c379a00000000000000000000000000000000000000000000000000000000081526004016108f49061169a565b60405180910390fd5b61090f610908610b2c565b8585610d68565b91505092915050565b610920610c1d565b80600660006101000a81548173ffffffffffffffffffffffffffffffffffffffff021916908373ffffffffffffffffffffffffffffffffffffffff16021790555050565b600086600460009054906101000a900473ffffffffffffffffffffffffffffffffffffffff1673ffffffffffffffffffffffffffffffffffffffff1663eebd35e6826040518263ffffffff1660e01b81526004016109c29190611486565b602060405180830381865afa1580156109df573d6000803e3d6000fd5b505050506040513d601f19601f82011682018060405250810190610a0391906114cd565b610a42576040517f08c379a0000000000000000000000000000000000000000000000000000000008152600401610a3990611557565b60405180910390fd5b610a53610a4d610b2c565b88610b3b565b15610a7157610a6a610a63610b2c565b8989610d68565b9150610a9b565b610a86610a7c610b2c565b8888888888610eef565b610a98610a91610b2c565b8989610d68565b91505b509695505050505050565b610aae610c1d565b600073ffffffffffffffffffffffffffffffffffffffff168173ffffffffffffffffffffffffffffffffffffffff1603610b205760006040517f1e4fbdf7000000000000000000000000000000000000000000000000000000008152600401610b179190611100565b60405180910390fd5b610b2981610ca4565b50565b6000610b36610fb0565b905090565b60008082905060008173ffffffffffffffffffffffffffffffffffffffff1663dd62ed3e86600260009054906101000a900473ffffffffffffffffffffffffffffffffffffffff166040518363ffffffff1660e01b8152600401610ba09291906116ba565b602060405180830381865afa158015610bbd573d6000803e3d6000fd5b505050506040513d601f19601f82011682018060405250810190610be19190611621565b905060027fffffffffffffffffffffffffffffffffffffffffffffffffffffffffffffffff610c109190611741565b8110159250505092915050565b610c25610b2c565b73ffffffffffffffffffffffffffffffffffffffff16610c4361047a565b73ffffffffffffffffffffffffffffffffffffffff1614610ca257610c66610b2c565b6040517f118cdaa7000000000000000000000000000000000000000000000000000000008152600401610c999190611100565b60405180910390fd5b565b60008060009054906101000a900473ffffffffffffffffffffffffffffffffffffffff169050816000806101000a81548173ffffffffffffffffffffffffffffffffffffffff021916908373ffffffffffffffffffffffffffffffffffffffff1602179055508173ffffffffffffffffffffffffffffffffffffffff168173ffffffffffffffffffffffffffffffffffffffff167f8be0079c531659141344cd1fd0a4f28419497f9722a3daafe3b4186f6b6457e060405160405180910390a35050565b6000600260009054906101000a900473ffffffffffffffffffffffffffffffffffffffff1673ffffffffffffffffffffffffffffffffffffffff16639d367cd18585856040518463ffffffff1660e01b8152600401610dc993929190611772565b600060405180830381600087803b158015610de357600080fd5b505af1158015610df7573d6000803e3d6000fd5b50505050600360009054906101000a900473ffffffffffffffffffffffffffffffffffffffff1673ffffffffffffffffffffffffffffffffffffffff166306ba53eb84866040518363ffffffff1660e01b8152600401610e589291906115e3565b6020604051808303816000875af1158015610e77573d6000803e3d6000fd5b505050506040513d601f19601f82011682018060405250810190610e9b9190611621565b9050808473ffffffffffffffffffffffffffffffffffffffff168463ffffffff167f93d5ce83d5003c50530ce3ba909117e891a291673b4c335ecbea6ab7c2f1b70360405160405180910390a49392505050565b8473ffffffffffffffffffffffffffffffffffffffff1663d505accf87600260009054906101000a900473ffffffffffffffffffffffffffffffffffffffff167fffffffffffffffffffffffffffffffffffffffffffffffffffffffffffffffff888888886040518863ffffffff1660e01b8152600401610f7697969594939291906117c7565b600060405180830381600087803b158015610f9057600080fd5b505af1158015610fa4573d6000803e3d6000fd5b50505050505050505050565b600080600036905090506000610fc4611025565b9050610fcf336103bf565b8015610fdb5750808210155b15611015576000368284610fef9190611836565b908092610ffe93929190611874565b9061100991906118f3565b60601c92505050611022565b61101d611034565b925050505b90565b600061102f61103c565b905090565b600033905090565b60006014905090565b600073ffffffffffffffffffffffffffffffffffffffff82169050919050565b6000819050919050565b600061108a61108561108084611045565b611065565b611045565b9050919050565b600061109c8261106f565b9050919050565b60006110ae82611091565b9050919050565b6110be816110a3565b82525050565b60006020820190506110d960008301846110b5565b92915050565b60006110ea82611045565b9050919050565b6110fa816110df565b82525050565b600060208201905061111560008301846110f1565b92915050565b600061112682611091565b9050919050565b6111368161111b565b82525050565b6000602082019050611151600083018461112d565b92915050565b600061116282611091565b9050919050565b61117281611157565b82525050565b600060208201905061118d6000830184611169565b92915050565b600080fd5b6111a1816110df565b81146111ac57600080fd5b50565b6000813590506111be81611198565b92915050565b6000602082840312156111da576111d9611193565b5b60006111e8848285016111af565b91505092915050565b60008115159050919050565b611206816111f1565b82525050565b600060208201905061122160008301846111fd565b92915050565b600061123282611091565b9050919050565b61124281611227565b82525050565b600060208201905061125d6000830184611239565b92915050565b600061126e82611091565b9050919050565b61127e81611263565b82525050565b60006020820190506112996000830184611275565b92915050565b600063ffffffff82169050919050565b6112b88161129f565b81146112c357600080fd5b50565b6000813590506112d5816112af565b92915050565b600080604083850312156112f2576112f1611193565b5b6000611300858286016112c6565b9250506020611311858286016111af565b9150509250929050565b6000819050919050565b61132e8161131b565b82525050565b60006020820190506113496000830184611325565b92915050565b6113588161131b565b811461136357600080fd5b50565b6000813590506113758161134f565b92915050565b600060ff82169050919050565b6113918161137b565b811461139c57600080fd5b50565b6000813590506113ae81611388565b92915050565b6000819050919050565b6113c7816113b4565b81146113d257600080fd5b50565b6000813590506113e4816113be565b92915050565b60008060008060008060c0878903121561140757611406611193565b5b600061141589828a016112c6565b965050602061142689828a016111af565b955050604061143789828a01611366565b945050606061144889828a0161139f565b935050608061145989828a016113d5565b92505060a061146a89828a016113d5565b9150509295509295509295565b6114808161129f565b82525050565b600060208201905061149b6000830184611477565b92915050565b6114aa816111f1565b81146114b557600080fd5b50565b6000815190506114c7816114a1565b92915050565b6000602082840312156114e3576114e2611193565b5b60006114f1848285016114b8565b91505092915050565b600082825260208201905092915050565b7f4974656d206973206e6f74206f6e2073616c6500000000000000000000000000600082015250565b60006115416013836114fa565b915061154c8261150b565b602082019050919050565b6000602082019050818103600083015261157081611534565b9050919050565b7f4e6f742070757263686173652070726f78790000000000000000000000000000600082015250565b60006115ad6012836114fa565b91506115b882611577565b602082019050919050565b600060208201905081810360008301526115dc816115a0565b9050919050565b60006040820190506115f86000830185611477565b61160560208301846110f1565b9392505050565b60008151905061161b8161134f565b92915050565b60006020828403121561163757611636611193565b5b60006116458482850161160c565b91505092915050565b7f5061796d656e74206973206e6f7420616c6c6f77656400000000000000000000600082015250565b60006116846016836114fa565b915061168f8261164e565b602082019050919050565b600060208201905081810360008301526116b381611677565b9050919050565b60006040820190506116cf60008301856110f1565b6116dc60208301846110f1565b9392505050565b7f4e487b7100000000000000000000000000000000000000000000000000000000600052601260045260246000fd5b7f4e487b7100000000000000000000000000000000000000000000000000000000600052601160045260246000fd5b600061174c8261131b565b91506117578361131b565b925082611767576117666116e3565b5b828204905092915050565b600060608201905061178760008301866110f1565b6117946020830185611477565b6117a160408301846110f1565b949350505050565b6117b28161137b565b82525050565b6117c1816113b4565b82525050565b600060e0820190506117dc600083018a6110f1565b6117e960208301896110f1565b6117f66040830188611325565b6118036060830187611325565b61181060808301866117a9565b61181d60a08301856117b8565b61182a60c08301846117b8565b98975050505050505050565b60006118418261131b565b915061184c8361131b565b925082820390508181111561186457611863611712565b5b92915050565b600080fd5b600080fd5b600080858511156118885761188761186a565b5b838611156118995761189861186f565b5b6001850283019150848603905094509492505050565b600082905092915050565b60007fffffffffffffffffffffffffffffffffffffffff00000000000000000000000082169050919050565b600082821b905092915050565b60006118ff83836118af565b8261190a81356118ba565b9250601482101561194a576119457fffffffffffffffffffffffffffffffffffffffff000000000000000000000000836014036008026118e6565b831692505b50509291505056fea264697066735822122072696cf6a02d2b69105c0d94df54c421b62fb89785ceb0a7777d3f586fac0a1e64736f6c63430008150033",
    "linkReferences": {},
    "deployedLinkReferences": {}
}