{
    "_format": "hh-sol-artifact-1",
    "contractName": "Store",
    "sourceName": "contracts/Store.sol",
    "abi": [
        {
            "inputs": [
                {
                    "internalType": "address",
                    "name": "forwarderAddress",
                    "type": "address"
                },
                {
                    "internalType": "address",
                    "name": "priceTableAddress",
                    "type": "address"
                },
                {
                    "internalType": "address",
                    "name": "ledgerAddress",
                    "type": "address"
                },
                {
                    "internalType": "address",
                    "name": "paymentProcessorAddress",
                    "type": "address"
                }
            ],
            "stateMutability": "nonpayable",
            "type": "constructor"
        },
        {
            "inputs": [
                {
                    "internalType": "address",
                    "name": "owner",
                    "type": "address"
                }
            ],
            "name": "OwnableInvalidOwner",
            "type": "error"
        },
        {
            "inputs": [
                {
                    "internalType": "address",
                    "name": "account",
                    "type": "address"
                }
            ],
            "name": "OwnableUnauthorizedAccount",
            "type": "error"
        },
        {
            "anonymous": false,
            "inputs": [
                {
                    "indexed": true,
                    "internalType": "uint32",
                    "name": "itemID",
                    "type": "uint32"
                },
                {
                    "indexed": true,
                    "internalType": "address",
                    "name": "buyer",
                    "type": "address"
                },
                {
                    "indexed": true,
                    "internalType": "uint256",
                    "name": "tokenID",
                    "type": "uint256"
                }
            ],
            "name": "ItemPurchased",
            "type": "event"
        },
        {
            "anonymous": false,
            "inputs": [
                {
                    "indexed": true,
                    "internalType": "address",
                    "name": "previousOwner",
                    "type": "address"
                },
                {
                    "indexed": true,
                    "internalType": "address",
                    "name": "newOwner",
                    "type": "address"
                }
            ],
            "name": "OwnershipTransferred",
            "type": "event"
        },
        {
            "inputs": [
                {
                    "internalType": "address",
                    "name": "token",
                    "type": "address"
                }
            ],
            "name": "isTokenPermitted",
            "outputs": [
                {
                    "internalType": "bool",
                    "name": "isPermitted",
                    "type": "bool"
                }
            ],
            "stateMutability": "view",
            "type": "function"
        },
        {
            "inputs": [
                {
                    "internalType": "address",
                    "name": "forwarder",
                    "type": "address"
                }
            ],
            "name": "isTrustedForwarder",
            "outputs": [
                {
                    "internalType": "bool",
                    "name": "",
                    "type": "bool"
                }
            ],
            "stateMutability": "view",
            "type": "function"
        },
        {
            "inputs": [],
            "name": "itemRegistry",
            "outputs": [
                {
                    "internalType": "contract ItemRegistry",
                    "name": "",
                    "type": "address"
                }
            ],
            "stateMutability": "view",
            "type": "function"
        },
        {
            "inputs": [],
            "name": "ledger",
            "outputs": [
                {
                    "internalType": "contract Ledger",
                    "name": "",
                    "type": "address"
                }
            ],
            "stateMutability": "view",
            "type": "function"
        },
        {
            "inputs": [],
            "name": "owner",
            "outputs": [
                {
                    "internalType": "address",
                    "name": "",
                    "type": "address"
                }
            ],
            "stateMutability": "view",
            "type": "function"
        },
        {
            "inputs": [],
            "name": "payment",
            "outputs": [
                {
                    "internalType": "contract PaymentProcessor",
                    "name": "",
                    "type": "address"
                }
            ],
            "stateMutability": "view",
            "type": "function"
        },
        {
            "inputs": [],
            "name": "priceTable",
            "outputs": [
                {
                    "internalType": "contract PriceTable",
                    "name": "",
                    "type": "address"
                }
            ],
            "stateMutability": "view",
            "type": "function"
        },
        {
            "inputs": [
                {
                    "internalType": "uint32",
                    "name": "itemID",
                    "type": "uint32"
                },
                {
                    "internalType": "address",
                    "name": "token",
                    "type": "address"
                }
            ],
            "name": "purchaseItem",
            "outputs": [
                {
                    "internalType": "uint256",
                    "name": "purchaseID",
                    "type": "uint256"
                }
            ],
            "stateMutability": "nonpayable",
            "type": "function"
        },
        {
            "inputs": [
                {
                    "internalType": "uint32",
                    "name": "itemID",
                    "type": "uint32"
                },
                {
                    "internalType": "address",
                    "name": "token",
                    "type": "address"
                },
                {
                    "internalType": "uint256",
                    "name": "deadline",
                    "type": "uint256"
                },
                {
                    "internalType": "uint8",
                    "name": "v",
                    "type": "uint8"
                },
                {
                    "internalType": "bytes32",
                    "name": "r",
                    "type": "bytes32"
                },
                {
                    "internalType": "bytes32",
                    "name": "s",
                    "type": "bytes32"
                }
            ],
            "name": "purchaseItemWithPermission",
            "outputs": [
                {
                    "internalType": "uint256",
                    "name": "purchaseID",
                    "type": "uint256"
                }
            ],
            "stateMutability": "nonpayable",
            "type": "function"
        },
        {
            "inputs": [],
            "name": "purchaseProxy",
            "outputs": [
                {
                    "internalType": "address",
                    "name": "",
                    "type": "address"
                }
            ],
            "stateMutability": "view",
            "type": "function"
        },
        {
            "inputs": [
                {
                    "internalType": "uint32",
                    "name": "itemID",
                    "type": "uint32"
                },
                {
                    "internalType": "address",
                    "name": "token",
                    "type": "address"
                }
            ],
            "name": "purchaseWithPending",
            "outputs": [
                {
                    "internalType": "uint256",
                    "name": "purchaseID",
                    "type": "uint256"
                }
            ],
            "stateMutability": "nonpayable",
            "type": "function"
        },
        {
            "inputs": [],
            "name": "renounceOwnership",
            "outputs": [],
            "stateMutability": "nonpayable",
            "type": "function"
        },
        {
            "inputs": [],
            "name": "sellerRegistry",
            "outputs": [
                {
                    "internalType": "contract SellerRegistry",
                    "name": "",
                    "type": "address"
                }
            ],
            "stateMutability": "view",
            "type": "function"
        },
        {
            "inputs": [
                {
                    "internalType": "address",
                    "name": "purchaseProxyAddress",
                    "type": "address"
                }
            ],
            "name": "setPurchaseProxy",
            "outputs": [],
            "stateMutability": "nonpayable",
            "type": "function"
        },
        {
            "inputs": [
                {
                    "internalType": "address",
                    "name": "newOwner",
                    "type": "address"
                }
            ],
            "name": "transferOwnership",
            "outputs": [],
            "stateMutability": "nonpayable",
            "type": "function"
        },
        {
            "inputs": [],
            "name": "trustedForwarder",
            "outputs": [
                {
                    "internalType": "address",
                    "name": "",
                    "type": "address"
                }
            ],
            "stateMutability": "view",
            "type": "function"
        }
    ],
    "bytecode": "0x60a0604052346200004457620000226200001862000151565b929190916200046c565b6200002c6200004a565b611a6e620007c0823960805181610b680152611a6e90f35b62000050565b60405190565b600080fd5b601f801991011690565b634e487b7160e01b600052604160045260246000fd5b90620000819062000055565b810190811060018060401b038211176200009a57604052565b6200005f565b90620000b7620000af6200004a565b928362000075565b565b600080fd5b60018060a01b031690565b620000d490620000be565b90565b620000e281620000c9565b03620000ea57565b600080fd5b90505190620000fe82620000d7565b565b6080818303126200014b576200011a8260008301620000ef565b92620001486200012e8460208501620000ef565b936200013e8160408601620000ef565b93606001620000ef565b90565b620000b9565b620001746200222e803803806200016881620000a0565b92833981019062000100565b90919293565b90565b62000196620001906200019c92620000be565b6200017a565b620000be565b90565b620001aa906200017d565b90565b620001b8906200019f565b90565b60001b90565b90620001d460018060a01b0391620001bb565b9181191691161790565b620001e9906200019f565b90565b90565b9062000209620002036200021192620001de565b620001ec565b8254620001c1565b9055565b62000220906200017d565b90565b6200022e9062000215565b90565b6200023c9062000215565b90565b90565b906200025c62000256620002649262000231565b6200023f565b8254620001c1565b9055565b62000273906200017d565b90565b620002819062000268565b90565b6200028f9062000268565b90565b90565b90620002af620002a9620002b79262000284565b62000292565b8254620001c1565b9055565b60001c90565b60018060a01b031690565b620002db620002e191620002bb565b620002c1565b90565b620002f09054620002cc565b90565b620002fe906200017d565b90565b6200030c90620002f3565b90565b60e01b90565b6200032090620000c9565b90565b6200032e8162000315565b036200033657565b600080fd5b905051906200034a8262000323565b565b90602082820312620003695762000366916000016200033b565b90565b620000b9565b60000190565b6200037f6200004a565b3d6000823e3d90fd5b62000393906200017d565b90565b620003a19062000388565b90565b90565b90620003c1620003bb620003c99262000396565b620003a4565b8254620001c1565b9055565b620003d890620000c9565b90565b620003e681620003cd565b03620003ee57565b600080fd5b905051906200040282620003db565b565b9060208282031262000421576200041e91600001620003f3565b90565b620000b9565b62000432906200017d565b90565b620004409062000427565b90565b90565b90620004606200045a620004689262000435565b62000443565b8254620001c1565b9055565b620004a7620004b593620004a162000499620004bd979562000493620004af963362000607565b620001ad565b6001620001ef565b62000223565b600362000242565b62000276565b600262000295565b620004f26020620004d9620004d36001620002e4565b62000301565b63957047f690620004e96200004a565b9384926200030f565b8252818062000504600482016200036f565b03915afa801562000601576200052691600091620005cc575b506004620003a7565b6200055b6020620005426200053c6001620002e4565b62000301565b6370c69b0990620005526200004a565b9384926200030f565b825281806200056d600482016200036f565b03915afa8015620005c6576200058f9160009162000591575b50600562000446565b565b620005b7915060203d8111620005be575b620005ae818362000075565b81019062000404565b3862000586565b503d620005a2565b62000375565b620005f2915060203d8111620005f9575b620005e9818362000075565b8101906200034c565b386200051d565b503d620005dd565b62000375565b620006129162000614565b565b9062000620906200067f565b608052565b90565b620006416200063b620006479262000625565b6200017a565b620000be565b90565b620006559062000628565b90565b6200066390620000c9565b9052565b91906200067d9060006020850194019062000658565b565b80620006a16200069a6200069460006200064a565b620000c9565b91620000c9565b14620006b457620006b29062000752565b565b620006e5620006c460006200064a565b620006ce6200004a565b918291631e4fbdf760e01b83526004830162000667565b0390fd5b60018060a01b031690565b620007036200070991620002bb565b620006e9565b90565b620007189054620006f4565b90565b6200072690620002f3565b90565b90565b9062000746620007406200074e926200071b565b62000729565b8254620001c1565b9055565b6200075e60006200070c565b6200076b8260006200072c565b90620007a36200079c7f8be0079c531659141344cd1fd0a4f28419497f9722a3daafe3b4186f6b6457e0936200071b565b916200071b565b91620007ae6200004a565b80620007ba816200036f565b0390a356fe60806040526004361015610013575b61093c565b61001e60003561011d565b8063100f9bf814610118578063169806a81461011357806342f6487a1461010e57806356397c3514610109578063572b6c051461010457806362ef7c07146100ff57806370c69b09146100fa578063715018a6146100f55780637da0a877146100f05780638da5cb5b146100eb578063957047f6146100e6578063a19363ac146100e1578063b54dc9de146100dc578063c667f0d6146100d7578063e64d597b146100d25763f2fde38b0361000e57610909565b6108cd565b6107c0565b61078a565b610754565b61069e565b6105f9565b6105c4565b610591565b610556565b6104b1565b61047c565b6103dc565b610337565b610292565b6101ed565b60e01c90565b60405190565b600080fd5b600080fd5b600091031261013e57565b61012e565b1c90565b60018060a01b031690565b6101629060086101679302610143565b610147565b90565b906101759154610152565b90565b610185600160009061016a565b90565b60018060a01b031690565b90565b6101aa6101a56101af92610188565b610193565b610188565b90565b6101bb90610196565b90565b6101c7906101b2565b90565b6101d3906101be565b9052565b91906101eb906000602085019401906101ca565b565b3461021d576101fd366004610133565b610219610208610178565b610210610123565b918291826101d7565b0390f35b610129565b60018060a01b031690565b61023d9060086102429302610143565b610222565b90565b90610250915461022d565b90565b6102606006600090610245565b90565b61026c90610188565b90565b61027890610263565b9052565b91906102909060006020850194019061026f565b565b346102c2576102a2366004610133565b6102be6102ad610253565b6102b5610123565b9182918261027c565b0390f35b610129565b60018060a01b031690565b6102e29060086102e79302610143565b6102c7565b90565b906102f591546102d2565b90565b61030560026000906102ea565b90565b610311906101b2565b90565b61031d90610308565b9052565b919061033590600060208501940190610314565b565b3461036757610347366004610133565b6103636103526102f8565b61035a610123565b91829182610321565b0390f35b610129565b60018060a01b031690565b61038790600861038c9302610143565b61036c565b90565b9061039a9154610377565b90565b6103aa600360009061038f565b90565b6103b6906101b2565b90565b6103c2906103ad565b9052565b91906103da906000602085019401906103b9565b565b3461040c576103ec366004610133565b6104086103f761039d565b6103ff610123565b918291826103c6565b0390f35b610129565b61041a81610263565b0361042157565b600080fd5b9050359061043382610411565b565b9060208282031261044f5761044c91600001610426565b90565b61012e565b151590565b61046290610454565b9052565b919061047a90600060208501940190610459565b565b346104ac576104a8610497610492366004610435565b610b8f565b61049f610123565b91829182610466565b0390f35b610129565b346104e1576104dd6104cc6104c7366004610435565b610dca565b6104d4610123565b91829182610466565b0390f35b610129565b60018060a01b031690565b6105019060086105069302610143565b6104e6565b90565b9061051491546104f1565b90565b6105246005600090610509565b90565b610530906101b2565b90565b61053c90610527565b9052565b919061055490600060208501940190610533565b565b3461058657610566366004610133565b610582610571610517565b610579610123565b91829182610540565b0390f35b610129565b60000190565b346105bf576105a1366004610133565b6105a96109d4565b6105b1610123565b806105bb8161058b565b0390f35b610129565b346105f4576105d4366004610133565b6105f06105df610b5d565b6105e7610123565b9182918261027c565b0390f35b610129565b3461062957610609366004610133565b61062561061461096d565b61061c610123565b9182918261027c565b0390f35b610129565b60018060a01b031690565b61064990600861064e9302610143565b61062e565b90565b9061065c9154610639565b90565b61066c6004600090610651565b90565b610678906101b2565b90565b6106849061066f565b9052565b919061069c9060006020850194019061067b565b565b346106ce576106ae366004610133565b6106ca6106b961065f565b6106c1610123565b91829182610688565b0390f35b610129565b63ffffffff1690565b6106e5816106d3565b036106ec57565b600080fd5b905035906106fe826106dc565b565b9190604083820312610729578061071d61072692600086016106f1565b93602001610426565b90565b61012e565b90565b61073a9061072e565b9052565b919061075290600060208501940190610731565b565b346107855761078161077061076a366004610700565b90611a23565b610778610123565b9182918261073e565b0390f35b610129565b346107bb576107b76107a66107a0366004610700565b90611272565b6107ae610123565b9182918261073e565b0390f35b610129565b346107ee576107d86107d3366004610435565b610dbf565b6107e0610123565b806107ea8161058b565b0390f35b610129565b6107fc8161072e565b0361080357565b600080fd5b90503590610815826107f3565b565b60ff1690565b61082681610817565b0361082d57565b600080fd5b9050359061083f8261081d565b565b90565b61084d81610841565b0361085457565b600080fd5b9050359061086682610844565b565b909160c0828403126108c85761088183600084016106f1565b9261088f8160208501610426565b9261089d8260408301610808565b926108c56108ae8460608501610832565b936108bc8160808601610859565b9360a001610859565b90565b61012e565b34610904576109006108ef6108e3366004610868565b949390939291926115d9565b6108f7610123565b9182918261073e565b0390f35b610129565b346109375761092161091c366004610435565b610aa1565b610929610123565b806109338161058b565b0390f35b610129565b600080fd5b600090565b60001c90565b61095861095d91610946565b610222565b90565b61096a905461094c565b90565b610975610941565b506109806000610960565b90565b61098b6109de565b6109936109c0565b565b90565b6109ac6109a76109b192610995565b610193565b610188565b90565b6109bd90610998565b90565b6109d26109cd60006109b4565b610afc565b565b6109dc610983565b565b6109e661096d565b6109ff6109f96109f4610bb5565b610263565b91610263565b03610a0657565b610a2f610a11610bb5565b610a19610123565b91829163118cdaa760e01b83526004830161027c565b0390fd5b610a4490610a3f6109de565b610a46565b565b80610a62610a5c610a5760006109b4565b610263565b91610263565b14610a7257610a7090610afc565b565b610a9d610a7f60006109b4565b610a87610123565b918291631e4fbdf760e01b83526004830161027c565b0390fd5b610aaa90610a33565b565b60001b90565b90610ac360018060a01b0391610aac565b9181191691161790565b610ad6906101b2565b90565b90565b90610af1610aec610af892610acd565b610ad9565b8254610ab2565b9055565b610b066000610960565b610b11826000610adc565b90610b45610b3f7f8be0079c531659141344cd1fd0a4f28419497f9722a3daafe3b4186f6b6457e093610acd565b91610acd565b91610b4e610123565b80610b588161058b565b0390a3565b610b65610941565b507f000000000000000000000000000000000000000000000000000000000000000090565b600090565b610b97610b8a565b50610bb1610bab610ba6610b5d565b610263565b91610263565b1490565b610bbd610941565b50610bc6610cbb565b90565b5090565b634e487b7160e01b600052601160045260246000fd5b610bf2610bf89193929361072e565b9261072e565b8203918211610c0357565b610bcd565b600080fd5b600080fd5b90939293848311610c32578411610c2d576001820201920390565b610c0d565b610c08565b6bffffffffffffffffffffffff191690565b1b90565b90610c5b610c629183610bc9565b9135610c37565b9060148110610c70575b5090565b610c8e906bffffffffffffffffffffffff1990601403600802610c49565b1638610c6c565b60601c90565b610ca7610cac91610c95565b610196565b90565b610cb890610c9b565b90565b610cc3610941565b50610cd060003690610bc9565b610cd8610d56565b610ce133610b8f565b80610d29575b600014610d1c57610d0e610d1491610d1993610d066000923692610be3565b908092610c12565b90610c4d565b610caf565b90565b5050610d26610d44565b90565b5081610d3d610d378361072e565b9161072e565b1015610ce7565b610d4c610941565b503390565b600090565b610d5e610d51565b50610d67610d89565b90565b90565b610d81610d7c610d8692610d6a565b610193565b61072e565b90565b610d91610d51565b50610d9c6014610d6d565b90565b610db090610dab6109de565b610db2565b565b610dbd906006610adc565b565b610dc890610d9f565b565b610de490610dd6610b8a565b50610ddf610bb5565b610f3a565b90565b610df090610196565b90565b610dfc90610de7565b90565b610e08906101b2565b90565b610e17610e1c91610946565b6102c7565b90565b610e299054610e0b565b90565b600080fd5b601f801991011690565b634e487b7160e01b600052604160045260246000fd5b90610e5b90610e31565b810190811067ffffffffffffffff821117610e7557604052565b610e3b565b60e01b90565b90505190610e8d826107f3565b565b90602082820312610ea957610ea691600001610e80565b90565b61012e565b916020610ed0929493610ec96040820196600083019061026f565b019061026f565b565b610eda610123565b3d6000823e3d90fd5b90565b610efa610ef5610eff92610ee3565b610193565b61072e565b90565b634e487b7160e01b600052601260045260246000fd5b610f24610f2a9161072e565b9161072e565b908115610f35570490565b610f02565b90610f57610f52602092610f4c610b8a565b50610df3565b610dff565b63dd62ed3e9290610f8b610f73610f6e6002610e1f565b610308565b94610f96610f7f610123565b96879586948594610e7a565b845260048401610eae565b03915afa90811561100457600091610fd6575b50610fd1610fcb610fc6600019610fc06002610ee6565b90610f18565b61072e565b9161072e565b101590565b610ff7915060203d8111610ffd575b610fef8183610e51565b810190610e8f565b38610fa9565b503d610fe5565b610ed2565b61101561101a91610946565b61062e565b90565b6110279054611009565b90565b61103381610454565b0361103a57565b600080fd5b9050519061104c8261102a565b565b90602082820312611068576110659160000161103f565b90565b61012e565b611076906106d3565b9052565b919061108e9060006020850194019061106d565b565b60209181520190565b60007f4974656d206973206e6f74206f6e2073616c6500000000000000000000000000910152565b6110ce6013602092611090565b6110d781611099565b0190565b6110f190602081019060008183039101526110c1565b90565b156110fb57565b611103610123565b62461bcd60e51b815280611119600482016110db565b0390fd5b9061115f9291602082611138611133600461101d565b61066f565b61115463eebd35e6611148610123565b98899485938493610e7a565b83526004830161107a565b03915afa9384156111b6576111859461118091600091611188575b506110f4565b61123f565b90565b6111a9915060203d81116111af575b6111a18183610e51565b81019061104e565b3861117a565b503d611197565b610ed2565b60007f5061796d656e74206973206e6f7420616c6c6f77656400000000000000000000910152565b6111f06016602092611090565b6111f9816111bb565b0190565b61121390602081019060008183039101526111e3565b90565b1561121d57565b611225610123565b62461bcd60e51b81528061123b600482016111fd565b0390fd5b9161126f925061125f61125a611253610bb5565b8390610f3a565b611216565b611267610bb5565b919091611347565b90565b906112849161127f610d51565b61111d565b90565b600091031261129257565b61012e565b6040906112c16112c894969593966112b76060840198600085019061026f565b602083019061106d565b019061026f565b565b6112d66112db91610946565b61036c565b90565b6112e890546112ca565b90565b91602061130d9294936113066040820196600083019061106d565b019061026f565b565b61132361131e611328926106d3565b610193565b6106d3565b90565b61133f61133a6113449261072e565b610193565b61072e565b90565b909291611352610d51565b506113656113606002610e1f565b610308565b639d367cd1908390869392813b156114c7576000611396916113a1829661138a610123565b98899788968795610e7a565b855260048501611297565b03925af180156114c257611495575b506113c36113be60036112de565b6103ad565b60206306ba53eb9185906113eb600086956113f66113df610123565b97889687958694610e7a565b8452600484016112eb565b03925af190811561149057600091611462575b509290839061144a61144461143e7f93d5ce83d5003c50530ce3ba909117e891a291673b4c335ecbea6ab7c2f1b7039561130f565b92610acd565b9261132b565b92611453610123565b8061145d8161058b565b0390a4565b611483915060203d8111611489575b61147b8183610e51565b810190610e8f565b38611409565b503d611471565b610ed2565b6114b59060003d81116114bb575b6114ad8183610e51565b810190611287565b386113b0565b503d6114a3565b610ed2565b610e2c565b906115129695949392916020826114eb6114e6600461101d565b61066f565b61150763eebd35e66114fb610123565b9c8d9485938493610e7a565b83526004830161107a565b03915afa97881561156957611538986115339160009161153b575b506110f4565b61156e565b90565b61155c915060203d8111611562575b6115548183610e51565b81019061104e565b3861152d565b503d61154a565b610ed2565b959295949193909450611589611582610bb5565b8590610f3a565b6115be57916115bb95916115ab9361159f610bb5565b93869091929394611699565b6115b3610bb5565b919091611347565b90565b5050506115d692506115ce610bb5565b919091611347565b90565b906115ef95949392916115ea610d51565b6114cc565b90565b6115fb90610196565b90565b611607906115f2565b90565b611613906101b2565b90565b61161f90610817565b9052565b61162c90610841565b9052565b949290979695939160e08601986000870161164a9161026f565b602086016116579161026f565b6040850161166491610731565b6060840161167191610731565b6080830161167e91611616565b60a0820161168b91611623565b60c00161169791611623565b565b92919493906116aa6116af916115fe565b61160a565b9163d505accf6116c76116c26002610e1f565b610308565b9660001990929396853b15611746576000976116f7958995611702946116eb610123565b9c8d9b8c9a8b99610e7a565b895260048901611630565b03925af1801561174157611714575b50565b6117349060003d811161173a575b61172c8183610e51565b810190611287565b38611711565b503d611722565b610ed2565b610e2c565b9061178d9291602082611766611761600461101d565b61066f565b61178263eebd35e6611776610123565b98899485938493610e7a565b83526004830161107a565b03915afa9384156117e4576117b3946117ae916000916117b6575b506110f4565b61186d565b90565b6117d7915060203d81116117dd575b6117cf8183610e51565b81019061104e565b386117a8565b503d6117c5565b610ed2565b60007f4e6f742070757263686173652070726f78790000000000000000000000000000910152565b61181e6012602092611090565b611827816117e9565b0190565b6118419060208101906000818303910152611811565b90565b1561184b57565b611853610123565b62461bcd60e51b8152806118696004820161182b565b0390fd5b929190925061189e61187d610bb5565b61189861189261188d6006610960565b610263565b91610263565b14611844565b6118b06118ab6002610e1f565b610308565b906394386d2a90849092803b15611a1e576118df600080946118ea6118d3610123565b97889687958694610e7a565b8452600484016112eb565b03925af18015611a19576119ec575b5061190c61190760036112de565b6103ad565b60206306ba53eb91849061193b6000611923610bb5565b9561194661192f610123565b97889687958694610e7a565b8452600484016112eb565b03925af19081156119e7576000916119b9575b5091611963610bb5565b83906119a161199b6119957f93d5ce83d5003c50530ce3ba909117e891a291673b4c335ecbea6ab7c2f1b7039561130f565b92610acd565b9261132b565b926119aa610123565b806119b48161058b565b0390a4565b6119da915060203d81116119e0575b6119d28183610e51565b810190610e8f565b38611959565b503d6119c8565b610ed2565b611a0c9060003d8111611a12575b611a048183610e51565b810190611287565b386118f9565b503d6119fa565b610ed2565b610e2c565b90611a3591611a30610d51565b61174b565b9056fea264697066735822122032554594fc8efd8956d8726efc4a2e6b18af0c1d6a80b671718f28efd0b6492064736f6c63430008150033",
    "linkReferences": {},
    "deployedLinkReferences": {}
}