{
    "_format": "hh-sol-artifact-1",
    "contractName": "Store",
    "sourceName": "contracts/Store.sol",
    "abi": [
        {
            "inputs": [
                {
                    "internalType": "address",
                    "name": "forwarderAddress",
                    "type": "address"
                },
                {
                    "internalType": "address",
                    "name": "priceTableAddress",
                    "type": "address"
                },
                {
                    "internalType": "address",
                    "name": "ledgerAddress",
                    "type": "address"
                },
                {
                    "internalType": "address",
                    "name": "paymentProcessorAddress",
                    "type": "address"
                }
            ],
            "stateMutability": "nonpayable",
            "type": "constructor"
        },
        {
            "inputs": [
                {
                    "internalType": "address",
                    "name": "owner",
                    "type": "address"
                }
            ],
            "name": "OwnableInvalidOwner",
            "type": "error"
        },
        {
            "inputs": [
                {
                    "internalType": "address",
                    "name": "account",
                    "type": "address"
                }
            ],
            "name": "OwnableUnauthorizedAccount",
            "type": "error"
        },
        {
            "anonymous": false,
            "inputs": [
                {
                    "indexed": true,
                    "internalType": "uint32",
                    "name": "itemID",
                    "type": "uint32"
                },
                {
                    "indexed": true,
                    "internalType": "address",
                    "name": "buyer",
                    "type": "address"
                },
                {
                    "indexed": true,
                    "internalType": "uint256",
                    "name": "tokenID",
                    "type": "uint256"
                }
            ],
            "name": "ItemPurchased",
            "type": "event"
        },
        {
            "anonymous": false,
            "inputs": [
                {
                    "indexed": true,
                    "internalType": "address",
                    "name": "previousOwner",
                    "type": "address"
                },
                {
                    "indexed": true,
                    "internalType": "address",
                    "name": "newOwner",
                    "type": "address"
                }
            ],
            "name": "OwnershipTransferred",
            "type": "event"
        },
        {
            "inputs": [
                {
                    "internalType": "address",
                    "name": "token",
                    "type": "address"
                }
            ],
            "name": "isTokenPermitted",
            "outputs": [
                {
                    "internalType": "bool",
                    "name": "isPermitted",
                    "type": "bool"
                }
            ],
            "stateMutability": "view",
            "type": "function"
        },
        {
            "inputs": [
                {
                    "internalType": "address",
                    "name": "forwarder",
                    "type": "address"
                }
            ],
            "name": "isTrustedForwarder",
            "outputs": [
                {
                    "internalType": "bool",
                    "name": "",
                    "type": "bool"
                }
            ],
            "stateMutability": "view",
            "type": "function"
        },
        {
            "inputs": [],
            "name": "itemRegistry",
            "outputs": [
                {
                    "internalType": "contract ItemRegistry",
                    "name": "",
                    "type": "address"
                }
            ],
            "stateMutability": "view",
            "type": "function"
        },
        {
            "inputs": [],
            "name": "ledger",
            "outputs": [
                {
                    "internalType": "contract Ledger",
                    "name": "",
                    "type": "address"
                }
            ],
            "stateMutability": "view",
            "type": "function"
        },
        {
            "inputs": [],
            "name": "owner",
            "outputs": [
                {
                    "internalType": "address",
                    "name": "",
                    "type": "address"
                }
            ],
            "stateMutability": "view",
            "type": "function"
        },
        {
            "inputs": [],
            "name": "payment",
            "outputs": [
                {
                    "internalType": "contract PaymentProcessor",
                    "name": "",
                    "type": "address"
                }
            ],
            "stateMutability": "view",
            "type": "function"
        },
        {
            "inputs": [],
            "name": "priceTable",
            "outputs": [
                {
                    "internalType": "contract PriceTable",
                    "name": "",
                    "type": "address"
                }
            ],
            "stateMutability": "view",
            "type": "function"
        },
        {
            "inputs": [
                {
                    "internalType": "uint32",
                    "name": "itemID",
                    "type": "uint32"
                },
                {
                    "internalType": "address",
                    "name": "token",
                    "type": "address"
                }
            ],
            "name": "purchaseItem",
            "outputs": [
                {
                    "internalType": "uint256",
                    "name": "purchaseID",
                    "type": "uint256"
                }
            ],
            "stateMutability": "nonpayable",
            "type": "function"
        },
        {
            "inputs": [
                {
                    "internalType": "uint32",
                    "name": "itemID",
                    "type": "uint32"
                },
                {
                    "internalType": "address",
                    "name": "token",
                    "type": "address"
                },
                {
                    "internalType": "uint256",
                    "name": "deadline",
                    "type": "uint256"
                },
                {
                    "internalType": "uint8",
                    "name": "v",
                    "type": "uint8"
                },
                {
                    "internalType": "bytes32",
                    "name": "r",
                    "type": "bytes32"
                },
                {
                    "internalType": "bytes32",
                    "name": "s",
                    "type": "bytes32"
                }
            ],
            "name": "purchaseItemWithPermission",
            "outputs": [
                {
                    "internalType": "uint256",
                    "name": "purchaseID",
                    "type": "uint256"
                }
            ],
            "stateMutability": "nonpayable",
            "type": "function"
        },
        {
            "inputs": [],
            "name": "renounceOwnership",
            "outputs": [],
            "stateMutability": "nonpayable",
            "type": "function"
        },
        {
            "inputs": [],
            "name": "sellerRegistry",
            "outputs": [
                {
                    "internalType": "contract SellerRegistry",
                    "name": "",
                    "type": "address"
                }
            ],
            "stateMutability": "view",
            "type": "function"
        },
        {
            "inputs": [
                {
                    "internalType": "address",
                    "name": "newOwner",
                    "type": "address"
                }
            ],
            "name": "transferOwnership",
            "outputs": [],
            "stateMutability": "nonpayable",
            "type": "function"
        },
        {
            "inputs": [],
            "name": "trustedForwarder",
            "outputs": [
                {
                    "internalType": "address",
                    "name": "",
                    "type": "address"
                }
            ],
            "stateMutability": "view",
            "type": "function"
        }
    ],
    "bytecode": "0x60a06040523480156200001157600080fd5b50604051620018b5380380620018b583398181016040528101906200003791906200049c565b33848082600073ffffffffffffffffffffffffffffffffffffffff168173ffffffffffffffffffffffffffffffffffffffff1603620000b05760006040517f1e4fbdf7000000000000000000000000000000000000000000000000000000008152600401620000a791906200051f565b60405180910390fd5b620000c1816200036e60201b60201c565b508073ffffffffffffffffffffffffffffffffffffffff1660808173ffffffffffffffffffffffffffffffffffffffff168152505050505082600160006101000a81548173ffffffffffffffffffffffffffffffffffffffff021916908373ffffffffffffffffffffffffffffffffffffffff16021790555081600360006101000a81548173ffffffffffffffffffffffffffffffffffffffff021916908373ffffffffffffffffffffffffffffffffffffffff16021790555080600260006101000a81548173ffffffffffffffffffffffffffffffffffffffff021916908373ffffffffffffffffffffffffffffffffffffffff160217905550600160009054906101000a900473ffffffffffffffffffffffffffffffffffffffff1673ffffffffffffffffffffffffffffffffffffffff1663957047f66040518163ffffffff1660e01b8152600401602060405180830381865afa1580156200022a573d6000803e3d6000fd5b505050506040513d601f19601f8201168201806040525081019062000250919062000581565b600460006101000a81548173ffffffffffffffffffffffffffffffffffffffff021916908373ffffffffffffffffffffffffffffffffffffffff160217905550600160009054906101000a900473ffffffffffffffffffffffffffffffffffffffff1673ffffffffffffffffffffffffffffffffffffffff166370c69b096040518163ffffffff1660e01b8152600401602060405180830381865afa158015620002fe573d6000803e3d6000fd5b505050506040513d601f19601f82011682018060405250810190620003249190620005f8565b600560006101000a81548173ffffffffffffffffffffffffffffffffffffffff021916908373ffffffffffffffffffffffffffffffffffffffff160217905550505050506200062a565b60008060009054906101000a900473ffffffffffffffffffffffffffffffffffffffff169050816000806101000a81548173ffffffffffffffffffffffffffffffffffffffff021916908373ffffffffffffffffffffffffffffffffffffffff1602179055508173ffffffffffffffffffffffffffffffffffffffff168173ffffffffffffffffffffffffffffffffffffffff167f8be0079c531659141344cd1fd0a4f28419497f9722a3daafe3b4186f6b6457e060405160405180910390a35050565b600080fd5b600073ffffffffffffffffffffffffffffffffffffffff82169050919050565b6000620004648262000437565b9050919050565b620004768162000457565b81146200048257600080fd5b50565b60008151905062000496816200046b565b92915050565b60008060008060808587031215620004b957620004b862000432565b5b6000620004c98782880162000485565b9450506020620004dc8782880162000485565b9350506040620004ef8782880162000485565b9250506060620005028782880162000485565b91505092959194509250565b620005198162000457565b82525050565b60006020820190506200053660008301846200050e565b92915050565b6000620005498262000457565b9050919050565b6200055b816200053c565b81146200056757600080fd5b50565b6000815190506200057b8162000550565b92915050565b6000602082840312156200059a576200059962000432565b5b6000620005aa848285016200056a565b91505092915050565b6000620005c08262000457565b9050919050565b620005d281620005b3565b8114620005de57600080fd5b50565b600081519050620005f281620005c7565b92915050565b60006020828403121562000611576200061062000432565b5b60006200062184828501620005e1565b91505092915050565b60805161126f620006466000396000610395015261126f6000f3fe608060405234801561001057600080fd5b50600436106100cf5760003560e01c8063715018a61161008c578063957047f611610066578063957047f6146101f2578063b54dc9de14610210578063e64d597b14610240578063f2fde38b14610270576100cf565b8063715018a6146101ac5780637da0a877146101b65780638da5cb5b146101d4576100cf565b8063100f9bf8146100d457806342f6487a146100f257806356397c3514610110578063572b6c051461012e57806362ef7c071461015e57806370c69b091461018e575b600080fd5b6100dc61028c565b6040516100e99190610af7565b60405180910390f35b6100fa6102b2565b6040516101079190610b33565b60405180910390f35b6101186102d8565b6040516101259190610b6f565b60405180910390f35b61014860048036038101906101439190610bcd565b6102fe565b6040516101559190610c15565b60405180910390f35b61017860048036038101906101739190610bcd565b61033d565b6040516101859190610c15565b60405180910390f35b610196610357565b6040516101a39190610c51565b60405180910390f35b6101b461037d565b005b6101be610391565b6040516101cb9190610c7b565b60405180910390f35b6101dc6103b9565b6040516101e99190610c7b565b60405180910390f35b6101fa6103e2565b6040516102079190610cb7565b60405180910390f35b61022a60048036038101906102259190610d0e565b610408565b6040516102379190610d67565b60405180910390f35b61025a60048036038101906102559190610e1d565b610474565b6040516102679190610d67565b60405180910390f35b61028a60048036038101906102859190610bcd565b6104d9565b005b600160009054906101000a900473ffffffffffffffffffffffffffffffffffffffff1681565b600260009054906101000a900473ffffffffffffffffffffffffffffffffffffffff1681565b600360009054906101000a900473ffffffffffffffffffffffffffffffffffffffff1681565b6000610308610391565b73ffffffffffffffffffffffffffffffffffffffff168273ffffffffffffffffffffffffffffffffffffffff16149050919050565b600061035061034a61055f565b8361056e565b9050919050565b600560009054906101000a900473ffffffffffffffffffffffffffffffffffffffff1681565b610385610650565b61038f60006106d7565b565b60007f0000000000000000000000000000000000000000000000000000000000000000905090565b60008060009054906101000a900473ffffffffffffffffffffffffffffffffffffffff16905090565b600460009054906101000a900473ffffffffffffffffffffffffffffffffffffffff1681565b600061041b61041561055f565b8361056e565b61045a576040517f08c379a000000000000000000000000000000000000000000000000000000000815260040161045190610f07565b60405180910390fd5b61046c61046561055f565b848461079b565b905092915050565b600061048761048161055f565b8761056e565b156104a55761049e61049761055f565b888861079b565b90506104cf565b6104ba6104b061055f565b8787878787610922565b6104cc6104c561055f565b888861079b565b90505b9695505050505050565b6104e1610650565b600073ffffffffffffffffffffffffffffffffffffffff168173ffffffffffffffffffffffffffffffffffffffff16036105535760006040517f1e4fbdf700000000000000000000000000000000000000000000000000000000815260040161054a9190610c7b565b60405180910390fd5b61055c816106d7565b50565b60006105696109e3565b905090565b60008082905060008173ffffffffffffffffffffffffffffffffffffffff1663dd62ed3e86600260009054906101000a900473ffffffffffffffffffffffffffffffffffffffff166040518363ffffffff1660e01b81526004016105d3929190610f27565b602060405180830381865afa1580156105f0573d6000803e3d6000fd5b505050506040513d601f19601f820116820180604052508101906106149190610f65565b905060027fffffffffffffffffffffffffffffffffffffffffffffffffffffffffffffffff6106439190610ff0565b8110159250505092915050565b61065861055f565b73ffffffffffffffffffffffffffffffffffffffff166106766103b9565b73ffffffffffffffffffffffffffffffffffffffff16146106d55761069961055f565b6040517f118cdaa70000000000000000000000000000000000000000000000000000000081526004016106cc9190610c7b565b60405180910390fd5b565b60008060009054906101000a900473ffffffffffffffffffffffffffffffffffffffff169050816000806101000a81548173ffffffffffffffffffffffffffffffffffffffff021916908373ffffffffffffffffffffffffffffffffffffffff1602179055508173ffffffffffffffffffffffffffffffffffffffff168173ffffffffffffffffffffffffffffffffffffffff167f8be0079c531659141344cd1fd0a4f28419497f9722a3daafe3b4186f6b6457e060405160405180910390a35050565b6000600260009054906101000a900473ffffffffffffffffffffffffffffffffffffffff1673ffffffffffffffffffffffffffffffffffffffff16639d367cd18585856040518463ffffffff1660e01b81526004016107fc93929190611030565b600060405180830381600087803b15801561081657600080fd5b505af115801561082a573d6000803e3d6000fd5b50505050600360009054906101000a900473ffffffffffffffffffffffffffffffffffffffff1673ffffffffffffffffffffffffffffffffffffffff166306ba53eb84866040518363ffffffff1660e01b815260040161088b929190611067565b6020604051808303816000875af11580156108aa573d6000803e3d6000fd5b505050506040513d601f19601f820116820180604052508101906108ce9190610f65565b9050808473ffffffffffffffffffffffffffffffffffffffff168463ffffffff167f93d5ce83d5003c50530ce3ba909117e891a291673b4c335ecbea6ab7c2f1b70360405160405180910390a49392505050565b8473ffffffffffffffffffffffffffffffffffffffff1663d505accf87600260009054906101000a900473ffffffffffffffffffffffffffffffffffffffff167fffffffffffffffffffffffffffffffffffffffffffffffffffffffffffffffff888888886040518863ffffffff1660e01b81526004016109a997969594939291906110ae565b600060405180830381600087803b1580156109c357600080fd5b505af11580156109d7573d6000803e3d6000fd5b50505050505050505050565b6000806000369050905060006109f7610a58565b9050610a02336102fe565b8015610a0e5750808210155b15610a48576000368284610a22919061111d565b908092610a319392919061115b565b90610a3c91906111da565b60601c92505050610a55565b610a50610a67565b925050505b90565b6000610a62610a6f565b905090565b600033905090565b60006014905090565b600073ffffffffffffffffffffffffffffffffffffffff82169050919050565b6000819050919050565b6000610abd610ab8610ab384610a78565b610a98565b610a78565b9050919050565b6000610acf82610aa2565b9050919050565b6000610ae182610ac4565b9050919050565b610af181610ad6565b82525050565b6000602082019050610b0c6000830184610ae8565b92915050565b6000610b1d82610ac4565b9050919050565b610b2d81610b12565b82525050565b6000602082019050610b486000830184610b24565b92915050565b6000610b5982610ac4565b9050919050565b610b6981610b4e565b82525050565b6000602082019050610b846000830184610b60565b92915050565b600080fd5b6000610b9a82610a78565b9050919050565b610baa81610b8f565b8114610bb557600080fd5b50565b600081359050610bc781610ba1565b92915050565b600060208284031215610be357610be2610b8a565b5b6000610bf184828501610bb8565b91505092915050565b60008115159050919050565b610c0f81610bfa565b82525050565b6000602082019050610c2a6000830184610c06565b92915050565b6000610c3b82610ac4565b9050919050565b610c4b81610c30565b82525050565b6000602082019050610c666000830184610c42565b92915050565b610c7581610b8f565b82525050565b6000602082019050610c906000830184610c6c565b92915050565b6000610ca182610ac4565b9050919050565b610cb181610c96565b82525050565b6000602082019050610ccc6000830184610ca8565b92915050565b600063ffffffff82169050919050565b610ceb81610cd2565b8114610cf657600080fd5b50565b600081359050610d0881610ce2565b92915050565b60008060408385031215610d2557610d24610b8a565b5b6000610d3385828601610cf9565b9250506020610d4485828601610bb8565b9150509250929050565b6000819050919050565b610d6181610d4e565b82525050565b6000602082019050610d7c6000830184610d58565b92915050565b610d8b81610d4e565b8114610d9657600080fd5b50565b600081359050610da881610d82565b92915050565b600060ff82169050919050565b610dc481610dae565b8114610dcf57600080fd5b50565b600081359050610de181610dbb565b92915050565b6000819050919050565b610dfa81610de7565b8114610e0557600080fd5b50565b600081359050610e1781610df1565b92915050565b60008060008060008060c08789031215610e3a57610e39610b8a565b5b6000610e4889828a01610cf9565b9650506020610e5989828a01610bb8565b9550506040610e6a89828a01610d99565b9450506060610e7b89828a01610dd2565b9350506080610e8c89828a01610e08565b92505060a0610e9d89828a01610e08565b9150509295509295509295565b600082825260208201905092915050565b7f5061796d656e74206973206e6f7420616c6c6f77656400000000000000000000600082015250565b6000610ef1601683610eaa565b9150610efc82610ebb565b602082019050919050565b60006020820190508181036000830152610f2081610ee4565b9050919050565b6000604082019050610f3c6000830185610c6c565b610f496020830184610c6c565b9392505050565b600081519050610f5f81610d82565b92915050565b600060208284031215610f7b57610f7a610b8a565b5b6000610f8984828501610f50565b91505092915050565b7f4e487b7100000000000000000000000000000000000000000000000000000000600052601260045260246000fd5b7f4e487b7100000000000000000000000000000000000000000000000000000000600052601160045260246000fd5b6000610ffb82610d4e565b915061100683610d4e565b92508261101657611015610f92565b5b828204905092915050565b61102a81610cd2565b82525050565b60006060820190506110456000830186610c6c565b6110526020830185611021565b61105f6040830184610c6c565b949350505050565b600060408201905061107c6000830185611021565b6110896020830184610c6c565b9392505050565b61109981610dae565b82525050565b6110a881610de7565b82525050565b600060e0820190506110c3600083018a610c6c565b6110d06020830189610c6c565b6110dd6040830188610d58565b6110ea6060830187610d58565b6110f76080830186611090565b61110460a083018561109f565b61111160c083018461109f565b98975050505050505050565b600061112882610d4e565b915061113383610d4e565b925082820390508181111561114b5761114a610fc1565b5b92915050565b600080fd5b600080fd5b6000808585111561116f5761116e611151565b5b838611156111805761117f611156565b5b6001850283019150848603905094509492505050565b600082905092915050565b60007fffffffffffffffffffffffffffffffffffffffff00000000000000000000000082169050919050565b600082821b905092915050565b60006111e68383611196565b826111f181356111a1565b925060148210156112315761122c7fffffffffffffffffffffffffffffffffffffffff000000000000000000000000836014036008026111cd565b831692505b50509291505056fea2646970667358221220b174d01011de4a7415863f87c4e50ab7511197f9fc33036b78c5b99c29bf19e664736f6c63430008150033",
    "linkReferences": {},
    "deployedLinkReferences": {}
}