{
    "_format": "hh-sol-artifact-1",
    "contractName": "MockUSDC",
    "sourceName": "contracts/MockUSDC.sol",
    "abi": [
        {
            "inputs": [
                {
                    "internalType": "address[]",
                    "name": "recipients",
                    "type": "address[]"
                }
            ],
            "stateMutability": "nonpayable",
            "type": "constructor"
        },
        {
            "inputs": [],
            "name": "ECDSAInvalidSignature",
            "type": "error"
        },
        {
            "inputs": [
                {
                    "internalType": "uint256",
                    "name": "length",
                    "type": "uint256"
                }
            ],
            "name": "ECDSAInvalidSignatureLength",
            "type": "error"
        },
        {
            "inputs": [
                {
                    "internalType": "bytes32",
                    "name": "s",
                    "type": "bytes32"
                }
            ],
            "name": "ECDSAInvalidSignatureS",
            "type": "error"
        },
        {
            "inputs": [
                {
                    "internalType": "address",
                    "name": "spender",
                    "type": "address"
                },
                {
                    "internalType": "uint256",
                    "name": "allowance",
                    "type": "uint256"
                },
                {
                    "internalType": "uint256",
                    "name": "needed",
                    "type": "uint256"
                }
            ],
            "name": "ERC20InsufficientAllowance",
            "type": "error"
        },
        {
            "inputs": [
                {
                    "internalType": "address",
                    "name": "sender",
                    "type": "address"
                },
                {
                    "internalType": "uint256",
                    "name": "balance",
                    "type": "uint256"
                },
                {
                    "internalType": "uint256",
                    "name": "needed",
                    "type": "uint256"
                }
            ],
            "name": "ERC20InsufficientBalance",
            "type": "error"
        },
        {
            "inputs": [
                {
                    "internalType": "address",
                    "name": "approver",
                    "type": "address"
                }
            ],
            "name": "ERC20InvalidApprover",
            "type": "error"
        },
        {
            "inputs": [
                {
                    "internalType": "address",
                    "name": "receiver",
                    "type": "address"
                }
            ],
            "name": "ERC20InvalidReceiver",
            "type": "error"
        },
        {
            "inputs": [
                {
                    "internalType": "address",
                    "name": "sender",
                    "type": "address"
                }
            ],
            "name": "ERC20InvalidSender",
            "type": "error"
        },
        {
            "inputs": [
                {
                    "internalType": "address",
                    "name": "spender",
                    "type": "address"
                }
            ],
            "name": "ERC20InvalidSpender",
            "type": "error"
        },
        {
            "inputs": [
                {
                    "internalType": "uint256",
                    "name": "deadline",
                    "type": "uint256"
                }
            ],
            "name": "ERC2612ExpiredSignature",
            "type": "error"
        },
        {
            "inputs": [
                {
                    "internalType": "address",
                    "name": "signer",
                    "type": "address"
                },
                {
                    "internalType": "address",
                    "name": "owner",
                    "type": "address"
                }
            ],
            "name": "ERC2612InvalidSigner",
            "type": "error"
        },
        {
            "inputs": [
                {
                    "internalType": "address",
                    "name": "account",
                    "type": "address"
                },
                {
                    "internalType": "uint256",
                    "name": "currentNonce",
                    "type": "uint256"
                }
            ],
            "name": "InvalidAccountNonce",
            "type": "error"
        },
        {
            "inputs": [],
            "name": "InvalidShortString",
            "type": "error"
        },
        {
            "inputs": [
                {
                    "internalType": "string",
                    "name": "str",
                    "type": "string"
                }
            ],
            "name": "StringTooLong",
            "type": "error"
        },
        {
            "anonymous": false,
            "inputs": [
                {
                    "indexed": true,
                    "internalType": "address",
                    "name": "owner",
                    "type": "address"
                },
                {
                    "indexed": true,
                    "internalType": "address",
                    "name": "spender",
                    "type": "address"
                },
                {
                    "indexed": false,
                    "internalType": "uint256",
                    "name": "value",
                    "type": "uint256"
                }
            ],
            "name": "Approval",
            "type": "event"
        },
        {
            "anonymous": false,
            "inputs": [],
            "name": "EIP712DomainChanged",
            "type": "event"
        },
        {
            "anonymous": false,
            "inputs": [
                {
                    "indexed": true,
                    "internalType": "address",
                    "name": "from",
                    "type": "address"
                },
                {
                    "indexed": true,
                    "internalType": "address",
                    "name": "to",
                    "type": "address"
                },
                {
                    "indexed": false,
                    "internalType": "uint256",
                    "name": "value",
                    "type": "uint256"
                }
            ],
            "name": "Transfer",
            "type": "event"
        },
        {
            "inputs": [],
            "name": "DOMAIN_SEPARATOR",
            "outputs": [
                {
                    "internalType": "bytes32",
                    "name": "",
                    "type": "bytes32"
                }
            ],
            "stateMutability": "view",
            "type": "function"
        },
        {
            "inputs": [],
            "name": "INITIAL_AMOUNT",
            "outputs": [
                {
                    "internalType": "uint256",
                    "name": "",
                    "type": "uint256"
                }
            ],
            "stateMutability": "view",
            "type": "function"
        },
        {
            "inputs": [
                {
                    "internalType": "address",
                    "name": "owner",
                    "type": "address"
                },
                {
                    "internalType": "address",
                    "name": "spender",
                    "type": "address"
                }
            ],
            "name": "allowance",
            "outputs": [
                {
                    "internalType": "uint256",
                    "name": "",
                    "type": "uint256"
                }
            ],
            "stateMutability": "view",
            "type": "function"
        },
        {
            "inputs": [
                {
                    "internalType": "address",
                    "name": "spender",
                    "type": "address"
                },
                {
                    "internalType": "uint256",
                    "name": "value",
                    "type": "uint256"
                }
            ],
            "name": "approve",
            "outputs": [
                {
                    "internalType": "bool",
                    "name": "",
                    "type": "bool"
                }
            ],
            "stateMutability": "nonpayable",
            "type": "function"
        },
        {
            "inputs": [
                {
                    "internalType": "address",
                    "name": "account",
                    "type": "address"
                }
            ],
            "name": "balanceOf",
            "outputs": [
                {
                    "internalType": "uint256",
                    "name": "",
                    "type": "uint256"
                }
            ],
            "stateMutability": "view",
            "type": "function"
        },
        {
            "inputs": [],
            "name": "decimals",
            "outputs": [
                {
                    "internalType": "uint8",
                    "name": "",
                    "type": "uint8"
                }
            ],
            "stateMutability": "pure",
            "type": "function"
        },
        {
            "inputs": [],
            "name": "eip712Domain",
            "outputs": [
                {
                    "internalType": "bytes1",
                    "name": "fields",
                    "type": "bytes1"
                },
                {
                    "internalType": "string",
                    "name": "name",
                    "type": "string"
                },
                {
                    "internalType": "string",
                    "name": "version",
                    "type": "string"
                },
                {
                    "internalType": "uint256",
                    "name": "chainId",
                    "type": "uint256"
                },
                {
                    "internalType": "address",
                    "name": "verifyingContract",
                    "type": "address"
                },
                {
                    "internalType": "bytes32",
                    "name": "salt",
                    "type": "bytes32"
                },
                {
                    "internalType": "uint256[]",
                    "name": "extensions",
                    "type": "uint256[]"
                }
            ],
            "stateMutability": "view",
            "type": "function"
        },
        {
            "inputs": [
                {
                    "internalType": "address",
                    "name": "to",
                    "type": "address"
                }
            ],
            "name": "giveaway",
            "outputs": [],
            "stateMutability": "nonpayable",
            "type": "function"
        },
        {
            "inputs": [],
            "name": "name",
            "outputs": [
                {
                    "internalType": "string",
                    "name": "",
                    "type": "string"
                }
            ],
            "stateMutability": "view",
            "type": "function"
        },
        {
            "inputs": [
                {
                    "internalType": "address",
                    "name": "owner",
                    "type": "address"
                }
            ],
            "name": "nonces",
            "outputs": [
                {
                    "internalType": "uint256",
                    "name": "",
                    "type": "uint256"
                }
            ],
            "stateMutability": "view",
            "type": "function"
        },
        {
            "inputs": [
                {
                    "internalType": "address",
                    "name": "owner",
                    "type": "address"
                },
                {
                    "internalType": "address",
                    "name": "spender",
                    "type": "address"
                },
                {
                    "internalType": "uint256",
                    "name": "value",
                    "type": "uint256"
                },
                {
                    "internalType": "uint256",
                    "name": "deadline",
                    "type": "uint256"
                },
                {
                    "internalType": "uint8",
                    "name": "v",
                    "type": "uint8"
                },
                {
                    "internalType": "bytes32",
                    "name": "r",
                    "type": "bytes32"
                },
                {
                    "internalType": "bytes32",
                    "name": "s",
                    "type": "bytes32"
                }
            ],
            "name": "permit",
            "outputs": [],
            "stateMutability": "nonpayable",
            "type": "function"
        },
        {
            "inputs": [],
            "name": "symbol",
            "outputs": [
                {
                    "internalType": "string",
                    "name": "",
                    "type": "string"
                }
            ],
            "stateMutability": "view",
            "type": "function"
        },
        {
            "inputs": [],
            "name": "totalSupply",
            "outputs": [
                {
                    "internalType": "uint256",
                    "name": "",
                    "type": "uint256"
                }
            ],
            "stateMutability": "view",
            "type": "function"
        },
        {
            "inputs": [
                {
                    "internalType": "address",
                    "name": "to",
                    "type": "address"
                },
                {
                    "internalType": "uint256",
                    "name": "value",
                    "type": "uint256"
                }
            ],
            "name": "transfer",
            "outputs": [
                {
                    "internalType": "bool",
                    "name": "",
                    "type": "bool"
                }
            ],
            "stateMutability": "nonpayable",
            "type": "function"
        },
        {
            "inputs": [
                {
                    "internalType": "address",
                    "name": "from",
                    "type": "address"
                },
                {
                    "internalType": "address",
                    "name": "to",
                    "type": "address"
                },
                {
                    "internalType": "uint256",
                    "name": "value",
                    "type": "uint256"
                }
            ],
            "name": "transferFrom",
            "outputs": [
                {
                    "internalType": "bool",
                    "name": "",
                    "type": "bool"
                }
            ],
            "stateMutability": "nonpayable",
            "type": "function"
        }
    ],
    "bytecode": "0x6101606040523480156200001257600080fd5b5060405162002c4c38038062002c4c83398181016040528101906200003891906200081e565b6040518060400160405280600881526020017f4d6f636b55534443000000000000000000000000000000000000000000000000815250806040518060400160405280600181526020017f31000000000000000000000000000000000000000000000000000000000000008152506040518060400160405280600881526020017f4d6f636b555344430000000000000000000000000000000000000000000000008152506040518060400160405280600481526020017f5553444300000000000000000000000000000000000000000000000000000000815250816003908162000122919062000aba565b50806004908162000134919062000aba565b5050506200014d6005836200024760201b90919060201c565b61012081815250506200016b6006826200024760201b90919060201c565b6101408181525050818051906020012060e08181525050808051906020012061010081815250504660a08181525050620001aa6200029f60201b60201c565b608081815250503073ffffffffffffffffffffffffffffffffffffffff1660c08173ffffffffffffffffffffffffffffffffffffffff168152505050505060005b81518110156200023f57620002298282815181106200020f576200020e62000ba1565b5b602002602001015164e8d4a51000620002fc60201b60201c565b8080620002369062000bff565b915050620001eb565b505062000edc565b60006020835110156200026d5762000265836200038960201b60201c565b905062000299565b826200027f83620003f660201b60201c565b600001908162000290919062000aba565b5060ff60001b90505b92915050565b60007f8b73c3c69bb8fe3d512ecc4cf759cc79239f7b179b0ffacaa9a75d522b39400f60e051610100514630604051602001620002e195949392919062000c89565b60405160208183030381529060405280519060200120905090565b600073ffffffffffffffffffffffffffffffffffffffff168273ffffffffffffffffffffffffffffffffffffffff1603620003715760006040517fec442f0500000000000000000000000000000000000000000000000000000000815260040162000368919062000ce6565b60405180910390fd5b62000385600083836200040060201b60201c565b5050565b600080829050601f81511115620003d957826040517f305a27a9000000000000000000000000000000000000000000000000000000008152600401620003d0919062000d81565b60405180910390fd5b805181620003e79062000dd7565b60001c1760001b915050919050565b6000819050919050565b600073ffffffffffffffffffffffffffffffffffffffff168373ffffffffffffffffffffffffffffffffffffffff16036200045657806002600082825462000449919062000e47565b925050819055506200052c565b60008060008573ffffffffffffffffffffffffffffffffffffffff1673ffffffffffffffffffffffffffffffffffffffff16815260200190815260200160002054905081811015620004e5578381836040517fe450d38c000000000000000000000000000000000000000000000000000000008152600401620004dc9392919062000e82565b60405180910390fd5b8181036000808673ffffffffffffffffffffffffffffffffffffffff1673ffffffffffffffffffffffffffffffffffffffff16815260200190815260200160002081905550505b600073ffffffffffffffffffffffffffffffffffffffff168273ffffffffffffffffffffffffffffffffffffffff1603620005775780600260008282540392505081905550620005c4565b806000808473ffffffffffffffffffffffffffffffffffffffff1673ffffffffffffffffffffffffffffffffffffffff168152602001908152602001600020600082825401925050819055505b8173ffffffffffffffffffffffffffffffffffffffff168373ffffffffffffffffffffffffffffffffffffffff167fddf252ad1be2c89b69c2b068fc378daa952ba7f163c4a11628f55a4df523b3ef8360405162000623919062000ebf565b60405180910390a3505050565b6000604051905090565b600080fd5b600080fd5b600080fd5b6000601f19601f8301169050919050565b7f4e487b7100000000000000000000000000000000000000000000000000000000600052604160045260246000fd5b620006948262000649565b810181811067ffffffffffffffff82111715620006b657620006b56200065a565b5b80604052505050565b6000620006cb62000630565b9050620006d9828262000689565b919050565b600067ffffffffffffffff821115620006fc57620006fb6200065a565b5b602082029050602081019050919050565b600080fd5b600073ffffffffffffffffffffffffffffffffffffffff82169050919050565b60006200073f8262000712565b9050919050565b620007518162000732565b81146200075d57600080fd5b50565b600081519050620007718162000746565b92915050565b60006200078e6200078884620006de565b620006bf565b90508083825260208201905060208402830185811115620007b457620007b36200070d565b5b835b81811015620007e15780620007cc888262000760565b845260208401935050602081019050620007b6565b5050509392505050565b600082601f83011262000803576200080262000644565b5b81516200081584826020860162000777565b91505092915050565b6000602082840312156200083757620008366200063a565b5b600082015167ffffffffffffffff8111156200085857620008576200063f565b5b6200086684828501620007eb565b91505092915050565b600081519050919050565b7f4e487b7100000000000000000000000000000000000000000000000000000000600052602260045260246000fd5b60006002820490506001821680620008c257607f821691505b602082108103620008d857620008d76200087a565b5b50919050565b60008190508160005260206000209050919050565b60006020601f8301049050919050565b600082821b905092915050565b600060088302620009427fffffffffffffffffffffffffffffffffffffffffffffffffffffffffffffffff8262000903565b6200094e868362000903565b95508019841693508086168417925050509392505050565b6000819050919050565b6000819050919050565b60006200099b620009956200098f8462000966565b62000970565b62000966565b9050919050565b6000819050919050565b620009b7836200097a565b620009cf620009c682620009a2565b84845462000910565b825550505050565b600090565b620009e6620009d7565b620009f3818484620009ac565b505050565b5b8181101562000a1b5762000a0f600082620009dc565b600181019050620009f9565b5050565b601f82111562000a6a5762000a3481620008de565b62000a3f84620008f3565b8101602085101562000a4f578190505b62000a6762000a5e85620008f3565b830182620009f8565b50505b505050565b600082821c905092915050565b600062000a8f6000198460080262000a6f565b1980831691505092915050565b600062000aaa838362000a7c565b9150826002028217905092915050565b62000ac5826200086f565b67ffffffffffffffff81111562000ae15762000ae06200065a565b5b62000aed8254620008a9565b62000afa82828562000a1f565b600060209050601f83116001811462000b32576000841562000b1d578287015190505b62000b29858262000a9c565b86555062000b99565b601f19841662000b4286620008de565b60005b8281101562000b6c5784890151825560018201915060208501945060208101905062000b45565b8683101562000b8c578489015162000b88601f89168262000a7c565b8355505b6001600288020188555050505b505050505050565b7f4e487b7100000000000000000000000000000000000000000000000000000000600052603260045260246000fd5b7f4e487b7100000000000000000000000000000000000000000000000000000000600052601160045260246000fd5b600062000c0c8262000966565b91507fffffffffffffffffffffffffffffffffffffffffffffffffffffffffffffffff820362000c415762000c4062000bd0565b5b600182019050919050565b6000819050919050565b62000c618162000c4c565b82525050565b62000c728162000966565b82525050565b62000c838162000732565b82525050565b600060a08201905062000ca0600083018862000c56565b62000caf602083018762000c56565b62000cbe604083018662000c56565b62000ccd606083018562000c67565b62000cdc608083018462000c78565b9695505050505050565b600060208201905062000cfd600083018462000c78565b92915050565b600082825260208201905092915050565b60005b8381101562000d3457808201518184015260208101905062000d17565b60008484015250505050565b600062000d4d826200086f565b62000d59818562000d03565b935062000d6b81856020860162000d14565b62000d768162000649565b840191505092915050565b6000602082019050818103600083015262000d9d818462000d40565b905092915050565b600081519050919050565b6000819050602082019050919050565b600062000dce825162000c4c565b80915050919050565b600062000de48262000da5565b8262000df08462000db0565b905062000dfd8162000dc0565b9250602082101562000e405762000e3b7fffffffffffffffffffffffffffffffffffffffffffffffffffffffffffffffff8360200360080262000903565b831692505b5050919050565b600062000e548262000966565b915062000e618362000966565b925082820190508082111562000e7c5762000e7b62000bd0565b5b92915050565b600060608201905062000e99600083018662000c78565b62000ea8602083018562000c67565b62000eb7604083018462000c67565b949350505050565b600060208201905062000ed6600083018462000c67565b92915050565b60805160a05160c05160e051610100516101205161014051611d1562000f376000396000610aba01526000610a7f01526000611051015260006110300152600061097a015260006109d0015260006109f90152611d156000f3fe608060405234801561001057600080fd5b50600436106100f55760003560e01c806370a0823111610097578063a9059cbb11610066578063a9059cbb14610292578063d505accf146102c2578063dd62ed3e146102de578063dfd233dd1461030e576100f5565b806370a08231146101f05780637ecebe001461022057806384b0196e1461025057806395d89b4114610274576100f5565b806318160ddd116100d357806318160ddd1461016657806323b872dd14610184578063313ce567146101b45780633644e515146101d2576100f5565b806306fdde03146100fa578063095ea7b31461011857806313982e3714610148575b600080fd5b61010261032a565b60405161010f919061153e565b60405180910390f35b610132600480360381019061012d91906115f9565b6103bc565b60405161013f9190611654565b60405180910390f35b6101506103df565b60405161015d919061167e565b60405180910390f35b61016e6103e8565b60405161017b919061167e565b60405180910390f35b61019e60048036038101906101999190611699565b6103f2565b6040516101ab9190611654565b60405180910390f35b6101bc610421565b6040516101c99190611708565b60405180910390f35b6101da61042a565b6040516101e7919061173c565b60405180910390f35b61020a60048036038101906102059190611757565b610439565b604051610217919061167e565b60405180910390f35b61023a60048036038101906102359190611757565b610481565b604051610247919061167e565b60405180910390f35b610258610493565b60405161026b979695949392919061188c565b60405180910390f35b61027c61053d565b604051610289919061153e565b60405180910390f35b6102ac60048036038101906102a791906115f9565b6105cf565b6040516102b99190611654565b60405180910390f35b6102dc60048036038101906102d79190611968565b6105f2565b005b6102f860048036038101906102f39190611a0a565b61073a565b604051610305919061167e565b60405180910390f35b61032860048036038101906103239190611757565b6107c1565b005b60606003805461033990611a79565b80601f016020809104026020016040519081016040528092919081815260200182805461036590611a79565b80156103b25780601f10610387576101008083540402835291602001916103b2565b820191906000526020600020905b81548152906001019060200180831161039557829003601f168201915b5050505050905090565b6000806103c76107d3565b90506103d48185856107db565b600191505092915050565b64e8d4a5100081565b6000600254905090565b6000806103fd6107d3565b905061040a8582856107ed565b610415858585610882565b60019150509392505050565b60006006905090565b6000610434610976565b905090565b60008060008373ffffffffffffffffffffffffffffffffffffffff1673ffffffffffffffffffffffffffffffffffffffff168152602001908152602001600020549050919050565b600061048c82610a2d565b9050919050565b6000606080600080600060606104a7610a76565b6104af610ab1565b46306000801b600067ffffffffffffffff8111156104d0576104cf611aaa565b5b6040519080825280602002602001820160405280156104fe5781602001602082028036833780820191505090505b507f0f00000000000000000000000000000000000000000000000000000000000000959493929190965096509650965096509650965090919293949596565b60606004805461054c90611a79565b80601f016020809104026020016040519081016040528092919081815260200182805461057890611a79565b80156105c55780601f1061059a576101008083540402835291602001916105c5565b820191906000526020600020905b8154815290600101906020018083116105a857829003601f168201915b5050505050905090565b6000806105da6107d3565b90506105e7818585610882565b600191505092915050565b8342111561063757836040517f6279130200000000000000000000000000000000000000000000000000000000815260040161062e919061167e565b60405180910390fd5b60007f6e71edae12b1b97f4d1f60370fef10105fa2faae0126114a169c64845d6126c98888886106668c610aec565b8960405160200161067c96959493929190611ad9565b604051602081830303815290604052805190602001209050600061069f82610b43565b905060006106af82878787610b5d565b90508973ffffffffffffffffffffffffffffffffffffffff168173ffffffffffffffffffffffffffffffffffffffff161461072357808a6040517f4b800e4600000000000000000000000000000000000000000000000000000000815260040161071a929190611b3a565b60405180910390fd5b61072e8a8a8a6107db565b50505050505050505050565b6000600160008473ffffffffffffffffffffffffffffffffffffffff1673ffffffffffffffffffffffffffffffffffffffff16815260200190815260200160002060008373ffffffffffffffffffffffffffffffffffffffff1673ffffffffffffffffffffffffffffffffffffffff16815260200190815260200160002054905092915050565b6107d08164e8d4a51000610b8d565b50565b600033905090565b6107e88383836001610c0f565b505050565b60006107f9848461073a565b90507fffffffffffffffffffffffffffffffffffffffffffffffffffffffffffffffff81101561087c578181101561086c578281836040517ffb8f41b200000000000000000000000000000000000000000000000000000000815260040161086393929190611b63565b60405180910390fd5b61087b84848484036000610c0f565b5b50505050565b600073ffffffffffffffffffffffffffffffffffffffff168373ffffffffffffffffffffffffffffffffffffffff16036108f45760006040517f96c6fd1e0000000000000000000000000000000000000000000000000000000081526004016108eb9190611b9a565b60405180910390fd5b600073ffffffffffffffffffffffffffffffffffffffff168273ffffffffffffffffffffffffffffffffffffffff16036109665760006040517fec442f0500000000000000000000000000000000000000000000000000000000815260040161095d9190611b9a565b60405180910390fd5b610971838383610de6565b505050565b60007f000000000000000000000000000000000000000000000000000000000000000073ffffffffffffffffffffffffffffffffffffffff163073ffffffffffffffffffffffffffffffffffffffff161480156109f257507f000000000000000000000000000000000000000000000000000000000000000046145b15610a1f577f00000000000000000000000000000000000000000000000000000000000000009050610a2a565b610a2761100b565b90505b90565b6000600760008373ffffffffffffffffffffffffffffffffffffffff1673ffffffffffffffffffffffffffffffffffffffff168152602001908152602001600020549050919050565b6060610aac60057f00000000000000000000000000000000000000000000000000000000000000006110a190919063ffffffff16565b905090565b6060610ae760067f00000000000000000000000000000000000000000000000000000000000000006110a190919063ffffffff16565b905090565b6000600760008373ffffffffffffffffffffffffffffffffffffffff1673ffffffffffffffffffffffffffffffffffffffff1681526020019081526020016000206000815480929190600101919050559050919050565b6000610b56610b50610976565b83611151565b9050919050565b600080600080610b6f88888888611192565b925092509250610b7f8282611286565b829350505050949350505050565b600073ffffffffffffffffffffffffffffffffffffffff168273ffffffffffffffffffffffffffffffffffffffff1603610bff5760006040517fec442f05000000000000000000000000000000000000000000000000000000008152600401610bf69190611b9a565b60405180910390fd5b610c0b60008383610de6565b5050565b600073ffffffffffffffffffffffffffffffffffffffff168473ffffffffffffffffffffffffffffffffffffffff1603610c815760006040517fe602df05000000000000000000000000000000000000000000000000000000008152600401610c789190611b9a565b60405180910390fd5b600073ffffffffffffffffffffffffffffffffffffffff168373ffffffffffffffffffffffffffffffffffffffff1603610cf35760006040517f94280d62000000000000000000000000000000000000000000000000000000008152600401610cea9190611b9a565b60405180910390fd5b81600160008673ffffffffffffffffffffffffffffffffffffffff1673ffffffffffffffffffffffffffffffffffffffff16815260200190815260200160002060008573ffffffffffffffffffffffffffffffffffffffff1673ffffffffffffffffffffffffffffffffffffffff168152602001908152602001600020819055508015610de0578273ffffffffffffffffffffffffffffffffffffffff168473ffffffffffffffffffffffffffffffffffffffff167f8c5be1e5ebec7d5bd14f71427d1e84f3dd0314c0f7b2291e5b200ac8c7c3b92584604051610dd7919061167e565b60405180910390a35b50505050565b600073ffffffffffffffffffffffffffffffffffffffff168373ffffffffffffffffffffffffffffffffffffffff1603610e38578060026000828254610e2c9190611be4565b92505081905550610f0b565b60008060008573ffffffffffffffffffffffffffffffffffffffff1673ffffffffffffffffffffffffffffffffffffffff16815260200190815260200160002054905081811015610ec4578381836040517fe450d38c000000000000000000000000000000000000000000000000000000008152600401610ebb93929190611b63565b60405180910390fd5b8181036000808673ffffffffffffffffffffffffffffffffffffffff1673ffffffffffffffffffffffffffffffffffffffff16815260200190815260200160002081905550505b600073ffffffffffffffffffffffffffffffffffffffff168273ffffffffffffffffffffffffffffffffffffffff1603610f545780600260008282540392505081905550610fa1565b806000808473ffffffffffffffffffffffffffffffffffffffff1673ffffffffffffffffffffffffffffffffffffffff168152602001908152602001600020600082825401925050819055505b8173ffffffffffffffffffffffffffffffffffffffff168373ffffffffffffffffffffffffffffffffffffffff167fddf252ad1be2c89b69c2b068fc378daa952ba7f163c4a11628f55a4df523b3ef83604051610ffe919061167e565b60405180910390a3505050565b60007f8b73c3c69bb8fe3d512ecc4cf759cc79239f7b179b0ffacaa9a75d522b39400f7f00000000000000000000000000000000000000000000000000000000000000007f00000000000000000000000000000000000000000000000000000000000000004630604051602001611086959493929190611c18565b60405160208183030381529060405280519060200120905090565b606060ff60001b83146110be576110b7836113ea565b905061114b565b8180546110ca90611a79565b80601f01602080910402602001604051908101604052809291908181526020018280546110f690611a79565b80156111435780601f1061111857610100808354040283529160200191611143565b820191906000526020600020905b81548152906001019060200180831161112657829003601f168201915b505050505090505b92915050565b60006040517f190100000000000000000000000000000000000000000000000000000000000081528360028201528260228201526042812091505092915050565b60008060007f7fffffffffffffffffffffffffffffff5d576e7357a4501ddfe92f46681b20a08460001c11156111d257600060038592509250925061127c565b6000600188888888604051600081526020016040526040516111f79493929190611c6b565b6020604051602081039080840390855afa158015611219573d6000803e3d6000fd5b505050602060405103519050600073ffffffffffffffffffffffffffffffffffffffff168173ffffffffffffffffffffffffffffffffffffffff160361126d57600060016000801b9350935093505061127c565b8060008060001b935093509350505b9450945094915050565b6000600381111561129a57611299611cb0565b5b8260038111156112ad576112ac611cb0565b5b03156113e657600160038111156112c7576112c6611cb0565b5b8260038111156112da576112d9611cb0565b5b03611311576040517ff645eedf00000000000000000000000000000000000000000000000000000000815260040160405180910390fd5b6002600381111561132557611324611cb0565b5b82600381111561133857611337611cb0565b5b0361137d578060001c6040517ffce698f7000000000000000000000000000000000000000000000000000000008152600401611374919061167e565b60405180910390fd5b6003808111156113905761138f611cb0565b5b8260038111156113a3576113a2611cb0565b5b036113e557806040517fd78bce0c0000000000000000000000000000000000000000000000000000000081526004016113dc919061173c565b60405180910390fd5b5b5050565b606060006113f78361145e565b90506000602067ffffffffffffffff81111561141657611415611aaa565b5b6040519080825280601f01601f1916602001820160405280156114485781602001600182028036833780820191505090505b5090508181528360208201528092505050919050565b60008060ff8360001c169050601f8111156114a5576040517fb3512b0c00000000000000000000000000000000000000000000000000000000815260040160405180910390fd5b80915050919050565b600081519050919050565b600082825260208201905092915050565b60005b838110156114e85780820151818401526020810190506114cd565b60008484015250505050565b6000601f19601f8301169050919050565b6000611510826114ae565b61151a81856114b9565b935061152a8185602086016114ca565b611533816114f4565b840191505092915050565b600060208201905081810360008301526115588184611505565b905092915050565b600080fd5b600073ffffffffffffffffffffffffffffffffffffffff82169050919050565b600061159082611565565b9050919050565b6115a081611585565b81146115ab57600080fd5b50565b6000813590506115bd81611597565b92915050565b6000819050919050565b6115d6816115c3565b81146115e157600080fd5b50565b6000813590506115f3816115cd565b92915050565b600080604083850312156116105761160f611560565b5b600061161e858286016115ae565b925050602061162f858286016115e4565b9150509250929050565b60008115159050919050565b61164e81611639565b82525050565b60006020820190506116696000830184611645565b92915050565b611678816115c3565b82525050565b6000602082019050611693600083018461166f565b92915050565b6000806000606084860312156116b2576116b1611560565b5b60006116c0868287016115ae565b93505060206116d1868287016115ae565b92505060406116e2868287016115e4565b9150509250925092565b600060ff82169050919050565b611702816116ec565b82525050565b600060208201905061171d60008301846116f9565b92915050565b6000819050919050565b61173681611723565b82525050565b6000602082019050611751600083018461172d565b92915050565b60006020828403121561176d5761176c611560565b5b600061177b848285016115ae565b91505092915050565b60007fff0000000000000000000000000000000000000000000000000000000000000082169050919050565b6117b981611784565b82525050565b6117c881611585565b82525050565b600081519050919050565b600082825260208201905092915050565b6000819050602082019050919050565b611803816115c3565b82525050565b600061181583836117fa565b60208301905092915050565b6000602082019050919050565b6000611839826117ce565b61184381856117d9565b935061184e836117ea565b8060005b8381101561187f5781516118668882611809565b975061187183611821565b925050600181019050611852565b5085935050505092915050565b600060e0820190506118a1600083018a6117b0565b81810360208301526118b38189611505565b905081810360408301526118c78188611505565b90506118d6606083018761166f565b6118e360808301866117bf565b6118f060a083018561172d565b81810360c0830152611902818461182e565b905098975050505050505050565b611919816116ec565b811461192457600080fd5b50565b60008135905061193681611910565b92915050565b61194581611723565b811461195057600080fd5b50565b6000813590506119628161193c565b92915050565b600080600080600080600060e0888a03121561198757611986611560565b5b60006119958a828b016115ae565b97505060206119a68a828b016115ae565b96505060406119b78a828b016115e4565b95505060606119c88a828b016115e4565b94505060806119d98a828b01611927565b93505060a06119ea8a828b01611953565b92505060c06119fb8a828b01611953565b91505092959891949750929550565b60008060408385031215611a2157611a20611560565b5b6000611a2f858286016115ae565b9250506020611a40858286016115ae565b9150509250929050565b7f4e487b7100000000000000000000000000000000000000000000000000000000600052602260045260246000fd5b60006002820490506001821680611a9157607f821691505b602082108103611aa457611aa3611a4a565b5b50919050565b7f4e487b7100000000000000000000000000000000000000000000000000000000600052604160045260246000fd5b600060c082019050611aee600083018961172d565b611afb60208301886117bf565b611b0860408301876117bf565b611b15606083018661166f565b611b22608083018561166f565b611b2f60a083018461166f565b979650505050505050565b6000604082019050611b4f60008301856117bf565b611b5c60208301846117bf565b9392505050565b6000606082019050611b7860008301866117bf565b611b85602083018561166f565b611b92604083018461166f565b949350505050565b6000602082019050611baf60008301846117bf565b92915050565b7f4e487b7100000000000000000000000000000000000000000000000000000000600052601160045260246000fd5b6000611bef826115c3565b9150611bfa836115c3565b9250828201905080821115611c1257611c11611bb5565b5b92915050565b600060a082019050611c2d600083018861172d565b611c3a602083018761172d565b611c47604083018661172d565b611c54606083018561166f565b611c6160808301846117bf565b9695505050505050565b6000608082019050611c80600083018761172d565b611c8d60208301866116f9565b611c9a604083018561172d565b611ca7606083018461172d565b95945050505050565b7f4e487b7100000000000000000000000000000000000000000000000000000000600052602160045260246000fdfea26469706673582212208d957b7ad653dc5d569d3b34949e48ef548962040db58db8792fe3dfcb63723464736f6c63430008150033",
    "linkReferences": {},
    "deployedLinkReferences": {}
}