{
  "_format": "hh-sol-artifact-1",
  "contractName": "Store",
  "sourceName": "contracts/Store.sol",
  "abi": [
    {
      "inputs": [
        {
          "internalType": "address",
          "name": "forwarderAddress",
          "type": "address"
        },
        {
          "internalType": "address",
          "name": "priceTableAddress",
          "type": "address"
        },
        {
          "internalType": "address",
          "name": "ledgerAddress",
          "type": "address"
        },
        {
          "internalType": "address",
          "name": "paymentProcessorAddress",
          "type": "address"
        }
      ],
      "stateMutability": "nonpayable",
      "type": "constructor"
    },
    {
      "inputs": [
        {
          "internalType": "address",
          "name": "owner",
          "type": "address"
        }
      ],
      "name": "OwnableInvalidOwner",
      "type": "error"
    },
    {
      "inputs": [
        {
          "internalType": "address",
          "name": "account",
          "type": "address"
        }
      ],
      "name": "OwnableUnauthorizedAccount",
      "type": "error"
    },
    {
      "anonymous": false,
      "inputs": [
        {
          "indexed": true,
          "internalType": "uint32",
          "name": "itemID",
          "type": "uint32"
        },
        {
          "indexed": true,
          "internalType": "address",
          "name": "buyer",
          "type": "address"
        },
        {
          "indexed": true,
          "internalType": "uint256",
          "name": "tokenID",
          "type": "uint256"
        }
      ],
      "name": "ItemPurchased",
      "type": "event"
    },
    {
      "anonymous": false,
      "inputs": [
        {
          "indexed": true,
          "internalType": "address",
          "name": "previousOwner",
          "type": "address"
        },
        {
          "indexed": true,
          "internalType": "address",
          "name": "newOwner",
          "type": "address"
        }
      ],
      "name": "OwnershipTransferred",
      "type": "event"
    },
    {
      "inputs": [
        {
          "internalType": "address",
          "name": "token",
          "type": "address"
        }
      ],
      "name": "isTokenPermitted",
      "outputs": [
        {
          "internalType": "bool",
          "name": "isPermitted",
          "type": "bool"
        }
      ],
      "stateMutability": "view",
      "type": "function"
    },
    {
      "inputs": [
        {
          "internalType": "address",
          "name": "forwarder",
          "type": "address"
        }
      ],
      "name": "isTrustedForwarder",
      "outputs": [
        {
          "internalType": "bool",
          "name": "",
          "type": "bool"
        }
      ],
      "stateMutability": "view",
      "type": "function"
    },
    {
      "inputs": [],
      "name": "itemRegistry",
      "outputs": [
        {
          "internalType": "contract ItemRegistry",
          "name": "",
          "type": "address"
        }
      ],
      "stateMutability": "view",
      "type": "function"
    },
    {
      "inputs": [],
      "name": "ledger",
      "outputs": [
        {
          "internalType": "contract Ledger",
          "name": "",
          "type": "address"
        }
      ],
      "stateMutability": "view",
      "type": "function"
    },
    {
      "inputs": [],
      "name": "owner",
      "outputs": [
        {
          "internalType": "address",
          "name": "",
          "type": "address"
        }
      ],
      "stateMutability": "view",
      "type": "function"
    },
    {
      "inputs": [],
      "name": "payment",
      "outputs": [
        {
          "internalType": "contract PaymentProcessor",
          "name": "",
          "type": "address"
        }
      ],
      "stateMutability": "view",
      "type": "function"
    },
    {
      "inputs": [],
      "name": "priceTable",
      "outputs": [
        {
          "internalType": "contract PriceTable",
          "name": "",
          "type": "address"
        }
      ],
      "stateMutability": "view",
      "type": "function"
    },
    {
      "inputs": [
        {
          "internalType": "uint32",
          "name": "itemID",
          "type": "uint32"
        },
        {
          "internalType": "address",
          "name": "token",
          "type": "address"
        }
      ],
      "name": "purchaseItem",
      "outputs": [
        {
          "internalType": "uint256",
          "name": "purchaseID",
          "type": "uint256"
        }
      ],
      "stateMutability": "nonpayable",
      "type": "function"
    },
    {
      "inputs": [
        {
          "internalType": "uint32",
          "name": "itemID",
          "type": "uint32"
        },
        {
          "internalType": "address",
          "name": "token",
          "type": "address"
        },
        {
          "internalType": "uint256",
          "name": "deadline",
          "type": "uint256"
        },
        {
          "internalType": "uint8",
          "name": "v",
          "type": "uint8"
        },
        {
          "internalType": "bytes32",
          "name": "r",
          "type": "bytes32"
        },
        {
          "internalType": "bytes32",
          "name": "s",
          "type": "bytes32"
        }
      ],
      "name": "purchaseItemWithPermission",
      "outputs": [
        {
          "internalType": "uint256",
          "name": "purchaseID",
          "type": "uint256"
        }
      ],
      "stateMutability": "nonpayable",
      "type": "function"
    },
    {
      "inputs": [],
      "name": "renounceOwnership",
      "outputs": [],
      "stateMutability": "nonpayable",
      "type": "function"
    },
    {
      "inputs": [],
      "name": "sellerRegistry",
      "outputs": [
        {
          "internalType": "contract SellerRegistry",
          "name": "",
          "type": "address"
        }
      ],
      "stateMutability": "view",
      "type": "function"
    },
    {
      "inputs": [
        {
          "internalType": "address",
          "name": "newOwner",
          "type": "address"
        }
      ],
      "name": "transferOwnership",
      "outputs": [],
      "stateMutability": "nonpayable",
      "type": "function"
    },
    {
      "inputs": [],
      "name": "trustedForwarder",
      "outputs": [
        {
          "internalType": "address",
          "name": "",
          "type": "address"
        }
      ],
      "stateMutability": "view",
      "type": "function"
    }
  ],
  "bytecode": "0x60a06040523480156200001157600080fd5b50604051620018583803806200185883398181016040528101906200003791906200049c565b33848082600073ffffffffffffffffffffffffffffffffffffffff168173ffffffffffffffffffffffffffffffffffffffff1603620000b05760006040517f1e4fbdf7000000000000000000000000000000000000000000000000000000008152600401620000a791906200051f565b60405180910390fd5b620000c1816200036e60201b60201c565b508073ffffffffffffffffffffffffffffffffffffffff1660808173ffffffffffffffffffffffffffffffffffffffff168152505050505082600160006101000a81548173ffffffffffffffffffffffffffffffffffffffff021916908373ffffffffffffffffffffffffffffffffffffffff16021790555081600360006101000a81548173ffffffffffffffffffffffffffffffffffffffff021916908373ffffffffffffffffffffffffffffffffffffffff16021790555080600260006101000a81548173ffffffffffffffffffffffffffffffffffffffff021916908373ffffffffffffffffffffffffffffffffffffffff160217905550600160009054906101000a900473ffffffffffffffffffffffffffffffffffffffff1673ffffffffffffffffffffffffffffffffffffffff1663957047f66040518163ffffffff1660e01b8152600401602060405180830381865afa1580156200022a573d6000803e3d6000fd5b505050506040513d601f19601f8201168201806040525081019062000250919062000581565b600460006101000a81548173ffffffffffffffffffffffffffffffffffffffff021916908373ffffffffffffffffffffffffffffffffffffffff160217905550600160009054906101000a900473ffffffffffffffffffffffffffffffffffffffff1673ffffffffffffffffffffffffffffffffffffffff166370c69b096040518163ffffffff1660e01b8152600401602060405180830381865afa158015620002fe573d6000803e3d6000fd5b505050506040513d601f19601f82011682018060405250810190620003249190620005f8565b600560006101000a81548173ffffffffffffffffffffffffffffffffffffffff021916908373ffffffffffffffffffffffffffffffffffffffff160217905550505050506200062a565b60008060009054906101000a900473ffffffffffffffffffffffffffffffffffffffff169050816000806101000a81548173ffffffffffffffffffffffffffffffffffffffff021916908373ffffffffffffffffffffffffffffffffffffffff1602179055508173ffffffffffffffffffffffffffffffffffffffff168173ffffffffffffffffffffffffffffffffffffffff167f8be0079c531659141344cd1fd0a4f28419497f9722a3daafe3b4186f6b6457e060405160405180910390a35050565b600080fd5b600073ffffffffffffffffffffffffffffffffffffffff82169050919050565b6000620004648262000437565b9050919050565b620004768162000457565b81146200048257600080fd5b50565b60008151905062000496816200046b565b92915050565b60008060008060808587031215620004b957620004b862000432565b5b6000620004c98782880162000485565b9450506020620004dc8782880162000485565b9350506040620004ef8782880162000485565b9250506060620005028782880162000485565b91505092959194509250565b620005198162000457565b82525050565b60006020820190506200053660008301846200050e565b92915050565b6000620005498262000457565b9050919050565b6200055b816200053c565b81146200056757600080fd5b50565b6000815190506200057b8162000550565b92915050565b6000602082840312156200059a576200059962000432565b5b6000620005aa848285016200056a565b91505092915050565b6000620005c08262000457565b9050919050565b620005d281620005b3565b8114620005de57600080fd5b50565b600081519050620005f281620005c7565b92915050565b60006020828403121562000611576200061062000432565b5b60006200062184828501620005e1565b91505092915050565b60805161121262000646600039600061039501526112126000f3fe608060405234801561001057600080fd5b50600436106100cf5760003560e01c8063715018a61161008c578063957047f611610066578063957047f6146101f2578063b54dc9de14610210578063e64d597b14610240578063f2fde38b14610270576100cf565b8063715018a6146101ac5780637da0a877146101b65780638da5cb5b146101d4576100cf565b8063100f9bf8146100d457806342f6487a146100f257806356397c3514610110578063572b6c051461012e57806362ef7c071461015e57806370c69b091461018e575b600080fd5b6100dc61028c565b6040516100e99190610ab6565b60405180910390f35b6100fa6102b2565b6040516101079190610af2565b60405180910390f35b6101186102d8565b6040516101259190610b2e565b60405180910390f35b61014860048036038101906101439190610b8c565b6102fe565b6040516101559190610bd4565b60405180910390f35b61017860048036038101906101739190610b8c565b61033d565b6040516101859190610bd4565b60405180910390f35b610196610357565b6040516101a39190610c10565b60405180910390f35b6101b461037d565b005b6101be610391565b6040516101cb9190610c3a565b60405180910390f35b6101dc6103b9565b6040516101e99190610c3a565b60405180910390f35b6101fa6103e2565b6040516102079190610c76565b60405180910390f35b61022a60048036038101906102259190610ccd565b610408565b6040516102379190610d26565b60405180910390f35b61025a60048036038101906102559190610ddc565b610474565b6040516102679190610d26565b60405180910390f35b61028a60048036038101906102859190610b8c565b610559565b005b600160009054906101000a900473ffffffffffffffffffffffffffffffffffffffff1681565b600260009054906101000a900473ffffffffffffffffffffffffffffffffffffffff1681565b600360009054906101000a900473ffffffffffffffffffffffffffffffffffffffff1681565b6000610308610391565b73ffffffffffffffffffffffffffffffffffffffff168273ffffffffffffffffffffffffffffffffffffffff16149050919050565b600061035061034a6105df565b836105ee565b9050919050565b600560009054906101000a900473ffffffffffffffffffffffffffffffffffffffff1681565b6103856106d0565b61038f6000610757565b565b60007f0000000000000000000000000000000000000000000000000000000000000000905090565b60008060009054906101000a900473ffffffffffffffffffffffffffffffffffffffff16905090565b600460009054906101000a900473ffffffffffffffffffffffffffffffffffffffff1681565b600061041b6104156105df565b836105ee565b61045a576040517f08c379a000000000000000000000000000000000000000000000000000000000815260040161045190610ec6565b60405180910390fd5b61046c6104656105df565b848461081b565b905092915050565b60006104876104816105df565b876105ee565b156104a55761049e6104976105df565b888861081b565b905061054f565b600260009054906101000a900473ffffffffffffffffffffffffffffffffffffffff1673ffffffffffffffffffffffffffffffffffffffff166395e520c987878787876040518663ffffffff1660e01b8152600401610508959493929190610f04565b600060405180830381600087803b15801561052257600080fd5b505af1158015610536573d6000803e3d6000fd5b5050505061054c6105456105df565b888861081b565b90505b9695505050505050565b6105616106d0565b600073ffffffffffffffffffffffffffffffffffffffff168173ffffffffffffffffffffffffffffffffffffffff16036105d35760006040517f1e4fbdf70000000000000000000000000000000000000000000000000000000081526004016105ca9190610c3a565b60405180910390fd5b6105dc81610757565b50565b60006105e96109a2565b905090565b60008082905060008173ffffffffffffffffffffffffffffffffffffffff1663dd62ed3e86600260009054906101000a900473ffffffffffffffffffffffffffffffffffffffff166040518363ffffffff1660e01b8152600401610653929190610f57565b602060405180830381865afa158015610670573d6000803e3d6000fd5b505050506040513d601f19601f820116820180604052508101906106949190610f95565b905060027fffffffffffffffffffffffffffffffffffffffffffffffffffffffffffffffff6106c39190611020565b8110159250505092915050565b6106d86105df565b73ffffffffffffffffffffffffffffffffffffffff166106f66103b9565b73ffffffffffffffffffffffffffffffffffffffff1614610755576107196105df565b6040517f118cdaa700000000000000000000000000000000000000000000000000000000815260040161074c9190610c3a565b60405180910390fd5b565b60008060009054906101000a900473ffffffffffffffffffffffffffffffffffffffff169050816000806101000a81548173ffffffffffffffffffffffffffffffffffffffff021916908373ffffffffffffffffffffffffffffffffffffffff1602179055508173ffffffffffffffffffffffffffffffffffffffff168173ffffffffffffffffffffffffffffffffffffffff167f8be0079c531659141344cd1fd0a4f28419497f9722a3daafe3b4186f6b6457e060405160405180910390a35050565b6000600260009054906101000a900473ffffffffffffffffffffffffffffffffffffffff1673ffffffffffffffffffffffffffffffffffffffff16639d367cd18585856040518463ffffffff1660e01b815260040161087c93929190611060565b600060405180830381600087803b15801561089657600080fd5b505af11580156108aa573d6000803e3d6000fd5b50505050600360009054906101000a900473ffffffffffffffffffffffffffffffffffffffff1673ffffffffffffffffffffffffffffffffffffffff166306ba53eb84866040518363ffffffff1660e01b815260040161090b929190611097565b6020604051808303816000875af115801561092a573d6000803e3d6000fd5b505050506040513d601f19601f8201168201806040525081019061094e9190610f95565b9050808473ffffffffffffffffffffffffffffffffffffffff168463ffffffff167f93d5ce83d5003c50530ce3ba909117e891a291673b4c335ecbea6ab7c2f1b70360405160405180910390a49392505050565b6000806000369050905060006109b6610a17565b90506109c1336102fe565b80156109cd5750808210155b15610a075760003682846109e191906110c0565b9080926109f0939291906110fe565b906109fb919061117d565b60601c92505050610a14565b610a0f610a26565b925050505b90565b6000610a21610a2e565b905090565b600033905090565b60006014905090565b600073ffffffffffffffffffffffffffffffffffffffff82169050919050565b6000819050919050565b6000610a7c610a77610a7284610a37565b610a57565b610a37565b9050919050565b6000610a8e82610a61565b9050919050565b6000610aa082610a83565b9050919050565b610ab081610a95565b82525050565b6000602082019050610acb6000830184610aa7565b92915050565b6000610adc82610a83565b9050919050565b610aec81610ad1565b82525050565b6000602082019050610b076000830184610ae3565b92915050565b6000610b1882610a83565b9050919050565b610b2881610b0d565b82525050565b6000602082019050610b436000830184610b1f565b92915050565b600080fd5b6000610b5982610a37565b9050919050565b610b6981610b4e565b8114610b7457600080fd5b50565b600081359050610b8681610b60565b92915050565b600060208284031215610ba257610ba1610b49565b5b6000610bb084828501610b77565b91505092915050565b60008115159050919050565b610bce81610bb9565b82525050565b6000602082019050610be96000830184610bc5565b92915050565b6000610bfa82610a83565b9050919050565b610c0a81610bef565b82525050565b6000602082019050610c256000830184610c01565b92915050565b610c3481610b4e565b82525050565b6000602082019050610c4f6000830184610c2b565b92915050565b6000610c6082610a83565b9050919050565b610c7081610c55565b82525050565b6000602082019050610c8b6000830184610c67565b92915050565b600063ffffffff82169050919050565b610caa81610c91565b8114610cb557600080fd5b50565b600081359050610cc781610ca1565b92915050565b60008060408385031215610ce457610ce3610b49565b5b6000610cf285828601610cb8565b9250506020610d0385828601610b77565b9150509250929050565b6000819050919050565b610d2081610d0d565b82525050565b6000602082019050610d3b6000830184610d17565b92915050565b610d4a81610d0d565b8114610d5557600080fd5b50565b600081359050610d6781610d41565b92915050565b600060ff82169050919050565b610d8381610d6d565b8114610d8e57600080fd5b50565b600081359050610da081610d7a565b92915050565b6000819050919050565b610db981610da6565b8114610dc457600080fd5b50565b600081359050610dd681610db0565b92915050565b60008060008060008060c08789031215610df957610df8610b49565b5b6000610e0789828a01610cb8565b9650506020610e1889828a01610b77565b9550506040610e2989828a01610d58565b9450506060610e3a89828a01610d91565b9350506080610e4b89828a01610dc7565b92505060a0610e5c89828a01610dc7565b9150509295509295509295565b600082825260208201905092915050565b7f5061796d656e74206973206e6f7420616c6c6f77656400000000000000000000600082015250565b6000610eb0601683610e69565b9150610ebb82610e7a565b602082019050919050565b60006020820190508181036000830152610edf81610ea3565b9050919050565b610eef81610d6d565b82525050565b610efe81610da6565b82525050565b600060a082019050610f196000830188610c2b565b610f266020830187610d17565b610f336040830186610ee6565b610f406060830185610ef5565b610f4d6080830184610ef5565b9695505050505050565b6000604082019050610f6c6000830185610c2b565b610f796020830184610c2b565b9392505050565b600081519050610f8f81610d41565b92915050565b600060208284031215610fab57610faa610b49565b5b6000610fb984828501610f80565b91505092915050565b7f4e487b7100000000000000000000000000000000000000000000000000000000600052601260045260246000fd5b7f4e487b7100000000000000000000000000000000000000000000000000000000600052601160045260246000fd5b600061102b82610d0d565b915061103683610d0d565b92508261104657611045610fc2565b5b828204905092915050565b61105a81610c91565b82525050565b60006060820190506110756000830186610c2b565b6110826020830185611051565b61108f6040830184610c2b565b949350505050565b60006040820190506110ac6000830185611051565b6110b96020830184610c2b565b9392505050565b60006110cb82610d0d565b91506110d683610d0d565b92508282039050818111156110ee576110ed610ff1565b5b92915050565b600080fd5b600080fd5b60008085851115611112576111116110f4565b5b83861115611123576111226110f9565b5b6001850283019150848603905094509492505050565b600082905092915050565b60007fffffffffffffffffffffffffffffffffffffffff00000000000000000000000082169050919050565b600082821b905092915050565b60006111898383611139565b826111948135611144565b925060148210156111d4576111cf7fffffffffffffffffffffffffffffffffffffffff00000000000000000000000083601403600802611170565b831692505b50509291505056fea26469706673582212201994d0dc80867f110227f3ad7be560d91e45dbe0284ee6f15a24918197e179ce64736f6c63430008150033",
  "linkReferences": {},
  "deployedLinkReferences": {}
}