{
  "_format": "hh-sol-artifact-1",
  "contractName": "Store",
  "sourceName": "contracts/Store.sol",
  "abi": [
    {
      "inputs": [
        {
          "internalType": "address",
          "name": "forwarderAddress",
          "type": "address"
        },
        {
          "internalType": "address",
          "name": "priceTableAddress",
          "type": "address"
        },
        {
          "internalType": "address",
          "name": "ledgerAddress",
          "type": "address"
        },
        {
          "internalType": "address",
          "name": "paymentProcessorAddress",
          "type": "address"
        }
      ],
      "stateMutability": "nonpayable",
      "type": "constructor"
    },
    {
      "inputs": [
        {
          "internalType": "address",
          "name": "owner",
          "type": "address"
        }
      ],
      "name": "OwnableInvalidOwner",
      "type": "error"
    },
    {
      "inputs": [
        {
          "internalType": "address",
          "name": "account",
          "type": "address"
        }
      ],
      "name": "OwnableUnauthorizedAccount",
      "type": "error"
    },
    {
      "anonymous": false,
      "inputs": [
        {
          "indexed": true,
          "internalType": "uint32",
          "name": "itemID",
          "type": "uint32"
        },
        {
          "indexed": true,
          "internalType": "address",
          "name": "buyer",
          "type": "address"
        },
        {
          "indexed": true,
          "internalType": "uint256",
          "name": "tokenID",
          "type": "uint256"
        }
      ],
      "name": "ItemPurchased",
      "type": "event"
    },
    {
      "anonymous": false,
      "inputs": [
        {
          "indexed": true,
          "internalType": "address",
          "name": "previousOwner",
          "type": "address"
        },
        {
          "indexed": true,
          "internalType": "address",
          "name": "newOwner",
          "type": "address"
        }
      ],
      "name": "OwnershipTransferred",
      "type": "event"
    },
    {
      "inputs": [
        {
          "internalType": "address",
          "name": "forwarder",
          "type": "address"
        }
      ],
      "name": "isTrustedForwarder",
      "outputs": [
        {
          "internalType": "bool",
          "name": "",
          "type": "bool"
        }
      ],
      "stateMutability": "view",
      "type": "function"
    },
    {
      "inputs": [],
      "name": "itemRegistry",
      "outputs": [
        {
          "internalType": "contract ItemRegistry",
          "name": "",
          "type": "address"
        }
      ],
      "stateMutability": "view",
      "type": "function"
    },
    {
      "inputs": [],
      "name": "ledger",
      "outputs": [
        {
          "internalType": "contract Ledger",
          "name": "",
          "type": "address"
        }
      ],
      "stateMutability": "view",
      "type": "function"
    },
    {
      "inputs": [],
      "name": "owner",
      "outputs": [
        {
          "internalType": "address",
          "name": "",
          "type": "address"
        }
      ],
      "stateMutability": "view",
      "type": "function"
    },
    {
      "inputs": [],
      "name": "payment",
      "outputs": [
        {
          "internalType": "contract PaymentProcessor",
          "name": "",
          "type": "address"
        }
      ],
      "stateMutability": "view",
      "type": "function"
    },
    {
      "inputs": [],
      "name": "priceTable",
      "outputs": [
        {
          "internalType": "contract PriceTable",
          "name": "",
          "type": "address"
        }
      ],
      "stateMutability": "view",
      "type": "function"
    },
    {
      "inputs": [
        {
          "internalType": "uint32",
          "name": "itemID",
          "type": "uint32"
        },
        {
          "internalType": "address",
          "name": "token",
          "type": "address"
        },
        {
          "internalType": "uint256",
          "name": "deadline",
          "type": "uint256"
        },
        {
          "internalType": "uint8",
          "name": "v",
          "type": "uint8"
        },
        {
          "internalType": "bytes32",
          "name": "r",
          "type": "bytes32"
        },
        {
          "internalType": "bytes32",
          "name": "s",
          "type": "bytes32"
        }
      ],
      "name": "purchaseItem",
      "outputs": [],
      "stateMutability": "nonpayable",
      "type": "function"
    },
    {
      "inputs": [],
      "name": "renounceOwnership",
      "outputs": [],
      "stateMutability": "nonpayable",
      "type": "function"
    },
    {
      "inputs": [],
      "name": "sellerRegistry",
      "outputs": [
        {
          "internalType": "contract SellerRegistry",
          "name": "",
          "type": "address"
        }
      ],
      "stateMutability": "view",
      "type": "function"
    },
    {
      "inputs": [
        {
          "internalType": "address",
          "name": "newOwner",
          "type": "address"
        }
      ],
      "name": "transferOwnership",
      "outputs": [],
      "stateMutability": "nonpayable",
      "type": "function"
    },
    {
      "inputs": [],
      "name": "trustedForwarder",
      "outputs": [
        {
          "internalType": "address",
          "name": "",
          "type": "address"
        }
      ],
      "stateMutability": "view",
      "type": "function"
    }
  ],
  "bytecode": "0x60a06040523480156200001157600080fd5b50604051620014143803806200141483398181016040528101906200003791906200049c565b33848082600073ffffffffffffffffffffffffffffffffffffffff168173ffffffffffffffffffffffffffffffffffffffff1603620000b05760006040517f1e4fbdf7000000000000000000000000000000000000000000000000000000008152600401620000a791906200051f565b60405180910390fd5b620000c1816200036e60201b60201c565b508073ffffffffffffffffffffffffffffffffffffffff1660808173ffffffffffffffffffffffffffffffffffffffff168152505050505082600160006101000a81548173ffffffffffffffffffffffffffffffffffffffff021916908373ffffffffffffffffffffffffffffffffffffffff16021790555081600360006101000a81548173ffffffffffffffffffffffffffffffffffffffff021916908373ffffffffffffffffffffffffffffffffffffffff16021790555080600260006101000a81548173ffffffffffffffffffffffffffffffffffffffff021916908373ffffffffffffffffffffffffffffffffffffffff160217905550600160009054906101000a900473ffffffffffffffffffffffffffffffffffffffff1673ffffffffffffffffffffffffffffffffffffffff1663957047f66040518163ffffffff1660e01b8152600401602060405180830381865afa1580156200022a573d6000803e3d6000fd5b505050506040513d601f19601f8201168201806040525081019062000250919062000581565b600460006101000a81548173ffffffffffffffffffffffffffffffffffffffff021916908373ffffffffffffffffffffffffffffffffffffffff160217905550600160009054906101000a900473ffffffffffffffffffffffffffffffffffffffff1673ffffffffffffffffffffffffffffffffffffffff166370c69b096040518163ffffffff1660e01b8152600401602060405180830381865afa158015620002fe573d6000803e3d6000fd5b505050506040513d601f19601f82011682018060405250810190620003249190620005f8565b600560006101000a81548173ffffffffffffffffffffffffffffffffffffffff021916908373ffffffffffffffffffffffffffffffffffffffff160217905550505050506200062a565b60008060009054906101000a900473ffffffffffffffffffffffffffffffffffffffff169050816000806101000a81548173ffffffffffffffffffffffffffffffffffffffff021916908373ffffffffffffffffffffffffffffffffffffffff1602179055508173ffffffffffffffffffffffffffffffffffffffff168173ffffffffffffffffffffffffffffffffffffffff167f8be0079c531659141344cd1fd0a4f28419497f9722a3daafe3b4186f6b6457e060405160405180910390a35050565b600080fd5b600073ffffffffffffffffffffffffffffffffffffffff82169050919050565b6000620004648262000437565b9050919050565b620004768162000457565b81146200048257600080fd5b50565b60008151905062000496816200046b565b92915050565b60008060008060808587031215620004b957620004b862000432565b5b6000620004c98782880162000485565b9450506020620004dc8782880162000485565b9350506040620004ef8782880162000485565b9250506060620005028782880162000485565b91505092959194509250565b620005198162000457565b82525050565b60006020820190506200053660008301846200050e565b92915050565b6000620005498262000457565b9050919050565b6200055b816200053c565b81146200056757600080fd5b50565b6000815190506200057b8162000550565b92915050565b6000602082840312156200059a576200059962000432565b5b6000620005aa848285016200056a565b91505092915050565b6000620005c08262000457565b9050919050565b620005d281620005b3565b8114620005de57600080fd5b50565b600081519050620005f281620005c7565b92915050565b60006020828403121562000611576200061062000432565b5b60006200062184828501620005e1565b91505092915050565b608051610dce6200064660003960006104870152610dce6000f3fe608060405234801561001057600080fd5b50600436106100a95760003560e01c806370c69b091161007157806370c69b0914610154578063715018a6146101725780637da0a8771461017c5780638da5cb5b1461019a578063957047f6146101b8578063f2fde38b146101d6576100a9565b8063100f9bf8146100ae5780631a354dea146100cc57806342f6487a146100e857806356397c3514610106578063572b6c0514610124575b600080fd5b6100b66101f2565b6040516100c391906107ee565b60405180910390f35b6100e660048036038101906100e1919061092d565b610218565b005b6100f06103be565b6040516100fd91906109db565b60405180910390f35b61010e6103e4565b60405161011b9190610a17565b60405180910390f35b61013e60048036038101906101399190610a32565b61040a565b60405161014b9190610a7a565b60405180910390f35b61015c610449565b6040516101699190610ab6565b60405180910390f35b61017a61046f565b005b610184610483565b6040516101919190610ae0565b60405180910390f35b6101a26104ab565b6040516101af9190610ae0565b60405180910390f35b6101c06104d4565b6040516101cd9190610b1c565b60405180910390f35b6101f060048036038101906101eb9190610a32565b6104fa565b005b600160009054906101000a900473ffffffffffffffffffffffffffffffffffffffff1681565b600260009054906101000a900473ffffffffffffffffffffffffffffffffffffffff1673ffffffffffffffffffffffffffffffffffffffff1663c0e7564361025e610580565b8888888888886040518863ffffffff1660e01b81526004016102869796959493929190610b73565b600060405180830381600087803b1580156102a057600080fd5b505af11580156102b4573d6000803e3d6000fd5b505050506000600360009054906101000a900473ffffffffffffffffffffffffffffffffffffffff1673ffffffffffffffffffffffffffffffffffffffff166306ba53eb88610301610580565b6040518363ffffffff1660e01b815260040161031e929190610be2565b6020604051808303816000875af115801561033d573d6000803e3d6000fd5b505050506040513d601f19601f820116820180604052508101906103619190610c20565b90508061036c610580565b73ffffffffffffffffffffffffffffffffffffffff168863ffffffff167f93d5ce83d5003c50530ce3ba909117e891a291673b4c335ecbea6ab7c2f1b70360405160405180910390a450505050505050565b600260009054906101000a900473ffffffffffffffffffffffffffffffffffffffff1681565b600360009054906101000a900473ffffffffffffffffffffffffffffffffffffffff1681565b6000610414610483565b73ffffffffffffffffffffffffffffffffffffffff168273ffffffffffffffffffffffffffffffffffffffff16149050919050565b600560009054906101000a900473ffffffffffffffffffffffffffffffffffffffff1681565b61047761058f565b6104816000610616565b565b60007f0000000000000000000000000000000000000000000000000000000000000000905090565b60008060009054906101000a900473ffffffffffffffffffffffffffffffffffffffff16905090565b600460009054906101000a900473ffffffffffffffffffffffffffffffffffffffff1681565b61050261058f565b600073ffffffffffffffffffffffffffffffffffffffff168173ffffffffffffffffffffffffffffffffffffffff16036105745760006040517f1e4fbdf700000000000000000000000000000000000000000000000000000000815260040161056b9190610ae0565b60405180910390fd5b61057d81610616565b50565b600061058a6106da565b905090565b610597610580565b73ffffffffffffffffffffffffffffffffffffffff166105b56104ab565b73ffffffffffffffffffffffffffffffffffffffff1614610614576105d8610580565b6040517f118cdaa700000000000000000000000000000000000000000000000000000000815260040161060b9190610ae0565b60405180910390fd5b565b60008060009054906101000a900473ffffffffffffffffffffffffffffffffffffffff169050816000806101000a81548173ffffffffffffffffffffffffffffffffffffffff021916908373ffffffffffffffffffffffffffffffffffffffff1602179055508173ffffffffffffffffffffffffffffffffffffffff168173ffffffffffffffffffffffffffffffffffffffff167f8be0079c531659141344cd1fd0a4f28419497f9722a3daafe3b4186f6b6457e060405160405180910390a35050565b6000806000369050905060006106ee61074f565b90506106f93361040a565b80156107055750808210155b1561073f5760003682846107199190610c7c565b90809261072893929190610cba565b906107339190610d39565b60601c9250505061074c565b61074761075e565b925050505b90565b6000610759610766565b905090565b600033905090565b60006014905090565b600073ffffffffffffffffffffffffffffffffffffffff82169050919050565b6000819050919050565b60006107b46107af6107aa8461076f565b61078f565b61076f565b9050919050565b60006107c682610799565b9050919050565b60006107d8826107bb565b9050919050565b6107e8816107cd565b82525050565b600060208201905061080360008301846107df565b92915050565b600080fd5b600063ffffffff82169050919050565b6108278161080e565b811461083257600080fd5b50565b6000813590506108448161081e565b92915050565b60006108558261076f565b9050919050565b6108658161084a565b811461087057600080fd5b50565b6000813590506108828161085c565b92915050565b6000819050919050565b61089b81610888565b81146108a657600080fd5b50565b6000813590506108b881610892565b92915050565b600060ff82169050919050565b6108d4816108be565b81146108df57600080fd5b50565b6000813590506108f1816108cb565b92915050565b6000819050919050565b61090a816108f7565b811461091557600080fd5b50565b60008135905061092781610901565b92915050565b60008060008060008060c0878903121561094a57610949610809565b5b600061095889828a01610835565b965050602061096989828a01610873565b955050604061097a89828a016108a9565b945050606061098b89828a016108e2565b935050608061099c89828a01610918565b92505060a06109ad89828a01610918565b9150509295509295509295565b60006109c5826107bb565b9050919050565b6109d5816109ba565b82525050565b60006020820190506109f060008301846109cc565b92915050565b6000610a01826107bb565b9050919050565b610a11816109f6565b82525050565b6000602082019050610a2c6000830184610a08565b92915050565b600060208284031215610a4857610a47610809565b5b6000610a5684828501610873565b91505092915050565b60008115159050919050565b610a7481610a5f565b82525050565b6000602082019050610a8f6000830184610a6b565b92915050565b6000610aa0826107bb565b9050919050565b610ab081610a95565b82525050565b6000602082019050610acb6000830184610aa7565b92915050565b610ada8161084a565b82525050565b6000602082019050610af56000830184610ad1565b92915050565b6000610b06826107bb565b9050919050565b610b1681610afb565b82525050565b6000602082019050610b316000830184610b0d565b92915050565b610b408161080e565b82525050565b610b4f81610888565b82525050565b610b5e816108be565b82525050565b610b6d816108f7565b82525050565b600060e082019050610b88600083018a610ad1565b610b956020830189610b37565b610ba26040830188610ad1565b610baf6060830187610b46565b610bbc6080830186610b55565b610bc960a0830185610b64565b610bd660c0830184610b64565b98975050505050505050565b6000604082019050610bf76000830185610b37565b610c046020830184610ad1565b9392505050565b600081519050610c1a81610892565b92915050565b600060208284031215610c3657610c35610809565b5b6000610c4484828501610c0b565b91505092915050565b7f4e487b7100000000000000000000000000000000000000000000000000000000600052601160045260246000fd5b6000610c8782610888565b9150610c9283610888565b9250828203905081811115610caa57610ca9610c4d565b5b92915050565b600080fd5b600080fd5b60008085851115610cce57610ccd610cb0565b5b83861115610cdf57610cde610cb5565b5b6001850283019150848603905094509492505050565b600082905092915050565b60007fffffffffffffffffffffffffffffffffffffffff00000000000000000000000082169050919050565b600082821b905092915050565b6000610d458383610cf5565b82610d508135610d00565b92506014821015610d9057610d8b7fffffffffffffffffffffffffffffffffffffffff00000000000000000000000083601403600802610d2c565b831692505b50509291505056fea2646970667358221220062e5e1b1e6bb3e589d146e94c7a1361994e8507e11fbab110649ec1795aa1a464736f6c63430008150033",
  "linkReferences": {},
  "deployedLinkReferences": {}
}