{
    "_format": "hh-sol-artifact-1",
    "contractName": "Ledger",
    "sourceName": "contracts/Ledger.sol",
    "abi": [
        {
            "inputs": [
                {
                    "internalType": "address",
                    "name": "forwarderAddress",
                    "type": "address"
                }
            ],
            "stateMutability": "nonpayable",
            "type": "constructor"
        },
        {
            "inputs": [
                {
                    "internalType": "address",
                    "name": "sender",
                    "type": "address"
                },
                {
                    "internalType": "uint256",
                    "name": "tokenId",
                    "type": "uint256"
                },
                {
                    "internalType": "address",
                    "name": "owner",
                    "type": "address"
                }
            ],
            "name": "ERC721IncorrectOwner",
            "type": "error"
        },
        {
            "inputs": [
                {
                    "internalType": "address",
                    "name": "operator",
                    "type": "address"
                },
                {
                    "internalType": "uint256",
                    "name": "tokenId",
                    "type": "uint256"
                }
            ],
            "name": "ERC721InsufficientApproval",
            "type": "error"
        },
        {
            "inputs": [
                {
                    "internalType": "address",
                    "name": "approver",
                    "type": "address"
                }
            ],
            "name": "ERC721InvalidApprover",
            "type": "error"
        },
        {
            "inputs": [
                {
                    "internalType": "address",
                    "name": "operator",
                    "type": "address"
                }
            ],
            "name": "ERC721InvalidOperator",
            "type": "error"
        },
        {
            "inputs": [
                {
                    "internalType": "address",
                    "name": "owner",
                    "type": "address"
                }
            ],
            "name": "ERC721InvalidOwner",
            "type": "error"
        },
        {
            "inputs": [
                {
                    "internalType": "address",
                    "name": "receiver",
                    "type": "address"
                }
            ],
            "name": "ERC721InvalidReceiver",
            "type": "error"
        },
        {
            "inputs": [
                {
                    "internalType": "address",
                    "name": "sender",
                    "type": "address"
                }
            ],
            "name": "ERC721InvalidSender",
            "type": "error"
        },
        {
            "inputs": [
                {
                    "internalType": "uint256",
                    "name": "tokenId",
                    "type": "uint256"
                }
            ],
            "name": "ERC721NonexistentToken",
            "type": "error"
        },
        {
            "inputs": [
                {
                    "internalType": "address",
                    "name": "owner",
                    "type": "address"
                }
            ],
            "name": "OwnableInvalidOwner",
            "type": "error"
        },
        {
            "inputs": [
                {
                    "internalType": "address",
                    "name": "account",
                    "type": "address"
                }
            ],
            "name": "OwnableUnauthorizedAccount",
            "type": "error"
        },
        {
            "anonymous": false,
            "inputs": [
                {
                    "indexed": true,
                    "internalType": "address",
                    "name": "owner",
                    "type": "address"
                },
                {
                    "indexed": true,
                    "internalType": "address",
                    "name": "approved",
                    "type": "address"
                },
                {
                    "indexed": true,
                    "internalType": "uint256",
                    "name": "tokenId",
                    "type": "uint256"
                }
            ],
            "name": "Approval",
            "type": "event"
        },
        {
            "anonymous": false,
            "inputs": [
                {
                    "indexed": true,
                    "internalType": "address",
                    "name": "owner",
                    "type": "address"
                },
                {
                    "indexed": true,
                    "internalType": "address",
                    "name": "operator",
                    "type": "address"
                },
                {
                    "indexed": false,
                    "internalType": "bool",
                    "name": "approved",
                    "type": "bool"
                }
            ],
            "name": "ApprovalForAll",
            "type": "event"
        },
        {
            "anonymous": false,
            "inputs": [
                {
                    "indexed": true,
                    "internalType": "address",
                    "name": "previousOwner",
                    "type": "address"
                },
                {
                    "indexed": true,
                    "internalType": "address",
                    "name": "newOwner",
                    "type": "address"
                }
            ],
            "name": "OwnershipTransferred",
            "type": "event"
        },
        {
            "anonymous": false,
            "inputs": [
                {
                    "indexed": true,
                    "internalType": "address",
                    "name": "from",
                    "type": "address"
                },
                {
                    "indexed": true,
                    "internalType": "address",
                    "name": "to",
                    "type": "address"
                },
                {
                    "indexed": true,
                    "internalType": "uint256",
                    "name": "tokenId",
                    "type": "uint256"
                }
            ],
            "name": "Transfer",
            "type": "event"
        },
        {
            "inputs": [
                {
                    "internalType": "address",
                    "name": "to",
                    "type": "address"
                },
                {
                    "internalType": "uint256",
                    "name": "tokenId",
                    "type": "uint256"
                }
            ],
            "name": "approve",
            "outputs": [],
            "stateMutability": "nonpayable",
            "type": "function"
        },
        {
            "inputs": [
                {
                    "internalType": "address",
                    "name": "owner",
                    "type": "address"
                }
            ],
            "name": "balanceOf",
            "outputs": [
                {
                    "internalType": "uint256",
                    "name": "",
                    "type": "uint256"
                }
            ],
            "stateMutability": "view",
            "type": "function"
        },
        {
            "inputs": [
                {
                    "internalType": "uint256",
                    "name": "tokenId",
                    "type": "uint256"
                }
            ],
            "name": "getApproved",
            "outputs": [
                {
                    "internalType": "address",
                    "name": "",
                    "type": "address"
                }
            ],
            "stateMutability": "view",
            "type": "function"
        },
        {
            "inputs": [
                {
                    "internalType": "address",
                    "name": "buyer",
                    "type": "address"
                },
                {
                    "internalType": "uint32",
                    "name": "itemID",
                    "type": "uint32"
                },
                {
                    "internalType": "uint256",
                    "name": "timestamp",
                    "type": "uint256"
                }
            ],
            "name": "getPurchaseID",
            "outputs": [
                {
                    "internalType": "uint256",
                    "name": "tokenID",
                    "type": "uint256"
                }
            ],
            "stateMutability": "pure",
            "type": "function"
        },
        {
            "inputs": [
                {
                    "internalType": "address",
                    "name": "owner",
                    "type": "address"
                },
                {
                    "internalType": "address",
                    "name": "operator",
                    "type": "address"
                }
            ],
            "name": "isApprovedForAll",
            "outputs": [
                {
                    "internalType": "bool",
                    "name": "",
                    "type": "bool"
                }
            ],
            "stateMutability": "view",
            "type": "function"
        },
        {
            "inputs": [
                {
                    "internalType": "address",
                    "name": "forwarder",
                    "type": "address"
                }
            ],
            "name": "isTrustedForwarder",
            "outputs": [
                {
                    "internalType": "bool",
                    "name": "",
                    "type": "bool"
                }
            ],
            "stateMutability": "view",
            "type": "function"
        },
        {
            "inputs": [
                {
                    "internalType": "uint32",
                    "name": "itemID",
                    "type": "uint32"
                },
                {
                    "internalType": "address",
                    "name": "buyer",
                    "type": "address"
                }
            ],
            "name": "logPurchase",
            "outputs": [
                {
                    "internalType": "uint256",
                    "name": "tokenID",
                    "type": "uint256"
                }
            ],
            "stateMutability": "nonpayable",
            "type": "function"
        },
        {
            "inputs": [],
            "name": "name",
            "outputs": [
                {
                    "internalType": "string",
                    "name": "",
                    "type": "string"
                }
            ],
            "stateMutability": "view",
            "type": "function"
        },
        {
            "inputs": [],
            "name": "owner",
            "outputs": [
                {
                    "internalType": "address",
                    "name": "",
                    "type": "address"
                }
            ],
            "stateMutability": "view",
            "type": "function"
        },
        {
            "inputs": [
                {
                    "internalType": "uint256",
                    "name": "tokenId",
                    "type": "uint256"
                }
            ],
            "name": "ownerOf",
            "outputs": [
                {
                    "internalType": "address",
                    "name": "",
                    "type": "address"
                }
            ],
            "stateMutability": "view",
            "type": "function"
        },
        {
            "inputs": [
                {
                    "internalType": "uint256",
                    "name": "",
                    "type": "uint256"
                }
            ],
            "name": "purchases",
            "outputs": [
                {
                    "internalType": "uint256",
                    "name": "tokenID",
                    "type": "uint256"
                },
                {
                    "internalType": "uint32",
                    "name": "itemID",
                    "type": "uint32"
                },
                {
                    "internalType": "address",
                    "name": "buyer",
                    "type": "address"
                },
                {
                    "internalType": "uint256",
                    "name": "timestamp",
                    "type": "uint256"
                }
            ],
            "stateMutability": "view",
            "type": "function"
        },
        {
            "inputs": [],
            "name": "renounceOwnership",
            "outputs": [],
            "stateMutability": "nonpayable",
            "type": "function"
        },
        {
            "inputs": [
                {
                    "internalType": "address",
                    "name": "from",
                    "type": "address"
                },
                {
                    "internalType": "address",
                    "name": "to",
                    "type": "address"
                },
                {
                    "internalType": "uint256",
                    "name": "tokenId",
                    "type": "uint256"
                }
            ],
            "name": "safeTransferFrom",
            "outputs": [],
            "stateMutability": "nonpayable",
            "type": "function"
        },
        {
            "inputs": [
                {
                    "internalType": "address",
                    "name": "from",
                    "type": "address"
                },
                {
                    "internalType": "address",
                    "name": "to",
                    "type": "address"
                },
                {
                    "internalType": "uint256",
                    "name": "tokenId",
                    "type": "uint256"
                },
                {
                    "internalType": "bytes",
                    "name": "data",
                    "type": "bytes"
                }
            ],
            "name": "safeTransferFrom",
            "outputs": [],
            "stateMutability": "nonpayable",
            "type": "function"
        },
        {
            "inputs": [
                {
                    "internalType": "address",
                    "name": "operator",
                    "type": "address"
                },
                {
                    "internalType": "bool",
                    "name": "approved",
                    "type": "bool"
                }
            ],
            "name": "setApprovalForAll",
            "outputs": [],
            "stateMutability": "nonpayable",
            "type": "function"
        },
        {
            "inputs": [
                {
                    "internalType": "address",
                    "name": "storeAddress",
                    "type": "address"
                }
            ],
            "name": "setStore",
            "outputs": [],
            "stateMutability": "nonpayable",
            "type": "function"
        },
        {
            "inputs": [
                {
                    "internalType": "bytes4",
                    "name": "interfaceId",
                    "type": "bytes4"
                }
            ],
            "name": "supportsInterface",
            "outputs": [
                {
                    "internalType": "bool",
                    "name": "",
                    "type": "bool"
                }
            ],
            "stateMutability": "view",
            "type": "function"
        },
        {
            "inputs": [],
            "name": "symbol",
            "outputs": [
                {
                    "internalType": "string",
                    "name": "",
                    "type": "string"
                }
            ],
            "stateMutability": "view",
            "type": "function"
        },
        {
            "inputs": [
                {
                    "internalType": "uint256",
                    "name": "tokenId",
                    "type": "uint256"
                }
            ],
            "name": "tokenURI",
            "outputs": [
                {
                    "internalType": "string",
                    "name": "",
                    "type": "string"
                }
            ],
            "stateMutability": "view",
            "type": "function"
        },
        {
            "inputs": [
                {
                    "internalType": "address",
                    "name": "from",
                    "type": "address"
                },
                {
                    "internalType": "address",
                    "name": "to",
                    "type": "address"
                },
                {
                    "internalType": "uint256",
                    "name": "tokenId",
                    "type": "uint256"
                }
            ],
            "name": "transferFrom",
            "outputs": [],
            "stateMutability": "nonpayable",
            "type": "function"
        },
        {
            "inputs": [
                {
                    "internalType": "address",
                    "name": "newOwner",
                    "type": "address"
                }
            ],
            "name": "transferOwnership",
            "outputs": [],
            "stateMutability": "nonpayable",
            "type": "function"
        },
        {
            "inputs": [],
            "name": "trustedForwarder",
            "outputs": [
                {
                    "internalType": "address",
                    "name": "",
                    "type": "address"
                }
            ],
            "stateMutability": "view",
            "type": "function"
        }
    ],
    "bytecode": "0x60a06040523462000040576200001e620000186200011f565b62000229565b6200002862000046565b6128f462000779823960805181610e7b01526128f490f35b6200004c565b60405190565b600080fd5b601f801991011690565b634e487b7160e01b600052604160045260246000fd5b906200007d9062000051565b810190811060018060401b038211176200009657604052565b6200005b565b90620000b3620000ab62000046565b928362000071565b565b600080fd5b60018060a01b031690565b620000d090620000ba565b90565b620000de81620000c5565b03620000e657565b600080fd5b90505190620000fa82620000d3565b565b9060208282031262000119576200011691600001620000eb565b90565b620000b5565b620001426200306d8038038062000136816200009c565b928339810190620000fc565b90565b60018060401b03811162000164576200016060209162000051565b0190565b6200005b565b90620001806200017a8362000145565b6200009c565b918252565b60007f4c65646765720000000000000000000000000000000000000000000000000000910152565b620001b960066200016a565b90620001c86020830162000185565b565b620001d4620001ad565b90565b60007f4c45444700000000000000000000000000000000000000000000000000000000910152565b6200020b60046200016a565b906200021a60208301620001d7565b565b62000226620001ff565b90565b6200024c9062000238620001ca565b90620002436200021c565b339192620004f4565b565b5190565b634e487b7160e01b600052602260045260246000fd5b90600160028304921680156200028b575b60208310146200028557565b62000252565b91607f169162000279565b600052602060002090565b601f602091010490565b1b90565b91906008620002cf910291620002c860001984620002ab565b92620002ab565b9181191691161790565b90565b90565b620002f8620002f2620002fe92620002d9565b620002dc565b620002d9565b90565b90565b91906200031f620003196200032893620002df565b62000301565b908354620002af565b9055565b600090565b6200034791620003406200032c565b9162000304565b565b5b81811062000356575050565b8062000366600060019362000331565b016200034a565b9190601f81116200037e575b505050565b6200038d620003b89362000296565b9060206200039b84620002a1565b83019310620003c1575b620003b090620002a1565b019062000349565b38808062000379565b9150620003b081929050620003a5565b1c90565b90620003e89060001990600802620003d1565b191690565b81620003f991620003d5565b906002021790565b906200040d816200024e565b9060018060401b038211620004e05762000434826200042d855462000268565b856200036d565b602090601f83116001146200046e579180916200045c9360009262000461575b5050620003ed565b90555b565b9091500151388062000454565b601f198316916200047f8562000296565b9260005b818110620004c757509160029391856001969410620004aa575b505050020190556200045f565b620004bc910151601f841690620003d5565b90553880806200049d565b9193602060018192878701518155019501920162000483565b6200005b565b90620004f29162000401565b565b6200050962000519946200051193946200051b565b6001620004e6565b6002620004e6565b565b90620005279162000529565b565b90620005359162000537565b565b90620005439162000545565b565b90620005519162000553565b565b906200055f9162000561565b565b6200056c916200056e565b565b906200057a90620005d9565b608052565b90565b6200059b62000595620005a1926200057f565b620002dc565b620000ba565b90565b620005af9062000582565b90565b620005bd90620000c5565b9052565b9190620005d790600060208501940190620005b2565b565b80620005fb620005f4620005ee6000620005a4565b620000c5565b91620000c5565b146200060e576200060c906200070b565b565b6200063f6200061e6000620005a4565b6200062862000046565b918291631e4fbdf760e01b835260048301620005c1565b0390fd5b60001c90565b60018060a01b031690565b62000663620006699162000643565b62000649565b90565b62000678905462000654565b90565b60001b90565b906200069460018060a01b03916200067b565b9181191691161790565b620006b7620006b1620006bd92620000ba565b620002dc565b620000ba565b90565b620006cb906200069e565b90565b620006d990620006c0565b90565b90565b90620006f9620006f36200070192620006ce565b620006dc565b825462000681565b9055565b60000190565b6200071760006200066c565b62000724826000620006df565b906200075c620007557f8be0079c531659141344cd1fd0a4f28419497f9722a3daafe3b4186f6b6457e093620006ce565b91620006ce565b916200076762000046565b80620007738162000705565b0390a356fe60806040526004361015610013575b610c2d565b61001e60003561017d565b806301ffc9a71461017857806306ba53eb1461017357806306fdde031461016e578063081812fc14610169578063087cbd4014610164578063095ea7b31461015f57806323b872dd1461015a57806342842e0e14610155578063572b6c05146101505780636352211e1461014b57806370a0823114610146578063715018a6146101415780637da0a8771461013c5780638392fe31146101375780638da5cb5b1461013257806395d89b411461012d578063a22cb46514610128578063b88d4fde14610123578063c1a2c1b81461011e578063c87b56dd14610119578063e985e9c5146101145763f2fde38b0361000e57610bfa565b610bc4565b610b61565b610b2b565b610ab9565b61093f565b6108b8565b610883565b61084a565b6106cb565b610698565b610663565b61062e565b6105f9565b6105c5565b610591565b610522565b6104c1565b610467565b6103cc565b610300565b61020f565b60e01c90565b60405190565b600080fd5b600080fd5b600080fd5b63ffffffff60e01b1690565b6101ad81610198565b036101b457565b600080fd5b905035906101c6826101a4565b565b906020828203126101e2576101df916000016101b9565b90565b61018e565b151590565b6101f5906101e7565b9052565b919061020d906000602085019401906101ec565b565b3461023f5761023b61022a6102253660046101c8565b610ec8565b610232610183565b918291826101f9565b0390f35b610189565b63ffffffff1690565b61025681610244565b0361025d57565b600080fd5b9050359061026f8261024d565b565b60018060a01b031690565b61028590610271565b90565b6102918161027c565b0361029857565b600080fd5b905035906102aa82610288565b565b91906040838203126102d557806102c96102d29260008601610262565b9360200161029d565b90565b61018e565b90565b6102e6906102da565b9052565b91906102fe906000602085019401906102dd565b565b346103315761032d61031c6103163660046102ac565b906124b5565b610324610183565b918291826102ea565b0390f35b610189565b600091031261034157565b61018e565b5190565b60209181520190565b60005b838110610367575050906000910152565b806020918301518185015201610356565b601f801991011690565b6103a16103aa6020936103af9361039881610346565b9384809361034a565b95869101610353565b610378565b0190565b6103c99160208201916000818403910152610382565b90565b346103fc576103dc366004610336565b6103f86103e76110f4565b6103ef610183565b918291826103b3565b0390f35b610189565b61040a816102da565b0361041157565b600080fd5b9050359061042382610401565b565b9060208282031261043f5761043c91600001610416565b90565b61018e565b61044d9061027c565b9052565b919061046590600060208501940190610444565b565b346104975761049361048261047d366004610425565b61129f565b61048a610183565b91829182610451565b0390f35b610189565b906020828203126104b6576104b39160000161029d565b90565b61018e565b60000190565b346104ef576104d96104d436600461049c565b6122b7565b6104e1610183565b806104eb816104bb565b0390f35b610189565b919060408382031261051d578061051161051a926000860161029d565b93602001610416565b90565b61018e565b346105515761053b6105353660046104f4565b90611289565b610543610183565b8061054d816104bb565b0390f35b610189565b909160608284031261058c57610589610572846000850161029d565b93610580816020860161029d565b93604001610416565b90565b61018e565b346105c0576105aa6105a4366004610556565b91611386565b6105b2610183565b806105bc816104bb565b0390f35b610189565b346105f4576105de6105d8366004610556565b9161143c565b6105e6610183565b806105f0816104bb565b0390f35b610189565b346106295761062561061461060f36600461049c565b610ea2565b61061c610183565b918291826101f9565b0390f35b610189565b3461065e5761065a610649610644366004610425565b610fbc565b610651610183565b91829182610451565b0390f35b610189565b346106935761068f61067e61067936600461049c565b610f4d565b610686610183565b918291826102ea565b0390f35b610189565b346106c6576106a8366004610336565b6106b0610cbf565b6106b8610183565b806106c2816104bb565b0390f35b610189565b346106fb576106db366004610336565b6106f76106e6610e70565b6106ee610183565b91829182610451565b0390f35b610189565b90565b61071761071261071c926102da565b610700565b6102da565b90565b9061072990610703565b600052602052604060002090565b60001c90565b90565b61074c61075191610737565b61073d565b90565b61075e9054610740565b90565b63ffffffff1690565b61077661077b91610737565b610761565b90565b610788905461076a565b90565b60201c90565b60018060a01b031690565b6107a86107ad9161078b565b610791565b90565b6107ba905461079c565b90565b6107c890600761071f565b906107d560008301610754565b916107e26001820161077e565b916107fb60026107f4600185016107b0565b9301610754565b90565b61080790610244565b9052565b6108416108489461083760609498979561082d608086019a60008701906102dd565b60208501906107fe565b6040830190610444565b01906102dd565b565b3461087e5761087a610865610860366004610425565b6107bd565b90610871949294610183565b9485948561080b565b0390f35b610189565b346108b357610893366004610336565b6108af61089e610c58565b6108a6610183565b91829182610451565b0390f35b610189565b346108e8576108c8366004610336565b6108e46108d361110a565b6108db610183565b918291826103b3565b0390f35b610189565b6108f6816101e7565b036108fd57565b600080fd5b9050359061090f826108ed565b565b919060408382031261093a578061092e610937926000860161029d565b93602001610902565b90565b61018e565b3461096e57610958610952366004610911565b906112be565b610960610183565b8061096a816104bb565b0390f35b610189565b600080fd5b600080fd5b634e487b7160e01b600052604160045260246000fd5b9061099d90610378565b810190811067ffffffffffffffff8211176109b757604052565b61097d565b906109cf6109c8610183565b9283610993565b565b67ffffffffffffffff81116109ef576109eb602091610378565b0190565b61097d565b90826000939282370152565b90929192610a15610a10826109d1565b6109bc565b93818552602085019082840111610a3157610a2f926109f4565b565b610978565b9080601f83011215610a5457816020610a5193359101610a00565b90565b610973565b90608082820312610ab457610a71816000840161029d565b92610a7f826020850161029d565b92610a8d8360408301610416565b92606082013567ffffffffffffffff8111610aaf57610aac9201610a36565b90565b610193565b61018e565b34610aeb57610ad5610acc366004610a59565b92919091611452565b610add610183565b80610ae7816104bb565b0390f35b610189565b9091606082840312610b2657610b23610b0c846000850161029d565b93610b1a8160208601610262565b93604001610416565b90565b61018e565b34610b5c57610b58610b47610b41366004610af0565b9161265c565b610b4f610183565b918291826102ea565b0390f35b610189565b34610b9157610b8d610b7c610b77366004610425565b611207565b610b84610183565b918291826103b3565b0390f35b610189565b9190604083820312610bbf5780610bb3610bbc926000860161029d565b9360200161029d565b90565b61018e565b34610bf557610bf1610be0610bda366004610b96565b9061132b565b610be8610183565b918291826101f9565b0390f35b610189565b34610c2857610c12610c0d36600461049c565b610d8c565b610c1a610183565b80610c24816104bb565b0390f35b610189565b600080fd5b600090565b610c43610c4891610737565b610791565b90565b610c559054610c37565b90565b610c60610c32565b50610c6b6000610c4b565b90565b610c76610cc9565b610c7e610cab565b565b90565b610c97610c92610c9c92610c80565b610700565b610271565b90565b610ca890610c83565b90565b610cbd610cb86000610c9f565b610e0f565b565b610cc7610c6e565b565b610cd1610c58565b610cea610ce4610cdf6126b1565b61027c565b9161027c565b03610cf157565b610d1a610cfc6126b1565b610d04610183565b91829163118cdaa760e01b835260048301610451565b0390fd5b610d2f90610d2a610cc9565b610d31565b565b80610d4d610d47610d426000610c9f565b61027c565b9161027c565b14610d5d57610d5b90610e0f565b565b610d88610d6a6000610c9f565b610d72610183565b918291631e4fbdf760e01b835260048301610451565b0390fd5b610d9590610d1e565b565b60001b90565b90610dae60018060a01b0391610d97565b9181191691161790565b610dcc610dc7610dd192610271565b610700565b610271565b90565b610ddd90610db8565b90565b610de990610dd4565b90565b90565b90610e04610dff610e0b92610de0565b610dec565b8254610d9d565b9055565b610e196000610c4b565b610e24826000610def565b90610e58610e527f8be0079c531659141344cd1fd0a4f28419497f9722a3daafe3b4186f6b6457e093610de0565b91610de0565b91610e61610183565b80610e6b816104bb565b0390a3565b610e78610c32565b507f000000000000000000000000000000000000000000000000000000000000000090565b600090565b610eaa610e9d565b50610ec4610ebe610eb9610e70565b61027c565b9161027c565b1490565b610ed0610e9d565b5080610eeb610ee56380ac58cd60e01b610198565b91610198565b148015610f0f575b908115610eff575b5090565b610f099150611e9b565b38610efb565b5080610f2a610f24635b5e139f60e01b610198565b91610198565b14610ef3565b600090565b90610f3f90610de0565b600052602052604060002090565b610f55610f30565b5080610f72610f6c610f676000610c9f565b61027c565b9161027c565b14610f8d57610f85610f8a916004610f35565b610754565b90565b610fb8610f9a6000610c9f565b610fa2610183565b9182916322718ad960e21b835260048301610451565b0390fd5b610fce90610fc8610c32565b50611a7c565b90565b606090565b634e487b7160e01b600052602260045260246000fd5b906001600283049216801561100c575b602083101461100757565b610fd6565b91607f1691610ffc565b60209181520190565b600052602060002090565b906000929180549061104561103e83610fec565b8094611016565b9160018116908160001461109e5750600114611061575b505050565b61106e919293945061101f565b916000925b818410611086575050019038808061105c565b60018160209295939554848601520191019290611073565b92949550505060ff191682521515602002019038808061105c565b906110c39161102a565b90565b906110e66110df926110d6610183565b938480926110b9565b0383610993565b565b6110f1906110c6565b90565b6110fc610fd1565b5061110760016110e8565b90565b611112610fd1565b5061111d60026110e8565b90565b90565b5190565b61113b61113661114092610c80565b610700565b6102da565b90565b67ffffffffffffffff81116111615761115d602091610378565b0190565b61097d565b9061117861117383611143565b6109bc565b918252565b6111876000611166565b90565b61119261117d565b90565b905090565b6111bf6111b6926020926111ad81610346565b94858093611195565b93849101610353565b0190565b6111d1906111d7939261119a565b9061119a565b90565b6111f99291611205916111eb610183565b9485926020840192836111c3565b90810382520383610993565b565b61120f610fd1565b5061121981611a7c565b50611222611275565b9061123461122f83611120565b611123565b6112476112416000611127565b916102da565b116000146112665761125c6112629291611df1565b906111da565b5b90565b505061127061118a565b611263565b61127d610fd1565b5061128661118a565b90565b9061129d91906112976126b1565b9161181b565b565b6112bb906112ab610c32565b506112b581611a7c565b50611490565b90565b6112d2916112ca6126b1565b9190916119c3565b565b906112de90610de0565b600052602052604060002090565b906112f690610de0565b600052602052604060002090565b60ff1690565b61131661131b91610737565b611304565b90565b611328905461130a565b90565b6113509161134661134b9261133e610e9d565b5060066112d4565b6112ec565b61131e565b90565b60409061137d611384949695939661137360608401986000850190610444565b60208301906102dd565b0190610444565b565b9190806113a461139e6113996000610c9f565b61027c565b9161027c565b14611402576113bc90826113b66126b1565b91611524565b91826113d06113ca8361027c565b9161027c565b036113da57505050565b6113fe9091926113e8610183565b9384936364283d7b60e01b855260048501611353565b0390fd5b61142d61140f6000610c9f565b611417610183565b918291633250574960e11b835260048301610451565b0390fd5b61143961117d565b90565b91611450929161144a611431565b92611452565b565b91611476939161146484828491611386565b61146c6126b1565b9390919293611bf7565b565b9061148290610703565b600052602052604060002090565b6114a76114ac9161149f610c32565b506005611478565b610c4b565b90565b90565b6114c66114c16114cb926114af565b610700565b6102da565b90565b906114d991036102da565b90565b906114e960001991610d97565b9181191691161790565b90565b9061150b61150661151292610703565b6114f3565b82546114dc565b9055565b9061152191016102da565b90565b9061152d610c32565b50611537816116ab565b928061155461154e6115496000610c9f565b61027c565b9161027c565b03611698575b508261157761157161156c6000610c9f565b61027c565b9161027c565b03611641575b8161159961159361158e6000610c9f565b61027c565b9161027c565b0361160b575b6115b4826115af60038490611478565b610def565b82916115f26115ec6115e67fddf252ad1be2c89b69c2b068fc378daa952ba7f163c4a11628f55a4df523b3ef95610de0565b92610de0565b92610703565b926115fb610183565b80611605816104bb565b0390a490565b61163c61161860016114b2565b61163661162760048690610f35565b9161163183610754565b611516565b906114f6565b61159f565b61166261164e6000610c9f565b826116596000610c9f565b9060009261182b565b61169361166f60016114b2565b61168d61167e60048790610f35565b9161168883610754565b6114ce565b906114f6565b61157d565b6116a590849083916116ee565b3861155a565b6116c26116c7916116ba610c32565b506003611478565b610c4b565b90565b9160206116ec9294936116e560408201966000830190610444565b01906102dd565b565b6117036116fd8284869161177a565b156101e7565b61170c57505050565b61172761172161171c6000610c9f565b61027c565b9161027c565b14600014611755576117518261173b610183565b918291637e27328960e01b8352600483016102ea565b0390fd5b611776611760610183565b92839263177e802f60e01b8452600484016116ca565b0390fd5b9190611784610e9d565b50806117a161179b6117966000610c9f565b61027c565b9161027c565b141592836117b0575b50505090565b80919293506117c76117c18461027c565b9161027c565b14908115611809575b509182156117e3575b50503880806117aa565b6118019192506117f56117fb91611490565b9261027c565b9161027c565b1438806117d9565b6118159150829061132b565b386117d0565b91611829929160019261182b565b565b91909280801561195a575b611854575b50509061184d61185292916005611478565b610def565b565b61185d84611a7c565b918061187a61187461186f6000610c9f565b61027c565b9161027c565b14158061193f575b80611925575b6118ff57509161184d9161185294936118a4575b50919261183b565b8184906118e36118dd6118d77f8c5be1e5ebec7d5bd14f71427d1e84f3dd0314c0f7b2291e5b200ac8c7c3b92595610de0565b92610de0565b92610703565b926118ec610183565b806118f6816104bb565b0390a43861189c565b6119219061190b610183565b91829163a9fbf51f60e01b835260048301610451565b0390fd5b5061193a61193484839061132b565b156101e7565b611888565b508261195361194d8361027c565b9161027c565b1415611882565b508161197761197161196c6000610c9f565b61027c565b9161027c565b1415611836565b9061198a60ff91610d97565b9181191691161790565b61199d906101e7565b90565b90565b906119b86119b36119bf92611994565b6119a0565b825461197e565b9055565b919091826119e26119dc6119d76000610c9f565b61027c565b9161027c565b14611a5657611a0682611a016119fa600685906112d4565b86906112ec565b6119a3565b919091611a51611a3f611a397f17307eab39ab6107e8899845ad3d59bd9653f200f220920489ca2b5937696c3193610de0565b93610de0565b93611a48610183565b918291826101f9565b0390a3565b611a7883611a62610183565b918291630b61174360e31b835260048301610451565b0390fd5b611a84610c32565b50611a8e816116ab565b9081611aab611aa5611aa06000610c9f565b61027c565b9161027c565b14611ab4575090565b611ad690611ac0610183565b918291637e27328960e01b8352600483016102ea565b0390fd5b611ae390610db8565b90565b611aef90611ada565b90565b611afb90610dd4565b90565b60e01b90565b90505190611b11826101a4565b565b90602082820312611b2d57611b2a91600001611b04565b90565b61018e565b60209181520190565b611b5a611b63602093611b6893611b5181611123565b93848093611b32565b95869101610353565b610378565b0190565b9092611ba090611b96611bad9694611b8c60808601976000870190610444565b6020850190610444565b60408301906102dd565b6060818403910152611b3b565b90565b90611bc2611bbd836109d1565b6109bc565b918252565b606090565b3d600014611be957611bdd3d611bb0565b903d6000602084013e5b565b611bf1611bc7565b90611be7565b9193843b611c0e611c086000611127565b916102da565b11611c1b575b5050505050565b611c546000602094611c5f611c37611c328a611ae6565b611af2565b9463150b7a02929698611c48610183565b998a9889978896611afe565b865260048601611b6c565b03925af18091600092611d2f575b5015600014611ce557506001611c8957505b3880808080611c14565b611c91611bcc565b90611c9b82611123565b611cae611ca86000611127565b916102da565b14600014611cdc57611cd890611cc2610183565b918291633250574960e11b835260048301610451565b0390fd5b50805190602001fd5b611cfe611cf8630a85bd0160e11b610198565b91610198565b03611d095750611c7f565b611d2b90611d15610183565b918291633250574960e11b835260048301610451565b0390fd5b611d5191925060203d8111611d58575b611d498183610993565b810190611b13565b9038611c6d565b503d611d3f565b369037565b90611d89611d7183611166565b92602080611d7f8693611143565b9201910390611d5f565b565b6001611d9791036102da565b90565b90565b611db1611dac611db692611d9a565b610700565b6102da565b90565b634e487b7160e01b600052601260045260246000fd5b611ddb611de1916102da565b916102da565b908115611dec570490565b611db9565b611df9610fd1565b50611e16611e0682612035565b611e1060016114b2565b90611516565b90611e2082611d64565b91611e29610f30565b5060200182015b600115611e9457611e43611e6f91611d8b565b916f181899199a1a9b1b9c1cb0b131b232b360811b600a82061a8353611e69600a611d9d565b90611dcf565b80611e83611e7d6000611127565b916102da565b14611e8e5790611e30565b50505b90565b5050611e91565b611ea3610e9d565b50611ebd611eb76301ffc9a760e01b610198565b91610198565b1490565b90565b611ed8611ed3611edd92611ec1565b610700565b6102da565b90565b90565b611ef7611ef2611efc92611ee0565b610700565b6102da565b90565b90565b611f16611f11611f1b92611eff565b610700565b6102da565b90565b90565b611f35611f30611f3a92611f1e565b610700565b6102da565b90565b90565b611f54611f4f611f5992611f3d565b610700565b6102da565b90565b90565b611f73611f6e611f7892611f5c565b610700565b6102da565b90565b90565b611f92611f8d611f9792611f7b565b610700565b6102da565b90565b90565b611fb1611fac611fb692611f9a565b610700565b6102da565b90565b90565b611fd0611fcb611fd592611fb9565b610700565b6102da565b90565b90565b611fef611fea611ff492611fd8565b610700565b6102da565b90565b90565b61200e61200961201392611ff7565b610700565b6102da565b90565b90565b61202d61202861203292612016565b610700565b6102da565b90565b61203d610f30565b506120486000611127565b90806120776120717a184f03e93ff9f4daa797ed6e38ed64bf6a1f010000000000000000611ec4565b916102da565b101561224f575b8061209f6120996d04ee2d6d415b85acef8100000000611f02565b916102da565b1015612214575b806120c06120ba662386f26fc10000611f40565b916102da565b10156121e0575b806120de6120d86305f5e100611f7e565b916102da565b10156121af575b806120fa6120f4612710611fbc565b916102da565b1015612180575b8061211561210f6064611ffa565b916102da565b1015612152575b61212f612129600a611d9d565b916102da565b1015612139575b90565b61214d9061214760016114b2565b90611516565b612136565b61216961217a916121636064611ffa565b90611dcf565b916121746002612019565b90611516565b9061211c565b6121986121a991612192612710611fbc565b90611dcf565b916121a36004611fdb565b90611516565b90612101565b6121c96121da916121c36305f5e100611f7e565b90611dcf565b916121d46008611f9d565b90611516565b906120e5565b6121fd61220e916121f7662386f26fc10000611f40565b90611dcf565b916122086010611f5f565b90611516565b906120c7565b612238612249916122326d04ee2d6d415b85acef8100000000611f02565b90611dcf565b916122436020611f21565b90611516565b906120a6565b6122806122919161227a7a184f03e93ff9f4daa797ed6e38ed64bf6a1f010000000000000000611ec4565b90611dcf565b9161228b6040611ee3565b90611516565b9061207e565b6122a8906122a3610cc9565b6122aa565b565b6122b5906008610def565b565b6122c090612297565b565b60007f556e617574686f72697a65642073746f72650000000000000000000000000000910152565b6122f7601260209261034a565b612300816122c2565b0190565b61231a90602081019060008183039101526122ea565b90565b1561232457565b61232c610183565b62461bcd60e51b81528061234260048201612304565b0390fd5b61235060806109bc565b90565b9061235d906102da565b9052565b9061236b90610244565b9052565b906123799061027c565b9052565b61238790516102da565b90565b6123949051610244565b90565b906123a663ffffffff91610d97565b9181191691161790565b6123c46123bf6123c992610244565b610700565b610244565b90565b90565b906123e46123df6123eb926123b0565b6123cc565b8254612397565b9055565b6123f9905161027c565b90565b60201b90565b90612418640100000000600160c01b03916123fc565b9181191691161790565b9061243761243261243e92610de0565b610dec565b8254612402565b9055565b906124a1606060026124a794612467600082016124616000880161237d565b906114f6565b6124806001820161247a6020880161238a565b906123cf565b61249960018201612493604088016123ef565b90612422565b01920161237d565b906114f6565b565b906124b391612442565b565b9190612556906124c3610f30565b506124f06124cf6126b1565b6124ea6124e46124df6008610c4b565b61027c565b9161027c565b1461231d565b61254f6124ff8286429161265c565b9461253e86916125358561252c4293612523612519612346565b9760008901612353565b60208701612361565b6040850161236f565b60608301612353565b61254a6007879061071f565b6124a9565b8390612558565b565b908161257561256f61256a6000610c9f565b61027c565b9161027c565b146125e05761258f91906125896000610c9f565b91611524565b6125aa6125a461259f6000610c9f565b61027c565b9161027c565b036125b157565b6125dc6125be6000610c9f565b6125c6610183565b9182916339e3563760e11b835260048301610451565b0390fd5b61260b6125ed6000610c9f565b6125f5610183565b918291633250574960e11b835260048301610451565b0390fd5b604090612639612640949695939661262f606084019860008501906107fe565b6020830190610444565b01906102dd565b565b60200190565b61265461265991610737565b610703565b90565b612696906126876126ae9493612670610f30565b50919361267b610183565b9485936020850161260f565b60208201810382520382610993565b6126a86126a282611123565b91612642565b20612648565b90565b6126b9610c32565b506126c26126c5565b90565b6126cd610c32565b506126d66127cb565b90565b5090565b634e487b7160e01b600052601160045260246000fd5b612702612708919392936102da565b926102da565b820391821161271357565b6126dd565b600080fd5b600080fd5b9093929384831161274257841161273d576001820201920390565b61271d565b612718565b6bffffffffffffffffffffffff191690565b1b90565b9061276b61277291836126d9565b9135612747565b9060148110612780575b5090565b61279e906bffffffffffffffffffffffff1990601403600802612759565b163861277c565b60601c90565b6127b76127bc916127a5565b610db8565b90565b6127c8906127ab565b90565b6127d3610c32565b506127e0600036906126d9565b6127e8612861565b6127f133610ea2565b80612839575b60001461282c5761281e612824916128299361281660009236926126f3565b908092612722565b9061275d565b6127bf565b90565b5050612836612854565b90565b508161284d612847836102da565b916102da565b10156127f7565b61285c610c32565b503390565b612869610f30565b50612872612875565b90565b61287d610f30565b506128866128a8565b90565b90565b6128a061289b6128a592612889565b610700565b6102da565b90565b6128b0610f30565b506128bb601461288c565b9056fea2646970667358221220dc1e089b084065ed9ce616edc67a46ec4c947b2e07297b9769a07e7e1ec0380864736f6c63430008150033",
    "linkReferences": {},
    "deployedLinkReferences": {}
}